{
  "_format": "hh-sol-artifact-1",
  "contractName": "TestableFlareDaemon",
  "sourceName": "contracts/genesis/mock/TestableFlareDaemon.sol",
  "abi": [
    {
      "anonymous": false,
      "inputs": [
        {
          "indexed": false,
          "internalType": "address",
          "name": "theContract",
          "type": "address"
        },
        {
          "indexed": false,
          "internalType": "uint256",
          "name": "atBlock",
          "type": "uint256"
        },
        {
          "indexed": false,
          "internalType": "string",
          "name": "theMessage",
          "type": "string"
        },
        {
          "indexed": false,
          "internalType": "uint256",
          "name": "gasConsumed",
          "type": "uint256"
        }
      ],
      "name": "ContractDaemonizeErrored",
      "type": "event"
    },
    {
      "anonymous": false,
      "inputs": [
        {
          "indexed": false,
          "internalType": "address",
          "name": "theContract",
          "type": "address"
        },
        {
          "indexed": false,
          "internalType": "uint256",
          "name": "gasConsumed",
          "type": "uint256"
        }
      ],
      "name": "ContractDaemonized",
      "type": "event"
    },
    {
      "anonymous": false,
      "inputs": [
        {
          "indexed": false,
          "internalType": "address",
          "name": "theContract",
          "type": "address"
        },
        {
          "indexed": false,
          "internalType": "uint256",
          "name": "blockHoldoffsRemaining",
          "type": "uint256"
        }
      ],
      "name": "ContractHeldOff",
      "type": "event"
    },
    {
      "anonymous": false,
      "inputs": [
        {
          "indexed": false,
          "internalType": "uint256",
          "name": "numberOfSkippedConstracts",
          "type": "uint256"
        }
      ],
      "name": "ContractsSkippedOutOfGas",
      "type": "event"
    },
    {
      "anonymous": false,
      "inputs": [
        {
          "indexed": false,
          "internalType": "bytes4",
          "name": "selector",
          "type": "bytes4"
        },
        {
          "indexed": false,
          "internalType": "uint256",
          "name": "allowedAfterTimestamp",
          "type": "uint256"
        },
        {
          "indexed": false,
          "internalType": "bytes",
          "name": "encodedCall",
          "type": "bytes"
        }
      ],
      "name": "GovernanceCallTimelocked",
      "type": "event"
    },
    {
      "anonymous": false,
      "inputs": [
        {
          "indexed": false,
          "internalType": "address",
          "name": "initialGovernance",
          "type": "address"
        }
      ],
      "name": "GovernanceInitialised",
      "type": "event"
    },
    {
      "anonymous": false,
      "inputs": [
        {
          "indexed": false,
          "internalType": "address",
          "name": "governanceSettings",
          "type": "address"
        }
      ],
      "name": "GovernedProductionModeEntered",
      "type": "event"
    },
    {
      "anonymous": false,
      "inputs": [
        {
          "indexed": false,
          "internalType": "contract IInflationGenesis",
          "name": "theNewContract",
          "type": "address"
        },
        {
          "indexed": false,
          "internalType": "contract IInflationGenesis",
          "name": "theOldContract",
          "type": "address"
        }
      ],
      "name": "InflationSet",
      "type": "event"
    },
    {
      "anonymous": false,
      "inputs": [
        {
          "indexed": false,
          "internalType": "uint256",
          "name": "amountWei",
          "type": "uint256"
        }
      ],
      "name": "MintingReceived",
      "type": "event"
    },
    {
      "anonymous": false,
      "inputs": [
        {
          "indexed": false,
          "internalType": "uint256",
          "name": "amountWei",
          "type": "uint256"
        }
      ],
      "name": "MintingRequestReceived",
      "type": "event"
    },
    {
      "anonymous": false,
      "inputs": [
        {
          "indexed": false,
          "internalType": "uint256",
          "name": "amountWei",
          "type": "uint256"
        }
      ],
      "name": "MintingRequestTriggered",
      "type": "event"
    },
    {
      "anonymous": false,
      "inputs": [
        {
          "indexed": false,
          "internalType": "uint256",
          "name": "amountWei",
          "type": "uint256"
        }
      ],
      "name": "MintingWithdrawn",
      "type": "event"
    },
    {
      "anonymous": false,
      "inputs": [
        {
          "indexed": false,
          "internalType": "contract IFlareDaemonize",
          "name": "theContract",
          "type": "address"
        },
        {
          "indexed": false,
          "internalType": "bool",
          "name": "add",
          "type": "bool"
        }
      ],
      "name": "RegistrationUpdated",
      "type": "event"
    },
    {
      "anonymous": false,
      "inputs": [
        {
          "indexed": false,
          "internalType": "uint256",
          "name": "amountWei",
          "type": "uint256"
        }
      ],
      "name": "SelfDestructReceived",
      "type": "event"
    },
    {
      "anonymous": false,
      "inputs": [
        {
          "indexed": false,
          "internalType": "bytes4",
          "name": "selector",
          "type": "bytes4"
        },
        {
          "indexed": false,
          "internalType": "uint256",
          "name": "timestamp",
          "type": "uint256"
        }
      ],
      "name": "TimelockedGovernanceCallCanceled",
      "type": "event"
    },
    {
      "anonymous": false,
      "inputs": [
        {
          "indexed": false,
          "internalType": "bytes4",
          "name": "selector",
          "type": "bytes4"
        },
        {
          "indexed": false,
          "internalType": "uint256",
          "name": "timestamp",
          "type": "uint256"
        }
      ],
      "name": "TimelockedGovernanceCallExecuted",
      "type": "event"
    },
    {
      "inputs": [],
      "name": "blockHoldoff",
      "outputs": [
        {
          "internalType": "uint256",
          "name": "",
          "type": "uint256"
        }
      ],
      "stateMutability": "view",
      "type": "function"
    },
    {
      "inputs": [
        {
          "internalType": "bytes4",
          "name": "_selector",
          "type": "bytes4"
        }
      ],
      "name": "cancelGovernanceCall",
      "outputs": [],
      "stateMutability": "nonpayable",
      "type": "function"
    },
    {
      "inputs": [],
      "name": "errorData",
      "outputs": [
        {
          "internalType": "uint192",
          "name": "totalDaemonizedErrors",
          "type": "uint192"
        },
        {
          "internalType": "uint64",
          "name": "lastErrorTypeIndex",
          "type": "uint64"
        }
      ],
      "stateMutability": "view",
      "type": "function"
    },
    {
      "inputs": [
        {
          "internalType": "bytes4",
          "name": "_selector",
          "type": "bytes4"
        }
      ],
      "name": "executeGovernanceCall",
      "outputs": [],
      "stateMutability": "nonpayable",
      "type": "function"
    },
    {
      "inputs": [],
      "name": "getAddressUpdater",
      "outputs": [
        {
          "internalType": "address",
          "name": "_addressUpdater",
          "type": "address"
        }
      ],
      "stateMutability": "view",
      "type": "function"
    },
    {
      "inputs": [],
      "name": "getDaemonizedContractsData",
      "outputs": [
        {
          "internalType": "contract IFlareDaemonize[]",
          "name": "_daemonizeContracts",
          "type": "address[]"
        },
        {
          "internalType": "uint256[]",
          "name": "_gasLimits",
          "type": "uint256[]"
        },
        {
          "internalType": "uint256[]",
          "name": "_blockHoldoffsRemaining",
          "type": "uint256[]"
        }
      ],
      "stateMutability": "view",
      "type": "function"
    },
    {
      "inputs": [],
      "name": "getNextMintRequestAllowedTs",
      "outputs": [
        {
          "internalType": "uint256",
          "name": "",
          "type": "uint256"
        }
      ],
      "stateMutability": "view",
      "type": "function"
    },
    {
      "inputs": [],
      "name": "governance",
      "outputs": [
        {
          "internalType": "address",
          "name": "",
          "type": "address"
        }
      ],
      "stateMutability": "view",
      "type": "function"
    },
    {
      "inputs": [],
      "name": "governanceSettings",
      "outputs": [
        {
          "internalType": "contract IGovernanceSettings",
          "name": "",
          "type": "address"
        }
      ],
      "stateMutability": "view",
      "type": "function"
    },
    {
      "inputs": [],
      "name": "inflation",
      "outputs": [
        {
          "internalType": "contract IInflationGenesis",
          "name": "",
          "type": "address"
        }
      ],
      "stateMutability": "view",
      "type": "function"
    },
    {
      "inputs": [
        {
          "internalType": "address",
          "name": "_governance",
          "type": "address"
        }
      ],
      "name": "initialise",
      "outputs": [],
      "stateMutability": "pure",
      "type": "function"
    },
    {
      "inputs": [],
      "name": "initialiseFixedAddress",
      "outputs": [
        {
          "internalType": "address",
          "name": "",
          "type": "address"
        }
      ],
      "stateMutability": "nonpayable",
      "type": "function"
    },
    {
      "inputs": [],
      "name": "lastMintRequestTs",
      "outputs": [
        {
          "internalType": "uint256",
          "name": "",
          "type": "uint256"
        }
      ],
      "stateMutability": "view",
      "type": "function"
    },
    {
      "inputs": [],
      "name": "lastUpdateMaxMintRequestTs",
      "outputs": [
        {
          "internalType": "uint256",
          "name": "",
          "type": "uint256"
        }
      ],
      "stateMutability": "view",
      "type": "function"
    },
    {
      "inputs": [],
      "name": "maxMintingRequestWei",
      "outputs": [
        {
          "internalType": "uint256",
          "name": "",
          "type": "uint256"
        }
      ],
      "stateMutability": "view",
      "type": "function"
    },
    {
      "inputs": [],
      "name": "productionMode",
      "outputs": [
        {
          "internalType": "bool",
          "name": "",
          "type": "bool"
        }
      ],
      "stateMutability": "view",
      "type": "function"
    },
    {
      "inputs": [
        {
          "components": [
            {
              "internalType": "contract IFlareDaemonize",
              "name": "daemonizedContract",
              "type": "address"
            },
            {
              "internalType": "uint256",
              "name": "gasLimit",
              "type": "uint256"
            }
          ],
          "internalType": "struct FlareDaemon.Registration[]",
          "name": "_registrations",
          "type": "tuple[]"
        }
      ],
      "name": "registerToDaemonize",
      "outputs": [],
      "stateMutability": "nonpayable",
      "type": "function"
    },
    {
      "inputs": [
        {
          "internalType": "uint256",
          "name": "_amountWei",
          "type": "uint256"
        }
      ],
      "name": "requestMinting",
      "outputs": [],
      "stateMutability": "nonpayable",
      "type": "function"
    },
    {
      "inputs": [
        {
          "internalType": "address",
          "name": "_addressUpdater",
          "type": "address"
        }
      ],
      "name": "setAddressUpdater",
      "outputs": [],
      "stateMutability": "nonpayable",
      "type": "function"
    },
    {
      "inputs": [
        {
          "internalType": "uint256",
          "name": "_blockHoldoff",
          "type": "uint256"
        }
      ],
      "name": "setBlockHoldoff",
      "outputs": [],
      "stateMutability": "nonpayable",
      "type": "function"
    },
    {
      "inputs": [
        {
          "internalType": "uint256",
          "name": "_maxMintingRequestWei",
          "type": "uint256"
        }
      ],
      "name": "setMaxMintingRequest",
      "outputs": [],
      "stateMutability": "nonpayable",
      "type": "function"
    },
    {
      "inputs": [
        {
          "internalType": "uint256",
          "name": "startIndex",
          "type": "uint256"
        },
        {
          "internalType": "uint256",
          "name": "numErrorTypesToShow",
          "type": "uint256"
        }
      ],
      "name": "showDaemonizedErrors",
      "outputs": [
        {
          "internalType": "uint256[]",
          "name": "_lastErrorBlock",
          "type": "uint256[]"
        },
        {
          "internalType": "uint256[]",
          "name": "_numErrors",
          "type": "uint256[]"
        },
        {
          "internalType": "string[]",
          "name": "_errorString",
          "type": "string[]"
        },
        {
          "internalType": "address[]",
          "name": "_erroringContract",
          "type": "address[]"
        },
        {
          "internalType": "uint256",
          "name": "_totalDaemonizedErrors",
          "type": "uint256"
        }
      ],
      "stateMutability": "view",
      "type": "function"
    },
    {
      "inputs": [],
      "name": "showLastDaemonizedError",
      "outputs": [
        {
          "internalType": "uint256[]",
          "name": "_lastErrorBlock",
          "type": "uint256[]"
        },
        {
          "internalType": "uint256[]",
          "name": "_numErrors",
          "type": "uint256[]"
        },
        {
          "internalType": "string[]",
          "name": "_errorString",
          "type": "string[]"
        },
        {
          "internalType": "address[]",
          "name": "_erroringContract",
          "type": "address[]"
        },
        {
          "internalType": "uint256",
          "name": "_totalDaemonizedErrors",
          "type": "uint256"
        }
      ],
      "stateMutability": "view",
      "type": "function"
    },
    {
      "inputs": [],
      "name": "switchToProductionMode",
      "outputs": [],
      "stateMutability": "nonpayable",
      "type": "function"
    },
    {
      "inputs": [],
      "name": "systemLastTriggeredAt",
      "outputs": [
        {
          "internalType": "uint256",
          "name": "",
          "type": "uint256"
        }
      ],
      "stateMutability": "view",
      "type": "function"
    },
    {
      "inputs": [
        {
          "internalType": "bytes4",
          "name": "",
          "type": "bytes4"
        }
      ],
      "name": "timelockedCalls",
      "outputs": [
        {
          "internalType": "uint256",
          "name": "allowedAfterTimestamp",
          "type": "uint256"
        },
        {
          "internalType": "bytes",
          "name": "encodedCall",
          "type": "bytes"
        }
      ],
      "stateMutability": "view",
      "type": "function"
    },
    {
      "inputs": [],
      "name": "totalMintingReceivedWei",
      "outputs": [
        {
          "internalType": "uint256",
          "name": "",
          "type": "uint256"
        }
      ],
      "stateMutability": "view",
      "type": "function"
    },
    {
      "inputs": [],
      "name": "totalMintingRequestedWei",
      "outputs": [
        {
          "internalType": "uint256",
          "name": "",
          "type": "uint256"
        }
      ],
      "stateMutability": "view",
      "type": "function"
    },
    {
      "inputs": [],
      "name": "totalMintingWithdrawnWei",
      "outputs": [
        {
          "internalType": "uint256",
          "name": "",
          "type": "uint256"
        }
      ],
      "stateMutability": "view",
      "type": "function"
    },
    {
      "inputs": [],
      "name": "totalSelfDestructReceivedWei",
      "outputs": [
        {
          "internalType": "uint256",
          "name": "",
          "type": "uint256"
        }
      ],
      "stateMutability": "view",
      "type": "function"
    },
    {
      "inputs": [],
      "name": "trigger",
      "outputs": [
        {
          "internalType": "uint256",
          "name": "_toMintWei",
          "type": "uint256"
        }
      ],
      "stateMutability": "nonpayable",
      "type": "function"
    },
    {
      "inputs": [
        {
          "internalType": "bytes32[]",
          "name": "_contractNameHashes",
          "type": "bytes32[]"
        },
        {
          "internalType": "address[]",
          "name": "_contractAddresses",
          "type": "address[]"
        }
      ],
      "name": "updateContractAddresses",
      "outputs": [],
      "stateMutability": "nonpayable",
      "type": "function"
    },
    {
      "stateMutability": "payable",
      "type": "receive"
    }
  ],
  "bytecode": "0x60806040523480156200001157600080fd5b5060006200001f8162000026565b506200004a565b7f714f205b2abd25bef1d06a1af944e38c113fe6160375c4e1d6d5cf28848e771955565b6136c6806200005a6000396000f3fe6080604052600436106101e75760003560e01c8063870196b811610102578063d48a38df11610095578063e9de7d6011610064578063e9de7d6014610501578063ecdda0dd14610521578063ed21b6e414610541578063f5a9838314610565576101ee565b8063d48a38df14610492578063dded1b47146104a7578063e17f212e146104bc578063e371aef0146104de576101ee565b8063aea36b53116100d1578063aea36b5314610428578063b00c0b7614610448578063be0522e014610468578063c9f960eb1461047d576101ee565b8063870196b8146103be5780638be2fb86146103de5780639d6a890f146103f3578063a6817ace14610413576101ee565b806362da19a51161017a578063689c499911610149578063689c499914610346578063729936151461036657806374e6310e1461037b5780637fec8d38146103a9576101ee565b806362da19a5146102d657806363903143146102eb57806363d4a53a1461030057806367fc402914610326576101ee565b80635267a15d116101b65780635267a15d1461026a5780635aa6e6751461028c5780635ff27079146102a157806362354e03146102c1576101ee565b806310663750146101f35780631d76dea11461021e5780634f6a77b5146102335780635042916c14610248576101ee565b366101ee57005b600080fd5b3480156101ff57600080fd5b5061020861057a565b6040516102159190613522565b60405180910390f35b34801561022a57600080fd5b50610208610580565b34801561023f57600080fd5b50610208610586565b34801561025457600080fd5b50610268610263366004613231565b61058c565b005b34801561027657600080fd5b5061027f6105d3565b6040516102159190613308565b34801561029857600080fd5b5061027f6105f8565b3480156102ad57600080fd5b506102686102bc366004613189565b61068e565b3480156102cd57600080fd5b5061027f6109e3565b3480156102e257600080fd5b506102086109ee565b3480156102f757600080fd5b506102086109f4565b34801561030c57600080fd5b506103156109fe565b60405161021595949392919061340e565b34801561033257600080fd5b50610268610341366004613189565b610a39565b34801561035257600080fd5b50610268610361366004613099565b610b21565b34801561037257600080fd5b50610208610b5e565b34801561038757600080fd5b5061039b610396366004613189565b610b64565b60405161021592919061352b565b3480156103b557600080fd5b50610208610c0a565b3480156103ca57600080fd5b506102686103d9366004613231565b610c57565b3480156103ea57600080fd5b50610208610d93565b3480156103ff57600080fd5b5061026861040e366004612fc7565b610d99565b34801561041f57600080fd5b50610208610d9b565b34801561043457600080fd5b50610268610443366004612fc7565b610da1565b34801561045457600080fd5b50610268610463366004612fe3565b610e30565b34801561047457600080fd5b5061027f610edb565b34801561048957600080fd5b5061027f610eea565b34801561049e57600080fd5b50610208610f26565b3480156104b357600080fd5b50610208610f2c565b3480156104c857600080fd5b506104d1610f32565b60405161021591906134ad565b3480156104ea57600080fd5b506104f3610f42565b604051610215929190613500565b34801561050d57600080fd5b5061026861051c366004613231565b610f63565b34801561052d57600080fd5b5061031561053c366004613249565b61109b565b34801561054d57600080fd5b506105566113f8565b60405161021593929190613399565b34801561057157600080fd5b506102686115bd565b60055481565b60095481565b60085481565b600054600160b01b900460ff16806105ae5750600054600160a81b900460ff16155b156105c5576105bb611677565b600c8190556105d0565b6105d06000366116ae565b50565b7f714f205b2abd25bef1d06a1af944e38c113fe6160375c4e1d6d5cf28848e77195490565b60008054600160a81b900460ff1661061b576000546001600160a01b0316610688565b60076001609c1b016001600160a01b031663732524946040518163ffffffff1660e01b815260040160206040518083038186803b15801561065b57600080fd5b505afa15801561066f573d6000803e3d6000fd5b505050506040513d602081101561068557600080fd5b50515b90505b90565b60408051630debfda360e41b8152336004820152905160076001609c1b019163debfda30916024808301926020929190829003018186803b1580156106d257600080fd5b505afa1580156106e6573d6000803e3d6000fd5b505050506040513d60208110156106fc57600080fd5b505161073f576040805162461bcd60e51b815260206004820152600d60248201526c37b7363c9032bc32b1baba37b960991b604482015290519081900360640190fd5b6001600160e01b03198116600090815260016020526040902080546107ab576040805162461bcd60e51b815260206004820152601a60248201527f74696d656c6f636b3a20696e76616c69642073656c6563746f72000000000000604482015290519081900360640190fd5b8054421015610801576040805162461bcd60e51b815260206004820152601960248201527f74696d656c6f636b3a206e6f7420616c6c6f7765642079657400000000000000604482015290519081900360640190fd5b6000816001018054600181600116156101000203166002900480601f01602080910402602001604051908101604052809291908181526020018280546001816001161561010002031660029004801561089b5780601f106108705761010080835404028352916020019161089b565b820191906000526020600020905b81548152906001019060200180831161087e57829003601f168201915b5050506001600160e01b03198616600090815260016020819052604082208281559495509092506108cf9150830182612e56565b50506000805460ff60b01b1916600160b01b178155604051825130918491819060208401908083835b602083106109175780518252601f1990920191602091820191016108f8565b6001836020036101000a0380198251168184511680821785525050505050509050019150506000604051808303816000865af19150503d8060008114610979576040519150601f19603f3d011682016040523d82523d6000602084013e61097e565b606091505b50506000805460ff60b01b19169055604080516001600160e01b03198716815242602082015281519293507fa7326b57fc9cfe267aaea5e7f0b01757154d265620a0585819416ee9ddd2c438929081900390910190a16109dd81611831565b50505050565b60076001609c1b0181565b60045481565b600061068861184e565b600b54606090819081908190600090610a2890600160c01b90046001600160401b0316600161109b565b945094509450945094509091929394565b610a41611859565b6001600160e01b03198116600090815260016020526040902054610aac576040805162461bcd60e51b815260206004820152601a60248201527f74696d656c6f636b3a20696e76616c69642073656c6563746f72000000000000604482015290519081900360640190fd5b604080516001600160e01b03198316815242602082015281517f7735b2391c38a81419c513e30ca578db7158eadd7101511b23e221c654d19cf8929181900390910190a16001600160e01b03198116600090815260016020819052604082208281559190610b1c90830182612e56565b505050565b600054600160b01b900460ff1680610b435750600054600160a81b900460ff16155b156105c557610b50611677565b610b59816118b8565b6105d0565b60075481565b600160208181526000928352604092839020805481840180548651600296821615610100026000190190911695909504601f81018590048502860185019096528585529094919392909190830182828015610c005780601f10610bd557610100808354040283529160200191610c00565b820191906000526020600020905b815481529060010190602001808311610be357829003601f168201915b5050505050905082565b6002546000906001600160a01b0316610c4f57610c4f306040518060400160405280600e81526020016d696e666c6174696f6e207a65726f60901b8152506000611b65565b610688611d29565b600054600160b01b900460ff1680610c795750600054600160a81b900460ff16155b156105c557610c86611677565b600854610c9690606e60646125da565b811115604051806040016040528060118152602001700dac2f040dad2dce840e8dede40d0d2ced607b1b81525090610cea5760405162461bcd60e51b8152600401610ce191906134ed565b60405180910390fd5b5060408051808201909152601081526f6d6178206d696e74206973207a65726f60801b602082015281610d305760405162461bcd60e51b8152600401610ce191906134ed565b5062015180600a54014211604051806040016040528060128152602001711d1a5b594819d85c081d1bdbc81cda1bdc9d60721b81525090610d845760405162461bcd60e51b8152600401610ce191906134ed565b50600881905542600a556105d0565b60035481565bfe5b600a5481565b600054600160b01b900460ff1680610dc35750600054600160a81b900460ff16155b156105c557610dd0611677565b6000610dda6105d3565b6001600160a01b0316146040518060400160405280600b81526020016a185b1c9958591e481cd95d60aa1b81525090610e265760405162461bcd60e51b8152600401610ce191906134ed565b50610b59816126e8565b610e386105d3565b6001600160a01b0316336001600160a01b031614610e94576040805162461bcd60e51b815260206004820152601460248201527337b7363c9030b2323932b9b9903ab83230ba32b960611b604482015290519081900360640190fd5b610ecd610ec883836040518060400160405280600e81526020016d20b2323932b9b9aab83230ba32b960911b81525061270c565b6126e8565b610ed78282612839565b5050565b6002546001600160a01b031681565b600f5460009060ff16610f1757600f805460ff191660011790556000610f0e612a61565b915061068b9050565b610f1f6105f8565b905061068b565b600c5481565b60065481565b600054600160a81b900460ff1681565b600b546001600160c01b03811690600160c01b90046001600160401b031682565b60025460408051808201909152600d81526c3737ba1034b7333630ba34b7b760991b602082015233916001600160a01b03168214610fb45760405162461bcd60e51b8152600401610ce191906134ed565b5060085482111560405180604001604052806007815260200166746f6f2062696760c81b81525090610ff95760405162461bcd60e51b8152600401610ce191906134ed565b504261100361184e565b10604051806040016040528060098152602001683a37b79037b33a32b760b91b815250906110445760405162461bcd60e51b8152600401610ce191906134ed565b508115610ed7574260095560045461105c9083612a81565b6004556040517f4c4f1efc376f31abeb51b72c5f9ed81cf4016591312bb02337e58149dcfaaab49061108f908490613522565b60405180910390a15050565b606080606080600060148054905087106040518060400160405280601081526020016f0e6e8c2e4e840d2dcc8caf040d0d2ced60831b815250906110f25760405162461bcd60e51b8152600401610ce191906134ed565b50601454600090888801111561110d5760145488900361110f565b865b9050806001600160401b038111801561112757600080fd5b50604051908082528060200260200182016040528015611151578160200160208202803683370190505b509550806001600160401b038111801561116a57600080fd5b50604051908082528060200260200182016040528015611194578160200160208202803683370190505b509450806001600160401b03811180156111ad57600080fd5b506040519080825280602002602001820160405280156111e157816020015b60608152602001906001900390816111cc5790505b509350806001600160401b03811180156111fa57600080fd5b50604051908082528060200260200182016040528015611224578160200160208202803683370190505b50925060005b818110156113dc5760006014828b018154811061124357fe5b6000918252602080832090910154808352601390915260409091205489519192506001600160c01b03169089908490811061127a57fe5b6020026020010181815250506013600082815260200190815260200160002060000160189054906101000a90046001600160401b03166001600160401b03168783815181106112c557fe5b6020908102919091018101919091526000828152601382526040908190206002908101805483516001821615610100026000190190911692909204601f810185900485028301850190935282825290929091908301828280156113695780601f1061133e57610100808354040283529160200191611369565b820191906000526020600020905b81548152906001019060200180831161134c57829003601f168201915b505050505086838151811061137a57fe5b60200260200101819052506013600082815260200190815260200160002060010160009054906101000a90046001600160a01b03168583815181106113bb57fe5b6001600160a01b03909216602092830291909101909101525060010161122a565b5050600b549497939650919450926001600160c01b0316919050565b60105460609081908190806001600160401b038111801561141857600080fd5b50604051908082528060200260200182016040528015611442578160200160208202803683370190505b509350806001600160401b038111801561145b57600080fd5b50604051908082528060200260200182016040528015611485578160200160208202803683370190505b509250806001600160401b038111801561149e57600080fd5b506040519080825280602002602001820160405280156114c8578160200160208202803683370190505b50915060005b818110156115b6576000601082815481106114e557fe5b9060005260206000200160009054906101000a90046001600160a01b031690508086838151811061151257fe5b60200260200101906001600160a01b031690816001600160a01b03168152505060116000826001600160a01b03166001600160a01b031681526020019081526020016000205485838151811061156457fe5b60200260200101818152505060126000826001600160a01b03166001600160a01b03168152602001908152602001600020548483815181106115a257fe5b6020908102919091010152506001016114ce565b5050909192565b6115c5611859565b600054600160a81b900460ff1615611624576040805162461bcd60e51b815260206004820152601a60248201527f616c726561647920696e2070726f64756374696f6e206d6f6465000000000000604482015290519081900360640190fd5b60008054600161ff0160a01b031916600160a81b1790556040805160076001609c1b01815290517f83af113638b5422f9e977cebc0aaf0eaf2188eb9a8baae7f9d46c42b33a1560c9181900360200190a1565b600054600160b01b900460ff16156116a45733301461169257fe5b6000805460ff60b01b191690556116ac565b6116ac611859565b565b6116b6611859565b600082359050600060076001609c1b016001600160a01b0316636221a54b6040518163ffffffff1660e01b815260040160206040518083038186803b1580156116fe57600080fd5b505afa158015611712573d6000803e3d6000fd5b505050506040513d602081101561172857600080fd5b505160408051808201825242830180825282516020601f89018190048102820181019094528781529394509290918281019190889088908190840183828082843760009201829052509390945250506001600160e01b031986168152600160208181526040909220845181558483015180519194506117ac93928501920190612e9a565b509050507fed948300a3694aa01d4a6b258bfd664350193d770c0b51f8387277f6d83ea3b68382878760405180856001600160e01b0319168152602001848152602001806020018281038252848482818152602001925080828437600083820152604051601f909101601f191690920182900397509095505050505050a15050505050565b3d604051818101604052816000823e821561184a578181f35b8181fd5b600954620143700190565b6118616105f8565b6001600160a01b0316336001600160a01b0316146116ac576040805162461bcd60e51b815260206004820152600f60248201526e6f6e6c7920676f7665726e616e636560881b604482015290519081900360640190fd5b8051604080518082019091526008815267746f6f206d616e7960c01b6020820152600a8211156118fb5760405162461bcd60e51b8152600401610ce191906134ed565b50611904612ae4565b60005b81811015610b1c5760006001600160a01b031683828151811061192657fe5b6020026020010151600001516001600160a01b031614156040518060400160405280600c81526020016b61646472657373207a65726f60a01b815250906119805760405162461bcd60e51b8152600401610ce191906134ed565b5060105460005b81811015611a24576010818154811061199c57fe5b60009182526020909120015485516001600160a01b03909116908690859081106119c257fe5b6020026020010151600001516001600160a01b031614156040518060400160405280600b81526020016a647570206164647265737360a81b81525090611a1b5760405162461bcd60e51b8152600401610ce191906134ed565b50600101611987565b506010848381518110611a3357fe5b6020908102919091018101515182546001810184556000938452919092200180546001600160a01b0319166001600160a01b039092169190911790558351849083908110611a7d57fe5b60200260200101516020015160116000868581518110611a9957fe5b6020026020010151600001516001600160a01b03166001600160a01b0316815260200190815260200160002081905550600060126000868581518110611adb57fe5b6020026020010151600001516001600160a01b03166001600160a01b03168152602001908152602001600020819055507f86d03f430c7616021073d7a71766f632f1ce19f289aa989534d9f4732253eb59848381518110611b3857fe5b6020026020010151600001516001604051611b549291906134b8565b60405180910390a150600101611907565b60008383604051602001611b7a92919061331c565b60408051808303601f190181529181528151602092830120600081815260139093529120805491925090600160c01b90046001600160401b0316611c615760148054600180820183556000929092527fce6d7b5282bd9a3661ae061feed1dbda4e52ab073b1f9285be6e155d9c38d4ec01839055810180546001600160a01b0319166001600160a01b038716179055611c14846040612b94565b8051611c2a916002840191602090910190612e9a565b5060145460018201805467ffffffffffffffff60a01b1916600160a01b6000199093016001600160401b0316929092029190911790555b8054436001600160c01b038181166001600160401b03600160c01b80860482166001019091160291909316176001600160c01b0319169190911782556040517f7a459ed083a9b267865360013a5ad6dbc07e5befe6e4f71671c940fdd4206bee91611cd29188919088908890613361565b60405180910390a1600b80546001600160c01b0319811660016001600160c01b0392831681018316919091178084559301549216600160a01b9092046001600160401b0316600160c01b0291909117905550505050565b6000600354431415611d3d5750600061068b565b43600355600d544790811115612113576000611d66600e54600d54612a8190919063ffffffff16565b905080821415611edb57600e54600554611d809082612a81565b6005556040517fa42d823c276ad1990284418c303209194a75fa95a901f19752a9f65a407ffa8c90611db3908390613522565b60405180910390a1600260009054906101000a90046001600160a01b03166001600160a01b031663c611c2c5826040518263ffffffff1660e01b81526004016000604051808303818588803b158015611e0b57600080fd5b505af193505050508015611e1d575060015b611e8c57611e296135b6565b80611e345750611e46565b611e4030826000611b65565b50611e87565b611e87306040518060400160405280601d81526020017f756e6b6e6f776e206572726f722e20726563656976654d696e74696e670000008152506000611b65565b611ed5565b600654611e999082612a81565b6006556040517f12773bf711e11ec0b058c3856d441d726d2dc89113706c4f4175571f1e830c5a90611ecc908390613522565b60405180910390a15b50612111565b80821015611f3d576000611efa600d5484612c4890919063ffffffff16565b600754909150611f0a9082612a81565b6007556040517f3fe36bcb00188390b2b40f1ab66c58f660aea67fe98b9f80667f692e1a9ab36890611ecc908390613522565b600e54600554611f4c91612a81565b600555600e54600d54600091611f6d91611f67908690612c48565b90612c48565b600754909150611f7d9082612a81565b600755600e546040517fa42d823c276ad1990284418c303209194a75fa95a901f19752a9f65a407ffa8c91611fb191613522565b60405180910390a17f3fe36bcb00188390b2b40f1ab66c58f660aea67fe98b9f80667f692e1a9ab36881604051611fe89190613522565b60405180910390a1600260009054906101000a90046001600160a01b03166001600160a01b031663c611c2c5600e546040518263ffffffff1660e01b81526004016000604051808303818588803b15801561204257600080fd5b505af193505050508015612054575060015b6120c3576120606135b6565b8061206b575061207d565b61207730826000611b65565b506120be565b6120be306040518060400160405280601d81526020017f756e6b6e6f776e206572726f722e20726563656976654d696e74696e670000008152506000611b65565b61210f565b600e546006546120d291612a81565b600655600e546040517f12773bf711e11ec0b058c3856d441d726d2dc89113706c4f4175571f1e830c5a9161210691613522565b60405180910390a15b505b505b60105460005b818110156125325760006010828154811061213057fe5b60009182526020808320909101546001600160a01b0316808352601290915260409091205490915080156121bc576001600160a01b0382166000908152601260205260409081902060001983019055517f9895eddb1e8569b1dae526135aa5cab97f982fdc3b0ff7e17920c95e3b9bda62906121af9084908490613348565b60405180910390a1612528565b6001600160a01b038216600090815260116020526040812054905a90506204a768811015612226577f9b5c4be38598cb8d8b6e07727d2303d1d9fc2dfc31ad323170f5ea4dcc1f914a8587036040516122159190613522565b60405180910390a150505050612532565b620493df198101821580159061223b57508083105b156122435750815b846001600160a01b0316636d0e8c34826040518263ffffffff1660e01b8152600401602060405180830381600088803b15801561227f57600080fd5b5087f1935050505080156122b0575060408051601f3d908101601f191682019092526122ad91810190613169565b60015b6124e7576122bc6135b6565b806122c7575061234e565b6122d486825a8603611b65565b856001600160a01b031663e22fdece6040518163ffffffff1660e01b8152600401602060405180830381600087803b15801561230f57600080fd5b505af1158015612323573d6000803e3d6000fd5b505050506040513d601f19601f820116820180604052508101906123479190613169565b50506124e2565b60005a905060008411801561236c5750836123698483612c48565b10155b1561243f576123a0866040518060400160405280600a8152602001696f7574206f662067617360b01b815250838603611b65565b6000866001600160a01b031663e22fdece6040518163ffffffff1660e01b8152600401602060405180830381600087803b1580156123dd57600080fd5b505af11580156123f1573d6000803e3d6000fd5b505050506040513d601f19601f820116820180604052508101906124159190613169565b90508061243957600c546001600160a01b0388166000908152601260205260409020555b506124e0565b61246b86604051806040016040528060078152602001663ab735b737bbb760c91b815250838603611b65565b856001600160a01b031663e22fdece6040518163ffffffff1660e01b8152600401602060405180830381600087803b1580156124a657600080fd5b505af11580156124ba573d6000803e3d6000fd5b505050506040513d601f19601f820116820180604052508101906124de9190613169565b505b505b612524565b507fe7aa66356adbd5e839ef210626f6d8f6f72109c17fadf4c4f9ca82b315ae79b4855a840360405161251b929190613348565b60405180910390a15b5050505b5050600101612119565b5061253b612ca5565b9250821561258557600e8390556040517f34f843cef0df42035141347873da1758a6643358831b5ba5b1580be947644f9290612578908590613522565b60405180910390a161258b565b6000600e555b47600d556000612599612cbe565b90504781146125d4576125d4306040518060400160405280600e81526020016d6f7574206f662062616c616e636560901b8152506000611b65565b50505090565b6000808211612623576040805162461bcd60e51b815260206004820152601060248201526f4469766973696f6e206279207a65726f60801b604482015290519081900360640190fd5b83612630575060006126e1565b8383028385828161263d57fe5b0414156126565782818161264d57fe5b049150506126e1565b600083868161266157fe5b049050600084878161266f57fe5b069050600085878161267d57fe5b049050600086888161268b57fe5b0690506126d96126a58861269f8685612cdd565b90612d36565b6126d36126b28686612cdd565b6126d36126bf8987612cdd565b6126d38d6126cd8c8b612cdd565b90612cdd565b90612a81565b955050505050505b9392505050565b7f714f205b2abd25bef1d06a1af944e38c113fe6160375c4e1d6d5cf28848e771955565b600080826040516020018080602001828103825283818151815260200191508051906020019080838360005b83811015612750578181015183820152602001612738565b50505050905090810190601f16801561277d5780820380516001836020036101000a031916815260200191505b50925050506040516020818303038152906040528051906020012090506000805b86518110156127e5578681815181106127b357fe5b60200260200101518314156127dd578581815181106127ce57fe5b602002602001015191506127e5565b60010161279e565b506001600160a01b038116612830576040805162461bcd60e51b815260206004820152600c60248201526b61646472657373207a65726f60a01b604482015290519081900360640190fd5b95945050505050565b600061286783836040518060400160405280600981526020016824b7333630ba34b7b760b91b81525061270c565b6002546040519192507f4bdd1012a7d55ed9afad8675a125e1b68c7c15f712c0f3d5cddac69c3b979805916128a99184916001600160a01b03909116906134d3565b60405180910390a1600280546001600160a01b0319166001600160a01b0383161790556008546128e3576a31a17e847807b1bc0000006008555b601054806128f2575050610ed7565b6000816001600160401b038111801561290a57600080fd5b5060405190808252806020026020018201604052801561294457816020015b612931612f26565b8152602001906001900390816129295790505b50905060005b82811015612a505760006010828154811061296157fe5b600091825260208220015460408051637afadd3960e11b815290516001600160a01b0390921693506129f4928a928a92869263f5f5ba7292600480840193829003018186803b1580156129b357600080fd5b505afa1580156129c7573d6000803e3d6000fd5b505050506040513d6000823e601f3d908101601f191682016040526129ef91908101906131b1565b61270c565b838381518110612a0057fe5b6020908102919091018101516001600160a01b0392831690529082166000908152601190915260409020548351849084908110612a3957fe5b60209081029190910181015101525060010161294a565b50612a5a816118b8565b5050505050565b600073fffec6c83c8bf5c3f4ae0ccf8c45ce20e4560bd761068881612d9d565b600082820183811015612adb576040805162461bcd60e51b815260206004820152601b60248201527f536166654d6174683a206164646974696f6e206f766572666c6f770000000000604482015290519081900360640190fd5b90505b92915050565b60105460005b81811015610ed75760108054600091906000198101908110612b0857fe5b600091825260209091200154601080546001600160a01b0390921692509080612b2d57fe5b600082815260208120820160001990810180546001600160a01b03191690559091019091556040517f86d03f430c7616021073d7a71766f632f1ce19f289aa989534d9f4732253eb5991612b83918491906134b8565b60405180910390a150600101612aea565b6060600083905082815111612bac5783915050612ade565b6000836001600160401b0381118015612bc457600080fd5b506040519080825280601f01601f191660200182016040528015612bef576020820181803683370190505b50905060005b84811015612c3f57828181518110612c0957fe5b602001015160f81c60f81b828281518110612c2057fe5b60200101906001600160f81b031916908160001a905350600101612bf5565b50949350505050565b600082821115612c9f576040805162461bcd60e51b815260206004820152601e60248201527f536166654d6174683a207375627472616374696f6e206f766572666c6f770000604482015290519081900360640190fd5b50900390565b6000610688600554600454612c4890919063ffffffff16565b60006106886007546126d3600654600554612c4890919063ffffffff16565b600082612cec57506000612ade565b82820282848281612cf957fe5b0414612adb5760405162461bcd60e51b81526004018080602001828103825260218152602001806136706021913960400191505060405180910390fd5b6000808211612d8c576040805162461bcd60e51b815260206004820152601a60248201527f536166654d6174683a206469766973696f6e206279207a65726f000000000000604482015290519081900360640190fd5b818381612d9557fe5b049392505050565b600054600160a01b900460ff1615612df3576040805162461bcd60e51b8152602060048201526014602482015273696e697469616c6973656420213d2066616c736560601b604482015290519081900360640190fd5b60008054600160a01b60ff60a01b19909116176001600160a01b0319166001600160a01b03831690811790915560408051918252517f9789733827840833afc031fb2ef9ab6894271f77bad2085687cf4ae5c7bee4db916020908290030190a150565b50805460018160011615610100020316600290046000825580601f10612e7c57506105d0565b601f0160209004906000526020600020908101906105d09190612f3d565b828054600181600116156101000203166002900490600052602060002090601f016020900481019282612ed05760008555612f16565b82601f10612ee957805160ff1916838001178555612f16565b82800160010185558215612f16579182015b82811115612f16578251825591602001919060010190612efb565b50612f22929150612f3d565b5090565b604080518082019091526000808252602082015290565b5b80821115612f225760008155600101612f3e565b600082601f830112612f62578081fd5b81356020612f77612f7283613567565b613544565b8281528181019085830183850287018401881015612f93578586fd5b855b85811015612fba578135612fa88161365a565b84529284019290840190600101612f95565b5090979650505050505050565b600060208284031215612fd8578081fd5b8135612adb8161365a565b60008060408385031215612ff5578081fd5b82356001600160401b038082111561300b578283fd5b818501915085601f83011261301e578283fd5b8135602061302e612f7283613567565b82815281810190858301838502870184018b101561304a578788fd5b8796505b8487101561306c57803583526001969096019591830191830161304e565b5096505086013592505080821115613082578283fd5b5061308f85828601612f52565b9150509250929050565b600060208083850312156130ab578182fd5b82356001600160401b03808211156130c1578384fd5b818501915085601f8301126130d4578384fd5b81356130e2612f7282613567565b818152848101908486016040808502870188018b1015613100578889fd5b8896505b8487101561315a5780828c03121561311a578889fd5b8051818101818110888211171561312d57fe5b8252823561313a8161365a565b815282890135898201528452600196909601959287019290810190613104565b50909998505050505050505050565b60006020828403121561317a578081fd5b81518015158114612adb578182fd5b60006020828403121561319a578081fd5b81356001600160e01b031981168114612adb578182fd5b6000602082840312156131c2578081fd5b81516001600160401b03808211156131d8578283fd5b818401915084601f8301126131eb578283fd5b8151818111156131f757fe5b61320a601f8201601f1916602001613544565b9150808252856020828501011115613220578384fd5b612c3f816020840160208601613584565b600060208284031215613242578081fd5b5035919050565b6000806040838503121561325b578182fd5b50508035926020909101359150565b6000815180845260208085019450808401835b838110156132a25781516001600160a01b03168752958201959082019060010161327d565b509495945050505050565b6000815180845260208085019450808401835b838110156132a2578151875295820195908201906001016132c0565b600081518084526132f4816020860160208601613584565b601f01601f19169290920160200192915050565b6001600160a01b0391909116815260200190565b6001600160a01b0383168152604060208201819052600090613340908301846132dc565b949350505050565b6001600160a01b03929092168252602082015260400190565b600060018060a01b03861682528460208301526080604083015261338860808301856132dc565b905082606083015295945050505050565b606080825284519082018190526000906020906080840190828801845b828110156133db5781516001600160a01b0316845292840192908401906001016133b6565b505050838103828501526133ef81876132ad565b915050828103604084015261340481856132ad565b9695505050505050565b600060a0825261342160a08301886132ad565b60208382038185015261343482896132ad565b848103604086015287518082529092508183019082810284018301838a01865b8381101561348257601f198784030185526134708383516132dc565b94860194925090850190600101613454565b50508681036060880152613496818a61326a565b955050505050508260808301529695505050505050565b901515815260200190565b6001600160a01b039290921682521515602082015260400190565b6001600160a01b0392831681529116602082015260400190565b6000602082526126e160208301846132dc565b6001600160c01b039290921682526001600160401b0316602082015260400190565b90815260200190565b60008382526040602083015261334060408301846132dc565b6040518181016001600160401b038111828210171561355f57fe5b604052919050565b60006001600160401b0382111561357a57fe5b5060209081020190565b60005b8381101561359f578181015183820152602001613587565b838111156109dd5750506000910152565b60e01c90565b600060443d10156135c65761068b565b600481823e6308c379a06135da82516135b0565b146135e45761068b565b6040513d600319016004823e80513d6001600160401b038160248401118184111715613613575050505061068b565b8284019250825191508082111561362d575050505061068b565b503d830160208284010111156136455750505061068b565b601f01601f1916810160200160405291505090565b6001600160a01b03811681146105d057600080fdfe536166654d6174683a206d756c7469706c69636174696f6e206f766572666c6f77a264697066735822122017d9c9a50db27c6491c0f44c1937eec19f31708bd9158256f1f4949afd4d383764736f6c63430007060033",
  "linkReferences": {},
  "deployedLinkReferences": {}
}