{
  "_format": "hh-sol-artifact-1",
  "contractName": "FtsoEpochMock",
  "sourceName": "contracts/ftso/mock/FtsoEpochMock.sol",
  "abi": [
    {
      "inputs": [
        {
          "internalType": "uint256",
          "name": "_epochId",
          "type": "uint256"
        },
        {
          "internalType": "address",
          "name": "_voter",
          "type": "address"
        },
        {
          "internalType": "uint256",
          "name": "_votePowerNat",
          "type": "uint256"
        },
        {
          "internalType": "uint256",
          "name": "_votePowerAsset",
          "type": "uint256"
        },
        {
          "internalType": "uint256",
          "name": "_price",
          "type": "uint256"
        }
      ],
      "name": "addVote",
      "outputs": [],
      "stateMutability": "nonpayable",
      "type": "function"
    },
    {
      "inputs": [
        {
          "internalType": "uint256",
          "name": "_epochId",
          "type": "uint256"
        },
        {
          "internalType": "uint256[]",
          "name": "_weightsNat",
          "type": "uint256[]"
        },
        {
          "internalType": "uint256[]",
          "name": "_weightsAsset",
          "type": "uint256[]"
        }
      ],
      "name": "computeWeights",
      "outputs": [
        {
          "internalType": "uint256[]",
          "name": "",
          "type": "uint256[]"
        }
      ],
      "stateMutability": "view",
      "type": "function"
    },
    {
      "inputs": [
        {
          "internalType": "uint256",
          "name": "_maxVotePowerNatThresholdFraction",
          "type": "uint256"
        },
        {
          "internalType": "uint256",
          "name": "_maxVotePowerAssetThresholdFraction",
          "type": "uint256"
        },
        {
          "internalType": "uint256",
          "name": "_lowAssetUSDThreshold",
          "type": "uint256"
        },
        {
          "internalType": "uint256",
          "name": "_highAssetUSDThreshold",
          "type": "uint256"
        },
        {
          "internalType": "uint256",
          "name": "_highAssetTurnoutThresholdBIPS",
          "type": "uint256"
        },
        {
          "internalType": "uint256",
          "name": "_lowNatTurnoutThresholdBIPS",
          "type": "uint256"
        },
        {
          "internalType": "uint256",
          "name": "_elasticBandRewardBIPS",
          "type": "uint256"
        },
        {
          "internalType": "uint256",
          "name": "_elasticBandWidthPPM",
          "type": "uint256"
        },
        {
          "internalType": "address[]",
          "name": "_trustedAddresses",
          "type": "address[]"
        }
      ],
      "name": "configureEpochs",
      "outputs": [],
      "stateMutability": "nonpayable",
      "type": "function"
    },
    {
      "inputs": [
        {
          "internalType": "uint256",
          "name": "_assetVotePowerUSD",
          "type": "uint256"
        }
      ],
      "name": "getAssetBaseWeightRatio",
      "outputs": [
        {
          "internalType": "uint256",
          "name": "",
          "type": "uint256"
        }
      ],
      "stateMutability": "view",
      "type": "function"
    },
    {
      "inputs": [
        {
          "internalType": "uint256",
          "name": "_epochId",
          "type": "uint256"
        }
      ],
      "name": "getEpochInstance",
      "outputs": [
        {
          "components": [
            {
              "internalType": "uint256",
              "name": "votePowerBlock",
              "type": "uint256"
            },
            {
              "internalType": "uint256",
              "name": "highAssetTurnoutThresholdBIPS",
              "type": "uint256"
            },
            {
              "internalType": "uint256",
              "name": "lowNatTurnoutThresholdBIPS",
              "type": "uint256"
            },
            {
              "internalType": "uint256",
              "name": "circulatingSupplyNat",
              "type": "uint256"
            },
            {
              "internalType": "uint256",
              "name": "votePowerNat",
              "type": "uint256"
            },
            {
              "internalType": "uint256",
              "name": "votePowerAsset",
              "type": "uint256"
            },
            {
              "internalType": "uint256",
              "name": "maxVotePowerNat",
              "type": "uint256"
            },
            {
              "internalType": "uint256",
              "name": "maxVotePowerAsset",
              "type": "uint256"
            },
            {
              "internalType": "uint256",
              "name": "accumulatedVotePowerNat",
              "type": "uint256"
            },
            {
              "internalType": "uint256",
              "name": "baseWeightRatio",
              "type": "uint256"
            },
            {
              "internalType": "uint256[]",
              "name": "trustedVotes",
              "type": "uint256[]"
            },
            {
              "internalType": "uint256",
              "name": "price",
              "type": "uint256"
            },
            {
              "internalType": "enum IFtso.PriceFinalizationType",
              "name": "finalizationType",
              "type": "uint8"
            },
            {
              "internalType": "uint256",
              "name": "voteCount",
              "type": "uint256"
            },
            {
              "internalType": "contract IIVPToken[]",
              "name": "assets",
              "type": "address[]"
            },
            {
              "internalType": "uint256[]",
              "name": "assetWeightedPrices",
              "type": "uint256[]"
            },
            {
              "internalType": "bool",
              "name": "initializedForReveal",
              "type": "bool"
            },
            {
              "internalType": "bool",
              "name": "fallbackMode",
              "type": "bool"
            }
          ],
          "internalType": "struct FtsoEpochMock.Instance",
          "name": "",
          "type": "tuple"
        }
      ],
      "stateMutability": "view",
      "type": "function"
    },
    {
      "inputs": [
        {
          "internalType": "uint256",
          "name": "_epochId",
          "type": "uint256"
        }
      ],
      "name": "getVoterVoteId",
      "outputs": [
        {
          "internalType": "uint256",
          "name": "",
          "type": "uint256"
        }
      ],
      "stateMutability": "view",
      "type": "function"
    },
    {
      "inputs": [
        {
          "internalType": "uint256",
          "name": "_epochId",
          "type": "uint256"
        },
        {
          "internalType": "uint256",
          "name": "_weightNatSum",
          "type": "uint256"
        },
        {
          "internalType": "uint256",
          "name": "_weightAssetSum",
          "type": "uint256"
        }
      ],
      "name": "getWeightRatio",
      "outputs": [
        {
          "internalType": "uint256",
          "name": "",
          "type": "uint256"
        }
      ],
      "stateMutability": "view",
      "type": "function"
    },
    {
      "inputs": [
        {
          "internalType": "uint256",
          "name": "_epochId",
          "type": "uint256"
        },
        {
          "internalType": "uint256",
          "name": "_circulatingSupplyNat",
          "type": "uint256"
        },
        {
          "internalType": "uint256",
          "name": "_votePowerNat",
          "type": "uint256"
        },
        {
          "internalType": "contract IIVPToken[]",
          "name": "_assets",
          "type": "address[]"
        },
        {
          "internalType": "uint256[]",
          "name": "_assetVotePowers",
          "type": "uint256[]"
        },
        {
          "internalType": "uint256[]",
          "name": "_assetPrices",
          "type": "uint256[]"
        }
      ],
      "name": "initializeInstanceForReveal",
      "outputs": [],
      "stateMutability": "nonpayable",
      "type": "function"
    },
    {
      "inputs": [
        {
          "internalType": "contract IIVPToken",
          "name": "_asset",
          "type": "address"
        },
        {
          "internalType": "uint256",
          "name": "_decimals",
          "type": "uint256"
        }
      ],
      "name": "setAssetNorm",
      "outputs": [],
      "stateMutability": "nonpayable",
      "type": "function"
    },
    {
      "inputs": [
        {
          "internalType": "uint256",
          "name": "_epochId",
          "type": "uint256"
        },
        {
          "internalType": "contract IIVPToken[]",
          "name": "_assets",
          "type": "address[]"
        },
        {
          "internalType": "uint256[]",
          "name": "_assetVotePowers",
          "type": "uint256[]"
        },
        {
          "internalType": "uint256[]",
          "name": "_assetPrices",
          "type": "uint256[]"
        }
      ],
      "name": "setAssets",
      "outputs": [],
      "stateMutability": "nonpayable",
      "type": "function"
    }
  ],
  "bytecode": "0x608060405234801561001057600080fd5b50611885806100206000396000f3fe608060405234801561001057600080fd5b506004361061009e5760003560e01c8063a37b891111610066578063a37b89111461011a578063aca2b8371461012d578063c85ecc1a14610140578063de309a6e14610160578063e7db2c55146101805761009e565b80632ad72753146100a35780634322e125146100b85780635a3c9d8e146100cb5780635eb11e1e146100de57806375631c39146100f1575b600080fd5b6100b66100b1366004611297565b610193565b005b6100b66100c63660046112da565b6101b6565b6100b66100d93660046114e4565b6101db565b6100b66100ec366004611444565b6102e3565b6101046100ff3660046112c2565b61030a565b60405161011191906117a4565b60405180910390f35b6101046101283660046112c2565b61031c565b61010461013b366004611419565b61033b565b61015361014e3660046113af565b61035d565b6040516101119190611658565b61017361016e3660046112c2565b610379565b604051610111919061166b565b6100b661018e366004611321565b6105ae565b6001600160a01b039091166000908152600160205260409020600a9190910a9055565b6000858152602081905260408120906101d39082878787876105d1565b505050505050565b600389905560048890556005879055600686905560078590556008849055600b839055600c82905560095460005b8181101561026457600080600a01600080600901848154811061022857fe5b6000918252602080832091909101546001600160a01b031683528201929092526040019020805460ff1916911515919091179055600101610209565b5050805160005b818110156102c25760016000600a01600085848151811061028857fe5b6020908102919091018101516001600160a01b03168252810191909152604001600020805460ff191691151591909117905560010161026b565b5081516102d6906009906020850190611054565b5050505050505050505050565b60008681526020819052604081209061030190828888888888610722565b50505050505050565b600061031681836107e5565b92915050565b6000818152602081905260408120610334813361083a565b9392505050565b6000838152602081905260408120610354818585610892565b95945050505050565b60008381526020819052604090206060906103548185856108f9565b6103816110b5565b60008281526020819052604090206103976110b5565b60018201546001600160f01b03168152600382015460208083019190915260048301546040808401919091526005840154606084015260068401546080840152600784015460a084015283546001600160801b0380821660c0860152600160801b9091041660e084015260088401546101008401526009840154610120840152600e84018054825181850281018501909352808352919290919083018282801561046057602002820191906000526020600020905b81548152602001906001019080831161044c575b5050505050610140820152600f820154610160820152601082015461018082019060ff16600581111561048f57fe5b9081600581111561049c57fe5b905250600c8201546101a08201526001820154600160f01b900460ff161515610200820152600a820180546040805160208084028201810190925282815292919083018282801561051657602002820191906000526020600020905b81546001600160a01b031681526001909101906020018083116104f8575b5050505050816101c0018190525081600b0180548060200260200160405190810160405280929190818152602001828054801561057257602002820191906000526020600020905b81548152602001906001019080831161055e575b50505050506101e08201526001919091015460ff600160f01b820481161515610200840152600160f81b90910416151561022082015292915050565b6000848152602081905260408120906105ca9082868686610a11565b5050505050565b600085600c0154905060006105f28686868a600601548b6007015488610a7a565b63ffffffff838116608083019081526000858152600d8b0160209081526040918290208551815492870151938701516001600160801b03199093166001600160801b039091161767ffffffffffffffff60801b1916600160801b67ffffffffffffffff94851602176001600160c01b0316600160c01b939092169290920217815560608401516001918201805493516001600160a01b03199094166001600160a01b039092169190911763ffffffff60a01b1916600160a01b93851693909302929092179091558401600c8a015560088901549192506106d591908790610ad916565b60088801556001600160a01b0386166000908152600a8901602052604090205460ff161561071857600e8701805460018101825560009182526020909120018390555b5050505050505050565b61072f8787858585610a11565b600787015460038088019190915560088801546004880155600587018690556006870185905587015461076a90858161076457fe5b04610b33565b86546001600160801b0319166001600160801b03919091161786556004870154600787015461079b91908161076457fe5b86546001600160801b03918216600160801b02911617865550505060018301805460ff60f01b1916600160f01b1790555050600b8201546011820155600c90910154601290910155565b60008083600501548310156107fc57506000610334565b836006015483106108105750611388610334565b600584015460068501546101f49190819003908503611194028161083057fe5b0401949350505050565b600c820154600090815b81811015610887576000818152600d860160205260409020600101546001600160a01b038581169116141561087f5760010191506103169050565b600101610844565b506000949350505050565b6000816108a157506000610334565b826108af5750612710610334565b60006108c38361271064e8d4a51000610b7b565b9050846003015481106108dc5750506009830154610334565b600385015460098601546108f1918390610b7b565b915050610334565b600c8301546060908067ffffffffffffffff8111801561091857600080fd5b50604051908082528060200260200182016040528015610942578160200160208202803683370190505b509150600061095085610c87565b9050600061095d85610c87565b905060008061096d898585610892565b9050831561097d57806127100391505b60005b85811015610a0457600083156109c6576109c38a838151811061099f57fe5b602002602001015164e8d4a5100002612710880286610b7b9092919063ffffffff16565b90505b600083156109e0576109dd8a848151811061099f57fe5b90505b8082018984815181106109ef57fe5b60209081029190910101525050600101610980565b5050505050509392505050565b8251610a2690600a8601906020860190611054565b50610a3385848484610ccc565b8051610a4991600b87019160209091019061114a565b506000610a57868685610e73565b600786018190559050610a6a86826107e5565b8560090181905550505050505050565b610a82611185565b6001600160a01b0387166060820152610a9b8685610f63565b67ffffffffffffffff166020820152610ab48584610f63565b67ffffffffffffffff1660408201526001600160801b03909116815295945050505050565b600082820183811015610334576040805162461bcd60e51b815260206004820152601b60248201527f536166654d6174683a206164646974696f6e206f766572666c6f770000000000604482015290519081900360640190fd5b6000600160801b8210610b775760405162461bcd60e51b81526004018080602001828103825260278152602001806118086027913960400191505060405180910390fd5b5090565b6000808211610bc4576040805162461bcd60e51b815260206004820152601060248201526f4469766973696f6e206279207a65726f60801b604482015290519081900360640190fd5b83610bd157506000610334565b83830283858281610bde57fe5b041415610bf757828181610bee57fe5b04915050610334565b6000838681610c0257fe5b0490506000848781610c1057fe5b0690506000858781610c1e57fe5b0490506000868881610c2c57fe5b069050610c7a610c4688610c408685610f94565b90610fed565b610c74610c538686610f94565b610c74610c608987610f94565b610c748d610c6e8c8b610f94565b90610f94565b90610ad9565b9998505050505050505050565b600080805b8351811015610cc557610cbb848281518110610ca457fe5b602002602001015183610ad990919063ffffffff16565b9150600101610c8c565b5092915050565b825160609060008167ffffffffffffffff81118015610cea57600080fd5b50604051908082528060200260200182016040528015610d14578160200160208202803683370190505b5090506000805b83811015610dfd5760006001600160a01b0316888281518110610d3a57fe5b60200260200101516001600160a01b03161415610d5657610df5565b6000610dcd878381518110610d6757fe5b60200260200101518b60010160008c8681518110610d8157fe5b60200260200101516001600160a01b03166001600160a01b03168152602001908152602001600020548a8581518110610db657fe5b6020026020010151610b7b9092919063ffffffff16565b905080848381518110610ddc57fe5b6020908102919091010152610df18382610ad9565b9250505b600101610d1b565b508015610e685760005b83811015610e6657610e47610e3a612710888481518110610e2457fe5b6020026020010151610f9490919063ffffffff16565b83858481518110610db657fe5b838281518110610e5357fe5b6020908102919091010152600101610e07565b505b509695505050505050565b600080805b600a850154811015610f5a5760006001600160a01b031685600a018281548110610e9e57fe5b6000918252602090912001546001600160a01b03161415610ebe57610f52565b610f4f612710610f3f868481518110610ed357fe5b60200260200101518960010160008a600a018781548110610ef057fe5b60009182526020808320909101546001600160a01b03168352820192909252604001902054600b8a01805487908110610f2557fe5b9060005260206000200154610b7b9092919063ffffffff16565b81610f4657fe5b84919004610ad9565b91505b600101610e78565b50949350505050565b6000811580610f70575082155b15610f7d57506000610316565b610f8d8364e8d4a5100084610b7b565b9050610316565b600082610fa357506000610316565b82820282848281610fb057fe5b04146103345760405162461bcd60e51b815260040180806020018281038252602181526020018061182f6021913960400191505060405180910390fd5b6000808211611043576040805162461bcd60e51b815260206004820152601a60248201527f536166654d6174683a206469766973696f6e206279207a65726f000000000000604482015290519081900360640190fd5b81838161104c57fe5b049392505050565b8280548282559060005260206000209081019282156110a9579160200282015b828111156110a957825182546001600160a01b0319166001600160a01b03909116178255602090920191600190910190611074565b50610b779291506111b3565b6040518061024001604052806000815260200160008152602001600081526020016000815260200160008152602001600081526020016000815260200160008152602001600081526020016000815260200160608152602001600081526020016000600581111561112257fe5b8152600060208201819052606060408301819052808301526080820181905260a09091015290565b8280548282559060005260206000209081019282156110a9579160200282015b828111156110a957825182559160200191906001019061116a565b6040805160a08101825260008082526020820181905291810182905260608101829052608081019190915290565b5b80821115610b7757600081556001016111b4565b600082601f8301126111d8578081fd5b813560206111ed6111e8836117d1565b6117ad565b8281528181019085830183850287018401881015611209578586fd5b855b8581101561123057813561121e816117ef565b8452928401929084019060010161120b565b5090979650505050505050565b600082601f83011261124d578081fd5b8135602061125d6111e8836117d1565b8281528181019085830183850287018401881015611279578586fd5b855b858110156112305781358452928401929084019060010161127b565b600080604083850312156112a9578182fd5b82356112b4816117ef565b946020939093013593505050565b6000602082840312156112d3578081fd5b5035919050565b600080600080600060a086880312156112f1578081fd5b853594506020860135611303816117ef565b94979496505050506040830135926060810135926080909101359150565b60008060008060808587031215611336578384fd5b84359350602085013567ffffffffffffffff80821115611354578485fd5b611360888389016111c8565b94506040870135915080821115611375578384fd5b6113818883890161123d565b93506060870135915080821115611396578283fd5b506113a38782880161123d565b91505092959194509250565b6000806000606084860312156113c3578283fd5b83359250602084013567ffffffffffffffff808211156113e1578384fd5b6113ed8783880161123d565b93506040860135915080821115611402578283fd5b5061140f8682870161123d565b9150509250925092565b60008060006060848603121561142d578283fd5b505081359360208301359350604090920135919050565b60008060008060008060c0878903121561145c578081fd5b863595506020870135945060408701359350606087013567ffffffffffffffff80821115611488578283fd5b6114948a838b016111c8565b945060808901359150808211156114a9578283fd5b6114b58a838b0161123d565b935060a08901359150808211156114ca578283fd5b506114d789828a0161123d565b9150509295509295509295565b60008060008060008060008060006101208a8c031215611502578283fd5b8935985060208a0135975060408a0135965060608a0135955060808a0135945060a08a0135935060c08a0135925060e08a013591506101008a013567ffffffffffffffff811115611551578182fd5b8a01601f81018c13611561578182fd5b803561156f6111e8826117d1565b80828252602082019150602084018f60208086028701011115611590578586fd5b8594505b838510156115bd576115a681356117ef565b803583526001949094019360209283019201611594565b50809450505050509295985092959850929598565b6000815180845260208085019450808401835b8381101561160a5781516001600160a01b0316875295820195908201906001016115e5565b509495945050505050565b6000815180845260208085019450808401835b8381101561160a57815187529582019590820190600101611628565b15159052565b6006811061165457fe5b9052565b6000602082526103346020830184611615565b60006020825282516020830152602083015160408301526040830151606083015260608301516080830152608083015160a083015260a083015160c083015260c083015160e083015260e083015161010081818501528085015191505061012081818501528085015191505061014081818501528085015191505061024061016081818601526116ff610260860184611615565b90860151610180868101919091528601519092506101a06117228187018361164a565b808701519150506101c0818187015280870151915050601f196101e081878603018188015261175185846115d2565b9450808801519250506102008187860301818801526117708584611615565b9450808801519250505061022061178981870183611644565b860151905061179a85830182611644565b5090949350505050565b90815260200190565b60405181810167ffffffffffffffff811182821017156117c957fe5b604052919050565b600067ffffffffffffffff8211156117e557fe5b5060209081020190565b6001600160a01b038116811461180457600080fd5b5056fe53616665436173743a2076616c756520646f65736e27742066697420696e203132382062697473536166654d6174683a206d756c7469706c69636174696f6e206f766572666c6f77a26469706673582212203ddd24791b8c2e365c214330b3d81190843716e11708d1fcae4466a075f130c964736f6c63430007060033",
  "linkReferences": {},
  "deployedLinkReferences": {}
}