{
  "_format": "hh-sol-artifact-1",
  "contractName": "CheckPointableMock",
  "sourceName": "contracts/token/mock/CheckPointableMock.sol",
  "abi": [
    {
      "anonymous": false,
      "inputs": [
        {
          "indexed": false,
          "internalType": "uint256",
          "name": "_blockNumber",
          "type": "uint256"
        }
      ],
      "name": "CreatedTotalSupplyCache",
      "type": "event"
    },
    {
      "inputs": [
        {
          "internalType": "address",
          "name": "_owner",
          "type": "address"
        },
        {
          "internalType": "uint256",
          "name": "_count",
          "type": "uint256"
        }
      ],
      "name": "balanceHistoryCleanup",
      "outputs": [
        {
          "internalType": "uint256",
          "name": "",
          "type": "uint256"
        }
      ],
      "stateMutability": "nonpayable",
      "type": "function"
    },
    {
      "inputs": [
        {
          "internalType": "address",
          "name": "_owner",
          "type": "address"
        },
        {
          "internalType": "uint256",
          "name": "_blockNumber",
          "type": "uint256"
        }
      ],
      "name": "balanceOfAt",
      "outputs": [
        {
          "internalType": "uint256",
          "name": "_balance",
          "type": "uint256"
        }
      ],
      "stateMutability": "view",
      "type": "function"
    },
    {
      "inputs": [
        {
          "internalType": "address",
          "name": "_owner",
          "type": "address"
        },
        {
          "internalType": "uint256",
          "name": "_amount",
          "type": "uint256"
        }
      ],
      "name": "burnForAtNow",
      "outputs": [],
      "stateMutability": "nonpayable",
      "type": "function"
    },
    {
      "inputs": [],
      "name": "cleanerContract",
      "outputs": [
        {
          "internalType": "address",
          "name": "",
          "type": "address"
        }
      ],
      "stateMutability": "view",
      "type": "function"
    },
    {
      "inputs": [],
      "name": "getCleanupBlockNumber",
      "outputs": [
        {
          "internalType": "uint256",
          "name": "",
          "type": "uint256"
        }
      ],
      "stateMutability": "view",
      "type": "function"
    },
    {
      "inputs": [
        {
          "internalType": "address",
          "name": "_owner",
          "type": "address"
        },
        {
          "internalType": "uint256",
          "name": "_amount",
          "type": "uint256"
        }
      ],
      "name": "mintForAtNow",
      "outputs": [],
      "stateMutability": "nonpayable",
      "type": "function"
    },
    {
      "inputs": [
        {
          "internalType": "uint256",
          "name": "_blockNumber",
          "type": "uint256"
        }
      ],
      "name": "setCleanupBlockNumber",
      "outputs": [],
      "stateMutability": "nonpayable",
      "type": "function"
    },
    {
      "inputs": [
        {
          "internalType": "uint256",
          "name": "_blockNumber",
          "type": "uint256"
        }
      ],
      "name": "totalSupplyAt",
      "outputs": [
        {
          "internalType": "uint256",
          "name": "_totalSupply",
          "type": "uint256"
        }
      ],
      "stateMutability": "view",
      "type": "function"
    },
    {
      "inputs": [
        {
          "internalType": "uint256",
          "name": "_blockNumber",
          "type": "uint256"
        }
      ],
      "name": "totalSupplyCacheCleanup",
      "outputs": [
        {
          "internalType": "uint256",
          "name": "",
          "type": "uint256"
        }
      ],
      "stateMutability": "nonpayable",
      "type": "function"
    },
    {
      "inputs": [
        {
          "internalType": "uint256",
          "name": "_count",
          "type": "uint256"
        }
      ],
      "name": "totalSupplyHistoryCleanup",
      "outputs": [
        {
          "internalType": "uint256",
          "name": "",
          "type": "uint256"
        }
      ],
      "stateMutability": "nonpayable",
      "type": "function"
    },
    {
      "inputs": [
        {
          "internalType": "address",
          "name": "from",
          "type": "address"
        },
        {
          "internalType": "address",
          "name": "to",
          "type": "address"
        },
        {
          "internalType": "uint256",
          "name": "_amount",
          "type": "uint256"
        }
      ],
      "name": "transmitAtNow",
      "outputs": [],
      "stateMutability": "nonpayable",
      "type": "function"
    }
  ],
  "bytecode": "0x608060405234801561001057600080fd5b50611064806100206000396000f3fe608060405234801561001057600080fd5b50600436106100a95760003560e01c80634ee2cd7e116100715780634ee2cd7e1461018a578063981b24d0146101b65780639ca20e4e146101d3578063a72ec4b6146101f7578063f0e292c9146101ff578063f62f8f3a1461022b576100a9565b806313de97f5146100ae5780631c6fcbbf146100cd5780633d5b763a146100f957806343ea370b1461012f578063480832ac1461015e575b600080fd5b6100cb600480360360208110156100c457600080fd5b5035610248565b005b6100cb600480360360408110156100e357600080fd5b506001600160a01b038135169060200135610254565b6100cb6004803603606081101561010f57600080fd5b506001600160a01b03813581169160208101359091169060400135610262565b61014c6004803603602081101561014557600080fd5b5035610272565b60408051918252519081900360200190f35b6100cb6004803603604081101561017457600080fd5b506001600160a01b038135169060200135610335565b61014c600480360360408110156101a057600080fd5b506001600160a01b03813516906020013561033f565b61014c600480360360208110156101cc57600080fd5b5035610397565b6101db6103ed565b604080516001600160a01b039092168252519081900360200190f35b61014c6103fc565b61014c6004803603604081101561021557600080fd5b506001600160a01b03813516906020013561040b565b61014c6004803603602081101561024157600080fd5b5035610481565b610251816104ec565b50565b61025e8282610570565b5050565b61026d8383836105d9565b505050565b6005546000906001600160a01b031633146102cc576040805162461bcd60e51b815260206004820152601560248201527413db9b1e4818db19585b995c8818dbdb9d1c9858dd605a1b604482015290519081900360640190fd5b6004548210610322576040805162461bcd60e51b815260206004820152601e60248201527f4e6f20636c65616e757020616674657220636c65616e757020626c6f636b0000604482015290519081900360640190fd5b61032d60038361060f565b90505b919050565b61025e8282610643565b6000816004548110156103835760405162461bcd60e51b815260040180806020018281038252602d815260200180610fac602d913960400191505060405180910390fd5b61038f600085856106f2565b949350505050565b6000816004548110156103db5760405162461bcd60e51b815260040180806020018281038252602d815260200180610fac602d913960400191505060405180910390fd5b6103e660018461071d565b9392505050565b6005546001600160a01b031681565b6000610406610860565b905090565b6005546000906001600160a01b03163314610465576040805162461bcd60e51b815260206004820152601560248201527413db9b1e4818db19585b995c8818dbdb9d1c9858dd605a1b604482015290519081900360640190fd5b6004546104789060009085908590610866565b90505b92915050565b6005546000906001600160a01b031633146104db576040805162461bcd60e51b815260206004820152601560248201527413db9b1e4818db19585b995c8818dbdb9d1c9858dd605a1b604482015290519081900360640190fd5b60045461032d9060019084906108ac565b60045481101561052d5760405162461bcd60e51b8152600401808060200182810382526028815260200180610f846028913960400191505060405180910390fd5b43811061056b5760405162461bcd60e51b8152600401808060200182810382526021815260200180610f636021913960400191505060405180910390fd5b600455565b600061058682610580854361033f565b90610999565b9050610594600084836109f3565b6004546105a8906000908590600290610866565b506105c16105b98361058043610397565b600190610a11565b6004546105d3906001906002906108ac565b50505050565b6105e66000848484610bd3565b6004546105fa906000908590600290610866565b506004546105d3906000908490600290610866565b6000818152602083905260408120541561063a5750600081815260208390526040812055600161047b565b50600092915050565b60006106898260405180604001604052806016815260200175213ab937103a37b7903134b3903337b91037bbb732b960511b815250610682864361033f565b9190610c62565b9050610697600084836109f3565b6004546106ab906000908590600290610866565b506105c16105b9836040518060400160405280601d81526020017f4275726e20746f6f2062696720666f7220746f74616c20737570706c7900000081525061068243610397565b6001600160a01b0382166000908152602084905260408120610714818461071d565b95945050505050565b6001820154600090600160401b90046001600160401b03168061074457600091505061047b565b438310158061077657506000198101600090815260208590526040902054600160c01b90046001600160401b03168310155b1561079e57600019016000908152602084905260409020546001600160c01b0316905061047b565b60018401546001600160401b039081166000818152602087905260409020549091600160c01b9091041684101561081757801561080c5760405162461bcd60e51b8152600401808060200182810382526030815260200180610fff6030913960400191505060405180910390fd5b60009250505061047b565b600185015460009061083d9087908490600160401b90046001600160401b031688610cf9565b6000908152602087905260409020546001600160c01b0316935050505092915050565b60045490565b60006001600160a01b038416156108a1576001600160a01b038416600090815260208690526040902061089a9084846108ac565b905061038f565b506000949350505050565b6000816108bb575060006103e6565b6001840154600160401b90046001600160401b0316806108df5760009150506103e6565b60018501546001600160401b031660006109056108fc8388610999565b60018503610d7d565b9050815b818110801561093a575060018101600090815260208990526040902054600160c01b90046001600160401b03168610155b1561095657600081815260208990526040812055600101610909565b8281111561098b5761096781610d93565b60018901805467ffffffffffffffff19166001600160401b03929092169190911790555b919091039695505050505050565b600082820183811015610478576040805162461bcd60e51b815260206004820152601b60248201527f536166654d6174683a206164646974696f6e206f766572666c6f770000000000604482015290519081900360640190fd5b6001600160a01b03821660009081526020849052604090206105d381835b6001820154600160401b90046001600160401b031680610ac8576040518060400160405280610a3f84610ddb565b6001600160c01b03168152602001610a5643610d93565b6001600160401b03908116909152600080805260208681526040909120835181549490920151909216600160c01b026001600160c01b039182166001600160c01b0319909416939093171691909117905560018301805467ffffffffffffffff60401b1916600160401b17905561026d565b600019810160009081526020849052604090208054600160c01b90046001600160401b031643811415610b1e57610afe84610ddb565b82546001600160c01b0319166001600160c01b0391909116178255610bcc565b804311610b2757fe5b6040518060400160405280610b3b86610ddb565b6001600160c01b03168152602001610b5243610d93565b6001600160401b039081169091526000858152602088815260409091208351815494909201518316600160c01b026001600160c01b039283166001600160c01b0319909516949094179091169290921790915560018087018054918601909216600160401b0267ffffffffffffffff60401b199091161790555b5050505050565b80610bdd576105d3565b6001600160a01b038316158015610bfb57506001600160a01b038216155b15610c0257fe5b6001600160a01b03831615610c36576000610c2782610c218787610e35565b90610e56565b9050610c348585836109f3565b505b6001600160a01b038216156105d3576000610c55826105808786610e35565b9050610bcc8584836109f3565b60008184841115610cf15760405162461bcd60e51b81526004018080602001828103825283818151815260200191508051906020019080838360005b83811015610cb6578181015183820152602001610c9e565b50505050905090810190601f168015610ce35780820380516001836020036101000a031916815260200191505b509250505060405180910390fd5b505050900390565b60008381610d08856001610e56565b90505b81811115610d73576000610d2f6002610d2960016105808688610999565b90610eb3565b600081815260208a90526040902054909150600160c01b90046001600160401b03168510610d5f57809250610d6d565b610d6a816001610e56565b91505b50610d0b565b5095945050505050565b6000818310610d8c5781610478565b5090919050565b6000600160401b8210610dd75760405162461bcd60e51b8152600401808060200182810382526026815260200180610fd96026913960400191505060405180910390fd5b5090565b6000600160c01b8210610dd7576040805162461bcd60e51b815260206004820152601d60248201527f76616c756520646f65736e27742066697420696e203139322062697473000000604482015290519081900360640190fd5b6001600160a01b038116600090815260208390526040812061038f81610f1a565b600082821115610ead576040805162461bcd60e51b815260206004820152601e60248201527f536166654d6174683a207375627472616374696f6e206f766572666c6f770000604482015290519081900360640190fd5b50900390565b6000808211610f09576040805162461bcd60e51b815260206004820152601a60248201527f536166654d6174683a206469766973696f6e206279207a65726f000000000000604482015290519081900360640190fd5b818381610f1257fe5b049392505050565b6001810154600090600160401b90046001600160401b031680610f41576000915050610330565b6000190160009081526020929092525060409020546001600160c01b03169056fe436c65616e757020626c6f636b206d75737420626520696e207468652070617374436c65616e757020626c6f636b206e756d626572206d757374206e65766572206465637265617365436865636b506f696e7461626c653a2072656164696e672066726f6d20636c65616e65642d757020626c6f636b53616665436173743a2076616c756520646f65736e27742066697420696e2036342062697473436865636b506f696e74486973746f72793a2072656164696e672066726f6d20636c65616e65642d757020626c6f636ba2646970667358221220be44d5d6184ae5f11c005aafb6198bc007523f756f6a73230afa7f37f11c42a164736f6c63430007060033",
  "linkReferences": {},
  "deployedLinkReferences": {}
}