{
  "_format": "hh-sol-artifact-1",
  "contractName": "FlareDaemonWithInflationMock",
  "sourceName": "contracts/inflation/mock/FlareDaemonWithInflationMock.sol",
  "abi": [
    {
      "inputs": [],
      "stateMutability": "nonpayable",
      "type": "constructor"
    },
    {
      "anonymous": false,
      "inputs": [
        {
          "indexed": false,
          "internalType": "bytes4",
          "name": "selector",
          "type": "bytes4"
        },
        {
          "indexed": false,
          "internalType": "uint256",
          "name": "allowedAfterTimestamp",
          "type": "uint256"
        },
        {
          "indexed": false,
          "internalType": "bytes",
          "name": "encodedCall",
          "type": "bytes"
        }
      ],
      "name": "GovernanceCallTimelocked",
      "type": "event"
    },
    {
      "anonymous": false,
      "inputs": [
        {
          "indexed": false,
          "internalType": "address",
          "name": "initialGovernance",
          "type": "address"
        }
      ],
      "name": "GovernanceInitialised",
      "type": "event"
    },
    {
      "anonymous": false,
      "inputs": [
        {
          "indexed": false,
          "internalType": "address",
          "name": "governanceSettings",
          "type": "address"
        }
      ],
      "name": "GovernedProductionModeEntered",
      "type": "event"
    },
    {
      "anonymous": false,
      "inputs": [
        {
          "indexed": false,
          "internalType": "contract IInflationGenesis",
          "name": "theNewContract",
          "type": "address"
        },
        {
          "indexed": false,
          "internalType": "contract IInflationGenesis",
          "name": "theOldContract",
          "type": "address"
        }
      ],
      "name": "InflationSet",
      "type": "event"
    },
    {
      "anonymous": false,
      "inputs": [
        {
          "indexed": false,
          "internalType": "uint256",
          "name": "amountWei",
          "type": "uint256"
        }
      ],
      "name": "MintingRequestReceived",
      "type": "event"
    },
    {
      "anonymous": false,
      "inputs": [
        {
          "indexed": false,
          "internalType": "bytes4",
          "name": "selector",
          "type": "bytes4"
        },
        {
          "indexed": false,
          "internalType": "uint256",
          "name": "timestamp",
          "type": "uint256"
        }
      ],
      "name": "TimelockedGovernanceCallCanceled",
      "type": "event"
    },
    {
      "anonymous": false,
      "inputs": [
        {
          "indexed": false,
          "internalType": "bytes4",
          "name": "selector",
          "type": "bytes4"
        },
        {
          "indexed": false,
          "internalType": "uint256",
          "name": "timestamp",
          "type": "uint256"
        }
      ],
      "name": "TimelockedGovernanceCallExecuted",
      "type": "event"
    },
    {
      "inputs": [
        {
          "internalType": "bytes4",
          "name": "_selector",
          "type": "bytes4"
        }
      ],
      "name": "cancelGovernanceCall",
      "outputs": [],
      "stateMutability": "nonpayable",
      "type": "function"
    },
    {
      "inputs": [
        {
          "internalType": "bytes4",
          "name": "_selector",
          "type": "bytes4"
        }
      ],
      "name": "executeGovernanceCall",
      "outputs": [],
      "stateMutability": "nonpayable",
      "type": "function"
    },
    {
      "inputs": [],
      "name": "governance",
      "outputs": [
        {
          "internalType": "address",
          "name": "",
          "type": "address"
        }
      ],
      "stateMutability": "view",
      "type": "function"
    },
    {
      "inputs": [],
      "name": "governanceSettings",
      "outputs": [
        {
          "internalType": "contract IGovernanceSettings",
          "name": "",
          "type": "address"
        }
      ],
      "stateMutability": "view",
      "type": "function"
    },
    {
      "inputs": [],
      "name": "inflation",
      "outputs": [
        {
          "internalType": "contract Inflation",
          "name": "",
          "type": "address"
        }
      ],
      "stateMutability": "view",
      "type": "function"
    },
    {
      "inputs": [
        {
          "internalType": "address",
          "name": "_governance",
          "type": "address"
        }
      ],
      "name": "initialise",
      "outputs": [],
      "stateMutability": "pure",
      "type": "function"
    },
    {
      "inputs": [],
      "name": "initialiseFixedAddress",
      "outputs": [
        {
          "internalType": "address",
          "name": "",
          "type": "address"
        }
      ],
      "stateMutability": "nonpayable",
      "type": "function"
    },
    {
      "inputs": [],
      "name": "lastMintRequestTs",
      "outputs": [
        {
          "internalType": "uint256",
          "name": "",
          "type": "uint256"
        }
      ],
      "stateMutability": "view",
      "type": "function"
    },
    {
      "inputs": [],
      "name": "lastUpdateMaxMintRequestTs",
      "outputs": [
        {
          "internalType": "uint256",
          "name": "",
          "type": "uint256"
        }
      ],
      "stateMutability": "view",
      "type": "function"
    },
    {
      "inputs": [],
      "name": "maxMintingRequestWei",
      "outputs": [
        {
          "internalType": "uint256",
          "name": "",
          "type": "uint256"
        }
      ],
      "stateMutability": "view",
      "type": "function"
    },
    {
      "inputs": [],
      "name": "productionMode",
      "outputs": [
        {
          "internalType": "bool",
          "name": "",
          "type": "bool"
        }
      ],
      "stateMutability": "view",
      "type": "function"
    },
    {
      "inputs": [
        {
          "internalType": "uint256",
          "name": "_amountWei",
          "type": "uint256"
        }
      ],
      "name": "requestMinting",
      "outputs": [],
      "stateMutability": "nonpayable",
      "type": "function"
    },
    {
      "inputs": [
        {
          "internalType": "contract Inflation",
          "name": "_inflation",
          "type": "address"
        }
      ],
      "name": "setInflation",
      "outputs": [],
      "stateMutability": "nonpayable",
      "type": "function"
    },
    {
      "inputs": [],
      "name": "switchToProductionMode",
      "outputs": [],
      "stateMutability": "nonpayable",
      "type": "function"
    },
    {
      "inputs": [
        {
          "internalType": "bytes4",
          "name": "",
          "type": "bytes4"
        }
      ],
      "name": "timelockedCalls",
      "outputs": [
        {
          "internalType": "uint256",
          "name": "allowedAfterTimestamp",
          "type": "uint256"
        },
        {
          "internalType": "bytes",
          "name": "encodedCall",
          "type": "bytes"
        }
      ],
      "stateMutability": "view",
      "type": "function"
    },
    {
      "inputs": [],
      "name": "totalMintingReceivedWei",
      "outputs": [
        {
          "internalType": "uint256",
          "name": "",
          "type": "uint256"
        }
      ],
      "stateMutability": "view",
      "type": "function"
    },
    {
      "inputs": [],
      "name": "totalMintingRequestedWei",
      "outputs": [
        {
          "internalType": "uint256",
          "name": "",
          "type": "uint256"
        }
      ],
      "stateMutability": "view",
      "type": "function"
    },
    {
      "inputs": [],
      "name": "triggerDaemonize",
      "outputs": [],
      "stateMutability": "nonpayable",
      "type": "function"
    },
    {
      "inputs": [
        {
          "internalType": "uint256",
          "name": "_toMint",
          "type": "uint256"
        }
      ],
      "name": "triggerReceiveMinting",
      "outputs": [],
      "stateMutability": "nonpayable",
      "type": "function"
    }
  ],
  "bytecode": "0x608060405234801561001057600080fd5b50611275806100206000396000f3fe608060405234801561001057600080fd5b50600436106101215760003560e01c806374e6310e116100ad578063c9f960eb11610071578063c9f960eb146102d5578063e17f212e146102dd578063e9de7d60146102f9578063ee323c9214610316578063f5a983831461033c57610121565b806374e6310e146101f15780639d6a890f14610297578063a6817ace146102bd578063ba278701146102c5578063be0522e0146102cd57610121565b80635ff27079116100f45780635ff270791461017457806362354e031461019d5780636288f38a146101a557806362da19a5146101c257806367fc4029146101ca57610121565b806310663750146101265780631d76dea1146101405780634f6a77b5146101485780635aa6e67514610150575b600080fd5b61012e610344565b60408051918252519081900360200190f35b61012e61034a565b61012e610350565b610158610356565b604080516001600160a01b039092168252519081900360200190f35b61019b6004803603602081101561018a57600080fd5b50356001600160e01b0319166103eb565b005b610158610740565b61019b600480360360208110156101bb57600080fd5b503561074b565b61012e6107bd565b61019b600480360360208110156101e057600080fd5b50356001600160e01b0319166107c3565b6102186004803603602081101561020757600080fd5b50356001600160e01b0319166108ab565b6040518083815260200180602001828103825283818151815260200191508051906020019080838360005b8381101561025b578181015183820152602001610243565b50505050905090810190601f1680156102885780820380516001836020036101000a031916815260200191505b50935050505060405180910390f35b61019b600480360360208110156102ad57600080fd5b50356001600160a01b0316610951565b61012e610956565b61019b61095c565b6101586109da565b6101586109e9565b6102e5610a09565b604080519115158252519081900360200190f35b61019b6004803603602081101561030f57600080fd5b5035610a19565b61019b6004803603602081101561032c57600080fd5b50356001600160a01b0316610c1c565b61019b610d50565b60045481565b60065481565b60055481565b60008054600160a81b900460ff16610379576000546001600160a01b03166103e6565b60076001609c1b016001600160a01b031663732524946040518163ffffffff1660e01b815260040160206040518083038186803b1580156103b957600080fd5b505afa1580156103cd573d6000803e3d6000fd5b505050506040513d60208110156103e357600080fd5b50515b905090565b60408051630debfda360e41b8152336004820152905160076001609c1b019163debfda30916024808301926020929190829003018186803b15801561042f57600080fd5b505afa158015610443573d6000803e3d6000fd5b505050506040513d602081101561045957600080fd5b505161049c576040805162461bcd60e51b815260206004820152600d60248201526c37b7363c9032bc32b1baba37b960991b604482015290519081900360640190fd5b6001600160e01b0319811660009081526001602052604090208054610508576040805162461bcd60e51b815260206004820152601a60248201527f74696d656c6f636b3a20696e76616c69642073656c6563746f72000000000000604482015290519081900360640190fd5b805442101561055e576040805162461bcd60e51b815260206004820152601960248201527f74696d656c6f636b3a206e6f7420616c6c6f7765642079657400000000000000604482015290519081900360640190fd5b6000816001018054600181600116156101000203166002900480601f0160208091040260200160405190810160405280929190818152602001828054600181600116156101000203166002900480156105f85780601f106105cd576101008083540402835291602001916105f8565b820191906000526020600020905b8154815290600101906020018083116105db57829003601f168201915b5050506001600160e01b031986166000908152600160208190526040822082815594955090925061062c915083018261115a565b50506000805460ff60b01b1916600160b01b178155604051825130918491819060208401908083835b602083106106745780518252601f199092019160209182019101610655565b6001836020036101000a0380198251168184511680821785525050505050509050019150506000604051808303816000865af19150503d80600081146106d6576040519150601f19603f3d011682016040523d82523d6000602084013e6106db565b606091505b50506000805460ff60b01b19169055604080516001600160e01b03198716815242602082015281519293507fa7326b57fc9cfe267aaea5e7f0b01757154d265620a0585819416ee9ddd2c438929081900390910190a161073a81610e0a565b50505050565b60076001609c1b0181565b6004546107589082610e27565b60049081556002546040805163c611c2c560e01b815290516001600160a01b039092169263c611c2c5928592808301926000929182900301818588803b1580156107a157600080fd5b505af11580156107b5573d6000803e3d6000fd5b505050505050565b60035481565b6107cb610e88565b6001600160e01b03198116600090815260016020526040902054610836576040805162461bcd60e51b815260206004820152601a60248201527f74696d656c6f636b3a20696e76616c69642073656c6563746f72000000000000604482015290519081900360640190fd5b604080516001600160e01b03198316815242602082015281517f7735b2391c38a81419c513e30ca578db7158eadd7101511b23e221c654d19cf8929181900390910190a16001600160e01b031981166000908152600160208190526040822082815591906108a69083018261115a565b505050565b600160208181526000928352604092839020805481840180548651600296821615610100026000190190911695909504601f810185900485028601850190965285855290949193929091908301828280156109475780601f1061091c57610100808354040283529160200191610947565b820191906000526020600020905b81548152906001019060200180831161092a57829003601f168201915b5050505050905082565bfe5b50565b60075481565b600260009054906101000a90046001600160a01b03166001600160a01b0316636d0e8c346040518163ffffffff1660e01b8152600401602060405180830381600087803b1580156109ac57600080fd5b505af11580156109c0573d6000803e3d6000fd5b505050506040513d60208110156109d657600080fd5b5050565b6002546001600160a01b031681565b600073fffec6c83c8bf5c3f4ae0ccf8c45ce20e4560bd76103e681610ee9565b600054600160a81b900460ff1681565b60025460408051808201909152600d81526c3737ba1034b7333630ba34b7b760991b602082015233916001600160a01b03168214610ad55760405162461bcd60e51b81526004018080602001828103825283818151815260200191508051906020019080838360005b83811015610a9a578181015183820152602001610a82565b50505050905090810190601f168015610ac75780820380516001836020036101000a031916815260200191505b509250505060405180910390fd5b5060055482111560405180604001604052806007815260200166746f6f2062696760c81b81525090610b485760405162461bcd60e51b8152602060048201818152835160248401528351909283926044909101919085019080838360008315610a9a578181015183820152602001610a82565b506006544290610b5b9062014370610e27565b10604051806040016040528060098152602001683a37b79037b33a32b760b91b81525090610bca5760405162461bcd60e51b8152602060048201818152835160248401528351909283926044909101919085019080838360008315610a9a578181015183820152602001610a82565b5081156109d65742600655600354610be29083610e27565b6003556040805183815290517f4c4f1efc376f31abeb51b72c5f9ed81cf4016591312bb02337e58149dcfaaab49181900360200190a15050565b600054600160b01b900460ff1680610c3e5750600054600160a81b900460ff16155b15610d4557610c4b610fa2565b60408051808201909152600e81526d696e666c6174696f6e207a65726f60901b60208201526001600160a01b038216610cc55760405162461bcd60e51b8152602060048201818152835160248401528351909283926044909101919085019080838360008315610a9a578181015183820152602001610a82565b50600254604080516001600160a01b039283168152918316602083015280517f4bdd1012a7d55ed9afad8675a125e1b68c7c15f712c0f3d5cddac69c3b9798059281900390910190a1600280546001600160a01b0319166001600160a01b038316179055600554610d40576a295be96e640669720000006005555b610953565b610953600036610fd7565b610d58610e88565b600054600160a81b900460ff1615610db7576040805162461bcd60e51b815260206004820152601a60248201527f616c726561647920696e2070726f64756374696f6e206d6f6465000000000000604482015290519081900360640190fd5b60008054600161ff0160a01b031916600160a81b1790556040805160076001609c1b01815290517f83af113638b5422f9e977cebc0aaf0eaf2188eb9a8baae7f9d46c42b33a1560c9181900360200190a1565b3d604051818101604052816000823e8215610e23578181f35b8181fd5b600082820183811015610e81576040805162461bcd60e51b815260206004820152601b60248201527f536166654d6174683a206164646974696f6e206f766572666c6f770000000000604482015290519081900360640190fd5b9392505050565b610e90610356565b6001600160a01b0316336001600160a01b031614610ee7576040805162461bcd60e51b815260206004820152600f60248201526e6f6e6c7920676f7665726e616e636560881b604482015290519081900360640190fd5b565b600054600160a01b900460ff1615610f3f576040805162461bcd60e51b8152602060048201526014602482015273696e697469616c6973656420213d2066616c736560601b604482015290519081900360640190fd5b60008054600160a01b60ff60a01b19909116176001600160a01b0319166001600160a01b03831690811790915560408051918252517f9789733827840833afc031fb2ef9ab6894271f77bad2085687cf4ae5c7bee4db916020908290030190a150565b600054600160b01b900460ff1615610fcf57333014610fbd57fe5b6000805460ff60b01b19169055610ee7565b610ee7610e88565b610fdf610e88565b600082359050600060076001609c1b016001600160a01b0316636221a54b6040518163ffffffff1660e01b815260040160206040518083038186803b15801561102757600080fd5b505afa15801561103b573d6000803e3d6000fd5b505050506040513d602081101561105157600080fd5b505160408051808201825242830180825282516020601f89018190048102820181019094528781529394509290918281019190889088908190840183828082843760009201829052509390945250506001600160e01b031986168152600160208181526040909220845181558483015180519194506110d59392850192019061119e565b509050507fed948300a3694aa01d4a6b258bfd664350193d770c0b51f8387277f6d83ea3b68382878760405180856001600160e01b0319168152602001848152602001806020018281038252848482818152602001925080828437600083820152604051601f909101601f191690920182900397509095505050505050a15050505050565b50805460018160011615610100020316600290046000825580601f106111805750610953565b601f016020900490600052602060002090810190610953919061122a565b828054600181600116156101000203166002900490600052602060002090601f0160209004810192826111d4576000855561121a565b82601f106111ed57805160ff191683800117855561121a565b8280016001018555821561121a579182015b8281111561121a5782518255916020019190600101906111ff565b5061122692915061122a565b5090565b5b80821115611226576000815560010161122b56fea2646970667358221220d8feaa50070950ecfd51ab968412b5a53251ebc6713a00c0da7f96846e6dba6f64736f6c63430007060033",
  "linkReferences": {},
  "deployedLinkReferences": {}
}