{
  "_format": "hh-sol-artifact-1",
  "contractName": "DelegatableMock",
  "sourceName": "contracts/token/mock/DelegatableMock.sol",
  "abi": [
    {
      "inputs": [],
      "stateMutability": "nonpayable",
      "type": "constructor"
    },
    {
      "anonymous": false,
      "inputs": [
        {
          "indexed": false,
          "internalType": "address",
          "name": "_owner",
          "type": "address"
        },
        {
          "indexed": false,
          "internalType": "uint256",
          "name": "_blockNumber",
          "type": "uint256"
        }
      ],
      "name": "CreatedVotePowerCache",
      "type": "event"
    },
    {
      "anonymous": false,
      "inputs": [
        {
          "indexed": true,
          "internalType": "address",
          "name": "from",
          "type": "address"
        },
        {
          "indexed": true,
          "internalType": "address",
          "name": "to",
          "type": "address"
        },
        {
          "indexed": false,
          "internalType": "uint256",
          "name": "priorVotePower",
          "type": "uint256"
        },
        {
          "indexed": false,
          "internalType": "uint256",
          "name": "newVotePower",
          "type": "uint256"
        }
      ],
      "name": "Delegate",
      "type": "event"
    },
    {
      "anonymous": false,
      "inputs": [
        {
          "indexed": true,
          "internalType": "address",
          "name": "delegator",
          "type": "address"
        },
        {
          "indexed": true,
          "internalType": "address",
          "name": "delegatee",
          "type": "address"
        },
        {
          "indexed": false,
          "internalType": "uint256",
          "name": "votePower",
          "type": "uint256"
        },
        {
          "indexed": false,
          "internalType": "uint256",
          "name": "blockNumber",
          "type": "uint256"
        }
      ],
      "name": "Revoke",
      "type": "event"
    },
    {
      "inputs": [
        {
          "internalType": "address",
          "name": "_who",
          "type": "address"
        }
      ],
      "name": "balanceOf",
      "outputs": [
        {
          "internalType": "uint256",
          "name": "",
          "type": "uint256"
        }
      ],
      "stateMutability": "view",
      "type": "function"
    },
    {
      "inputs": [
        {
          "internalType": "address",
          "name": "_who",
          "type": "address"
        },
        {
          "internalType": "uint256",
          "name": "_blockNumber",
          "type": "uint256"
        }
      ],
      "name": "balanceOfAt",
      "outputs": [
        {
          "internalType": "uint256",
          "name": "",
          "type": "uint256"
        }
      ],
      "stateMutability": "view",
      "type": "function"
    },
    {
      "inputs": [
        {
          "internalType": "address",
          "name": "_owner",
          "type": "address"
        },
        {
          "internalType": "uint256",
          "name": "_amount",
          "type": "uint256"
        }
      ],
      "name": "burnVotePower",
      "outputs": [],
      "stateMutability": "nonpayable",
      "type": "function"
    },
    {
      "inputs": [],
      "name": "cleanerContract",
      "outputs": [
        {
          "internalType": "address",
          "name": "",
          "type": "address"
        }
      ],
      "stateMutability": "view",
      "type": "function"
    },
    {
      "inputs": [
        {
          "internalType": "address",
          "name": "_to",
          "type": "address"
        },
        {
          "internalType": "uint256",
          "name": "_bips",
          "type": "uint256"
        }
      ],
      "name": "delegate",
      "outputs": [],
      "stateMutability": "nonpayable",
      "type": "function"
    },
    {
      "inputs": [
        {
          "internalType": "address",
          "name": "_to",
          "type": "address"
        },
        {
          "internalType": "uint256",
          "name": "_votePower",
          "type": "uint256"
        }
      ],
      "name": "delegateExplicit",
      "outputs": [],
      "stateMutability": "nonpayable",
      "type": "function"
    },
    {
      "inputs": [
        {
          "internalType": "address",
          "name": "_owner",
          "type": "address"
        }
      ],
      "name": "delegatesOf",
      "outputs": [
        {
          "internalType": "address[]",
          "name": "_delegateAddresses",
          "type": "address[]"
        },
        {
          "internalType": "uint256[]",
          "name": "_bips",
          "type": "uint256[]"
        },
        {
          "internalType": "uint256",
          "name": "_count",
          "type": "uint256"
        },
        {
          "internalType": "uint256",
          "name": "_delegationMode",
          "type": "uint256"
        }
      ],
      "stateMutability": "view",
      "type": "function"
    },
    {
      "inputs": [
        {
          "internalType": "address",
          "name": "_owner",
          "type": "address"
        },
        {
          "internalType": "uint256",
          "name": "_blockNumber",
          "type": "uint256"
        }
      ],
      "name": "delegatesOfAt",
      "outputs": [
        {
          "internalType": "address[]",
          "name": "_delegateAddresses",
          "type": "address[]"
        },
        {
          "internalType": "uint256[]",
          "name": "_bips",
          "type": "uint256[]"
        },
        {
          "internalType": "uint256",
          "name": "_count",
          "type": "uint256"
        },
        {
          "internalType": "uint256",
          "name": "_delegationMode",
          "type": "uint256"
        }
      ],
      "stateMutability": "view",
      "type": "function"
    },
    {
      "inputs": [
        {
          "internalType": "address",
          "name": "_who",
          "type": "address"
        }
      ],
      "name": "delegationModeOf",
      "outputs": [
        {
          "internalType": "uint256",
          "name": "",
          "type": "uint256"
        }
      ],
      "stateMutability": "view",
      "type": "function"
    },
    {
      "inputs": [
        {
          "internalType": "address",
          "name": "_from",
          "type": "address"
        },
        {
          "internalType": "address",
          "name": "_to",
          "type": "address"
        },
        {
          "internalType": "uint256",
          "name": "_count",
          "type": "uint256"
        }
      ],
      "name": "explicitDelegationHistoryCleanup",
      "outputs": [
        {
          "internalType": "uint256",
          "name": "",
          "type": "uint256"
        }
      ],
      "stateMutability": "nonpayable",
      "type": "function"
    },
    {
      "inputs": [],
      "name": "getCleanupBlockNumber",
      "outputs": [
        {
          "internalType": "uint256",
          "name": "",
          "type": "uint256"
        }
      ],
      "stateMutability": "view",
      "type": "function"
    },
    {
      "inputs": [
        {
          "internalType": "address",
          "name": "_owner",
          "type": "address"
        },
        {
          "internalType": "uint256",
          "name": "_amount",
          "type": "uint256"
        }
      ],
      "name": "mintVotePower",
      "outputs": [],
      "stateMutability": "nonpayable",
      "type": "function"
    },
    {
      "inputs": [
        {
          "internalType": "address",
          "name": "_owner",
          "type": "address"
        },
        {
          "internalType": "uint256",
          "name": "_count",
          "type": "uint256"
        }
      ],
      "name": "percentageDelegationHistoryCleanup",
      "outputs": [
        {
          "internalType": "uint256",
          "name": "",
          "type": "uint256"
        }
      ],
      "stateMutability": "nonpayable",
      "type": "function"
    },
    {
      "inputs": [
        {
          "internalType": "address",
          "name": "_from",
          "type": "address"
        },
        {
          "internalType": "address",
          "name": "_to",
          "type": "address"
        },
        {
          "internalType": "uint256",
          "name": "_blockNumber",
          "type": "uint256"
        }
      ],
      "name": "revocationCleanup",
      "outputs": [
        {
          "internalType": "uint256",
          "name": "",
          "type": "uint256"
        }
      ],
      "stateMutability": "nonpayable",
      "type": "function"
    },
    {
      "inputs": [
        {
          "internalType": "address",
          "name": "_who",
          "type": "address"
        },
        {
          "internalType": "uint256",
          "name": "_blockNumber",
          "type": "uint256"
        }
      ],
      "name": "revokeDelegationAt",
      "outputs": [],
      "stateMutability": "nonpayable",
      "type": "function"
    },
    {
      "inputs": [
        {
          "internalType": "uint256",
          "name": "_blockNumber",
          "type": "uint256"
        }
      ],
      "name": "setCleanupBlockNumber",
      "outputs": [],
      "stateMutability": "nonpayable",
      "type": "function"
    },
    {
      "inputs": [
        {
          "internalType": "address",
          "name": "from",
          "type": "address"
        },
        {
          "internalType": "address",
          "name": "to",
          "type": "address"
        },
        {
          "internalType": "uint256",
          "name": "_amount",
          "type": "uint256"
        }
      ],
      "name": "transmitVotePower",
      "outputs": [],
      "stateMutability": "nonpayable",
      "type": "function"
    },
    {
      "inputs": [],
      "name": "undelegateAll",
      "outputs": [],
      "stateMutability": "nonpayable",
      "type": "function"
    },
    {
      "inputs": [
        {
          "internalType": "address[]",
          "name": "_delegateAddresses",
          "type": "address[]"
        }
      ],
      "name": "undelegateAllExplicit",
      "outputs": [
        {
          "internalType": "uint256",
          "name": "",
          "type": "uint256"
        }
      ],
      "stateMutability": "nonpayable",
      "type": "function"
    },
    {
      "inputs": [
        {
          "internalType": "address",
          "name": "_owner",
          "type": "address"
        }
      ],
      "name": "undelegatedVotePowerOf",
      "outputs": [
        {
          "internalType": "uint256",
          "name": "_votePower",
          "type": "uint256"
        }
      ],
      "stateMutability": "view",
      "type": "function"
    },
    {
      "inputs": [
        {
          "internalType": "address",
          "name": "_owner",
          "type": "address"
        },
        {
          "internalType": "uint256",
          "name": "_blockNumber",
          "type": "uint256"
        }
      ],
      "name": "undelegatedVotePowerOfAt",
      "outputs": [
        {
          "internalType": "uint256",
          "name": "_votePower",
          "type": "uint256"
        }
      ],
      "stateMutability": "view",
      "type": "function"
    },
    {
      "inputs": [
        {
          "internalType": "address",
          "name": "_owner",
          "type": "address"
        },
        {
          "internalType": "uint256",
          "name": "_blockNumber",
          "type": "uint256"
        }
      ],
      "name": "votePowerCacheCleanup",
      "outputs": [
        {
          "internalType": "uint256",
          "name": "",
          "type": "uint256"
        }
      ],
      "stateMutability": "nonpayable",
      "type": "function"
    },
    {
      "inputs": [
        {
          "internalType": "address",
          "name": "_from",
          "type": "address"
        },
        {
          "internalType": "address",
          "name": "_to",
          "type": "address"
        }
      ],
      "name": "votePowerFromTo",
      "outputs": [
        {
          "internalType": "uint256",
          "name": "",
          "type": "uint256"
        }
      ],
      "stateMutability": "view",
      "type": "function"
    },
    {
      "inputs": [
        {
          "internalType": "address",
          "name": "_from",
          "type": "address"
        },
        {
          "internalType": "address",
          "name": "_to",
          "type": "address"
        },
        {
          "internalType": "uint256",
          "name": "_blockNumber",
          "type": "uint256"
        }
      ],
      "name": "votePowerFromToAt",
      "outputs": [
        {
          "internalType": "uint256",
          "name": "",
          "type": "uint256"
        }
      ],
      "stateMutability": "view",
      "type": "function"
    },
    {
      "inputs": [
        {
          "internalType": "address",
          "name": "_owner",
          "type": "address"
        },
        {
          "internalType": "uint256",
          "name": "_count",
          "type": "uint256"
        }
      ],
      "name": "votePowerHistoryCleanup",
      "outputs": [
        {
          "internalType": "uint256",
          "name": "",
          "type": "uint256"
        }
      ],
      "stateMutability": "nonpayable",
      "type": "function"
    },
    {
      "inputs": [
        {
          "internalType": "address",
          "name": "_who",
          "type": "address"
        }
      ],
      "name": "votePowerOf",
      "outputs": [
        {
          "internalType": "uint256",
          "name": "",
          "type": "uint256"
        }
      ],
      "stateMutability": "view",
      "type": "function"
    },
    {
      "inputs": [
        {
          "internalType": "address",
          "name": "_who",
          "type": "address"
        },
        {
          "internalType": "uint256",
          "name": "_blockNumber",
          "type": "uint256"
        }
      ],
      "name": "votePowerOfAt",
      "outputs": [
        {
          "internalType": "uint256",
          "name": "",
          "type": "uint256"
        }
      ],
      "stateMutability": "view",
      "type": "function"
    }
  ],
  "bytecode": "0x608060405234801561001057600080fd5b50614044806100206000396000f3fe608060405234801561001057600080fd5b50600436106101a95760003560e01c806392bfe6d8116100f9578063d06dc3ad11610097578063e64767aa11610071578063e64767aa14610377578063ed475a791461038a578063eef9f9151461039d578063f6837767146103b0576101a9565b8063d06dc3ad1461033e578063d6aa0b7714610351578063dc57205614610364576101a9565b8063b302f393116100d3578063b302f393146102fd578063bbd6fbf814610305578063be0ca74714610318578063cabc45281461032b576101a9565b806392bfe6d8146102cd5780639ca20e4e146102e0578063a72ec4b6146102f5576101a9565b80635d6d11eb116101665780637f57d58f116101405780637f57d58f1461028157806383035a8214610294578063891339a8146102a75780638c0b6b40146102ba576101a9565b80635d6d11eb1461023857806370a082311461024b5780637de5b8ed1461025e576101a9565b8063026e402b146101ae57806313de97f5146101c3578063142d1018146101d65780631a05274c146101ff5780632b968e49146102125780634ee2cd7e14610225575b600080fd5b6101c16101bc366004613bdd565b6103c3565b005b6101c16101d1366004613cba565b6103db565b6101e96101e4366004613b56565b6103e7565b6040516101f69190613dc6565b60405180910390f35b6101e961020d366004613bdd565b6103fa565b6101c1610220366004613bdd565b610470565b6101e9610233366004613bdd565b61048d565b6101e9610246366004613c06565b6104af565b6101e9610259366004613b56565b6104bb565b61027161026c366004613b56565b6104dc565b6040516101f69493929190613ce6565b6101e961028f366004613bdd565b6104fb565b6101e96102a2366004613bdd565b61057b565b6101e96102b5366004613bdd565b610591565b6101e96102c8366004613ba2565b61064d565b6101e96102db366004613bdd565b610714565b6102e8610720565b6040516101f69190613cd2565b6101e961072f565b6101c161073e565b6101c1610313366004613bdd565b610752565b6101e9610326366004613b70565b610767565b6101e9610339366004613ba2565b61077c565b6101c161034c366004613bdd565b6107fe565b6101e961035f366004613b56565b610812565b6101c1610372366004613bdd565b610826565b6101e9610385366004613ba2565b610843565b610271610398366004613bdd565b61085a565b6101c16103ab366004613ba2565b610905565b6101e96103be366004613b56565b610927565b6103d733836103d1336104bb565b8461093d565b5050565b6103e481610bb0565b50565b60006103f282610c34565b90505b919050565b6007546000906001600160a01b03163314610454576040805162461bcd60e51b815260206004820152601560248201527413db9b1e4818db19585b995c8818dbdb9d1c9858dd605a1b604482015290519081900360640190fd5b6006546104679060039085908590610c41565b90505b92915050565b6104838261047d846104bb565b83610c5a565b6103d78282610db7565b6001600160a01b03821660009081526008602052604081206104679083610deb565b60006103f23383610f2e565b6001600160a01b03811660009081526008602052604081206103f2906110c6565b6060806000806104ec854361085a565b93509350935093509193509193565b6007546000906001600160a01b03163314610555576040805162461bcd60e51b815260206004820152601560248201527413db9b1e4818db19585b995c8818dbdb9d1c9858dd605a1b604482015290519081900360640190fd5b6006546001600160a01b038416600090815260016020526040902061046791849061110e565b60006104678361058b858561048d565b8461111b565b6007546000906001600160a01b031633146105eb576040805162461bcd60e51b815260206004820152601560248201527413db9b1e4818db19585b995c8818dbdb9d1c9858dd605a1b604482015290519081900360640190fd5b6006548210610641576040805162461bcd60e51b815260206004820152601e60248201527f4e6f20636c65616e757020616674657220636c65616e757020626c6f636b0000604482015290519081900360640190fd5b6104676004848461118a565b6007546000906001600160a01b031633146106a7576040805162461bcd60e51b815260206004820152601560248201527413db9b1e4818db19585b995c8818dbdb9d1c9858dd605a1b604482015290519081900360640190fd5b60065482106106fd576040805162461bcd60e51b815260206004820152601e60248201527f4e6f20636c65616e757020616674657220636c65616e757020626c6f636b0000604482015290519081900360640190fd5b61070a60048585856111f7565b90505b9392505050565b60006104678383611285565b6007546001600160a01b031681565b60006107396112f8565b905090565b6107503361074b336104bb565b6112fe565b565b6103d73383610761338561048d565b8461149d565b60006104678383610777866104bb565b611598565b6007546000906001600160a01b031633146107d6576040805162461bcd60e51b815260206004820152601560248201527413db9b1e4818db19585b995c8818dbdb9d1c9858dd605a1b604482015290519081900360640190fd5b6006546001600160a01b038516600090815260026020526040902061070a9185908590611649565b6103d7338361080c336104bb565b84611670565b60006103f282610821846104bb565b611955565b61083982610833846104bb565b83611962565b6103d782826119cc565b600061070a8484610854878661048d565b856119dc565b606080600080600061086b87611a53565b9050600181600281111561087b57fe5b14156108955761088b8787611a71565b90955093506108e9565b60008160028111156108a357fe5b14156108c85760408051600080825260208201908152818301909252955093506108e9565b60405162461bcd60e51b81526004016108e090613d73565b60405180910390fd5b845192508060028111156108f957fe5b91505092959194509250565b6109228383610913866104bb565b61091c866104bb565b85611cae565b505050565b600061093282611a53565b60028111156103f257fe5b6001600160a01b038316610992576040805162461bcd60e51b815260206004820152601760248201527643616e6e6f742064656c656761746520746f207a65726f60481b604482015290519081900360640190fd5b836001600160a01b0316836001600160a01b031614156109f3576040805162461bcd60e51b815260206004820152601760248201527621b0b73737ba103232b632b3b0ba32903a379039b2b63360491b604482015290519081900360640190fd5b6109fc84611cc4565b610a4d576040805162461bcd60e51b815260206004820152601d60248201527f43616e6e6f742064656c65676174652062792070657263656e74616765000000604482015290519081900360640190fd5b6001600160a01b038416600090815260016020526040812090610a708286611d0b565b9050600080610a80848887611d17565b600654610a9190859060029061110e565b508215610aa857610aa58684612710611dbe565b91505b8415610abe57610abb8686612710611dbe565b90505b81811015610ada57610ad560038989848603611eb7565b610ae9565b610ae960038989858503611efc565b600654610afd906003908a90600290610c41565b50600654610b12906003908990600290610c41565b5060016001600160a01b03891660009081526020819052604090205460ff166002811115610b3c57fe5b14610b65576001600160a01b0388166000908152602081905260409020805460ff191660011790555b866001600160a01b0316886001600160a01b0316600080516020613ed18339815191528484604051808381526020018281526020019250505060405180910390a35050505050505050565b600654811015610bf15760405162461bcd60e51b8152600401808060200182810382526028815260200180613ea96028913960400191505060405180910390fd5b438110610c2f5760405162461bcd60e51b8152600401808060200182810382526021815260200180613e266021913960400191505060405180910390fd5b600655565b60006103f2600383611f39565b6000610c4f85858585611f45565b90505b949350505050565b6000610c8182604051806060016040528060268152602001613e8360269139859190611f80565b905060016001600160a01b03851660009081526020819052604090205460ff166002811115610cac57fe5b1415610cc257610cbd848483611fda565b610db1565b610ccd84848461211a565b6040518060400160405280602081526020017f556e64656c65676174656420766f746520706f77657220746f6f20736d616c6c81525090610d8c5760405162461bcd60e51b81526004018080602001828103825283818151815260200191508051906020019080838360005b83811015610d51578181015183820152602001610d39565b50505050905090810190601f168015610d7e5780820380516001836020036101000a031916815260200191505b509250505060405180910390fd5b50610d9b600385600085612167565b600654610daf906003908690600290610c41565b505b50505050565b6103d7610dcd82610dc7856104bb565b906121ad565b6001600160a01b03841660009081526008602052604090209061220a565b6001820154600090600160401b90046001600160401b031680610e1257600091505061046a565b4383101580610e4457506000198101600090815260208590526040902054600160c01b90046001600160401b03168310155b15610e6c57600019016000908152602084905260409020546001600160c01b0316905061046a565b60018401546001600160401b039081166000818152602087905260409020549091600160c01b90910416841015610ee5578015610eda5760405162461bcd60e51b8152600401808060200182810382526030815260200180613fdf6030913960400191505060405180910390fd5b60009250505061046a565b6001850154600090610f0b9087908490600160401b90046001600160401b0316886123cb565b6000908152602087905260409020546001600160c01b0316935050505092915050565b6001600160a01b03821660009081526020819052604081205460ff1681816002811115610f5757fe5b1415610f6757600091505061046a565b6002816002811115610f7557fe5b14610fb15760405162461bcd60e51b8152600401808060200182810382526042815260200180613f1b6042913960600191505060405180910390fd5b6001600160a01b0384166000908152600260205260408120905b84518110156110b3576000858281518110610fe257fe5b602002602001015190506000611001828561244990919063ffffffff16565b90508061100f5750506110ab565b61101c6003898484611eb7565b600654611030906003908a90600290610c41565b50600654611045906003908490600290610c41565b5061105284836000612458565b6006546110659085908490600290611649565b50816001600160a01b0316886001600160a01b0316600080516020613ed1833981519152836000604051808381526020018281526020019250505060405180910390a350505b600101610fcb565b506110bd816124c2565b95945050505050565b6001810154600090600160401b90046001600160401b0316806110ed5760009150506103f5565b6000190160009081526020929092525060409020546001600160c01b031690565b600061070a8484846124cd565b60008160065481101561115f5760405162461bcd60e51b815260040180806020018281038252602a815260200180613ef1602a913960400191505060405180910390fd5b600061116c86868661260b565b905060008061117b87846126e9565b9550505050505b509392505050565b604080516001600160a01b0384166020808301919091528183018490528251808303840181526060909201835281519181019190912060008181529186905291812054909190156111ec5760009081526020859052604081205550600161070d565b506000949350505050565b604080516001600160a01b0380861660208084019190915282840185905283518084038501815260609093018452825192810192909220600081815260018901845284812092871681529282905292822054919291801561127757506001600160a01b038516600090815260209190915260408120555060019050610c52565b506000979650505050505050565b6000816006548110156112c95760405162461bcd60e51b815260040180806020018281038252602a815260200180613ef1602a913960400191505060405180910390fd5b438310156112e6576112df60046003868661270f565b91506112f1565b6112df600385611f39565b5092915050565b60065490565b6001600160a01b03821660009081526020819052604081205460ff169081600281111561132757fe5b141561133357506103d7565b600181600281111561134157fe5b1461137d5760405162461bcd60e51b815260040180806020018281038252603c815260200180613e47603c913960400191505060405180910390fd5b6001600160a01b038316600090815260016020526040812090806113a08361277e565b9150915060005b82518110156114795760008382815181106113be57fe5b6020026020010151905060006113f48484815181106113d957fe5b60200260200101516127108a611dbe9092919063ffffffff16565b905061140360038a8484611eb7565b600654611417906003908b90600290610c41565b5060065461142c906003908490600290610c41565b50816001600160a01b0316896001600160a01b0316600080516020613ed1833981519152836000604051808381526020018281526020019250505060405180910390a350506001016113a7565b5061148383612794565b60065461149490849060029061110e565b50505050505050565b806006548110156114df5760405162461bcd60e51b815260040180806020018281038252602a815260200180613ef1602a913960400191505060405180910390fd5b43821061151d5760405162461bcd60e51b815260040180806020018281038252603b815260200180613fa4603b913960400191505060405180910390fd5b600061152b8686868661279d565b905061153d6004600388888588612850565b846001600160a01b0316866001600160a01b03167fd6f80c7d68e3e62bd7a51c3d37e575c1cfbc311c07487b69ef4eb570bc21cb688386604051808381526020018281526020019250505060405180910390a3505050505050565b6001600160a01b03831660009081526020819052604081205460ff16818160028111156115c157fe5b14156115d157600091505061070d565b60018160028111156115df57fe5b141561161f576001600160a01b03851660009081526001602052604081206116079086611d0b565b90506116168482612710611dbe565b9250505061070d565b6001600160a01b03851660009081526002602052604090206116419085612449565b91505061070d565b60006116568584846129c3565b905061166760028601858585611f45565b01949350505050565b6001600160a01b0383166116c5576040805162461bcd60e51b815260206004820152601760248201527643616e6e6f742064656c656761746520746f207a65726f60481b604482015290519081900360640190fd5b836001600160a01b0316836001600160a01b03161415611726576040805162461bcd60e51b815260206004820152601760248201527621b0b73737ba103232b632b3b0ba32903a379039b2b63360491b604482015290519081900360640190fd5b61172f84612a64565b611780576040805162461bcd60e51b815260206004820152601960248201527f43616e6e6f742064656c656761746520627920616d6f756e7400000000000000604482015290519081900360640190fd5b6001600160a01b0384166000908152600260205260408120906117a38286612449565b9050808310156117c1576117bc60038787868503611eb7565b611871565b60006117d7826117d18988611955565b90612a9b565b9050838110156040518060400160405280602081526020017f556e64656c65676174656420766f746520706f77657220746f6f20736d616c6c8152509061185f5760405162461bcd60e51b8152602060048201818152835160248401528351909283926044909101919085019080838360008315610d51578181015183820152602001610d39565b5061186f60038888858803611efc565b505b600654611885906003908890600290610c41565b5060065461189a906003908790600290610c41565b506118a6828685612458565b6006546118b99083908790600290611649565b5060026001600160a01b03871660009081526020819052604090205460ff1660028111156118e357fe5b1461190c576001600160a01b0386166000908152602081905260409020805460ff191660021790555b846001600160a01b0316866001600160a01b0316600080516020613ed18339815191528386604051808381526020018281526020019250505060405180910390a3505050505050565b600061046783834361111b565b60016001600160a01b03841660009081526020819052604090205460ff16600281111561198b57fe5b14156119aa576119a583836119a08185612a9b565b611fda565b610922565b6119b8600384836000612167565b600654610db1906003908590600290610c41565b6103d7610dcd826117d1856104bb565b600081600654811015611a205760405162461bcd60e51b815260040180806020018281038252602a815260200180613ef1602a913960400191505060405180910390fd5b611a2d6004878786612af5565b15611a3b5760009150611a4a565b611a478686868661279d565b91505b50949350505050565b6001600160a01b031660009081526020819052604090205460ff1690565b60608082600654811015611ab65760405162461bcd60e51b815260040180806020018281038252602a815260200180613ef1602a913960400191505060405180910390fd5b6001600160a01b0385166000908152600160205260409020606080611adb8388612b49565b909250905060005b8251811015611b3f57611b1789848381518110611afc57fe5b60200260200101518a6004612af5909392919063ffffffff16565b15611b37576000828281518110611b2a57fe5b6020026020010181815250505b600101611ae3565b506000805b8351811015611b7757828181518110611b5957fe5b6020026020010151600014611b6f576001909101905b600101611b44565b50806001600160401b0381118015611b8e57600080fd5b50604051908082528060200260200182016040528015611bb8578160200160208202803683370190505b509650806001600160401b0381118015611bd157600080fd5b50604051908082528060200260200182016040528015611bfb578160200160208202803683370190505b5095506000805b8451811015611ca057838181518110611c1757fe5b6020026020010151600014611c9857848181518110611c3257fe5b6020026020010151898381518110611c4657fe5b60200260200101906001600160a01b031690816001600160a01b031681525050838181518110611c7257fe5b6020026020010151888381518110611c8657fe5b60209081029190910101526001909101905b600101611c02565b505050505050509250929050565b611cb9858483610c5a565b610daf848383611962565b6001600160a01b03811660009081526020819052604081205460ff1681816002811115611ced57fe5b148061070d575060015b816002811115611d0357fe5b149392505050565b60006104678383612b61565b612710811115611d2357fe5b611d2e838383612ba5565b612710611d3a84612dc9565b11156040518060400160405280601c81526020017f4d61782064656c65676174696f6e20626970732065786365656465640000000081525090610db15760405162461bcd60e51b8152602060048201818152835160248401528351909283926044909101919085019080838360008315610d51578181015183820152602001610d39565b6000808211611e07576040805162461bcd60e51b815260206004820152601060248201526f4469766973696f6e206279207a65726f60801b604482015290519081900360640190fd5b83611e145750600061070d565b83830283858281611e2157fe5b041415611e3a57828181611e3157fe5b0491505061070d565b6000838681611e4557fe5b0490506000848781611e5357fe5b0690506000858781611e6157fe5b0490506000868881611e6f57fe5b06905061117b611e8988611e838685612dd5565b90612e2e565b6117d1611e968686612dd5565b6117d1611ea38987612dd5565b6117d18d611eb18c8b612dd5565b90612dd5565b82826001600160a01b038216158015611ed757506001600160a01b038116155b15611ede57fe5b82611ee857611ef4565b611ef486858786612e95565b505050505050565b82826001600160a01b038216158015611f1c57506001600160a01b038116155b15611f2357fe5b82611f2d57611ef4565b611ef486868686612e95565b60006104678383612f1e565b60006001600160a01b038416156111ec576001600160a01b0384166000908152602086905260409020611f799084846129c3565b9050610c52565b60008184841115611fd25760405162461bcd60e51b8152602060048201818152835160248401528351909283926044909101919085019080838360008315610d51578181015183820152602001610d39565b505050900390565b6001600160a01b038316600090815260016020526040812090829084908061200185612f3f565b9150915060005b828110156120e5576000818152602083905260408120805490916001600160a01b03821691600160a01b900461ffff16906120468c83612710611dbe565b905060006120578c84612710611dbe565b90506120638a83612a9b565b995061206f8982612a9b565b985061207e6003858385612167565b600654612092906003908690600290610c41565b50836001600160a01b03168e6001600160a01b0316600080516020613ed18339815191528484604051808381526020018281526020019250505060405180910390a3505060019093019250612008915050565b50828414612110576120fa6003898686612167565b60065461210e906003908a90600290610c41565b505b5050505050505050565b600060026001600160a01b03851660009081526020819052604090205460ff16600281111561214557fe5b141561215f57816121568585611955565b1015905061070d565b50600161070d565b6001600160a01b03831661217757fe5b8082141561218457610db1565b60006121908585612f1e565b90506121a082610dc78386612a9b565b9050610daf858583612f4b565b600082821115612204576040805162461bcd60e51b815260206004820152601e60248201527f536166654d6174683a207375627472616374696f6e206f766572666c6f770000604482015290519081900360640190fd5b50900390565b6001820154600160401b90046001600160401b0316806122c157604051806040016040528061223884612f6d565b6001600160c01b0316815260200161224f43612fcb565b6001600160401b03908116909152600080805260208681526040909120835181549490920151909216600160c01b026001600160c01b039182166001600160c01b0319909416939093171691909117905560018301805467ffffffffffffffff60401b1916600160401b179055610922565b600019810160009081526020849052604090208054600160c01b90046001600160401b031643811415612317576122f784612f6d565b82546001600160c01b0319166001600160c01b0391909116178255610daf565b80431161232057fe5b604051806040016040528061233486612f6d565b6001600160c01b0316815260200161234b43612fcb565b6001600160401b039081169091526000858152602088815260409091208351815494909201518316600160c01b026001600160c01b039283166001600160c01b0319909516949094179091169290921790915560018087018054918601909216600160401b0267ffffffffffffffff60401b199091161790555050505050565b600083816123da8560016121ad565b90505b8181111561243f5760006123fb6002611e8360016117d18688612a9b565b600081815260208a90526040902054909150600160c01b90046001600160401b0316851061242b57809250612439565b6124368160016121ad565b91505b506123dd565b5095945050505050565b60006104676002840183612f1e565b60006124676002850184612f1e565b905060006124a8836117d184604051806040016040528060098152602001680546f74616c203c20360bc1b8152506124a18a6000016110c6565b9190611f80565b90506124b8600286018585612f4b565b610daf858261220a565b60006103f2826110c6565b6000816124dc5750600061070d565b6001840154600160401b90046001600160401b03168061250057600091505061070d565b60018501546001600160401b0316600061252661251d8388612a9b565b6001850361300f565b9050815b8181108015612564575060018101600090815260208981526040808320838052909152902054600160b01b90046001600160401b03168610155b156125c857600081815260208981526040808320838052918290528220549091600160f01b90910460ff16905b818110156125bd57600081815260208490526040902080546001600160f81b0319169055600101612591565b50505060010161252a565b828111156125fd576125d981612fcb565b60018901805467ffffffffffffffff19166001600160401b03929092169190911790555b919091039695505050505050565b60008160065481101561264f5760405162461bcd60e51b815260040180806020018281038252602a815260200180613ef1602a913960400191505060405180910390fd5b6001600160a01b03851660009081526020819052604081205460ff169081600281111561267857fe5b1415612688576000925050611182565b600281600281111561269657fe5b14156126c6576001600160a01b03861660009081526002602052604090206126be9085613025565b925050611182565b6001600160a01b03861660009081526001602052604090206126be908686613031565b600080838311156126ff57506000905080612708565b50600190508183035b9250929050565b604080516001600160a01b0384166020808301919091528183018490528251808303840181526060909201835281519181019190912060008181529187905291812054909190801561276857600019019150610c529050565b612773868686613041565b979650505050505050565b60608061278a8361304e565b915091505b915091565b6103e48161305b565b6001600160a01b03841660009081526020819052604081205460ff16818160028111156127c657fe5b14156127d6576000915050610c52565b60018160028111156127e457fe5b1415612825576001600160a01b038616600090815260016020526040812061280d908786613181565b905061281c8582612710611dbe565b92505050610c52565b6001600160a01b038616600090815260026020526040902061284890868561318e565b915050610c52565b8161285a57611ef4565b604080516001600160a01b0380871660208084019190915282840185905283518084038501815260609093018452825192810192909220600081815260018b0184528481209288168152919092529190912054156128f1576040805162461bcd60e51b815260206004820152600f60248201526e105b1c9958591e481c995d9bdad959608a1b604482015290519081900360640190fd5b60006128ff8888878661319e565b5090506000858460405160200180836001600160a01b0316815260200182815260200192505050604051602081830303815290604052805190602001209050612992898261298d886040518060400160405280601781526020017f5265766f6b65642076616c756520746f6f206c6172676500000000000000000081525087611f809092919063ffffffff16565b613228565b5050600090815260018701602090815260408083206001600160a01b03871684529091529020829055505050505050565b6000816129d25750600061070d565b6001840154600160401b90046001600160401b0316806129f657600091505061070d565b60018501546001600160401b03166000612a1361251d8388612a9b565b9050815b8181108015612a48575060018101600090815260208990526040902054600160c01b90046001600160401b03168610155b156125c857600081815260208990526040812055600101612a17565b6001600160a01b03811660009081526020819052604081205460ff1681816002811115612a8d57fe5b148061070d57506002611cf7565b600082820183811015610467576040805162461bcd60e51b815260206004820152601b60248201527f536166654d6174683a206164646974696f6e206f766572666c6f770000000000604482015290519081900360640190fd5b604080516001600160a01b0394851660208083019190915281830193909352815180820383018152606090910182528051908301206000908152600195909501825280852092909316845252902054151590565b606080612b568484613246565b915091509250929050565b6001820154600090600160401b90046001600160401b031680612b8857600091505061046a565b60001981016000908152602085905260409020610c5290846133b5565b6001830154600160401b90046001600160401b031680612ce0578115610cbd576000818152602085905260409020612bdf60018301612fcb565b8560010160086101000a8154816001600160401b0302191690836001600160401b031602179055506040518060800160405280856001600160a01b03168152602001612c2a8561341a565b61ffff168152602001612c3c43612fcb565b6001600160401b039081168252600160209283015260008080529382526040938490208351815493850151958501516060909501516001600160a01b03199094166001600160a01b039091161761ffff60a01b1916600160a01b61ffff909616959095029490941767ffffffffffffffff60b01b1916600160b01b93909116929092029190911760ff60f01b1916600160f01b60ff90921691909102179055610db1565b60001981016000908152602085815260408083208380529182905290912054600160b01b90046001600160401b031643811415612d2757612d2282868661345d565b611ef4565b804311612d3057fe5b6000838152602087905260409020612d4a60018501612fcb565b8760010160086101000a8154816001600160401b0302191690836001600160401b03160217905550612d7e81848888613573565b612d8743612fcb565b6000808052602092909252604090912080546001600160401b0392909216600160b01b0267ffffffffffffffff60b01b19909216919091179055505050505050565b60006103f28243613689565b600082612de45750600061046a565b82820282848281612df157fe5b04146104675760405162461bcd60e51b8152600401808060200182810382526021815260200180613f5d6021913960400191505060405180910390fd5b6000808211612e84576040805162461bcd60e51b815260206004820152601a60248201527f536166654d6174683a206469766973696f6e206279207a65726f000000000000604482015290519081900360640190fd5b818381612e8d57fe5b049392505050565b80612e9f57610db1565b6001600160a01b038316158015612ebd57506001600160a01b038216155b15612ec457fe5b6001600160a01b03831615612ef2576000612ee382610dc78787612f1e565b9050612ef0858583612f4b565b505b6001600160a01b03821615610db1576000612f11826117d18786612f1e565b9050610daf858483612f4b565b6001600160a01b0381166000908152602083905260408120610c52816110c6565b60008061278a83613717565b6001600160a01b0382166000908152602084905260409020610db1818361220a565b6000600160c01b8210612fc7576040805162461bcd60e51b815260206004820152601d60248201527f76616c756520646f65736e27742066697420696e203139322062697473000000604482015290519081900360640190fd5b5090565b6000600160401b8210612fc75760405162461bcd60e51b8152600401808060200182810382526026815260200180613f7e6026913960400191505060405180910390fd5b600081831061301e5781610467565b5090919050565b60006104678383610deb565b600061070a84846127108561377b565b600061070a848484613816565b60608061278a8343613246565b6001810154600160401b90046001600160401b031680156103d757600081815260208390526040902061309060018301612fcb565b6001840180546001600160401b0392909216600160401b0267ffffffffffffffff60401b1990921691909117905560408051608081018252600080825260208201529081016130de43612fcb565b6001600160401b039081168252600060209283018190528080529382526040938490208351815493850151958501516060909501516001600160a01b03199094166001600160a01b039091161761ffff60a01b1916600160a01b61ffff909616959095029490941767ffffffffffffffff60b01b1916600160b01b93909116929092029190911760ff60f01b1916600160f01b60ff909216919091021790555050565b600061070a848484613838565b600061070a600285018484613816565b604080516001600160a01b03841660208083019190915281830184905282518083038401815260609092018352815191810191909120600081815291879052918120549091829180156131fc576000190192506000915061321f9050565b6000613209888888613041565b9050613216898483613228565b93506001925050505b94509492505050565b613233816001612a9b565b6000928352602093909352506040902055565b606080600080613256868661387d565b91509150816132805750506040805160008082526020820190815281830190925292509050612708565b6000818152602087815260408083208380529182905290912054600160f01b900460ff16806001600160401b03811180156132ba57600080fd5b506040519080825280602002602001820160405280156132e4578160200160208202803683370190505b509550806001600160401b03811180156132fd57600080fd5b50604051908082528060200260200182016040528015613327578160200160208202803683370190505b50945060005b818110156133a9576000818152602084905260409020805488516001600160a01b039091169089908490811061335f57fe5b6001600160a01b03929092166020928302919091019091015280548751600160a01b90910461ffff169088908490811061339557fe5b60209081029190910101525060010161332d565b50505050509250929050565b600080805260208390526040812054600160f01b900460ff16815b818110156111ec57600081815260208690526040902080546001600160a01b03868116911614156134115754600160a01b900461ffff16925061046a915050565b506001016133d0565b6000620100008210612fc75760405162461bcd60e51b8152600401808060200182810382526026815260200180613e006026913960400191505060405180910390fd5b600080805260208490526040812054600160f01b900460ff16905b81811080156134a157506000818152602086905260409020546001600160a01b03858116911614155b156134ae57600101613478565b818110156135335782156134f7576134c58361341a565b6000828152602087905260409020805461ffff92909216600160a01b0261ffff60a01b1990921691909117905561352e565b61350585826001850361397c565b6000808052602086905260409020805460ff60f01b1916600160f01b600019850160ff16021790555b610daf565b6000613541868686866139e7565b6000808052602088905260409020805460ff909216600160f01b0260ff60f01b19909216919091179055505050505050565b600080805260208490526040812054600160f01b900460ff169080805b838110156136405760008181526020888152604091829020825160808101845290546001600160a01b03808216808452600160a01b830461ffff1694840194909452600160b01b82046001600160401b031694830194909452600160f01b900460ff166060820152918816141561361c5761361189826000015188866139e7565b925060019350613637565b613634898260000151836020015161ffff16866139e7565b92505b50600101613590565b508161365557613652878686846139e7565b90505b60008080526020979097526040909620805460ff909716600160f01b0260ff60f01b19909716969096179095555050505050565b6000806000613698858561387d565b91509150816136ac5760009250505061046a565b6000818152602086815260408083208380529182905282205491945090600160f01b900460ff16845b8181101561370c57600081815260208490526040902054613702908790600160a01b900461ffff16612a9b565b95506001016136d5565b505050505092915050565b60018101546000908190600160401b90046001600160401b03168061374e575050600080805260208390526040812090915061278f565b6000190160009081526020938452604080822082805294859052902054600160f01b900460ff1693915050565b600080600061378a878561387d565b915091508161379e57600092505050610c52565b6000818152602088815260408083208380529182905282205491945090600160f01b900460ff16845b81811015613809576000818152602084905260409020546137ff906137f890600160a01b900461ffff168b8b611dbe565b8790612a9b565b95506001016137c7565b5050505050949350505050565b6001600160a01b03821660009081526020849052604081206110bd8184610deb565b6000806000613847868561387d565b915091508161385b5760009250505061070d565b600081815260208790526040902061387390866133b5565b9695505050505050565b600182015460009081906001600160401b0380821691600160401b900416806138a95760009350613973565b6000198101600090815260208781526040808320838052909152902054600160b01b90046001600160401b031685106138eb5760019350600181039250613973565b600082815260208781526040808320838052909152902054600160b01b90046001600160401b03168510156139605781156139575760405162461bcd60e51b8152600401808060200182810382526030815260200180613dd06030913960400191505060405180910390fd5b60009350613973565b6001935061397086838388613ac2565b92505b50509250929050565b6000828152602084905260408082208383529120828410156139d357805482546001600160a01b0319166001600160a01b0390911617808355815461ffff600160a01b91829004160261ffff60a01b199091161782555b80546001600160b01b031916905550505050565b600082156111825760408051808201909152601681527513585e0819195b1959d85d195cc8195e18d95959195960521b602082015260028310613a6b5760405162461bcd60e51b8152602060048201818152835160248401528351909283926044909101919085019080838360008315610d51578181015183820152602001610d39565b50600082815260208690526040902080546001600160a01b0319166001600160a01b038616178155613a9c8461341a565b815461ffff91909116600160a01b0261ffff60a01b199091161790555060018101610c52565b60008381613ad18560016121ad565b90505b8181111561243f576000613af26002611e8360016117d18688612a9b565b600081815260208a81526040808320838052909152902054909150600160b01b90046001600160401b03168510613b2b57809250613b39565b613b368160016121ad565b91505b50613ad4565b80356001600160a01b03811681146103f557600080fd5b600060208284031215613b67578081fd5b61046782613b3f565b60008060408385031215613b82578081fd5b613b8b83613b3f565b9150613b9960208401613b3f565b90509250929050565b600080600060608486031215613bb6578081fd5b613bbf84613b3f565b9250613bcd60208501613b3f565b9150604084013590509250925092565b60008060408385031215613bef578182fd5b613bf883613b3f565b946020939093013593505050565b60006020808385031215613c18578182fd5b82356001600160401b0380821115613c2e578384fd5b818501915085601f830112613c41578384fd5b813581811115613c4d57fe5b83810260405185828201018181108582111715613c6657fe5b604052828152858101935084860182860187018a1015613c84578788fd5b8795505b83861015613cad57613c9981613b3f565b855260019590950194938601938601613c88565b5098975050505050505050565b600060208284031215613ccb578081fd5b5035919050565b6001600160a01b0391909116815260200190565b6080808252855190820181905260009060209060a0840190828901845b82811015613d285781516001600160a01b031684529284019290840190600101613d03565b50505083810382850152865180825287830191830190845b81811015613d5c57835183529284019291840191600101613d40565b505060408501969096525050506060015292915050565b60208082526033908201527f64656c6567617465734f6620646f6573206e6f7420776f726b20696e20414d4f604082015272554e542064656c65676174696f6e206d6f646560681b606082015260800190565b9081526020019056fe44656c65676174696f6e486973746f72793a2072656164696e672066726f6d20636c65616e65642d757020626c6f636b53616665436173743a2076616c756520646f65736e27742066697420696e2031362062697473436c65616e757020626c6f636b206d75737420626520696e207468652070617374756e64656c6567617465416c6c2063616e206f6e6c79206265207573656420696e2070657263656e746167652064656c65676174696f6e206d6f646545524332303a207472616e7366657220616d6f756e7420657863656564732062616c616e6365436c65616e757020626c6f636b206e756d626572206d757374206e65766572206465637265617365500599802164a08023e87ffc3eed0ba3ae60697b3083ba81d046683679d81c6b44656c6567617461626c653a2072656164696e672066726f6d20636c65616e65642d757020626c6f636b756e64656c6567617465416c6c4578706c696369742063616e206f6e6c79206265207573656420696e206578706c696369742064656c65676174696f6e206d6f6465536166654d6174683a206d756c7469706c69636174696f6e206f766572666c6f7753616665436173743a2076616c756520646f65736e27742066697420696e20363420626974735265766f6b65206973206f6e6c7920666f722074686520706173742c2075736520756e64656c656761746520666f72207468652070726573656e74436865636b506f696e74486973746f72793a2072656164696e672066726f6d20636c65616e65642d757020626c6f636ba2646970667358221220cb80848e1d6b0f84b0cf4a116a7b2efc247beb082230c3913d0a584cd3c57f8264736f6c63430007060033",
  "linkReferences": {},
  "deployedLinkReferences": {}
}