{
  "_format": "hh-sol-artifact-1",
  "contractName": "DummyVPToken",
  "sourceName": "contracts/token/mock/DummyVPToken.sol",
  "abi": [
    {
      "inputs": [
        {
          "internalType": "string",
          "name": "name_",
          "type": "string"
        },
        {
          "internalType": "string",
          "name": "symbol_",
          "type": "string"
        }
      ],
      "stateMutability": "nonpayable",
      "type": "constructor"
    },
    {
      "anonymous": false,
      "inputs": [
        {
          "indexed": true,
          "internalType": "address",
          "name": "owner",
          "type": "address"
        },
        {
          "indexed": true,
          "internalType": "address",
          "name": "spender",
          "type": "address"
        },
        {
          "indexed": false,
          "internalType": "uint256",
          "name": "value",
          "type": "uint256"
        }
      ],
      "name": "Approval",
      "type": "event"
    },
    {
      "anonymous": false,
      "inputs": [
        {
          "indexed": true,
          "internalType": "address",
          "name": "from",
          "type": "address"
        },
        {
          "indexed": true,
          "internalType": "address",
          "name": "to",
          "type": "address"
        },
        {
          "indexed": false,
          "internalType": "uint256",
          "name": "value",
          "type": "uint256"
        }
      ],
      "name": "Transfer",
      "type": "event"
    },
    {
      "inputs": [],
      "name": "MINTAMOUNT",
      "outputs": [
        {
          "internalType": "uint256",
          "name": "",
          "type": "uint256"
        }
      ],
      "stateMutability": "view",
      "type": "function"
    },
    {
      "inputs": [
        {
          "internalType": "address",
          "name": "owner",
          "type": "address"
        },
        {
          "internalType": "address",
          "name": "spender",
          "type": "address"
        }
      ],
      "name": "allowance",
      "outputs": [
        {
          "internalType": "uint256",
          "name": "",
          "type": "uint256"
        }
      ],
      "stateMutability": "view",
      "type": "function"
    },
    {
      "inputs": [
        {
          "internalType": "address",
          "name": "spender",
          "type": "address"
        },
        {
          "internalType": "uint256",
          "name": "amount",
          "type": "uint256"
        }
      ],
      "name": "approve",
      "outputs": [
        {
          "internalType": "bool",
          "name": "",
          "type": "bool"
        }
      ],
      "stateMutability": "nonpayable",
      "type": "function"
    },
    {
      "inputs": [
        {
          "internalType": "address",
          "name": "account",
          "type": "address"
        }
      ],
      "name": "balanceOf",
      "outputs": [
        {
          "internalType": "uint256",
          "name": "",
          "type": "uint256"
        }
      ],
      "stateMutability": "view",
      "type": "function"
    },
    {
      "inputs": [
        {
          "internalType": "address",
          "name": "_owner",
          "type": "address"
        },
        {
          "internalType": "uint256",
          "name": "_blockNumber",
          "type": "uint256"
        }
      ],
      "name": "balanceOfAt",
      "outputs": [
        {
          "internalType": "uint256",
          "name": "",
          "type": "uint256"
        }
      ],
      "stateMutability": "view",
      "type": "function"
    },
    {
      "inputs": [
        {
          "internalType": "address[]",
          "name": "_delegatees",
          "type": "address[]"
        },
        {
          "internalType": "uint256[]",
          "name": "_bips",
          "type": "uint256[]"
        }
      ],
      "name": "batchDelegate",
      "outputs": [],
      "stateMutability": "nonpayable",
      "type": "function"
    },
    {
      "inputs": [
        {
          "internalType": "address[]",
          "name": "_owners",
          "type": "address[]"
        },
        {
          "internalType": "uint256",
          "name": "_blockNumber",
          "type": "uint256"
        }
      ],
      "name": "batchVotePowerOfAt",
      "outputs": [
        {
          "internalType": "uint256[]",
          "name": "",
          "type": "uint256[]"
        }
      ],
      "stateMutability": "view",
      "type": "function"
    },
    {
      "inputs": [],
      "name": "cleanupBlockNumber",
      "outputs": [
        {
          "internalType": "uint256",
          "name": "",
          "type": "uint256"
        }
      ],
      "stateMutability": "view",
      "type": "function"
    },
    {
      "inputs": [],
      "name": "decimals",
      "outputs": [
        {
          "internalType": "uint8",
          "name": "",
          "type": "uint8"
        }
      ],
      "stateMutability": "view",
      "type": "function"
    },
    {
      "inputs": [
        {
          "internalType": "address",
          "name": "spender",
          "type": "address"
        },
        {
          "internalType": "uint256",
          "name": "subtractedValue",
          "type": "uint256"
        }
      ],
      "name": "decreaseAllowance",
      "outputs": [
        {
          "internalType": "bool",
          "name": "",
          "type": "bool"
        }
      ],
      "stateMutability": "nonpayable",
      "type": "function"
    },
    {
      "inputs": [
        {
          "internalType": "address",
          "name": "_to",
          "type": "address"
        },
        {
          "internalType": "uint256",
          "name": "_bips",
          "type": "uint256"
        }
      ],
      "name": "delegate",
      "outputs": [],
      "stateMutability": "nonpayable",
      "type": "function"
    },
    {
      "inputs": [
        {
          "internalType": "address",
          "name": "_to",
          "type": "address"
        },
        {
          "internalType": "uint256",
          "name": "_amount",
          "type": "uint256"
        }
      ],
      "name": "delegateExplicit",
      "outputs": [],
      "stateMutability": "nonpayable",
      "type": "function"
    },
    {
      "inputs": [
        {
          "internalType": "address",
          "name": "_owner",
          "type": "address"
        }
      ],
      "name": "delegatesOf",
      "outputs": [
        {
          "internalType": "address[]",
          "name": "_delegateAddresses",
          "type": "address[]"
        },
        {
          "internalType": "uint256[]",
          "name": "_bips",
          "type": "uint256[]"
        },
        {
          "internalType": "uint256",
          "name": "_count",
          "type": "uint256"
        },
        {
          "internalType": "uint256",
          "name": "_delegationMode",
          "type": "uint256"
        }
      ],
      "stateMutability": "view",
      "type": "function"
    },
    {
      "inputs": [
        {
          "internalType": "address",
          "name": "_owner",
          "type": "address"
        },
        {
          "internalType": "uint256",
          "name": "_blockNumber",
          "type": "uint256"
        }
      ],
      "name": "delegatesOfAt",
      "outputs": [
        {
          "internalType": "address[]",
          "name": "_delegateAddresses",
          "type": "address[]"
        },
        {
          "internalType": "uint256[]",
          "name": "_bips",
          "type": "uint256[]"
        },
        {
          "internalType": "uint256",
          "name": "_count",
          "type": "uint256"
        },
        {
          "internalType": "uint256",
          "name": "_delegationMode",
          "type": "uint256"
        }
      ],
      "stateMutability": "view",
      "type": "function"
    },
    {
      "inputs": [
        {
          "internalType": "address",
          "name": "_who",
          "type": "address"
        }
      ],
      "name": "delegationModeOf",
      "outputs": [
        {
          "internalType": "uint256",
          "name": "_delegationMode",
          "type": "uint256"
        }
      ],
      "stateMutability": "view",
      "type": "function"
    },
    {
      "inputs": [],
      "name": "governanceVotePower",
      "outputs": [
        {
          "internalType": "contract IGovernanceVotePower",
          "name": "",
          "type": "address"
        }
      ],
      "stateMutability": "view",
      "type": "function"
    },
    {
      "inputs": [
        {
          "internalType": "address",
          "name": "spender",
          "type": "address"
        },
        {
          "internalType": "uint256",
          "name": "addedValue",
          "type": "uint256"
        }
      ],
      "name": "increaseAllowance",
      "outputs": [
        {
          "internalType": "bool",
          "name": "",
          "type": "bool"
        }
      ],
      "stateMutability": "nonpayable",
      "type": "function"
    },
    {
      "inputs": [],
      "name": "name",
      "outputs": [
        {
          "internalType": "string",
          "name": "",
          "type": "string"
        }
      ],
      "stateMutability": "view",
      "type": "function"
    },
    {
      "inputs": [],
      "name": "readVotePowerContract",
      "outputs": [
        {
          "internalType": "contract IVPContractEvents",
          "name": "",
          "type": "address"
        }
      ],
      "stateMutability": "view",
      "type": "function"
    },
    {
      "inputs": [
        {
          "internalType": "address",
          "name": "_who",
          "type": "address"
        },
        {
          "internalType": "uint256",
          "name": "_blockNumber",
          "type": "uint256"
        }
      ],
      "name": "revokeDelegationAt",
      "outputs": [],
      "stateMutability": "nonpayable",
      "type": "function"
    },
    {
      "inputs": [
        {
          "internalType": "address",
          "name": "_cleanerContract",
          "type": "address"
        }
      ],
      "name": "setCleanerContract",
      "outputs": [],
      "stateMutability": "nonpayable",
      "type": "function"
    },
    {
      "inputs": [
        {
          "internalType": "uint256",
          "name": "_blockNumber",
          "type": "uint256"
        }
      ],
      "name": "setCleanupBlockNumber",
      "outputs": [],
      "stateMutability": "nonpayable",
      "type": "function"
    },
    {
      "inputs": [
        {
          "internalType": "address",
          "name": "_cleanupBlockNumberManager",
          "type": "address"
        }
      ],
      "name": "setCleanupBlockNumberManager",
      "outputs": [],
      "stateMutability": "nonpayable",
      "type": "function"
    },
    {
      "inputs": [
        {
          "internalType": "contract IIGovernanceVotePower",
          "name": "_governanceVotePower",
          "type": "address"
        }
      ],
      "name": "setGovernanceVotePower",
      "outputs": [],
      "stateMutability": "nonpayable",
      "type": "function"
    },
    {
      "inputs": [],
      "name": "symbol",
      "outputs": [
        {
          "internalType": "string",
          "name": "",
          "type": "string"
        }
      ],
      "stateMutability": "view",
      "type": "function"
    },
    {
      "inputs": [],
      "name": "totalSupply",
      "outputs": [
        {
          "internalType": "uint256",
          "name": "",
          "type": "uint256"
        }
      ],
      "stateMutability": "view",
      "type": "function"
    },
    {
      "inputs": [
        {
          "internalType": "uint256",
          "name": "_blockNumber",
          "type": "uint256"
        }
      ],
      "name": "totalSupplyAt",
      "outputs": [
        {
          "internalType": "uint256",
          "name": "",
          "type": "uint256"
        }
      ],
      "stateMutability": "view",
      "type": "function"
    },
    {
      "inputs": [],
      "name": "totalVotePower",
      "outputs": [
        {
          "internalType": "uint256",
          "name": "",
          "type": "uint256"
        }
      ],
      "stateMutability": "view",
      "type": "function"
    },
    {
      "inputs": [
        {
          "internalType": "uint256",
          "name": "_blockNumber",
          "type": "uint256"
        }
      ],
      "name": "totalVotePowerAt",
      "outputs": [
        {
          "internalType": "uint256",
          "name": "",
          "type": "uint256"
        }
      ],
      "stateMutability": "view",
      "type": "function"
    },
    {
      "inputs": [
        {
          "internalType": "uint256",
          "name": "_blockNumber",
          "type": "uint256"
        }
      ],
      "name": "totalVotePowerAtCached",
      "outputs": [
        {
          "internalType": "uint256",
          "name": "",
          "type": "uint256"
        }
      ],
      "stateMutability": "nonpayable",
      "type": "function"
    },
    {
      "inputs": [
        {
          "internalType": "address",
          "name": "recipient",
          "type": "address"
        },
        {
          "internalType": "uint256",
          "name": "amount",
          "type": "uint256"
        }
      ],
      "name": "transfer",
      "outputs": [
        {
          "internalType": "bool",
          "name": "",
          "type": "bool"
        }
      ],
      "stateMutability": "nonpayable",
      "type": "function"
    },
    {
      "inputs": [
        {
          "internalType": "address",
          "name": "sender",
          "type": "address"
        },
        {
          "internalType": "address",
          "name": "recipient",
          "type": "address"
        },
        {
          "internalType": "uint256",
          "name": "amount",
          "type": "uint256"
        }
      ],
      "name": "transferFrom",
      "outputs": [
        {
          "internalType": "bool",
          "name": "",
          "type": "bool"
        }
      ],
      "stateMutability": "nonpayable",
      "type": "function"
    },
    {
      "inputs": [],
      "name": "undelegateAll",
      "outputs": [],
      "stateMutability": "nonpayable",
      "type": "function"
    },
    {
      "inputs": [
        {
          "internalType": "address[]",
          "name": "_delegateAddresses",
          "type": "address[]"
        }
      ],
      "name": "undelegateAllExplicit",
      "outputs": [
        {
          "internalType": "uint256",
          "name": "",
          "type": "uint256"
        }
      ],
      "stateMutability": "nonpayable",
      "type": "function"
    },
    {
      "inputs": [
        {
          "internalType": "address",
          "name": "_owner",
          "type": "address"
        }
      ],
      "name": "undelegatedVotePowerOf",
      "outputs": [
        {
          "internalType": "uint256",
          "name": "",
          "type": "uint256"
        }
      ],
      "stateMutability": "view",
      "type": "function"
    },
    {
      "inputs": [
        {
          "internalType": "address",
          "name": "_owner",
          "type": "address"
        },
        {
          "internalType": "uint256",
          "name": "_blockNumber",
          "type": "uint256"
        }
      ],
      "name": "undelegatedVotePowerOfAt",
      "outputs": [
        {
          "internalType": "uint256",
          "name": "",
          "type": "uint256"
        }
      ],
      "stateMutability": "view",
      "type": "function"
    },
    {
      "inputs": [
        {
          "internalType": "address",
          "name": "_from",
          "type": "address"
        },
        {
          "internalType": "address",
          "name": "_to",
          "type": "address"
        }
      ],
      "name": "votePowerFromTo",
      "outputs": [
        {
          "internalType": "uint256",
          "name": "",
          "type": "uint256"
        }
      ],
      "stateMutability": "view",
      "type": "function"
    },
    {
      "inputs": [
        {
          "internalType": "address",
          "name": "_from",
          "type": "address"
        },
        {
          "internalType": "address",
          "name": "_to",
          "type": "address"
        },
        {
          "internalType": "uint256",
          "name": "_blockNumber",
          "type": "uint256"
        }
      ],
      "name": "votePowerFromToAt",
      "outputs": [
        {
          "internalType": "uint256",
          "name": "",
          "type": "uint256"
        }
      ],
      "stateMutability": "view",
      "type": "function"
    },
    {
      "inputs": [
        {
          "internalType": "address",
          "name": "_who",
          "type": "address"
        }
      ],
      "name": "votePowerOf",
      "outputs": [
        {
          "internalType": "uint256",
          "name": "",
          "type": "uint256"
        }
      ],
      "stateMutability": "view",
      "type": "function"
    },
    {
      "inputs": [
        {
          "internalType": "address",
          "name": "_who",
          "type": "address"
        },
        {
          "internalType": "uint256",
          "name": "_blockNumber",
          "type": "uint256"
        }
      ],
      "name": "votePowerOfAt",
      "outputs": [
        {
          "internalType": "uint256",
          "name": "",
          "type": "uint256"
        }
      ],
      "stateMutability": "view",
      "type": "function"
    },
    {
      "inputs": [
        {
          "internalType": "address",
          "name": "_owner",
          "type": "address"
        },
        {
          "internalType": "uint256",
          "name": "_blockNumber",
          "type": "uint256"
        }
      ],
      "name": "votePowerOfAtCached",
      "outputs": [
        {
          "internalType": "uint256",
          "name": "",
          "type": "uint256"
        }
      ],
      "stateMutability": "nonpayable",
      "type": "function"
    },
    {
      "inputs": [
        {
          "internalType": "address",
          "name": "who",
          "type": "address"
        },
        {
          "internalType": "uint256",
          "name": "blockNumber",
          "type": "uint256"
        }
      ],
      "name": "votePowerOfAtIgnoringRevocation",
      "outputs": [
        {
          "internalType": "uint256",
          "name": "",
          "type": "uint256"
        }
      ],
      "stateMutability": "view",
      "type": "function"
    },
    {
      "inputs": [],
      "name": "writeVotePowerContract",
      "outputs": [
        {
          "internalType": "contract IVPContractEvents",
          "name": "",
          "type": "address"
        }
      ],
      "stateMutability": "view",
      "type": "function"
    }
  ],
  "bytecode": "0x60806040523480156200001157600080fd5b506040516200164638038062001646833981810160405260408110156200003757600080fd5b81019080805160405193929190846401000000008211156200005857600080fd5b9083019060208201858111156200006e57600080fd5b82516401000000008111828201881017156200008957600080fd5b82525081516020918201929091019080838360005b83811015620000b85781810151838201526020016200009e565b50505050905090810190601f168015620000e65780820380516001836020036101000a031916815260200191505b50604052602001805160405193929190846401000000008211156200010a57600080fd5b9083019060208201858111156200012057600080fd5b82516401000000008111828201881017156200013b57600080fd5b82525081516020918201929091019080838360005b838110156200016a57818101518382015260200162000150565b50505050905090810190601f168015620001985780820380516001836020036101000a031916815260200191505b50604052505082518391508290620001b890600390602085019062000371565b508051620001ce90600490602084019062000371565b50506005805460ff1916601217905550620001f3336825f273933db5700000620001fb565b50506200041d565b6001600160a01b03821662000257576040805162461bcd60e51b815260206004820152601f60248201527f45524332303a206d696e7420746f20746865207a65726f206164647265737300604482015290519081900360640190fd5b62000265600083836200030a565b62000281816002546200030f60201b62000ca11790919060201c565b6002556001600160a01b03821660009081526020818152604090912054620002b491839062000ca16200030f821b17901c565b6001600160a01b0383166000818152602081815260408083209490945583518581529351929391927fddf252ad1be2c89b69c2b068fc378daa952ba7f163c4a11628f55a4df523b3ef9281900390910190a35050565b505050565b6000828201838110156200036a576040805162461bcd60e51b815260206004820152601b60248201527f536166654d6174683a206164646974696f6e206f766572666c6f770000000000604482015290519081900360640190fd5b9392505050565b828054600181600116156101000203166002900490600052602060002090601f016020900481019282620003a95760008555620003f4565b82601f10620003c457805160ff1916838001178555620003f4565b82800160010185558215620003f4579182015b82811115620003f4578251825591602001919060010190620003d7565b506200040292915062000406565b5090565b5b8082111562000402576000815560010162000407565b611219806200042d6000396000f3fe608060405234801561001057600080fd5b50600436106102695760003560e01c806395d89b4111610151578063d6aa0b77116100c3578063e64767aa11610087578063e64767aa146109bd578063ed475a79146109f3578063ef35729714610a1f578063f5f3d4f7146109b5578063f68377671461083e578063f6a494af1461075657610269565b8063d6aa0b771461083e578063dc4fcda714610864578063dd62ed3e14610987578063deea13e7146109b5578063e587497e1461059657610269565b8063a9059cbb11610115578063a9059cbb146107dc578063b302f39314610808578063bbd6fbf81461026e578063be0ca74714610810578063caeb942b14610486578063d06dc3ad1461026e57610269565b806395d89b41146107a8578063981b24d0146104865780639b3baa0e146103e25780639ca2231a14610756578063a457c2d7146107b057610269565b806339509351116101ea57806370a08231116101ae57806370a08231146106635780637de5b8ed146106895780637f4fcaa91461075657806383035a82146105965780638c2b8ae1146103e257806392bfe6d81461077c57610269565b8063395093511461045a5780633e5aa26a1461048657806349e3c7e5146104a35780634ee2cd7e146105965780635d6d11eb146105c257610269565b8063142d101811610231578063142d1018146103b457806318160ddd146103da5780631fec092a146103e257806323b872dd14610406578063313ce5671461043c57610269565b8063026e402b1461026e57806304bb4e431461029c57806306fdde03146102da578063095ea7b31461035757806313de97f514610397575b600080fd5b61029a6004803603604081101561028457600080fd5b506001600160a01b038135169060200135610a27565b005b6102c8600480360360408110156102b257600080fd5b506001600160a01b038135169060200135610a2b565b60408051918252519081900360200190f35b6102e2610a3e565b6040805160208082528351818301528351919283929083019185019080838360005b8381101561031c578181015183820152602001610304565b50505050905090810190601f1680156103495780820380516001836020036101000a031916815260200191505b509250505060405180910390f35b6103836004803603604081101561036d57600080fd5b506001600160a01b038135169060200135610a4d565b604080519115158252519081900360200190f35b61029a600480360360208110156103ad57600080fd5b5035610a6a565b6102c8600480360360208110156103ca57600080fd5b50356001600160a01b0316610a6d565b6102c8610a7f565b6103ea610a85565b604080516001600160a01b039092168252519081900360200190f35b6103836004803603606081101561041c57600080fd5b506001600160a01b03813581169160208101359091169060400135610a8a565b610444610b11565b6040805160ff9092168252519081900360200190f35b6103836004803603604081101561047057600080fd5b506001600160a01b038135169060200135610b1b565b6102c86004803603602081101561049c57600080fd5b5035610b69565b610546600480360360408110156104b957600080fd5b810190602081018135600160201b8111156104d357600080fd5b8201836020820111156104e557600080fd5b803590602001918460208302840111600160201b8311171561050657600080fd5b9190808060200260200160405190810160405280939291908181526020018383602002808284376000920191909152509295505091359250610b6f915050565b60408051602080825283518183015283519192839290830191858101910280838360005b8381101561058257818101518382015260200161056a565b505050509050019250505060405180910390f35b6102c8600480360360408110156105ac57600080fd5b506001600160a01b038135169060200135610b77565b6102c8600480360360208110156105d857600080fd5b810190602081018135600160201b8111156105f257600080fd5b82018360208201111561060457600080fd5b803590602001918460208302840111600160201b8311171561062557600080fd5b919080806020026020016040519081016040528093929190818152602001838360200280828437600092019190915250929550610b69945050505050565b6102c86004803603602081101561067957600080fd5b50356001600160a01b0316610b7f565b6106af6004803603602081101561069f57600080fd5b50356001600160a01b0316610b9a565b604051808060200180602001858152602001848152602001838103835287818151815260200191508051906020019060200280838360005b838110156106ff5781810151838201526020016106e7565b50505050905001838103825286818151815260200191508051906020019060200280838360005b8381101561073e578181015183820152602001610726565b50505050905001965050505050505060405180910390f35b61029a6004803603602081101561076c57600080fd5b50356001600160a01b0316610a6a565b6102c86004803603604081101561079257600080fd5b506001600160a01b038135169060200135610ba7565b6102e2610bca565b610383600480360360408110156107c657600080fd5b506001600160a01b038135169060200135610bd4565b610383600480360360408110156107f257600080fd5b506001600160a01b038135169060200135610c3c565b61029a610c50565b6102c86004803603604081101561082657600080fd5b506001600160a01b0381358116916020013516610b77565b6102c86004803603602081101561085457600080fd5b50356001600160a01b0316610b69565b61029a6004803603604081101561087a57600080fd5b810190602081018135600160201b81111561089457600080fd5b8201836020820111156108a657600080fd5b803590602001918460208302840111600160201b831117156108c757600080fd5b9190808060200260200160405190810160405280939291908181526020018383602002808284376000920191909152509295949360208101935035915050600160201b81111561091657600080fd5b82018360208201111561092857600080fd5b803590602001918460208302840111600160201b8311171561094957600080fd5b919080806020026020016040519081016040528093929190818152602001838360200280828437600092019190915250929550610a27945050505050565b6102c86004803603604081101561099d57600080fd5b506001600160a01b0381358116916020013516610c52565b6102c8610a85565b6102c8600480360360608110156109d357600080fd5b506001600160a01b03813581169160208101359091169060400135610c7d565b6106af60048036036040811015610a0957600080fd5b506001600160a01b038135169060200135610c86565b6102c8610c94565b5050565b6000610a378383610ba7565b9392505050565b6060610a48610cfb565b905090565b6000610a61610a5a610d91565b8484610d95565b50600192915050565b50565b6000610a798243610ba7565b92915050565b60025490565b600090565b6000610a97848484610e81565b610b0784610aa3610d91565b610b028560405180606001604052806028815260200161114e602891396001600160a01b038a16600090815260016020526040812090610ae1610d91565b6001600160a01b031681526020810191909152604001600020549190610fdc565b610d95565b5060019392505050565b6000610a48611073565b6000610a61610b28610d91565b84610b028560016000610b39610d91565b6001600160a01b03908116825260208083019390935260409182016000908120918c168152925290205490610ca1565b50600090565b606092915050565b600092915050565b6001600160a01b031660009081526020819052604090205490565b6060806000809193509193565b6000670de0b6b3a7640000610bbb84610b7f565b81610bc257fe5b049392505050565b6060610a4861107c565b6000610a61610be1610d91565b84610b02856040518060600160405280602581526020016111bf6025913960016000610c0b610d91565b6001600160a01b03908116825260208083019390935260409182016000908120918d16815292529020549190610fdc565b6000610a61610c49610d91565b8484610e81565b565b6001600160a01b03918216600090815260016020908152604080832093909416825291909152205490565b60009392505050565b506060918291506000908190565b6825f273933db570000081565b600082820183811015610a37576040805162461bcd60e51b815260206004820152601b60248201527f536166654d6174683a206164646974696f6e206f766572666c6f770000000000604482015290519081900360640190fd5b60038054604080516020601f6002600019610100600188161502019095169490940493840181900481028201810190925282815260609390929091830182828015610d875780601f10610d5c57610100808354040283529160200191610d87565b820191906000526020600020905b815481529060010190602001808311610d6a57829003601f168201915b5050505050905090565b3390565b6001600160a01b038316610dda5760405162461bcd60e51b815260040180806020018281038252602481526020018061119b6024913960400191505060405180910390fd5b6001600160a01b038216610e1f5760405162461bcd60e51b81526004018080602001828103825260228152602001806111066022913960400191505060405180910390fd5b6001600160a01b03808416600081815260016020908152604080832094871680845294825291829020859055815185815291517f8c5be1e5ebec7d5bd14f71427d1e84f3dd0314c0f7b2291e5b200ac8c7c3b9259281900390910190a3505050565b6001600160a01b038316610ec65760405162461bcd60e51b81526004018080602001828103825260258152602001806111766025913960400191505060405180910390fd5b6001600160a01b038216610f0b5760405162461bcd60e51b81526004018080602001828103825260238152602001806110e36023913960400191505060405180910390fd5b610f168383836110dd565b610f5381604051806060016040528060268152602001611128602691396001600160a01b0386166000908152602081905260409020549190610fdc565b6001600160a01b038085166000908152602081905260408082209390935590841681522054610f829082610ca1565b6001600160a01b038084166000818152602081815260409182902094909455805185815290519193928716927fddf252ad1be2c89b69c2b068fc378daa952ba7f163c4a11628f55a4df523b3ef92918290030190a3505050565b6000818484111561106b5760405162461bcd60e51b81526004018080602001828103825283818151815260200191508051906020019080838360005b83811015611030578181015183820152602001611018565b50505050905090810190601f16801561105d5780820380516001836020036101000a031916815260200191505b509250505060405180910390fd5b505050900390565b60055460ff1690565b60048054604080516020601f6002600019610100600188161502019095169490940493840181900481028201810190925282815260609390929091830182828015610d875780601f10610d5c57610100808354040283529160200191610d87565b50505056fe45524332303a207472616e7366657220746f20746865207a65726f206164647265737345524332303a20617070726f766520746f20746865207a65726f206164647265737345524332303a207472616e7366657220616d6f756e7420657863656564732062616c616e636545524332303a207472616e7366657220616d6f756e74206578636565647320616c6c6f77616e636545524332303a207472616e736665722066726f6d20746865207a65726f206164647265737345524332303a20617070726f76652066726f6d20746865207a65726f206164647265737345524332303a2064656372656173656420616c6c6f77616e63652062656c6f77207a65726fa2646970667358221220ed0c5ab6adca4285fcf050c3b39b67e8a613a6040427a6645beea9725a01ade264736f6c63430007060033",
  "linkReferences": {},
  "deployedLinkReferences": {}
}