{
  "_format": "hh-sol-artifact-1",
  "contractName": "InflationAllocation",
  "sourceName": "contracts/inflation/implementation/InflationAllocation.sol",
  "abi": [
    {
      "inputs": [
        {
          "internalType": "address",
          "name": "_governance",
          "type": "address"
        },
        {
          "internalType": "address",
          "name": "_addressUpdater",
          "type": "address"
        },
        {
          "internalType": "uint256[]",
          "name": "_timeSlotInflationScheduleBips",
          "type": "uint256[]"
        }
      ],
      "stateMutability": "nonpayable",
      "type": "constructor"
    },
    {
      "anonymous": false,
      "inputs": [
        {
          "indexed": false,
          "internalType": "bytes4",
          "name": "selector",
          "type": "bytes4"
        },
        {
          "indexed": false,
          "internalType": "uint256",
          "name": "allowedAfterTimestamp",
          "type": "uint256"
        },
        {
          "indexed": false,
          "internalType": "bytes",
          "name": "encodedCall",
          "type": "bytes"
        }
      ],
      "name": "GovernanceCallTimelocked",
      "type": "event"
    },
    {
      "anonymous": false,
      "inputs": [
        {
          "indexed": false,
          "internalType": "address",
          "name": "initialGovernance",
          "type": "address"
        }
      ],
      "name": "GovernanceInitialised",
      "type": "event"
    },
    {
      "anonymous": false,
      "inputs": [
        {
          "indexed": false,
          "internalType": "address",
          "name": "governanceSettings",
          "type": "address"
        }
      ],
      "name": "GovernedProductionModeEntered",
      "type": "event"
    },
    {
      "anonymous": false,
      "inputs": [
        {
          "indexed": false,
          "internalType": "address",
          "name": "oldAddress",
          "type": "address"
        },
        {
          "indexed": false,
          "internalType": "address",
          "name": "newAddress",
          "type": "address"
        }
      ],
      "name": "InflationSet",
      "type": "event"
    },
    {
      "anonymous": false,
      "inputs": [
        {
          "indexed": false,
          "internalType": "contract IIInflationReceiver[]",
          "name": "inflationReceivers",
          "type": "address[]"
        },
        {
          "indexed": false,
          "internalType": "uint256[]",
          "name": "percentagePerReceiverBips",
          "type": "uint256[]"
        }
      ],
      "name": "InflationSharingPercentagesSet",
      "type": "event"
    },
    {
      "anonymous": false,
      "inputs": [
        {
          "indexed": false,
          "internalType": "uint256[]",
          "name": "timeSlotInflationPercentagesBips",
          "type": "uint256[]"
        }
      ],
      "name": "TimeSlotInflationPercentageScheduleSet",
      "type": "event"
    },
    {
      "anonymous": false,
      "inputs": [
        {
          "indexed": false,
          "internalType": "uint256",
          "name": "percentageBips",
          "type": "uint256"
        }
      ],
      "name": "TimeSlotInflationPercentageYielded",
      "type": "event"
    },
    {
      "anonymous": false,
      "inputs": [
        {
          "indexed": false,
          "internalType": "bytes4",
          "name": "selector",
          "type": "bytes4"
        },
        {
          "indexed": false,
          "internalType": "uint256",
          "name": "timestamp",
          "type": "uint256"
        }
      ],
      "name": "TimelockedGovernanceCallCanceled",
      "type": "event"
    },
    {
      "anonymous": false,
      "inputs": [
        {
          "indexed": false,
          "internalType": "bytes4",
          "name": "selector",
          "type": "bytes4"
        },
        {
          "indexed": false,
          "internalType": "uint256",
          "name": "timestamp",
          "type": "uint256"
        }
      ],
      "name": "TimelockedGovernanceCallExecuted",
      "type": "event"
    },
    {
      "inputs": [
        {
          "internalType": "bytes4",
          "name": "_selector",
          "type": "bytes4"
        }
      ],
      "name": "cancelGovernanceCall",
      "outputs": [],
      "stateMutability": "nonpayable",
      "type": "function"
    },
    {
      "inputs": [
        {
          "internalType": "bytes4",
          "name": "_selector",
          "type": "bytes4"
        }
      ],
      "name": "executeGovernanceCall",
      "outputs": [],
      "stateMutability": "nonpayable",
      "type": "function"
    },
    {
      "inputs": [],
      "name": "getAddressUpdater",
      "outputs": [
        {
          "internalType": "address",
          "name": "_addressUpdater",
          "type": "address"
        }
      ],
      "stateMutability": "view",
      "type": "function"
    },
    {
      "inputs": [],
      "name": "getSharingPercentages",
      "outputs": [
        {
          "components": [
            {
              "internalType": "contract IIInflationReceiver",
              "name": "inflationReceiver",
              "type": "address"
            },
            {
              "internalType": "uint256",
              "name": "percentBips",
              "type": "uint256"
            }
          ],
          "internalType": "struct SharingPercentage[]",
          "name": "_sharingPercentages",
          "type": "tuple[]"
        }
      ],
      "stateMutability": "view",
      "type": "function"
    },
    {
      "inputs": [],
      "name": "getTimeSlotPercentageBips",
      "outputs": [
        {
          "internalType": "uint256",
          "name": "",
          "type": "uint256"
        }
      ],
      "stateMutability": "nonpayable",
      "type": "function"
    },
    {
      "inputs": [],
      "name": "governance",
      "outputs": [
        {
          "internalType": "address",
          "name": "",
          "type": "address"
        }
      ],
      "stateMutability": "view",
      "type": "function"
    },
    {
      "inputs": [],
      "name": "governanceSettings",
      "outputs": [
        {
          "internalType": "contract IGovernanceSettings",
          "name": "",
          "type": "address"
        }
      ],
      "stateMutability": "view",
      "type": "function"
    },
    {
      "inputs": [],
      "name": "inflation",
      "outputs": [
        {
          "internalType": "contract Inflation",
          "name": "",
          "type": "address"
        }
      ],
      "stateMutability": "view",
      "type": "function"
    },
    {
      "inputs": [
        {
          "internalType": "uint256",
          "name": "",
          "type": "uint256"
        }
      ],
      "name": "inflationReceivers",
      "outputs": [
        {
          "internalType": "contract IIInflationReceiver",
          "name": "receiverContract",
          "type": "address"
        },
        {
          "internalType": "uint32",
          "name": "percentageBips",
          "type": "uint32"
        }
      ],
      "stateMutability": "view",
      "type": "function"
    },
    {
      "inputs": [
        {
          "internalType": "address",
          "name": "_initialGovernance",
          "type": "address"
        }
      ],
      "name": "initialise",
      "outputs": [],
      "stateMutability": "nonpayable",
      "type": "function"
    },
    {
      "inputs": [],
      "name": "lastTimeSlotInflationPercentageBips",
      "outputs": [
        {
          "internalType": "uint256",
          "name": "",
          "type": "uint256"
        }
      ],
      "stateMutability": "view",
      "type": "function"
    },
    {
      "inputs": [],
      "name": "productionMode",
      "outputs": [
        {
          "internalType": "bool",
          "name": "",
          "type": "bool"
        }
      ],
      "stateMutability": "view",
      "type": "function"
    },
    {
      "inputs": [
        {
          "internalType": "contract IIInflationReceiver[]",
          "name": "_inflationReceivers",
          "type": "address[]"
        },
        {
          "internalType": "uint256[]",
          "name": "_percentagePerReceiverBips",
          "type": "uint256[]"
        }
      ],
      "name": "setSharingPercentages",
      "outputs": [],
      "stateMutability": "nonpayable",
      "type": "function"
    },
    {
      "inputs": [
        {
          "internalType": "uint256[]",
          "name": "_timeSlotInflationScheduleBips",
          "type": "uint256[]"
        }
      ],
      "name": "setTimeSlotInflation",
      "outputs": [],
      "stateMutability": "nonpayable",
      "type": "function"
    },
    {
      "inputs": [],
      "name": "switchToProductionMode",
      "outputs": [],
      "stateMutability": "nonpayable",
      "type": "function"
    },
    {
      "inputs": [
        {
          "internalType": "uint256",
          "name": "",
          "type": "uint256"
        }
      ],
      "name": "timeSlotInflationPercentagesBips",
      "outputs": [
        {
          "internalType": "uint256",
          "name": "",
          "type": "uint256"
        }
      ],
      "stateMutability": "view",
      "type": "function"
    },
    {
      "inputs": [
        {
          "internalType": "bytes4",
          "name": "",
          "type": "bytes4"
        }
      ],
      "name": "timelockedCalls",
      "outputs": [
        {
          "internalType": "uint256",
          "name": "allowedAfterTimestamp",
          "type": "uint256"
        },
        {
          "internalType": "bytes",
          "name": "encodedCall",
          "type": "bytes"
        }
      ],
      "stateMutability": "view",
      "type": "function"
    },
    {
      "inputs": [
        {
          "internalType": "bytes32[]",
          "name": "_contractNameHashes",
          "type": "bytes32[]"
        },
        {
          "internalType": "address[]",
          "name": "_contractAddresses",
          "type": "address[]"
        }
      ],
      "name": "updateContractAddresses",
      "outputs": [],
      "stateMutability": "nonpayable",
      "type": "function"
    }
  ],
  "bytecode": "0x60806040523480156200001157600080fd5b50604051620024783803806200247883398101604081905262000034916200037a565b8183806001600160a01b038116156200005257620000528162000129565b506001600160a01b038116620000a2576040805162461bcd60e51b815260206004820152601060248201526f5f676f7665726e616e6365207a65726f60801b604482015290519081900360640190fd5b50620000ae81620001ec565b506000815111604051806060016040528060228152602001620024356022913990620000f85760405162461bcd60e51b8152600401620000ef919062000457565b60405180910390fd5b50806000815181106200010757fe5b6020908102919091010151600455620001208162000210565b505050620004ad565b600054600160a01b900460ff161562000189576040805162461bcd60e51b815260206004820152601460248201527f696e697469616c6973656420213d2066616c7365000000000000000000000000604482015290519081900360640190fd5b60008054600160a01b60ff60a01b19909116176001600160a01b0319166001600160a01b03831690811790915560408051918252517f9789733827840833afc031fb2ef9ab6894271f77bad2085687cf4ae5c7bee4db916020908290030190a150565b7f714f205b2abd25bef1d06a1af944e38c113fe6160375c4e1d6d5cf28848e771955565b60198151111560405180604001604052806008815260200167746f6f206d616e7960c01b81525090620002585760405162461bcd60e51b8152600401620000ef919062000457565b50805160045460005b828110156200035757818482815181106200027857fe5b602002602001015111158015620002a3575060008482815181106200029957fe5b6020026020010151115b8015620002c95750600a61271004848281518110620002be57fe5b602002602001015111155b604051806060016040528060218152602001620024576021913990620003045760405162461bcd60e51b8152600401620000ef919062000457565b508381815181106200031257fe5b6020026020010151915060058482815181106200032b57fe5b602090810291909101810151825460018181018555600094855292909320909201919091550162000261565b50505050565b80516001600160a01b03811681146200037557600080fd5b919050565b6000806000606084860312156200038f578283fd5b6200039a846200035d565b92506020620003ab8186016200035d565b60408601519093506001600160401b0380821115620003c8578384fd5b818701915087601f830112620003dc578384fd5b815181811115620003e957fe5b838102604051858282010181811085821117156200040357fe5b604052828152858101935084860182860187018c101562000422578788fd5b8795505b838610156200044657805185526001959095019493860193860162000426565b508096505050505050509250925092565b6000602080835283518082850152825b81811015620004855785810183015185820160400152820162000467565b81811115620004975783604083870101525b50601f01601f1916929092016040019392505050565b611f7880620004bd6000396000f3fe608060405234801561001057600080fd5b50600436106101165760003560e01c80638f0612b3116100a2578063b2d9e80611610071578063b2d9e8061461021c578063be0522e01461022f578063c853b8d414610237578063e17f212e1461024c578063f5a983831461026157610116565b80638f0612b3146101db5780639d6a890f146101e35780639e5fd49d146101f6578063b00c0b761461020957610116565b80635aa6e675116100e95780635aa6e675146101825780635ff270791461018a57806362354e031461019f57806367fc4029146101a757806374e6310e146101ba57610116565b8063172839d21461011b5780631d019e341461014457806330fe6482146101655780635267a15d1461016d575b600080fd5b61012e610129366004611cc8565b610269565b60405161013b9190611e7c565b60405180910390f35b610157610152366004611cc8565b61028a565b60405161013b929190611e4a565b61012e6102c2565b6101756102c8565b60405161013b9190611d46565b6101756102ed565b61019d610198366004611c16565b610382565b005b6101756106d7565b61019d6101b5366004611c16565b6106e2565b6101cd6101c8366004611c16565b6107ca565b60405161013b929190611e85565b61012e610870565b61019d6101f1366004611a4b565b610a00565b61019d610204366004611bdb565b610ab9565b61019d610217366004611a6e565b610b76565b61019d61022a366004611b25565b610c21565b610175610c6a565b61023f610c79565b60405161013b9190611dd4565b610254610d83565b60405161013b9190611e3f565b61019d610d93565b6005818154811061027957600080fd5b600091825260209091200154905081565b6002818154811061029a57600080fd5b6000918252602090912001546001600160a01b0381169150600160a01b900463ffffffff1682565b60045481565b7f714f205b2abd25bef1d06a1af944e38c113fe6160375c4e1d6d5cf28848e77195490565b60008054600160a81b900460ff16610310576000546001600160a01b031661037d565b60076001609c1b016001600160a01b031663732524946040518163ffffffff1660e01b815260040160206040518083038186803b15801561035057600080fd5b505afa158015610364573d6000803e3d6000fd5b505050506040513d602081101561037a57600080fd5b50515b905090565b60408051630debfda360e41b8152336004820152905160076001609c1b019163debfda30916024808301926020929190829003018186803b1580156103c657600080fd5b505afa1580156103da573d6000803e3d6000fd5b505050506040513d60208110156103f057600080fd5b5051610433576040805162461bcd60e51b815260206004820152600d60248201526c37b7363c9032bc32b1baba37b960991b604482015290519081900360640190fd5b6001600160e01b031981166000908152600160205260409020805461049f576040805162461bcd60e51b815260206004820152601a60248201527f74696d656c6f636b3a20696e76616c69642073656c6563746f72000000000000604482015290519081900360640190fd5b80544210156104f5576040805162461bcd60e51b815260206004820152601960248201527f74696d656c6f636b3a206e6f7420616c6c6f7765642079657400000000000000604482015290519081900360640190fd5b6000816001018054600181600116156101000203166002900480601f01602080910402602001604051908101604052809291908181526020018280546001816001161561010002031660029004801561058f5780601f106105645761010080835404028352916020019161058f565b820191906000526020600020905b81548152906001019060200180831161057257829003601f168201915b5050506001600160e01b03198616600090815260016020819052604082208281559495509092506105c39150830182611888565b50506000805460ff60b01b1916600160b01b178155604051825130918491819060208401908083835b6020831061060b5780518252601f1990920191602091820191016105ec565b6001836020036101000a0380198251168184511680821785525050505050509050019150506000604051808303816000865af19150503d806000811461066d576040519150601f19603f3d011682016040523d82523d6000602084013e610672565b606091505b50506000805460ff60b01b19169055604080516001600160e01b03198716815242602082015281519293507fa7326b57fc9cfe267aaea5e7f0b01757154d265620a0585819416ee9ddd2c438929081900390910190a16106d181610e4d565b50505050565b60076001609c1b0181565b6106ea610e6a565b6001600160e01b03198116600090815260016020526040902054610755576040805162461bcd60e51b815260206004820152601a60248201527f74696d656c6f636b3a20696e76616c69642073656c6563746f72000000000000604482015290519081900360640190fd5b604080516001600160e01b03198316815242602082015281517f7735b2391c38a81419c513e30ca578db7158eadd7101511b23e221c654d19cf8929181900390910190a16001600160e01b031981166000908152600160208190526040822082815591906107c590830182611888565b505050565b600160208181526000928352604092839020805481840180548651600296821615610100026000190190911695909504601f810185900485028601850190965285855290949193929091908301828280156108665780601f1061083b57610100808354040283529160200191610866565b820191906000526020600020905b81548152906001019060200180831161084957829003601f168201915b5050505050905082565b60035460408051808201909152600c81526b06164647265737320697320360a41b60208201526000916001600160a01b031690816108ca5760405162461bcd60e51b81526004016108c19190611e69565b60405180910390fd5b5060035460408051808201909152600e81526d37b7363c9034b7333630ba34b7b760911b6020820152906001600160a01b0316331461091c5760405162461bcd60e51b81526004016108c19190611e69565b50600554156109bd57600560008154811061093357fe5b600091825260209091200154600455600554600181111561099a5760005b60018203811015610998576005816001018154811061096c57fe5b90600052602060002001546005828154811061098457fe5b600091825260209091200155600101610951565b505b60058054806109a557fe5b60019003818190600052602060002001600090559055505b7ff688fbdea401aa4d41a2161615510c602c5d55a3b978ffa41ba94beaefc11d376004546040516109ee9190611e7c565b60405180910390a160045491505b5090565b600054600160a01b900460ff1615610a56576040805162461bcd60e51b8152602060048201526014602482015273696e697469616c6973656420213d2066616c736560601b604482015290519081900360640190fd5b60008054600160a01b60ff60a01b19909116176001600160a01b0319166001600160a01b03831690811790915560408051918252517f9789733827840833afc031fb2ef9ab6894271f77bad2085687cf4ae5c7bee4db916020908290030190a150565b600054600160b01b900460ff1680610adb5750600054600160a81b900460ff16155b15610b6857610ae8610ecb565b60055460005b81811015610b21576005805480610b0157fe5b600082815260208120820160001990810191909155019055600101610aee565b50610b2b82610f00565b7f4310f1b74596fc6d897e6f90befbafefcda4b06bffb7f47b6ddd8110188e52d682604051610b5a9190611e2c565b60405180910390a150610b73565b610b73600036611037565b50565b610b7e6102c8565b6001600160a01b0316336001600160a01b031614610bda576040805162461bcd60e51b815260206004820152601460248201527337b7363c9030b2323932b9b9903ab83230ba32b960611b604482015290519081900360640190fd5b610c13610c0e83836040518060400160405280600e81526020016d20b2323932b9b9aab83230ba32b960911b8152506111ba565b6112e7565b610c1d828261130b565b5050565b600054600160b01b900460ff1680610c435750600054600160a81b900460ff16155b15610c5f57610c50610ecb565b610c5a8282611572565b610c1d565b610c1d600036611037565b6003546001600160a01b031681565b6002546060908067ffffffffffffffff81118015610c9657600080fd5b50604051908082528060200260200182016040528015610cd057816020015b610cbd6118cc565b815260200190600190039081610cb55790505b50915060005b81811015610d7e5760028181548110610ceb57fe5b9060005260206000200160000160149054906101000a900463ffffffff1663ffffffff16838281518110610d1b57fe5b6020026020010151602001818152505060028181548110610d3857fe5b60009182526020909120015483516001600160a01b0390911690849083908110610d5e57fe5b60209081029190910101516001600160a01b039091169052600101610cd6565b505090565b600054600160a81b900460ff1681565b610d9b610e6a565b600054600160a81b900460ff1615610dfa576040805162461bcd60e51b815260206004820152601a60248201527f616c726561647920696e2070726f64756374696f6e206d6f6465000000000000604482015290519081900360640190fd5b60008054600161ff0160a01b031916600160a81b1790556040805160076001609c1b01815290517f83af113638b5422f9e977cebc0aaf0eaf2188eb9a8baae7f9d46c42b33a1560c9181900360200190a1565b3d604051818101604052816000823e8215610e66578181f35b8181fd5b610e726102ed565b6001600160a01b0316336001600160a01b031614610ec9576040805162461bcd60e51b815260206004820152600f60248201526e6f6e6c7920676f7665726e616e636560881b604482015290519081900360640190fd5b565b600054600160b01b900460ff1615610ef857333014610ee657fe5b6000805460ff60b01b19169055610ec9565b610ec9610e6a565b60198151111560405180604001604052806008815260200167746f6f206d616e7960c01b81525090610f455760405162461bcd60e51b81526004016108c19190611e69565b50805160045460005b828110156106d15781848281518110610f6357fe5b602002602001015111158015610f8c57506000848281518110610f8257fe5b6020026020010151115b8015610fb05750600a61271004848281518110610fa557fe5b602002602001015111155b604051806060016040528060218152602001611f226021913990610fe75760405162461bcd60e51b81526004016108c19190611e69565b50838181518110610ff457fe5b60200260200101519150600584828151811061100c57fe5b6020908102919091018101518254600181810185556000948552929093209092019190915501610f4e565b61103f610e6a565b600082359050600060076001609c1b016001600160a01b0316636221a54b6040518163ffffffff1660e01b815260040160206040518083038186803b15801561108757600080fd5b505afa15801561109b573d6000803e3d6000fd5b505050506040513d60208110156110b157600080fd5b505160408051808201825242830180825282516020601f89018190048102820181019094528781529394509290918281019190889088908190840183828082843760009201829052509390945250506001600160e01b03198616815260016020818152604090922084518155848301518051919450611135939285019201906118e3565b509050507fed948300a3694aa01d4a6b258bfd664350193d770c0b51f8387277f6d83ea3b68382878760405180856001600160e01b0319168152602001848152602001806020018281038252848482818152602001925080828437600083820152604051601f909101601f191690920182900397509095505050505050a15050505050565b600080826040516020018080602001828103825283818151815260200191508051906020019080838360005b838110156111fe5781810151838201526020016111e6565b50505050905090810190601f16801561122b5780820380516001836020036101000a031916815260200191505b50925050506040516020818303038152906040528051906020012090506000805b86518110156112935786818151811061126157fe5b602002602001015183141561128b5785818151811061127c57fe5b60200260200101519150611293565b60010161124c565b506001600160a01b0381166112de576040805162461bcd60e51b815260206004820152600c60248201526b61646472657373207a65726f60a01b604482015290519081900360640190fd5b95945050505050565b7f714f205b2abd25bef1d06a1af944e38c113fe6160375c4e1d6d5cf28848e771955565b600061133983836040518060400160405280600981526020016824b7333630ba34b7b760b91b8152506111ba565b6003546040519192507f4bdd1012a7d55ed9afad8675a125e1b68c7c15f712c0f3d5cddac69c3b97980591611379916001600160a01b0316908490611d5a565b60405180910390a1600380546001600160a01b0319166001600160a01b038316179055600254806113ab575050610c1d565b60008167ffffffffffffffff811180156113c457600080fd5b506040519080825280602002602001820160405280156113ee578160200160208202803683370190505b50905060008267ffffffffffffffff8111801561140a57600080fd5b50604051908082528060200260200182016040528015611434578160200160208202803683370190505b50905060005b8381101561155f5760006002828154811061145157fe5b6000918252602080832060408051808201825293909101546001600160a01b038116808552600160a01b90910463ffffffff16928401929092528051637afadd3960e11b81529051929450611508938c938c939263f5f5ba72926004808301939192829003018186803b1580156114c757600080fd5b505afa1580156114db573d6000803e3d6000fd5b505050506040513d6000823e601f3d908101601f191682016040526115039190810190611c3e565b6111ba565b84838151811061151457fe5b60200260200101906001600160a01b031690816001600160a01b031681525050806020015163ffffffff1683838151811061154b57fe5b60209081029190910101525060010161143a565b5061156a8282611572565b505050505050565b80518251146040518060400160405280600f81526020016e0d8cadccee8d040dad2e6dac2e8c6d608b1b815250906115bd5760405162461bcd60e51b81526004016108c19190611e69565b50600a8251111560405180604001604052806008815260200167746f6f206d616e7960c01b815250906116035760405162461bcd60e51b81526004016108c19190611e69565b50600254600090815b8181101561164957600280548061161f57fe5b600082815260209020810160001990810180546001600160c01b031916905501905560010161160c565b5060005b84518110156117f15761271084828151811061166557fe5b602002602001015111156040518060400160405280601781526020017f686967682073686172696e672070657263656e74616765000000000000000000815250906116c35760405162461bcd60e51b81526004016108c19190611e69565b5060006001600160a01b03168582815181106116db57fe5b60200260200101516001600160a01b031614156040518060400160405280600c81526020016b06164647265737320697320360a41b815250906117315760405162461bcd60e51b81526004016108c19190611e69565b5083818151811061173e57fe5b6020026020010151830192506002604051806040016040528087848151811061176357fe5b60200260200101516001600160a01b0316815260200186848151811061178557fe5b60209081029190910181015163ffffffff90811690925283546001808201865560009586529482902084519101805494909201516001600160a01b03199094166001600160a01b039091161763ffffffff60a01b1916600160a01b93909216929092021790550161164d565b5060408051808201909152601f81527f73756d2073686172696e672070657263656e74616765206e6f74203130302500602082015261271083146118485760405162461bcd60e51b81526004016108c19190611e69565b507f5851f041454bd72003e19484c59ec9c1bd9c6f8df07679fd1e94412fb5880b44848460405161187a929190611d74565b60405180910390a150505050565b50805460018160011615610100020316600290046000825580601f106118ae5750610b73565b601f016020900490600052602060002090810190610b739190611967565b604080518082019091526000808252602082015290565b828054600181600116156101000203166002900490600052602060002090601f016020900481019282611919576000855561195f565b82601f1061193257805160ff191683800117855561195f565b8280016001018555821561195f579182015b8281111561195f578251825591602001919060010190611944565b506109fc9291505b5b808211156109fc5760008155600101611968565b600082601f83011261198c578081fd5b813560206119a161199c83611ec2565b611e9e565b82815281810190858301838502870184018810156119bd578586fd5b855b858110156119e45781356119d281611f0c565b845292840192908401906001016119bf565b5090979650505050505050565b600082601f830112611a01578081fd5b81356020611a1161199c83611ec2565b8281528181019085830183850287018401881015611a2d578586fd5b855b858110156119e457813584529284019290840190600101611a2f565b600060208284031215611a5c578081fd5b8135611a6781611f0c565b9392505050565b60008060408385031215611a80578081fd5b823567ffffffffffffffff80821115611a97578283fd5b818501915085601f830112611aaa578283fd5b81356020611aba61199c83611ec2565b82815281810190858301838502870184018b1015611ad6578788fd5b8796505b84871015611af8578035835260019690960195918301918301611ada565b5096505086013592505080821115611b0e578283fd5b50611b1b8582860161197c565b9150509250929050565b60008060408385031215611b37578182fd5b823567ffffffffffffffff80821115611b4e578384fd5b818501915085601f830112611b61578384fd5b81356020611b7161199c83611ec2565b82815281810190858301838502870184018b1015611b8d578889fd5b8896505b84871015611bb8578035611ba481611f0c565b835260019690960195918301918301611b91565b5096505086013592505080821115611bce578283fd5b50611b1b858286016119f1565b600060208284031215611bec578081fd5b813567ffffffffffffffff811115611c02578182fd5b611c0e848285016119f1565b949350505050565b600060208284031215611c27578081fd5b81356001600160e01b031981168114611a67578182fd5b600060208284031215611c4f578081fd5b815167ffffffffffffffff80821115611c66578283fd5b818401915084601f830112611c79578283fd5b815181811115611c8557fe5b611c98601f8201601f1916602001611e9e565b9150808252856020828501011115611cae578384fd5b611cbf816020840160208601611ee0565b50949350505050565b600060208284031215611cd9578081fd5b5035919050565b6000815180845260208085019450808401835b83811015611d0f57815187529582019590820190600101611cf3565b509495945050505050565b60008151808452611d32816020860160208601611ee0565b601f01601f19169290920160200192915050565b6001600160a01b0391909116815260200190565b6001600160a01b0392831681529116602082015260400190565b604080825283519082018190526000906020906060840190828701845b82811015611db65781516001600160a01b031684529284019290840190600101611d91565b50505083810382850152611dca8186611ce0565b9695505050505050565b602080825282518282018190526000919060409081850190868401855b82811015611e1f57815180516001600160a01b03168552860151868501529284019290850190600101611df1565b5091979650505050505050565b600060208252611a676020830184611ce0565b901515815260200190565b6001600160a01b0392909216825263ffffffff16602082015260400190565b600060208252611a676020830184611d1a565b90815260200190565b600083825260406020830152611c0e6040830184611d1a565b60405181810167ffffffffffffffff81118282101715611eba57fe5b604052919050565b600067ffffffffffffffff821115611ed657fe5b5060209081020190565b60005b83811015611efb578181015183820152602001611ee3565b838111156106d15750506000910152565b6001600160a01b0381168114610b7357600080fdfe74696d6520736c6f7420696e666c6174696f6e206f7574206f6620626f756e6473a2646970667358221220bb131807716d49eb0e6145cffb7a63ab52682468bc2f26f8f2ac2033f8ae845d64736f6c6343000706003374696d6520736c6f7420696e666c6174696f6e207363686564756c6520656d70747974696d6520736c6f7420696e666c6174696f6e206f7574206f6620626f756e6473",
  "linkReferences": {},
  "deployedLinkReferences": {}
}