{
  "_format": "hh-sol-artifact-1",
  "contractName": "WhitelistedGetterMock",
  "sourceName": "contracts/utils/mock/WhitelistedGetterMock.sol",
  "abi": [
    {
      "inputs": [
        {
          "internalType": "address[]",
          "name": "addresses",
          "type": "address[]"
        }
      ],
      "stateMutability": "nonpayable",
      "type": "constructor"
    },
    {
      "inputs": [
        {
          "internalType": "uint256",
          "name": "",
          "type": "uint256"
        }
      ],
      "name": "getFtsoWhitelistedPriceProviders",
      "outputs": [
        {
          "internalType": "address[]",
          "name": "",
          "type": "address[]"
        }
      ],
      "stateMutability": "view",
      "type": "function"
    },
    {
      "inputs": [
        {
          "internalType": "uint256",
          "name": "",
          "type": "uint256"
        }
      ],
      "name": "whitelisted",
      "outputs": [
        {
          "internalType": "address",
          "name": "",
          "type": "address"
        }
      ],
      "stateMutability": "view",
      "type": "function"
    }
  ],
  "bytecode": "0x608060405234801561001057600080fd5b506040516103093803806103098339818101604052602081101561003357600080fd5b810190808051604051939291908464010000000082111561005357600080fd5b90830190602082018581111561006857600080fd5b825186602082028301116401000000008211171561008557600080fd5b82525081516020918201928201910280838360005b838110156100b257818101518382015260200161009a565b5050505091909101604052505082516100d492506000915060208401906100db565b5050610155565b828054828255906000526020600020908101928215610130579160200282015b8281111561013057825182546001600160a01b0319166001600160a01b039091161782556020909201916001909101906100fb565b5061013c929150610140565b5090565b5b8082111561013c5760008155600101610141565b6101a5806101646000396000f3fe608060405234801561001057600080fd5b50600436106100365760003560e01c806309fcb4001461003b5780633d4efe09146100a8575b600080fd5b6100586004803603602081101561005157600080fd5b50356100e1565b60408051602080825283518183015283519192839290830191858101910280838360005b8381101561009457818101518382015260200161007c565b505050509050019250505060405180910390f35b6100c5600480360360208110156100be57600080fd5b5035610145565b604080516001600160a01b039092168252519081900360200190f35b6060600080548060200260200160405190810160405280929190818152602001828054801561013957602002820191906000526020600020905b81546001600160a01b0316815260019091019060200180831161011b575b50505050509050919050565b6000818154811061015557600080fd5b6000918252602090912001546001600160a01b031690508156fea2646970667358221220de2a10f8c164cc1a68e983aa2a4b4383be076fbac09d50195446ce43b848394164736f6c63430007060033",
  "linkReferences": {},
  "deployedLinkReferences": {}
}