{
  "_format": "hh-sol-artifact-1",
  "contractName": "VoterWhitelisterMock",
  "sourceName": "contracts/utils/mock/VoterWhitelisterMock.sol",
  "abi": [
    {
      "inputs": [
        {
          "internalType": "address",
          "name": "_governance",
          "type": "address"
        },
        {
          "internalType": "address",
          "name": "_addressUpdater",
          "type": "address"
        },
        {
          "internalType": "contract IIPriceSubmitter",
          "name": "_priceSubmitter",
          "type": "address"
        },
        {
          "internalType": "uint256",
          "name": "_defaultMaxVotersForFtso",
          "type": "uint256"
        }
      ],
      "stateMutability": "nonpayable",
      "type": "constructor"
    },
    {
      "anonymous": false,
      "inputs": [
        {
          "indexed": false,
          "internalType": "bytes4",
          "name": "selector",
          "type": "bytes4"
        },
        {
          "indexed": false,
          "internalType": "uint256",
          "name": "allowedAfterTimestamp",
          "type": "uint256"
        },
        {
          "indexed": false,
          "internalType": "bytes",
          "name": "encodedCall",
          "type": "bytes"
        }
      ],
      "name": "GovernanceCallTimelocked",
      "type": "event"
    },
    {
      "anonymous": false,
      "inputs": [
        {
          "indexed": false,
          "internalType": "address",
          "name": "initialGovernance",
          "type": "address"
        }
      ],
      "name": "GovernanceInitialised",
      "type": "event"
    },
    {
      "anonymous": false,
      "inputs": [
        {
          "indexed": false,
          "internalType": "address",
          "name": "governanceSettings",
          "type": "address"
        }
      ],
      "name": "GovernedProductionModeEntered",
      "type": "event"
    },
    {
      "anonymous": false,
      "inputs": [
        {
          "indexed": false,
          "internalType": "bytes4",
          "name": "selector",
          "type": "bytes4"
        },
        {
          "indexed": false,
          "internalType": "uint256",
          "name": "timestamp",
          "type": "uint256"
        }
      ],
      "name": "TimelockedGovernanceCallCanceled",
      "type": "event"
    },
    {
      "anonymous": false,
      "inputs": [
        {
          "indexed": false,
          "internalType": "bytes4",
          "name": "selector",
          "type": "bytes4"
        },
        {
          "indexed": false,
          "internalType": "uint256",
          "name": "timestamp",
          "type": "uint256"
        }
      ],
      "name": "TimelockedGovernanceCallExecuted",
      "type": "event"
    },
    {
      "anonymous": false,
      "inputs": [
        {
          "indexed": false,
          "internalType": "address",
          "name": "voter",
          "type": "address"
        },
        {
          "indexed": false,
          "internalType": "uint256",
          "name": "untilRewardEpoch",
          "type": "uint256"
        }
      ],
      "name": "VoterChilled",
      "type": "event"
    },
    {
      "anonymous": false,
      "inputs": [
        {
          "indexed": false,
          "internalType": "address",
          "name": "voter",
          "type": "address"
        },
        {
          "indexed": false,
          "internalType": "uint256",
          "name": "ftsoIndex",
          "type": "uint256"
        }
      ],
      "name": "VoterRemovedFromWhitelist",
      "type": "event"
    },
    {
      "anonymous": false,
      "inputs": [
        {
          "indexed": false,
          "internalType": "address",
          "name": "voter",
          "type": "address"
        },
        {
          "indexed": false,
          "internalType": "uint256",
          "name": "ftsoIndex",
          "type": "uint256"
        }
      ],
      "name": "VoterWhitelisted",
      "type": "event"
    },
    {
      "inputs": [
        {
          "internalType": "uint256",
          "name": "_ftsoIndex",
          "type": "uint256"
        }
      ],
      "name": "addFtso",
      "outputs": [],
      "stateMutability": "nonpayable",
      "type": "function"
    },
    {
      "inputs": [
        {
          "internalType": "bytes4",
          "name": "_selector",
          "type": "bytes4"
        }
      ],
      "name": "cancelGovernanceCall",
      "outputs": [],
      "stateMutability": "nonpayable",
      "type": "function"
    },
    {
      "inputs": [
        {
          "internalType": "address",
          "name": "_voter",
          "type": "address"
        },
        {
          "internalType": "uint256",
          "name": "_noOfRewardEpochs",
          "type": "uint256"
        },
        {
          "internalType": "uint256[]",
          "name": "_ftsoIndices",
          "type": "uint256[]"
        }
      ],
      "name": "chillVoter",
      "outputs": [
        {
          "internalType": "bool[]",
          "name": "_removed",
          "type": "bool[]"
        },
        {
          "internalType": "uint256",
          "name": "_untilRewardEpoch",
          "type": "uint256"
        }
      ],
      "stateMutability": "nonpayable",
      "type": "function"
    },
    {
      "inputs": [
        {
          "internalType": "address",
          "name": "",
          "type": "address"
        }
      ],
      "name": "chilledUntilRewardEpoch",
      "outputs": [
        {
          "internalType": "uint256",
          "name": "",
          "type": "uint256"
        }
      ],
      "stateMutability": "view",
      "type": "function"
    },
    {
      "inputs": [],
      "name": "copyMode",
      "outputs": [
        {
          "internalType": "bool",
          "name": "",
          "type": "bool"
        }
      ],
      "stateMutability": "view",
      "type": "function"
    },
    {
      "inputs": [
        {
          "internalType": "uint256",
          "name": "_ftsoIndex",
          "type": "uint256"
        }
      ],
      "name": "copyWhitelist",
      "outputs": [],
      "stateMutability": "nonpayable",
      "type": "function"
    },
    {
      "inputs": [],
      "name": "defaultMaxVotersForFtso",
      "outputs": [
        {
          "internalType": "uint256",
          "name": "",
          "type": "uint256"
        }
      ],
      "stateMutability": "view",
      "type": "function"
    },
    {
      "inputs": [
        {
          "internalType": "bytes4",
          "name": "_selector",
          "type": "bytes4"
        }
      ],
      "name": "executeGovernanceCall",
      "outputs": [],
      "stateMutability": "nonpayable",
      "type": "function"
    },
    {
      "inputs": [],
      "name": "ftsoManager",
      "outputs": [
        {
          "internalType": "contract IFtsoManager",
          "name": "",
          "type": "address"
        }
      ],
      "stateMutability": "view",
      "type": "function"
    },
    {
      "inputs": [],
      "name": "ftsoRegistry",
      "outputs": [
        {
          "internalType": "contract IFtsoRegistry",
          "name": "",
          "type": "address"
        }
      ],
      "stateMutability": "view",
      "type": "function"
    },
    {
      "inputs": [],
      "name": "getAddressUpdater",
      "outputs": [
        {
          "internalType": "address",
          "name": "_addressUpdater",
          "type": "address"
        }
      ],
      "stateMutability": "view",
      "type": "function"
    },
    {
      "inputs": [
        {
          "internalType": "contract IIVPToken[]",
          "name": "_assets",
          "type": "address[]"
        },
        {
          "internalType": "uint256[]",
          "name": "_assetMultipliers",
          "type": "uint256[]"
        },
        {
          "internalType": "uint256",
          "name": "_totalVotePowerAsset",
          "type": "uint256"
        },
        {
          "internalType": "address[]",
          "name": "_addresses",
          "type": "address[]"
        },
        {
          "internalType": "uint256",
          "name": "_blockNumber",
          "type": "uint256"
        }
      ],
      "name": "getAssetVotePowerWeights",
      "outputs": [
        {
          "internalType": "uint256[]",
          "name": "_combinedAssetVP",
          "type": "uint256[]"
        }
      ],
      "stateMutability": "nonpayable",
      "type": "function"
    },
    {
      "inputs": [
        {
          "internalType": "uint256",
          "name": "_ftsoIndex",
          "type": "uint256"
        }
      ],
      "name": "getFtsoWhitelistedPriceProviders",
      "outputs": [
        {
          "internalType": "address[]",
          "name": "",
          "type": "address[]"
        }
      ],
      "stateMutability": "view",
      "type": "function"
    },
    {
      "inputs": [
        {
          "internalType": "string",
          "name": "_symbol",
          "type": "string"
        }
      ],
      "name": "getFtsoWhitelistedPriceProvidersBySymbol",
      "outputs": [
        {
          "internalType": "address[]",
          "name": "",
          "type": "address[]"
        }
      ],
      "stateMutability": "view",
      "type": "function"
    },
    {
      "inputs": [
        {
          "internalType": "contract IIVPToken",
          "name": "_wNat",
          "type": "address"
        },
        {
          "internalType": "uint256",
          "name": "_totalVotePowerNat",
          "type": "uint256"
        },
        {
          "internalType": "address[]",
          "name": "_addresses",
          "type": "address[]"
        },
        {
          "internalType": "uint256",
          "name": "_blockNumber",
          "type": "uint256"
        }
      ],
      "name": "getNativeVotePowerWeights",
      "outputs": [
        {
          "internalType": "uint256[]",
          "name": "_wNatVP",
          "type": "uint256[]"
        }
      ],
      "stateMutability": "nonpayable",
      "type": "function"
    },
    {
      "inputs": [
        {
          "internalType": "contract IIFtso",
          "name": "ftso",
          "type": "address"
        },
        {
          "internalType": "address[]",
          "name": "_addresses",
          "type": "address[]"
        }
      ],
      "name": "getVotePowerWeights",
      "outputs": [
        {
          "internalType": "uint256[]",
          "name": "_votePowers",
          "type": "uint256[]"
        }
      ],
      "stateMutability": "nonpayable",
      "type": "function"
    },
    {
      "inputs": [
        {
          "internalType": "contract IIVPToken",
          "name": "_token",
          "type": "address"
        },
        {
          "internalType": "address[]",
          "name": "_addresses",
          "type": "address[]"
        },
        {
          "internalType": "uint256",
          "name": "_blockNumber",
          "type": "uint256"
        }
      ],
      "name": "getVotePowers",
      "outputs": [
        {
          "internalType": "uint256[]",
          "name": "",
          "type": "uint256[]"
        }
      ],
      "stateMutability": "nonpayable",
      "type": "function"
    },
    {
      "inputs": [],
      "name": "governance",
      "outputs": [
        {
          "internalType": "address",
          "name": "",
          "type": "address"
        }
      ],
      "stateMutability": "view",
      "type": "function"
    },
    {
      "inputs": [],
      "name": "governanceSettings",
      "outputs": [
        {
          "internalType": "contract IGovernanceSettings",
          "name": "",
          "type": "address"
        }
      ],
      "stateMutability": "view",
      "type": "function"
    },
    {
      "inputs": [
        {
          "internalType": "address",
          "name": "_initialGovernance",
          "type": "address"
        }
      ],
      "name": "initialise",
      "outputs": [],
      "stateMutability": "nonpayable",
      "type": "function"
    },
    {
      "inputs": [
        {
          "internalType": "uint256",
          "name": "",
          "type": "uint256"
        }
      ],
      "name": "maxVotersForFtso",
      "outputs": [
        {
          "internalType": "uint256",
          "name": "",
          "type": "uint256"
        }
      ],
      "stateMutability": "view",
      "type": "function"
    },
    {
      "inputs": [
        {
          "internalType": "address[]",
          "name": "_addresses",
          "type": "address[]"
        },
        {
          "internalType": "uint256",
          "name": "_ftsoIndex",
          "type": "uint256"
        }
      ],
      "name": "minVotePowerIndex",
      "outputs": [
        {
          "internalType": "uint256",
          "name": "",
          "type": "uint256"
        }
      ],
      "stateMutability": "nonpayable",
      "type": "function"
    },
    {
      "inputs": [],
      "name": "oldVoterWhitelister",
      "outputs": [
        {
          "internalType": "contract IVoterWhitelister",
          "name": "",
          "type": "address"
        }
      ],
      "stateMutability": "view",
      "type": "function"
    },
    {
      "inputs": [],
      "name": "priceSubmitter",
      "outputs": [
        {
          "internalType": "contract IIPriceSubmitter",
          "name": "",
          "type": "address"
        }
      ],
      "stateMutability": "view",
      "type": "function"
    },
    {
      "inputs": [],
      "name": "productionMode",
      "outputs": [
        {
          "internalType": "bool",
          "name": "",
          "type": "bool"
        }
      ],
      "stateMutability": "view",
      "type": "function"
    },
    {
      "inputs": [
        {
          "internalType": "uint256",
          "name": "_ftsoIndex",
          "type": "uint256"
        }
      ],
      "name": "removeFtso",
      "outputs": [],
      "stateMutability": "nonpayable",
      "type": "function"
    },
    {
      "inputs": [
        {
          "internalType": "address",
          "name": "_trustedAddress",
          "type": "address"
        },
        {
          "internalType": "uint256",
          "name": "_ftsoIndex",
          "type": "uint256"
        }
      ],
      "name": "removeTrustedAddressFromWhitelist",
      "outputs": [],
      "stateMutability": "nonpayable",
      "type": "function"
    },
    {
      "inputs": [
        {
          "internalType": "address",
          "name": "_voter",
          "type": "address"
        }
      ],
      "name": "requestFullVoterWhitelisting",
      "outputs": [
        {
          "internalType": "uint256[]",
          "name": "_supportedIndices",
          "type": "uint256[]"
        },
        {
          "internalType": "bool[]",
          "name": "_success",
          "type": "bool[]"
        }
      ],
      "stateMutability": "nonpayable",
      "type": "function"
    },
    {
      "inputs": [
        {
          "internalType": "address",
          "name": "_voter",
          "type": "address"
        },
        {
          "internalType": "uint256",
          "name": "_ftsoIndex",
          "type": "uint256"
        }
      ],
      "name": "requestWhitelistingVoter",
      "outputs": [],
      "stateMutability": "nonpayable",
      "type": "function"
    },
    {
      "inputs": [
        {
          "internalType": "uint256",
          "name": "_defaultMaxVotersForFtso",
          "type": "uint256"
        }
      ],
      "name": "setDefaultMaxVotersForFtso",
      "outputs": [],
      "stateMutability": "nonpayable",
      "type": "function"
    },
    {
      "inputs": [
        {
          "internalType": "uint256",
          "name": "_ftsoIndex",
          "type": "uint256"
        },
        {
          "internalType": "uint256",
          "name": "_newMaxVoters",
          "type": "uint256"
        }
      ],
      "name": "setMaxVotersForFtso",
      "outputs": [],
      "stateMutability": "nonpayable",
      "type": "function"
    },
    {
      "inputs": [],
      "name": "switchToProductionMode",
      "outputs": [],
      "stateMutability": "nonpayable",
      "type": "function"
    },
    {
      "inputs": [
        {
          "internalType": "bytes4",
          "name": "",
          "type": "bytes4"
        }
      ],
      "name": "timelockedCalls",
      "outputs": [
        {
          "internalType": "uint256",
          "name": "allowedAfterTimestamp",
          "type": "uint256"
        },
        {
          "internalType": "bytes",
          "name": "encodedCall",
          "type": "bytes"
        }
      ],
      "stateMutability": "view",
      "type": "function"
    },
    {
      "inputs": [],
      "name": "turnOffCopyMode",
      "outputs": [],
      "stateMutability": "nonpayable",
      "type": "function"
    },
    {
      "inputs": [
        {
          "internalType": "bytes32[]",
          "name": "_contractNameHashes",
          "type": "bytes32[]"
        },
        {
          "internalType": "address[]",
          "name": "_contractAddresses",
          "type": "address[]"
        }
      ],
      "name": "updateContractAddresses",
      "outputs": [],
      "stateMutability": "nonpayable",
      "type": "function"
    }
  ],
  "bytecode": "0x60c06040523480156200001157600080fd5b506040516200452438038062004524833981810160405260808110156200003757600080fd5b50805160208201516040830151606090930151919290918383838360008385806001600160a01b038116156200007257620000728162000122565b506001600160a01b038116620000c2576040805162461bcd60e51b815260206004820152601060248201526f5f676f7665726e616e6365207a65726f60801b604482015290519081900360640190fd5b50620000ce81620001e5565b50606092831b6001600160601b03199081166080526002929092559182901b1660a0526007805460ff60a01b19166001600160a01b039092161515600160a01b029190911790555062000209945050505050565b600054600160a01b900460ff161562000182576040805162461bcd60e51b815260206004820152601460248201527f696e697469616c6973656420213d2066616c7365000000000000000000000000604482015290519081900360640190fd5b60008054600160a01b60ff60a01b19909116176001600160a01b0319166001600160a01b03831690811790915560408051918252517f9789733827840833afc031fb2ef9ab6894271f77bad2085687cf4ae5c7bee4db916020908290030190a150565b7f714f205b2abd25bef1d06a1af944e38c113fe6160375c4e1d6d5cf28848e771955565b60805160601c60a05160601c6142d36200025160003980610d8f5280611faa52806120695280612454525080612a5c5280612cb25280613a5e5280613d5952506142d36000f3fe608060405234801561001057600080fd5b50600436106102115760003560e01c806367fc402911610125578063aa89dfd4116100ad578063d87361711161007c578063d873617114610c92578063e17f212e14610caf578063f262b9b414610cb7578063f5a9838314610d68578063f937d6ad14610d7057610211565b8063aa89dfd414610a04578063ab674b2214610aa8578063b00c0b7614610ab0578063b06cbaf714610bd357610211565b80638e15c883116100f45780638e15c8831461095c57806398dccfc2146109795780639d6a890f146109965780639dc950ab146109bc578063a5eb9c60146109e857610211565b806367fc4029146107b45780636a681d08146107db57806374e6310e146108935780637ecfcfa31461093957610211565b80633de2cb1c116101a85780635267a15d116101775780635267a15d146106d25780635aa6e675146106da5780635c048c12146106e25780635ff270791461078557806362354e03146107ac57610211565b80633de2cb1c146104b757806346538074146104e3578063468f48f81461051b57806347ed51b1146106ca57610211565b80632ee96140116101e45780632ee961401461046b578063345705a41461048a57806338b5f869146104a75780633a65d7b6146104af57610211565b806309fcb4001461021657806311a7aaaa146102835780631546224a146102a75780632b4faebb1461035a575b600080fd5b6102336004803603602081101561022c57600080fd5b5035610d78565b60408051602080825283518183015283519192839290830191858101910280838360005b8381101561026f578181015183820152602001610257565b505050509050019250505060405180910390f35b61028b610f87565b604080516001600160a01b039092168252519081900360200190f35b610233600480360360608110156102bd57600080fd5b6001600160a01b038235169190810190604081016020820135600160201b8111156102e757600080fd5b8201836020820111156102f957600080fd5b803590602001918460208302840111600160201b8311171561031a57600080fd5b9190808060200260200160405190810160405280939291908181526020018383602002808284376000920191909152509295505091359250610f96915050565b6104106004803603606081101561037057600080fd5b6001600160a01b0382351691602081013591810190606081016040820135600160201b81111561039f57600080fd5b8201836020820111156103b157600080fd5b803590602001918460208302840111600160201b831117156103d257600080fd5b919080806020026020016040519081016040528093929190818152602001838360200280828437600092019190915250929550610fad945050505050565b6040518080602001838152602001828103825284818151815260200191508051906020019060200280838360005b8381101561045657818101518382015260200161043e565b50505050905001935050505060405180910390f35b6104886004803603602081101561048157600080fd5b5035611208565b005b610488600480360360208110156104a057600080fd5b503561124f565b61028b611363565b610488611372565b610488600480360360408110156104cd57600080fd5b506001600160a01b0381351690602001356113da565b610509600480360360208110156104f957600080fd5b50356001600160a01b03166115b0565b60408051918252519081900360200190f35b610233600480360360a081101561053157600080fd5b810190602081018135600160201b81111561054b57600080fd5b82018360208201111561055d57600080fd5b803590602001918460208302840111600160201b8311171561057e57600080fd5b9190808060200260200160405190810160405280939291908181526020018383602002808284376000920191909152509295949360208101935035915050600160201b8111156105cd57600080fd5b8201836020820111156105df57600080fd5b803590602001918460208302840111600160201b8311171561060057600080fd5b91908080602002602001604051908101604052809392919081815260200183836020028082843760009201919091525092958435959094909350604081019250602001359050600160201b81111561065757600080fd5b82018360208201111561066957600080fd5b803590602001918460208302840111600160201b8311171561068a57600080fd5b91908080602002602001604051908101604052809392919081815260200183836020028082843760009201919091525092955050913592506115c2915050565b6105096115dd565b61028b6115e3565b61028b611608565b610509600480360360408110156106f857600080fd5b810190602081018135600160201b81111561071257600080fd5b82018360208201111561072457600080fd5b803590602001918460208302840111600160201b8311171561074557600080fd5b919080806020026020016040519081016040528093929190818152602001838360200280828437600092019190915250929550509135925061169d915050565b6104886004803603602081101561079b57600080fd5b50356001600160e01b0319166116b2565b61028b611a07565b610488600480360360208110156107ca57600080fd5b50356001600160e01b031916611a12565b610233600480360360808110156107f157600080fd5b6001600160a01b0382351691602081013591810190606081016040820135600160201b81111561082057600080fd5b82018360208201111561083257600080fd5b803590602001918460208302840111600160201b8311171561085357600080fd5b9190808060200260200160405190810160405280939291908181526020018383602002808284376000920191909152509295505091359250611afa915050565b6108ba600480360360208110156108a957600080fd5b50356001600160e01b031916611b13565b6040518083815260200180602001828103825283818151815260200191508051906020019080838360005b838110156108fd5781810151838201526020016108e5565b50505050905090810190601f16801561092a5780820380516001836020036101000a031916815260200191505b50935050505060405180910390f35b6104886004803603604081101561094f57600080fd5b5080359060200135611bb9565b6104886004803603602081101561097257600080fd5b5035611efd565b6105096004803603602081101561098f57600080fd5b5035612199565b610488600480360360208110156109ac57600080fd5b50356001600160a01b03166121ab565b610488600480360360408110156109d257600080fd5b506001600160a01b038135169060200135612264565b6109f061235a565b604080519115158252519081900360200190f35b61023360048036036020811015610a1a57600080fd5b810190602081018135600160201b811115610a3457600080fd5b820183602082011115610a4657600080fd5b803590602001918460018302840111600160201b83111715610a6757600080fd5b91908080601f01602080910402602001604051908101604052809392919081815260200183838082843760009201919091525092955061236a945050505050565b61028b612452565b61048860048036036040811015610ac657600080fd5b810190602081018135600160201b811115610ae057600080fd5b820183602082011115610af257600080fd5b803590602001918460208302840111600160201b83111715610b1357600080fd5b9190808060200260200160405190810160405280939291908181526020018383602002808284376000920191909152509295949360208101935035915050600160201b811115610b6257600080fd5b820183602082011115610b7457600080fd5b803590602001918460208302840111600160201b83111715610b9557600080fd5b919080806020026020016040519081016040528093929190818152602001838360200280828437600092019190915250929550612476945050505050565b610bf960048036036020811015610be957600080fd5b50356001600160a01b031661251d565b604051808060200180602001838103835285818151815260200191508051906020019060200280838360005b83811015610c3d578181015183820152602001610c25565b50505050905001838103825284818151815260200191508051906020019060200280838360005b83811015610c7c578181015183820152602001610c64565b5050505090500194505050505060405180910390f35b61048860048036036020811015610ca857600080fd5b5035612852565b6109f0612984565b61023360048036036040811015610ccd57600080fd5b6001600160a01b038235169190810190604081016020820135600160201b811115610cf757600080fd5b820183602082011115610d0957600080fd5b803590602001918460208302840111600160201b83111715610d2a57600080fd5b919080806020026020016040519081016040528093929190818152602001838360200280828437600092019190915250929550612994945050505050565b6104886129a0565b61028b612a5a565b600754606090600160a01b900460ff1615610ebf577f00000000000000000000000000000000000000000000000000000000000000006001600160a01b03166309fcb400836040518263ffffffff1660e01b81526004018082815260200191505060006040518083038186803b158015610df157600080fd5b505afa158015610e05573d6000803e3d6000fd5b505050506040513d6000823e601f3d908101601f191682016040526020811015610e2e57600080fd5b8101908080516040519392919084600160201b821115610e4d57600080fd5b908301906020820185811115610e6257600080fd5b82518660208202830111600160201b82111715610e7e57600080fd5b82525081516020918201928201910280838360005b83811015610eab578181015183820152602001610e93565b505050509050016040525050509050610f82565b60008281526003602052604090205480610f1b576040805162461bcd60e51b8152602060048201526018602482015277119514d3c81a5b99195e081b9bdd081cdd5c1c1bdc9d195960421b604482015290519081900360640190fd5b60008381526005602090815260409182902080548351818402810184019094528084529091830182828015610f7957602002820191906000526020600020905b81546001600160a01b03168152600190910190602001808311610f5b575b50505050509150505b919050565b6007546001600160a01b031681565b6060610fa3848484612a7e565b90505b9392505050565b600754606090600090600160a01b900460ff1615610ffe576040805162461bcd60e51b8152602060048201526009602482015268636f7079206d6f646560b81b604482015290519081900360640190fd5b600054600160b01b900460ff16806110205750600054600160a81b900460ff16155b156111f55761102d612c76565b61103685612cad565b1561107a576040805162461bcd60e51b815260206004820152600f60248201526e74727573746564206164647265737360881b604482015290519081900360640190fd5b6110fe84600760009054906101000a90046001600160a01b03166001600160a01b031663e7c830d46040518163ffffffff1660e01b815260040160206040518083038186803b1580156110cc57600080fd5b505afa1580156110e0573d6000803e3d6000fd5b505050506040513d60208110156110f657600080fd5b505190612e28565b6001600160a01b0386166000818152600460209081526040918290208490558151928352820183905280519293507f0c2fcef22ab22997ed46cd27f7f0aa308600145401a7a141065d61c5d87341d292918290030190a182518067ffffffffffffffff8111801561116e57600080fd5b50604051908082528060200260200182016040528015611198578160200160208202803683370190505b50925084156111ef5760005b818110156111ed576111c9878683815181106111bc57fe5b6020026020010151612e82565b8482815181106111d557fe5b911515602092830291909101909101526001016111a4565b505b50611200565b611200600036613007565b935093915050565b600054600160b01b900460ff168061122a5750600054600160a81b900460ff16155b1561124157611237612c76565b600281905561124c565b61124c600036613007565b50565b600754600160a01b900460ff161561129a576040805162461bcd60e51b8152602060048201526009602482015268636f7079206d6f646560b81b604482015290519081900360640190fd5b6007546001600160a01b031633146112ed576040805162461bcd60e51b815260206004820152601160248201527037b7363c90333a39b79036b0b730b3b2b960791b604482015290519081900360640190fd5b6000818152600360205260409020541561134e576040805162461bcd60e51b815260206004820152601760248201527f77686974656c69737420616c7265616479206578697374000000000000000000604482015290519081900360640190fd5b60025460009182526003602052604090912055565b6006546001600160a01b031681565b61137a61318a565b600754600160a01b900460ff166113cb576040805162461bcd60e51b815260206004820152601060248201526f6e6f7420696e20636f7079206d6f646560801b604482015290519081900360640190fd5b6007805460ff60a01b19169055565b600754600160a01b900460ff1615611425576040805162461bcd60e51b8152602060048201526009602482015268636f7079206d6f646560b81b604482015290519081900360640190fd5b6001600160a01b03821660009081526004602052604090205482908015806114c65750600760009054906101000a90046001600160a01b03166001600160a01b031663e7c830d46040518163ffffffff1660e01b815260040160206040518083038186803b15801561149657600080fd5b505afa1580156114aa573d6000803e3d6000fd5b505050506040513d60208110156114c057600080fd5b50518111155b611507576040805162461bcd60e51b815260206004820152600d60248201526c1d9bdd195c8818da1a5b1b1959609a1b604482015290519081900360640190fd5b61151084612cad565b15611554576040805162461bcd60e51b815260206004820152600f60248201526e74727573746564206164647265737360881b604482015290519081900360640190fd5b600061156085856131e9565b9050806115a9576040805162461bcd60e51b8152602060048201526012602482015271766f746520706f77657220746f6f206c6f7760701b604482015290519081900360640190fd5b5050505050565b60046020526000908152604090205481565b60606115d18686868686613473565b90505b95945050505050565b60025481565b7f714f205b2abd25bef1d06a1af944e38c113fe6160375c4e1d6d5cf28848e77195490565b60008054600160a81b900460ff1661162b576000546001600160a01b0316611698565b60076001609c1b016001600160a01b031663732524946040518163ffffffff1660e01b815260040160206040518083038186803b15801561166b57600080fd5b505afa15801561167f573d6000803e3d6000fd5b505050506040513d602081101561169557600080fd5b50515b905090565b60006116a983836135fd565b90505b92915050565b60408051630debfda360e41b8152336004820152905160076001609c1b019163debfda30916024808301926020929190829003018186803b1580156116f657600080fd5b505afa15801561170a573d6000803e3d6000fd5b505050506040513d602081101561172057600080fd5b5051611763576040805162461bcd60e51b815260206004820152600d60248201526c37b7363c9032bc32b1baba37b960991b604482015290519081900360640190fd5b6001600160e01b03198116600090815260016020526040902080546117cf576040805162461bcd60e51b815260206004820152601a60248201527f74696d656c6f636b3a20696e76616c69642073656c6563746f72000000000000604482015290519081900360640190fd5b8054421015611825576040805162461bcd60e51b815260206004820152601960248201527f74696d656c6f636b3a206e6f7420616c6c6f7765642079657400000000000000604482015290519081900360640190fd5b6000816001018054600181600116156101000203166002900480601f0160208091040260200160405190810160405280929190818152602001828054600181600116156101000203166002900480156118bf5780601f10611894576101008083540402835291602001916118bf565b820191906000526020600020905b8154815290600101906020018083116118a257829003601f168201915b5050506001600160e01b03198616600090815260016020819052604082208281559495509092506118f39150830182614124565b50506000805460ff60b01b1916600160b01b178155604051825130918491819060208401908083835b6020831061193b5780518252601f19909201916020918201910161191c565b6001836020036101000a0380198251168184511680821785525050505050509050019150506000604051808303816000865af19150503d806000811461199d576040519150601f19603f3d011682016040523d82523d6000602084013e6119a2565b606091505b50506000805460ff60b01b19169055604080516001600160e01b03198716815242602082015281519293507fa7326b57fc9cfe267aaea5e7f0b01757154d265620a0585819416ee9ddd2c438929081900390910190a1611a0181613695565b50505050565b60076001609c1b0181565b611a1a61318a565b6001600160e01b03198116600090815260016020526040902054611a85576040805162461bcd60e51b815260206004820152601a60248201527f74696d656c6f636b3a20696e76616c69642073656c6563746f72000000000000604482015290519081900360640190fd5b604080516001600160e01b03198316815242602082015281517f7735b2391c38a81419c513e30ca578db7158eadd7101511b23e221c654d19cf8929181900390910190a16001600160e01b03198116600090815260016020819052604082208281559190611af590830182614124565b505050565b6060611b08858585856136b2565b90505b949350505050565b600160208181526000928352604092839020805481840180548651600296821615610100026000190190911695909504601f81018590048502860185019096528585529094919392909190830182828015611baf5780601f10611b8457610100808354040283529160200191611baf565b820191906000526020600020905b815481529060010190602001808311611b9257829003601f168201915b5050505050905082565b600754600160a01b900460ff1615611c04576040805162461bcd60e51b8152602060048201526009602482015268636f7079206d6f646560b81b604482015290519081900360640190fd5b600054600160b01b900460ff1680611c265750600054600160a81b900460ff16155b15611eee57611c33612c76565b60008281526003602090815260408083208490556005909152902080548210611c5c5750611ee9565b6006546040805163d75f6d8160e01b81526004810186905290516000926001600160a01b03169163d75f6d81916024808301926020929190829003018186803b158015611ca857600080fd5b505afa158015611cbc573d6000803e3d6000fd5b505050506040513d6020811015611cd257600080fd5b5051825460408051602083810282018101909252828152929350600092611d3b928592879190830182828015611d3157602002820191906000526020600020905b81546001600160a01b03168152600190910190602001808311611d13575b5050505050613715565b805190915084810360008167ffffffffffffffff81118015611d5c57600080fd5b50604051908082528060200260200182016040528015611d86578160200160208202803683370190505b50905060005b82811015611ed7576000611da08686613988565b9050878181548110611dae57fe5b9060005260206000200160009054906101000a90046001600160a01b0316838381518110611dd857fe5b60200260200101906001600160a01b031690816001600160a01b03168152505060018503811015611e9a57876001860381548110611e1257fe5b9060005260206000200160009054906101000a90046001600160a01b0316888281548110611e3c57fe5b9060005260206000200160006101000a8154816001600160a01b0302191690836001600160a01b03160217905550856001860381518110611e7957fe5b6020026020010151868281518110611e8d57fe5b6020026020010181815250505b87805480611ea457fe5b600082815260209020810160001990810180546001600160a01b0319169055908101909155949094019350600101611d8c565b50611ee281896139ec565b5050505050505b611ef9565b611ef9600036613007565b5050565b611f0561318a565b600754600160a01b900460ff16611f56576040805162461bcd60e51b815260206004820152601060248201526f6e6f7420696e20636f7079206d6f646560801b604482015290519081900360640190fd5b60008181526003602052604090205415611fa8576040805162461bcd60e51b815260206004820152600e60248201526d185b1c9958591e4818dbdc1a595960921b604482015290519081900360640190fd5b7f00000000000000000000000000000000000000000000000000000000000000006001600160a01b03166398dccfc2826040518263ffffffff1660e01b81526004018082815260200191505060206040518083038186803b15801561200c57600080fd5b505afa158015612020573d6000803e3d6000fd5b505050506040513d602081101561203657600080fd5b505160008281526003602052604080822092909255815162027f2d60ea1b81526004810184905291516001600160a01b037f000000000000000000000000000000000000000000000000000000000000000016926309fcb400926024808301939192829003018186803b1580156120ac57600080fd5b505afa1580156120c0573d6000803e3d6000fd5b505050506040513d6000823e601f3d908101601f1916820160405260208110156120e957600080fd5b8101908080516040519392919084600160201b82111561210857600080fd5b90830190602082018581111561211d57600080fd5b82518660208202830111600160201b8211171561213957600080fd5b82525081516020918201928201910280838360005b8381101561216657818101518382015260200161214e565b50505050905001604052505050600560008381526020019081526020016000209080519060200190611ef9929190614168565b60036020526000908152604090205481565b600054600160a01b900460ff1615612201576040805162461bcd60e51b8152602060048201526014602482015273696e697469616c6973656420213d2066616c736560601b604482015290519081900360640190fd5b60008054600160a01b60ff60a01b19909116176001600160a01b0319166001600160a01b03831690811790915560408051918252517f9789733827840833afc031fb2ef9ab6894271f77bad2085687cf4ae5c7bee4db916020908290030190a150565b600754600160a01b900460ff16156122af576040805162461bcd60e51b8152602060048201526009602482015268636f7079206d6f646560b81b604482015290519081900360640190fd5b6122b882612cad565b6122ff576040805162461bcd60e51b81526020600482015260136024820152726e6f742074727573746564206164647265737360681b604482015290519081900360640190fd5b6123098282612e82565b611ef9576040805162461bcd60e51b815260206004820152601f60248201527f747275737465642061646472657373206e6f742077686974656c697374656400604482015290519081900360640190fd5b600754600160a01b900460ff1681565b600654604051630e848da360e41b81526020600482018181528451602484015284516060946000946001600160a01b039091169363e848da3093889390928392604490910191908501908083838b5b838110156123d15781810151838201526020016123b9565b50505050905090810190601f1680156123fe5780820380516001836020036101000a031916815260200191505b509250505060206040518083038186803b15801561241b57600080fd5b505afa15801561242f573d6000803e3d6000fd5b505050506040513d602081101561244557600080fd5b50519050610fa681610d78565b7f000000000000000000000000000000000000000000000000000000000000000081565b61247e6115e3565b6001600160a01b0316336001600160a01b0316146124da576040805162461bcd60e51b815260206004820152601460248201527337b7363c9030b2323932b9b9903ab83230ba32b960611b604482015290519081900360640190fd5b61251361250e83836040518060400160405280600e81526020016d20b2323932b9b9aab83230ba32b960911b815250613b24565b613c48565b611ef98282613c6c565b6007546060908190600160a01b900460ff161561256d576040805162461bcd60e51b8152602060048201526009602482015268636f7079206d6f646560b81b604482015290519081900360640190fd5b6001600160a01b038316600090815260046020526040902054839080158061260e5750600760009054906101000a90046001600160a01b03166001600160a01b031663e7c830d46040518163ffffffff1660e01b815260040160206040518083038186803b1580156125de57600080fd5b505afa1580156125f2573d6000803e3d6000fd5b505050506040513d602081101561260857600080fd5b50518111155b61264f576040805162461bcd60e51b815260206004820152600d60248201526c1d9bdd195c8818da1a5b1b1959609a1b604482015290519081900360640190fd5b61265885612cad565b1561269c576040805162461bcd60e51b815260206004820152600f60248201526e74727573746564206164647265737360881b604482015290519081900360640190fd5b600660009054906101000a90046001600160a01b03166001600160a01b031663798aac5b6040518163ffffffff1660e01b815260040160006040518083038186803b1580156126ea57600080fd5b505afa1580156126fe573d6000803e3d6000fd5b505050506040513d6000823e601f3d908101601f19168201604052602081101561272757600080fd5b8101908080516040519392919084600160201b82111561274657600080fd5b90830190602082018581111561275b57600080fd5b82518660208202830111600160201b8211171561277757600080fd5b82525081516020918201928201910280838360005b838110156127a457818101518382015260200161278c565b5050505090500160405250505093506000845190508067ffffffffffffffff811180156127d057600080fd5b506040519080825280602002602001820160405280156127fa578160200160208202803683370190505b50935060005b81811015612849576128258787838151811061281857fe5b60200260200101516131e9565b85828151811061283157fe5b91151560209283029190910190910152600101612800565b50505050915091565b600754600160a01b900460ff161561289d576040805162461bcd60e51b8152602060048201526009602482015268636f7079206d6f646560b81b604482015290519081900360640190fd5b6007546001600160a01b031633146128f0576040805162461bcd60e51b815260206004820152601160248201527037b7363c90333a39b79036b0b730b3b2b960791b604482015290519081900360640190fd5b600081815260056020908152604091829020805483518184028101840190945280845261295c939283018282801561295157602002820191906000526020600020905b81546001600160a01b03168152600190910190602001808311612933575b5050505050826139ec565b6000818152600560205260408120612973916141cd565b600090815260036020526040812055565b600054600160a81b900460ff1681565b60606116a98383613715565b6129a861318a565b600054600160a81b900460ff1615612a07576040805162461bcd60e51b815260206004820152601a60248201527f616c726561647920696e2070726f64756374696f6e206d6f6465000000000000604482015290519081900360640190fd5b60008054600161ff0160a01b031916600160a81b1790556040805160076001609c1b01815290517f83af113638b5422f9e977cebc0aaf0eaf2188eb9a8baae7f9d46c42b33a1560c9181900360200190a1565b7f000000000000000000000000000000000000000000000000000000000000000081565b6060836001600160a01b031663e587497e84600186510381518110612a9f57fe5b6020026020010151846040518363ffffffff1660e01b815260040180836001600160a01b0316815260200182815260200192505050602060405180830381600087803b158015612aee57600080fd5b505af1158015612b02573d6000803e3d6000fd5b505050506040513d6020811015612b1857600080fd5b5050604080516349e3c7e560e01b815260248101849052600481019182528451604482015284516001600160a01b038716926349e3c7e592879287929182916064909101906020868101910280838360005b83811015612b82578181015183820152602001612b6a565b50505050905001935050505060006040518083038186803b158015612ba657600080fd5b505afa158015612bba573d6000803e3d6000fd5b505050506040513d6000823e601f3d908101601f191682016040526020811015612be357600080fd5b8101908080516040519392919084600160201b821115612c0257600080fd5b908301906020820185811115612c1757600080fd5b82518660208202830111600160201b82111715612c3357600080fd5b82525081516020918201928201910280838360005b83811015612c60578181015183820152602001612c48565b5050505090500160405250505090509392505050565b600054600160b01b900460ff1615612ca357333014612c9157fe5b6000805460ff60b01b19169055612cab565b612cab61318a565b565b6000807f00000000000000000000000000000000000000000000000000000000000000006001600160a01b031663ffacb84e6040518163ffffffff1660e01b815260040160006040518083038186803b158015612d0957600080fd5b505afa158015612d1d573d6000803e3d6000fd5b505050506040513d6000823e601f3d908101601f191682016040526020811015612d4657600080fd5b8101908080516040519392919084600160201b821115612d6557600080fd5b908301906020820185811115612d7a57600080fd5b82518660208202830111600160201b82111715612d9657600080fd5b82525081516020918201928201910280838360005b83811015612dc3578181015183820152602001612dab565b50505050905001604052505050905060005b8151811015612e1e57836001600160a01b0316828281518110612df457fe5b60200260200101516001600160a01b03161415612e1657600192505050610f82565b600101612dd5565b5060009392505050565b6000828201838110156116a9576040805162461bcd60e51b815260206004820152601b60248201527f536166654d6174683a206164646974696f6e206f766572666c6f770000000000604482015290519081900360640190fd5b60008181526005602052604081208054825b81811015612eda57856001600160a01b0316838281548110612eb257fe5b6000918252602090912001546001600160a01b03161415612ed257612eda565b600101612e94565b81811415612eee57600093505050506116ac565b60408051600180825281830190925260009160208083019080368337019050509050838281548110612f1c57fe5b600091825260208220015482516001600160a01b03909116918391612f3d57fe5b60200260200101906001600160a01b031690816001600160a01b031681525050836001840381548110612f6c57fe5b9060005260206000200160009054906101000a90046001600160a01b0316848381548110612f9657fe5b9060005260206000200160006101000a8154816001600160a01b0302191690836001600160a01b0316021790555083805480612fce57fe5b600082815260209020810160001990810180546001600160a01b0319169055019055612ffa81876139ec565b5060019695505050505050565b61300f61318a565b600082359050600060076001609c1b016001600160a01b0316636221a54b6040518163ffffffff1660e01b815260040160206040518083038186803b15801561305757600080fd5b505afa15801561306b573d6000803e3d6000fd5b505050506040513d602081101561308157600080fd5b505160408051808201825242830180825282516020601f89018190048102820181019094528781529394509290918281019190889088908190840183828082843760009201829052509390945250506001600160e01b03198616815260016020818152604090922084518155848301518051919450613105939285019201906141eb565b509050507fed948300a3694aa01d4a6b258bfd664350193d770c0b51f8387277f6d83ea3b68382878760405180856001600160e01b0319168152602001848152602001806020018281038252848482818152602001925080828437600083820152604051601f909101601f191690920182900397509095505050505050a15050505050565b613192611608565b6001600160a01b0316336001600160a01b031614612cab576040805162461bcd60e51b815260206004820152600f60248201526e6f6e6c7920676f7665726e616e636560881b604482015290519081900360640190fd5b60008181526003602052604081205480613245576040805162461bcd60e51b8152602060048201526018602482015277119514d3c81a5b99195e081b9bdd081cdd5c1c1bdc9d195960421b604482015290519081900360640190fd5b6000838152600560205260408120805490916001820167ffffffffffffffff8111801561327157600080fd5b5060405190808252806020026020018201604052801561329b578160200160208202803683370190505b50905060005b828110156133165760008482815481106132b757fe5b6000918252602090912001546001600160a01b03908116915089168114156132e857600196505050505050506116ac565b808383815181106132f557fe5b6001600160a01b0390921660209283029190910190910152506001016132a1565b508681838151811061332457fe5b60200260200101906001600160a01b031690816001600160a01b0316815250508382101561338e5782546001810184556000848152602090200180546001600160a01b0319166001600160a01b0389161790556133818787613d13565b60019450505050506116ac565b600061339a82886135fd565b9050828114156133b2576000955050505050506116ac565b604080516001808252818301909252600091602080830190803683370190505090508282815181106133e057fe5b6020026020010151816000815181106133f557fe5b60200260200101906001600160a01b031690816001600160a01b0316815250508885838154811061342257fe5b9060005260206000200160006101000a8154816001600160a01b0302191690836001600160a01b0316021790555061345a81896139ec565b6134648989613d13565b50600198975050505050505050565b6060825167ffffffffffffffff8111801561348d57600080fd5b506040519080825280602002602001820160405280156134b7578160200160208202803683370190505b50905060005b83518110156134e75760008282815181106134d457fe5b60209081029190910101526001016134bd565b50836134f2576115d4565b600061350685670de0b6b3a7640000613dce565b905060005b87518110156135f257600088828151811061352257fe5b6020026020010151905060006001600160a01b0316816001600160a01b0316146135e9576000613553828888612a7e565b905060005b87518110156135e657600061359e8b868151811061357257fe5b60200260200101518785858151811061358757fe5b6020026020010151613e279092919063ffffffff16565b90506135c6818884815181106135b057fe5b6020026020010151612e2890919063ffffffff16565b8783815181106135d257fe5b602090810291909101015250600101613558565b50505b5060010161350b565b505095945050505050565b6006546040805163d75f6d8160e01b815260048101849052905160009283926001600160a01b039091169163d75f6d8191602480820192602092909190829003018186803b15801561364e57600080fd5b505afa158015613662573d6000803e3d6000fd5b505050506040513d602081101561367857600080fd5b5051905060006136888286613715565b90506115d4818251613988565b3d604051818101604052816000823e82156136ae578181f35b8181fd5b60606136bf858484612a7e565b9050836136cb57611b0b565b60005b835181101561370c576136ed64e8d4a510008684848151811061358757fe5b8282815181106136f957fe5b60209081029190910101526001016136ce565b50949350505050565b6060806060600080600080886001600160a01b0316638357d08c6040518163ffffffff1660e01b815260040160006040518083038186803b15801561375957600080fd5b505afa15801561376d573d6000803e3d6000fd5b505050506040513d6000823e601f3d908101601f1916820160405260c081101561379657600080fd5b8101908080516040519392919084600160201b8211156137b557600080fd5b9083019060208201858111156137ca57600080fd5b82518660208202830111600160201b821117156137e657600080fd5b82525081516020918201928201910280838360005b838110156138135781810151838201526020016137fb565b5050505090500160405260200180516040519392919084600160201b82111561383b57600080fd5b90830190602082018581111561385057600080fd5b82518660208202830111600160201b8211171561386c57600080fd5b82525081516020918201928201910280838360005b83811015613899578181015183820152602001613881565b5050505090500160405260200180519060200190929190805190602001909291908051906020019092919080519060200190929190505050809650819750829850839950849a50859b50505050505050600061395b8a6001600160a01b0316639edbf0076040518163ffffffff1660e01b815260040160206040518083038186803b15801561392757600080fd5b505afa15801561393b573d6000803e3d6000fd5b505050506040513d602081101561395157600080fd5b5051868b856136b2565b9050600061396c8888878d87613473565b9050613979828286613f33565b9b9a5050505050505050505050565b6000806000905060008460008151811061399e57fe5b6020026020010151905060005b848110156139e25760008682815181106139c157fe5b602002602001015190508281116139d9578193508092505b506001016139ab565b5090949350505050565b60005b8251811015613a5b577f33359f2769756ca8d0da4683f25ee440744d6f18bfb166dbfb59315a8c62b016838281518110613a2557fe5b60200260200101518360405180836001600160a01b031681526020018281526020019250505060405180910390a16001016139ef565b507f00000000000000000000000000000000000000000000000000000000000000006001600160a01b03166376794efb83836040518363ffffffff1660e01b81526004018080602001838152602001828103825284818151815260200191508051906020019060200280838360005b83811015613ae2578181015183820152602001613aca565b505050509050019350505050600060405180830381600087803b158015613b0857600080fd5b505af1158015613b1c573d6000803e3d6000fd5b505050505050565b600080826040516020018080602001828103825283818151815260200191508051906020019080838360005b83811015613b68578181015183820152602001613b50565b50505050905090810190601f168015613b955780820380516001836020036101000a031916815260200191505b50925050506040516020818303038152906040528051906020012090506000805b8651811015613bfd57868181518110613bcb57fe5b6020026020010151831415613bf557858181518110613be657fe5b60200260200101519150613bfd565b600101613bb6565b506001600160a01b0381166115d4576040805162461bcd60e51b815260206004820152600c60248201526b61646472657373207a65726f60a01b604482015290519081900360640190fd5b7f714f205b2abd25bef1d06a1af944e38c113fe6160375c4e1d6d5cf28848e771955565b613c9b82826040518060400160405280600c81526020016b4674736f526567697374727960a01b815250613b24565b600660006101000a8154816001600160a01b0302191690836001600160a01b03160217905550613cef82826040518060400160405280600b81526020016a233a39b7a6b0b730b3b2b960a91b815250613b24565b600780546001600160a01b0319166001600160a01b03929092169190911790555050565b604080516001600160a01b03841681526020810183905281517f66a8b13abe95391d1851f5bc319f3dde54ce8f2f40a5fe226aa3251d805832e3929181900390910190a17f00000000000000000000000000000000000000000000000000000000000000006001600160a01b0316639d986f9183836040518363ffffffff1660e01b815260040180836001600160a01b0316815260200182815260200192505050600060405180830381600087803b158015613b0857600080fd5b600082613ddd575060006116ac565b82820282848281613dea57fe5b04146116a95760405162461bcd60e51b815260040180806020018281038252602181526020018061427d6021913960400191505060405180910390fd5b6000808211613e70576040805162461bcd60e51b815260206004820152601060248201526f4469766973696f6e206279207a65726f60801b604482015290519081900360640190fd5b83613e7d57506000610fa6565b83830283858281613e8a57fe5b041415613ea357828181613e9a57fe5b04915050610fa6565b6000838681613eae57fe5b0490506000848781613ebc57fe5b0690506000858781613eca57fe5b0490506000868881613ed857fe5b069050613f26613ef288613eec8685613dce565b90614078565b613f20613eff8686613dce565b613f20613f0c8987613dce565b613f208d613f1a8c8b613dce565b90613dce565b90612e28565b9998505050505050505050565b60606000613f40846140df565b90506000613f4d866140df565b90506000808311613f5f576000613f61565b845b90506000808311613f73576000613f79565b81612710035b9050875167ffffffffffffffff81118015613f9357600080fd5b50604051908082528060200260200182016040528015613fbd578160200160208202803683370190505b50945060005b885181101561406c576000821561400a576140078a8381518110613fe357fe5b602002602001015164e8d4a5100002612710870285613e279092919063ffffffff16565b90505b60008415614048576140458a848151811061402157fe5b602002602001015164e8d4a5100002612710890287613e279092919063ffffffff16565b90505b80820188848151811061405757fe5b60209081029190910101525050600101613fc3565b50505050509392505050565b60008082116140ce576040805162461bcd60e51b815260206004820152601a60248201527f536166654d6174683a206469766973696f6e206279207a65726f000000000000604482015290519081900360640190fd5b8183816140d757fe5b049392505050565b600080805b835181101561411d576141138482815181106140fc57fe5b602002602001015183612e2890919063ffffffff16565b91506001016140e4565b5092915050565b50805460018160011615610100020316600290046000825580601f1061414a575061124c565b601f01602090049060005260206000209081019061124c9190614267565b8280548282559060005260206000209081019282156141bd579160200282015b828111156141bd57825182546001600160a01b0319166001600160a01b03909116178255602090920191600190910190614188565b506141c9929150614267565b5090565b508054600082559060005260206000209081019061124c9190614267565b828054600181600116156101000203166002900490600052602060002090601f01602090048101928261422157600085556141bd565b82601f1061423a57805160ff19168380011785556141bd565b828001600101855582156141bd579182015b828111156141bd57825182559160200191906001019061424c565b5b808211156141c9576000815560010161426856fe536166654d6174683a206d756c7469706c69636174696f6e206f766572666c6f77a2646970667358221220e5b2f3a1595bbfbbe64df0747205d8f2c575b46bdde631b7d974c96dd8ba8da364736f6c63430007060033",
  "linkReferences": {},
  "deployedLinkReferences": {}
}