{
  "_format": "hh-sol-artifact-1",
  "contractName": "VPTokenMock",
  "sourceName": "contracts/token/mock/VPTokenMock.sol",
  "abi": [
    {
      "inputs": [
        {
          "internalType": "address",
          "name": "_governance",
          "type": "address"
        },
        {
          "internalType": "string",
          "name": "_name",
          "type": "string"
        },
        {
          "internalType": "string",
          "name": "_symbol",
          "type": "string"
        }
      ],
      "stateMutability": "nonpayable",
      "type": "constructor"
    },
    {
      "anonymous": false,
      "inputs": [
        {
          "indexed": true,
          "internalType": "address",
          "name": "owner",
          "type": "address"
        },
        {
          "indexed": true,
          "internalType": "address",
          "name": "spender",
          "type": "address"
        },
        {
          "indexed": false,
          "internalType": "uint256",
          "name": "value",
          "type": "uint256"
        }
      ],
      "name": "Approval",
      "type": "event"
    },
    {
      "anonymous": false,
      "inputs": [
        {
          "indexed": false,
          "internalType": "uint256",
          "name": "_blockNumber",
          "type": "uint256"
        }
      ],
      "name": "CreatedTotalSupplyCache",
      "type": "event"
    },
    {
      "anonymous": false,
      "inputs": [
        {
          "indexed": false,
          "internalType": "bytes4",
          "name": "selector",
          "type": "bytes4"
        },
        {
          "indexed": false,
          "internalType": "uint256",
          "name": "allowedAfterTimestamp",
          "type": "uint256"
        },
        {
          "indexed": false,
          "internalType": "bytes",
          "name": "encodedCall",
          "type": "bytes"
        }
      ],
      "name": "GovernanceCallTimelocked",
      "type": "event"
    },
    {
      "anonymous": false,
      "inputs": [
        {
          "indexed": false,
          "internalType": "address",
          "name": "initialGovernance",
          "type": "address"
        }
      ],
      "name": "GovernanceInitialised",
      "type": "event"
    },
    {
      "anonymous": false,
      "inputs": [
        {
          "indexed": false,
          "internalType": "address",
          "name": "governanceSettings",
          "type": "address"
        }
      ],
      "name": "GovernedProductionModeEntered",
      "type": "event"
    },
    {
      "anonymous": false,
      "inputs": [
        {
          "indexed": false,
          "internalType": "bytes4",
          "name": "selector",
          "type": "bytes4"
        },
        {
          "indexed": false,
          "internalType": "uint256",
          "name": "timestamp",
          "type": "uint256"
        }
      ],
      "name": "TimelockedGovernanceCallCanceled",
      "type": "event"
    },
    {
      "anonymous": false,
      "inputs": [
        {
          "indexed": false,
          "internalType": "bytes4",
          "name": "selector",
          "type": "bytes4"
        },
        {
          "indexed": false,
          "internalType": "uint256",
          "name": "timestamp",
          "type": "uint256"
        }
      ],
      "name": "TimelockedGovernanceCallExecuted",
      "type": "event"
    },
    {
      "anonymous": false,
      "inputs": [
        {
          "indexed": true,
          "internalType": "address",
          "name": "from",
          "type": "address"
        },
        {
          "indexed": true,
          "internalType": "address",
          "name": "to",
          "type": "address"
        },
        {
          "indexed": false,
          "internalType": "uint256",
          "name": "value",
          "type": "uint256"
        }
      ],
      "name": "Transfer",
      "type": "event"
    },
    {
      "anonymous": false,
      "inputs": [
        {
          "indexed": false,
          "internalType": "uint256",
          "name": "_contractType",
          "type": "uint256"
        },
        {
          "indexed": false,
          "internalType": "address",
          "name": "_oldContractAddress",
          "type": "address"
        },
        {
          "indexed": false,
          "internalType": "address",
          "name": "_newContractAddress",
          "type": "address"
        }
      ],
      "name": "VotePowerContractChanged",
      "type": "event"
    },
    {
      "inputs": [
        {
          "internalType": "address",
          "name": "owner",
          "type": "address"
        },
        {
          "internalType": "address",
          "name": "spender",
          "type": "address"
        }
      ],
      "name": "allowance",
      "outputs": [
        {
          "internalType": "uint256",
          "name": "",
          "type": "uint256"
        }
      ],
      "stateMutability": "view",
      "type": "function"
    },
    {
      "inputs": [
        {
          "internalType": "address",
          "name": "spender",
          "type": "address"
        },
        {
          "internalType": "uint256",
          "name": "amount",
          "type": "uint256"
        }
      ],
      "name": "approve",
      "outputs": [
        {
          "internalType": "bool",
          "name": "",
          "type": "bool"
        }
      ],
      "stateMutability": "nonpayable",
      "type": "function"
    },
    {
      "inputs": [
        {
          "internalType": "address",
          "name": "_owner",
          "type": "address"
        },
        {
          "internalType": "uint256",
          "name": "_count",
          "type": "uint256"
        }
      ],
      "name": "balanceHistoryCleanup",
      "outputs": [
        {
          "internalType": "uint256",
          "name": "",
          "type": "uint256"
        }
      ],
      "stateMutability": "nonpayable",
      "type": "function"
    },
    {
      "inputs": [
        {
          "internalType": "address",
          "name": "account",
          "type": "address"
        }
      ],
      "name": "balanceOf",
      "outputs": [
        {
          "internalType": "uint256",
          "name": "",
          "type": "uint256"
        }
      ],
      "stateMutability": "view",
      "type": "function"
    },
    {
      "inputs": [
        {
          "internalType": "address",
          "name": "_owner",
          "type": "address"
        },
        {
          "internalType": "uint256",
          "name": "_blockNumber",
          "type": "uint256"
        }
      ],
      "name": "balanceOfAt",
      "outputs": [
        {
          "internalType": "uint256",
          "name": "",
          "type": "uint256"
        }
      ],
      "stateMutability": "view",
      "type": "function"
    },
    {
      "inputs": [
        {
          "internalType": "address[]",
          "name": "_delegatees",
          "type": "address[]"
        },
        {
          "internalType": "uint256[]",
          "name": "_bips",
          "type": "uint256[]"
        }
      ],
      "name": "batchDelegate",
      "outputs": [],
      "stateMutability": "nonpayable",
      "type": "function"
    },
    {
      "inputs": [
        {
          "internalType": "address[]",
          "name": "_owners",
          "type": "address[]"
        },
        {
          "internalType": "uint256",
          "name": "_blockNumber",
          "type": "uint256"
        }
      ],
      "name": "batchVotePowerOfAt",
      "outputs": [
        {
          "internalType": "uint256[]",
          "name": "",
          "type": "uint256[]"
        }
      ],
      "stateMutability": "view",
      "type": "function"
    },
    {
      "inputs": [
        {
          "internalType": "uint256",
          "name": "_amount",
          "type": "uint256"
        }
      ],
      "name": "burn",
      "outputs": [],
      "stateMutability": "nonpayable",
      "type": "function"
    },
    {
      "inputs": [
        {
          "internalType": "bytes4",
          "name": "_selector",
          "type": "bytes4"
        }
      ],
      "name": "cancelGovernanceCall",
      "outputs": [],
      "stateMutability": "nonpayable",
      "type": "function"
    },
    {
      "inputs": [],
      "name": "cleanerContract",
      "outputs": [
        {
          "internalType": "address",
          "name": "",
          "type": "address"
        }
      ],
      "stateMutability": "view",
      "type": "function"
    },
    {
      "inputs": [],
      "name": "cleanupBlockNumber",
      "outputs": [
        {
          "internalType": "uint256",
          "name": "",
          "type": "uint256"
        }
      ],
      "stateMutability": "view",
      "type": "function"
    },
    {
      "inputs": [],
      "name": "cleanupBlockNumberManager",
      "outputs": [
        {
          "internalType": "address",
          "name": "",
          "type": "address"
        }
      ],
      "stateMutability": "view",
      "type": "function"
    },
    {
      "inputs": [],
      "name": "decimals",
      "outputs": [
        {
          "internalType": "uint8",
          "name": "",
          "type": "uint8"
        }
      ],
      "stateMutability": "view",
      "type": "function"
    },
    {
      "inputs": [
        {
          "internalType": "address",
          "name": "spender",
          "type": "address"
        },
        {
          "internalType": "uint256",
          "name": "subtractedValue",
          "type": "uint256"
        }
      ],
      "name": "decreaseAllowance",
      "outputs": [
        {
          "internalType": "bool",
          "name": "",
          "type": "bool"
        }
      ],
      "stateMutability": "nonpayable",
      "type": "function"
    },
    {
      "inputs": [
        {
          "internalType": "address",
          "name": "_to",
          "type": "address"
        },
        {
          "internalType": "uint256",
          "name": "_bips",
          "type": "uint256"
        }
      ],
      "name": "delegate",
      "outputs": [],
      "stateMutability": "nonpayable",
      "type": "function"
    },
    {
      "inputs": [
        {
          "internalType": "address",
          "name": "_to",
          "type": "address"
        },
        {
          "internalType": "uint256",
          "name": "_amount",
          "type": "uint256"
        }
      ],
      "name": "delegateExplicit",
      "outputs": [],
      "stateMutability": "nonpayable",
      "type": "function"
    },
    {
      "inputs": [
        {
          "internalType": "address",
          "name": "_owner",
          "type": "address"
        }
      ],
      "name": "delegatesOf",
      "outputs": [
        {
          "internalType": "address[]",
          "name": "_delegateAddresses",
          "type": "address[]"
        },
        {
          "internalType": "uint256[]",
          "name": "_bips",
          "type": "uint256[]"
        },
        {
          "internalType": "uint256",
          "name": "_count",
          "type": "uint256"
        },
        {
          "internalType": "uint256",
          "name": "_delegationMode",
          "type": "uint256"
        }
      ],
      "stateMutability": "view",
      "type": "function"
    },
    {
      "inputs": [
        {
          "internalType": "address",
          "name": "_owner",
          "type": "address"
        },
        {
          "internalType": "uint256",
          "name": "_blockNumber",
          "type": "uint256"
        }
      ],
      "name": "delegatesOfAt",
      "outputs": [
        {
          "internalType": "address[]",
          "name": "_delegateAddresses",
          "type": "address[]"
        },
        {
          "internalType": "uint256[]",
          "name": "_bips",
          "type": "uint256[]"
        },
        {
          "internalType": "uint256",
          "name": "_count",
          "type": "uint256"
        },
        {
          "internalType": "uint256",
          "name": "_delegationMode",
          "type": "uint256"
        }
      ],
      "stateMutability": "view",
      "type": "function"
    },
    {
      "inputs": [
        {
          "internalType": "address",
          "name": "_who",
          "type": "address"
        }
      ],
      "name": "delegationModeOf",
      "outputs": [
        {
          "internalType": "uint256",
          "name": "",
          "type": "uint256"
        }
      ],
      "stateMutability": "view",
      "type": "function"
    },
    {
      "inputs": [
        {
          "internalType": "bytes4",
          "name": "_selector",
          "type": "bytes4"
        }
      ],
      "name": "executeGovernanceCall",
      "outputs": [],
      "stateMutability": "nonpayable",
      "type": "function"
    },
    {
      "inputs": [],
      "name": "getReadVpContract",
      "outputs": [
        {
          "internalType": "contract IIVPContract",
          "name": "",
          "type": "address"
        }
      ],
      "stateMutability": "view",
      "type": "function"
    },
    {
      "inputs": [],
      "name": "getWriteVpContract",
      "outputs": [
        {
          "internalType": "contract IIVPContract",
          "name": "",
          "type": "address"
        }
      ],
      "stateMutability": "view",
      "type": "function"
    },
    {
      "inputs": [],
      "name": "governance",
      "outputs": [
        {
          "internalType": "address",
          "name": "",
          "type": "address"
        }
      ],
      "stateMutability": "view",
      "type": "function"
    },
    {
      "inputs": [],
      "name": "governanceSettings",
      "outputs": [
        {
          "internalType": "contract IGovernanceSettings",
          "name": "",
          "type": "address"
        }
      ],
      "stateMutability": "view",
      "type": "function"
    },
    {
      "inputs": [],
      "name": "governanceVotePower",
      "outputs": [
        {
          "internalType": "contract IGovernanceVotePower",
          "name": "",
          "type": "address"
        }
      ],
      "stateMutability": "view",
      "type": "function"
    },
    {
      "inputs": [
        {
          "internalType": "address",
          "name": "spender",
          "type": "address"
        },
        {
          "internalType": "uint256",
          "name": "addedValue",
          "type": "uint256"
        }
      ],
      "name": "increaseAllowance",
      "outputs": [
        {
          "internalType": "bool",
          "name": "",
          "type": "bool"
        }
      ],
      "stateMutability": "nonpayable",
      "type": "function"
    },
    {
      "inputs": [
        {
          "internalType": "address",
          "name": "_initialGovernance",
          "type": "address"
        }
      ],
      "name": "initialise",
      "outputs": [],
      "stateMutability": "nonpayable",
      "type": "function"
    },
    {
      "inputs": [
        {
          "internalType": "address",
          "name": "_to",
          "type": "address"
        },
        {
          "internalType": "uint256",
          "name": "_amount",
          "type": "uint256"
        }
      ],
      "name": "mint",
      "outputs": [],
      "stateMutability": "nonpayable",
      "type": "function"
    },
    {
      "inputs": [],
      "name": "name",
      "outputs": [
        {
          "internalType": "string",
          "name": "",
          "type": "string"
        }
      ],
      "stateMutability": "view",
      "type": "function"
    },
    {
      "inputs": [],
      "name": "productionMode",
      "outputs": [
        {
          "internalType": "bool",
          "name": "",
          "type": "bool"
        }
      ],
      "stateMutability": "view",
      "type": "function"
    },
    {
      "inputs": [],
      "name": "readVotePowerContract",
      "outputs": [
        {
          "internalType": "contract IVPContractEvents",
          "name": "",
          "type": "address"
        }
      ],
      "stateMutability": "view",
      "type": "function"
    },
    {
      "inputs": [
        {
          "internalType": "address",
          "name": "_who",
          "type": "address"
        },
        {
          "internalType": "uint256",
          "name": "_blockNumber",
          "type": "uint256"
        }
      ],
      "name": "revokeDelegationAt",
      "outputs": [],
      "stateMutability": "nonpayable",
      "type": "function"
    },
    {
      "inputs": [
        {
          "internalType": "address",
          "name": "_to",
          "type": "address"
        }
      ],
      "name": "revokeDelegationAtNow",
      "outputs": [],
      "stateMutability": "nonpayable",
      "type": "function"
    },
    {
      "inputs": [
        {
          "internalType": "address",
          "name": "_cleanerContract",
          "type": "address"
        }
      ],
      "name": "setCleanerContract",
      "outputs": [],
      "stateMutability": "nonpayable",
      "type": "function"
    },
    {
      "inputs": [
        {
          "internalType": "uint256",
          "name": "_blockNumber",
          "type": "uint256"
        }
      ],
      "name": "setCleanupBlockNumber",
      "outputs": [],
      "stateMutability": "nonpayable",
      "type": "function"
    },
    {
      "inputs": [
        {
          "internalType": "address",
          "name": "_cleanupBlockNumberManager",
          "type": "address"
        }
      ],
      "name": "setCleanupBlockNumberManager",
      "outputs": [],
      "stateMutability": "nonpayable",
      "type": "function"
    },
    {
      "inputs": [
        {
          "internalType": "uint8",
          "name": "_decimals",
          "type": "uint8"
        }
      ],
      "name": "setDecimals",
      "outputs": [],
      "stateMutability": "nonpayable",
      "type": "function"
    },
    {
      "inputs": [
        {
          "internalType": "contract IIGovernanceVotePower",
          "name": "_governanceVotePower",
          "type": "address"
        }
      ],
      "name": "setGovernanceVotePower",
      "outputs": [],
      "stateMutability": "nonpayable",
      "type": "function"
    },
    {
      "inputs": [
        {
          "internalType": "contract IIVPContract",
          "name": "_vpContract",
          "type": "address"
        }
      ],
      "name": "setReadVpContract",
      "outputs": [],
      "stateMutability": "nonpayable",
      "type": "function"
    },
    {
      "inputs": [
        {
          "internalType": "contract IIVPContract",
          "name": "_vpContract",
          "type": "address"
        }
      ],
      "name": "setWriteVpContract",
      "outputs": [],
      "stateMutability": "nonpayable",
      "type": "function"
    },
    {
      "inputs": [],
      "name": "switchToProductionMode",
      "outputs": [],
      "stateMutability": "nonpayable",
      "type": "function"
    },
    {
      "inputs": [],
      "name": "symbol",
      "outputs": [
        {
          "internalType": "string",
          "name": "",
          "type": "string"
        }
      ],
      "stateMutability": "view",
      "type": "function"
    },
    {
      "inputs": [
        {
          "internalType": "bytes4",
          "name": "",
          "type": "bytes4"
        }
      ],
      "name": "timelockedCalls",
      "outputs": [
        {
          "internalType": "uint256",
          "name": "allowedAfterTimestamp",
          "type": "uint256"
        },
        {
          "internalType": "bytes",
          "name": "encodedCall",
          "type": "bytes"
        }
      ],
      "stateMutability": "view",
      "type": "function"
    },
    {
      "inputs": [],
      "name": "totalSupply",
      "outputs": [
        {
          "internalType": "uint256",
          "name": "",
          "type": "uint256"
        }
      ],
      "stateMutability": "view",
      "type": "function"
    },
    {
      "inputs": [
        {
          "internalType": "uint256",
          "name": "_blockNumber",
          "type": "uint256"
        }
      ],
      "name": "totalSupplyAt",
      "outputs": [
        {
          "internalType": "uint256",
          "name": "",
          "type": "uint256"
        }
      ],
      "stateMutability": "view",
      "type": "function"
    },
    {
      "inputs": [
        {
          "internalType": "uint256",
          "name": "_blockNumber",
          "type": "uint256"
        }
      ],
      "name": "totalSupplyCacheCleanup",
      "outputs": [
        {
          "internalType": "uint256",
          "name": "",
          "type": "uint256"
        }
      ],
      "stateMutability": "nonpayable",
      "type": "function"
    },
    {
      "inputs": [
        {
          "internalType": "uint256",
          "name": "_count",
          "type": "uint256"
        }
      ],
      "name": "totalSupplyHistoryCleanup",
      "outputs": [
        {
          "internalType": "uint256",
          "name": "",
          "type": "uint256"
        }
      ],
      "stateMutability": "nonpayable",
      "type": "function"
    },
    {
      "inputs": [],
      "name": "totalVotePower",
      "outputs": [
        {
          "internalType": "uint256",
          "name": "",
          "type": "uint256"
        }
      ],
      "stateMutability": "view",
      "type": "function"
    },
    {
      "inputs": [
        {
          "internalType": "uint256",
          "name": "_blockNumber",
          "type": "uint256"
        }
      ],
      "name": "totalVotePowerAt",
      "outputs": [
        {
          "internalType": "uint256",
          "name": "",
          "type": "uint256"
        }
      ],
      "stateMutability": "view",
      "type": "function"
    },
    {
      "inputs": [
        {
          "internalType": "uint256",
          "name": "_blockNumber",
          "type": "uint256"
        }
      ],
      "name": "totalVotePowerAtCached",
      "outputs": [
        {
          "internalType": "uint256",
          "name": "",
          "type": "uint256"
        }
      ],
      "stateMutability": "nonpayable",
      "type": "function"
    },
    {
      "inputs": [
        {
          "internalType": "address",
          "name": "recipient",
          "type": "address"
        },
        {
          "internalType": "uint256",
          "name": "amount",
          "type": "uint256"
        }
      ],
      "name": "transfer",
      "outputs": [
        {
          "internalType": "bool",
          "name": "",
          "type": "bool"
        }
      ],
      "stateMutability": "nonpayable",
      "type": "function"
    },
    {
      "inputs": [
        {
          "internalType": "address",
          "name": "sender",
          "type": "address"
        },
        {
          "internalType": "address",
          "name": "recipient",
          "type": "address"
        },
        {
          "internalType": "uint256",
          "name": "amount",
          "type": "uint256"
        }
      ],
      "name": "transferFrom",
      "outputs": [
        {
          "internalType": "bool",
          "name": "",
          "type": "bool"
        }
      ],
      "stateMutability": "nonpayable",
      "type": "function"
    },
    {
      "inputs": [],
      "name": "undelegateAll",
      "outputs": [],
      "stateMutability": "nonpayable",
      "type": "function"
    },
    {
      "inputs": [
        {
          "internalType": "address[]",
          "name": "_delegateAddresses",
          "type": "address[]"
        }
      ],
      "name": "undelegateAllExplicit",
      "outputs": [
        {
          "internalType": "uint256",
          "name": "_remainingDelegation",
          "type": "uint256"
        }
      ],
      "stateMutability": "nonpayable",
      "type": "function"
    },
    {
      "inputs": [
        {
          "internalType": "address",
          "name": "_owner",
          "type": "address"
        }
      ],
      "name": "undelegatedVotePowerOf",
      "outputs": [
        {
          "internalType": "uint256",
          "name": "",
          "type": "uint256"
        }
      ],
      "stateMutability": "view",
      "type": "function"
    },
    {
      "inputs": [
        {
          "internalType": "address",
          "name": "_owner",
          "type": "address"
        },
        {
          "internalType": "uint256",
          "name": "_blockNumber",
          "type": "uint256"
        }
      ],
      "name": "undelegatedVotePowerOfAt",
      "outputs": [
        {
          "internalType": "uint256",
          "name": "",
          "type": "uint256"
        }
      ],
      "stateMutability": "view",
      "type": "function"
    },
    {
      "inputs": [],
      "name": "votePowerAtNowCached",
      "outputs": [
        {
          "internalType": "uint256",
          "name": "",
          "type": "uint256"
        }
      ],
      "stateMutability": "nonpayable",
      "type": "function"
    },
    {
      "inputs": [
        {
          "internalType": "address",
          "name": "_from",
          "type": "address"
        },
        {
          "internalType": "address",
          "name": "_to",
          "type": "address"
        }
      ],
      "name": "votePowerFromTo",
      "outputs": [
        {
          "internalType": "uint256",
          "name": "",
          "type": "uint256"
        }
      ],
      "stateMutability": "view",
      "type": "function"
    },
    {
      "inputs": [
        {
          "internalType": "address",
          "name": "_from",
          "type": "address"
        },
        {
          "internalType": "address",
          "name": "_to",
          "type": "address"
        },
        {
          "internalType": "uint256",
          "name": "_blockNumber",
          "type": "uint256"
        }
      ],
      "name": "votePowerFromToAt",
      "outputs": [
        {
          "internalType": "uint256",
          "name": "",
          "type": "uint256"
        }
      ],
      "stateMutability": "view",
      "type": "function"
    },
    {
      "inputs": [
        {
          "internalType": "address",
          "name": "_owner",
          "type": "address"
        }
      ],
      "name": "votePowerOf",
      "outputs": [
        {
          "internalType": "uint256",
          "name": "",
          "type": "uint256"
        }
      ],
      "stateMutability": "view",
      "type": "function"
    },
    {
      "inputs": [
        {
          "internalType": "address",
          "name": "_owner",
          "type": "address"
        },
        {
          "internalType": "uint256",
          "name": "_blockNumber",
          "type": "uint256"
        }
      ],
      "name": "votePowerOfAt",
      "outputs": [
        {
          "internalType": "uint256",
          "name": "",
          "type": "uint256"
        }
      ],
      "stateMutability": "view",
      "type": "function"
    },
    {
      "inputs": [
        {
          "internalType": "address",
          "name": "_owner",
          "type": "address"
        },
        {
          "internalType": "uint256",
          "name": "_blockNumber",
          "type": "uint256"
        }
      ],
      "name": "votePowerOfAtCached",
      "outputs": [
        {
          "internalType": "uint256",
          "name": "",
          "type": "uint256"
        }
      ],
      "stateMutability": "nonpayable",
      "type": "function"
    },
    {
      "inputs": [
        {
          "internalType": "address",
          "name": "_owner",
          "type": "address"
        },
        {
          "internalType": "uint256",
          "name": "_blockNumber",
          "type": "uint256"
        }
      ],
      "name": "votePowerOfAtIgnoringRevocation",
      "outputs": [
        {
          "internalType": "uint256",
          "name": "",
          "type": "uint256"
        }
      ],
      "stateMutability": "view",
      "type": "function"
    },
    {
      "inputs": [
        {
          "internalType": "address",
          "name": "_who",
          "type": "address"
        }
      ],
      "name": "votePowerOfAtNowCached",
      "outputs": [
        {
          "internalType": "uint256",
          "name": "",
          "type": "uint256"
        }
      ],
      "stateMutability": "nonpayable",
      "type": "function"
    },
    {
      "inputs": [],
      "name": "vpContractInitialized",
      "outputs": [
        {
          "internalType": "bool",
          "name": "",
          "type": "bool"
        }
      ],
      "stateMutability": "view",
      "type": "function"
    },
    {
      "inputs": [],
      "name": "writeVotePowerContract",
      "outputs": [
        {
          "internalType": "contract IVPContractEvents",
          "name": "",
          "type": "address"
        }
      ],
      "stateMutability": "view",
      "type": "function"
    }
  ],
  "bytecode": "0x60806040526011805460ff60a01b191690553480156200001e57600080fd5b50604051620051d1380380620051d1833981810160405260608110156200004457600080fd5b8151602083018051604051929492938301929190846401000000008211156200006c57600080fd5b9083019060208201858111156200008257600080fd5b82516401000000008111828201881017156200009d57600080fd5b82525081516020918201929091019080838360005b83811015620000cc578181015183820152602001620000b2565b50505050905090810190601f168015620000fa5780820380516001836020036101000a031916815260200191505b50604052602001805160405193929190846401000000008211156200011e57600080fd5b9083019060208201858111156200013457600080fd5b82516401000000008111828201881017156200014f57600080fd5b82525081516020918201929091019080838360005b838110156200017e57818101518382015260200162000164565b50505050905090810190601f168015620001ac5780820380516001836020036101000a031916815260200191505b50604052505050828282828083838160039080519060200190620001d292919062000333565b508051620001e890600490602084019062000333565b50506005805460ff19166012179055506001600160a01b038116156200021357620002138162000270565b506001600160a01b03811662000263576040805162461bcd60e51b815260206004820152601060248201526f5f676f7665726e616e6365207a65726f60801b604482015290519081900360640190fd5b50505050505050620003df565b600c54600160a01b900460ff1615620002d0576040805162461bcd60e51b815260206004820152601460248201527f696e697469616c6973656420213d2066616c7365000000000000000000000000604482015290519081900360640190fd5b600c8054600160a01b60ff60a01b19909116176001600160a01b0319166001600160a01b03831690811790915560408051918252517f9789733827840833afc031fb2ef9ab6894271f77bad2085687cf4ae5c7bee4db916020908290030190a150565b828054600181600116156101000203166002900490600052602060002090601f0160209004810192826200036b5760008555620003b6565b82601f106200038657805160ff1916838001178555620003b6565b82800160010185558215620003b6579182015b82811115620003b657825182559160200191906001019062000399565b50620003c4929150620003c8565b5090565b5b80821115620003c45760008155600101620003c9565b614de280620003ef6000396000f3fe608060405234801561001057600080fd5b50600436106103e65760003560e01c806383035a821161020a578063caeb942b11610125578063e587497e116100b8578063f5a9838311610087578063f5a9838314610f68578063f5f3d4f714610f70578063f62f8f3a14610f78578063f683776714610f95578063f6a494af14610fbb576103e6565b8063e587497e14610eae578063e64767aa14610eda578063ed475a7914610f10578063f0e292c914610f3c576103e6565b8063dd62ed3e116100f4578063dd62ed3e14610e68578063deea13e714610e96578063e17f212e14610e9e578063e1e5be0014610ea6576103e6565b8063caeb942b14610cd6578063d06dc3ad14610cf3578063d6aa0b7714610d1f578063dc4fcda714610d45576103e6565b80639ca2231a1161019d578063b302f3931161016c578063b302f39314610c6c578063bbd6fbf814610c74578063be0ca74714610ca0578063c787a8fc14610cce576103e6565b80639ca2231a14610bc85780639d6a890f14610bee578063a457c2d714610c14578063a9059cbb14610c40576103e6565b8063981b24d0116101d9578063981b24d014610b935780639b3baa0e14610bb05780639b7d45b214610bb85780639ca20e4e14610bc0576103e6565b806383035a8214610b2b5780638c2b8ae114610b5757806392bfe6d814610b5f57806395d89b4114610b8b576103e6565b806342966c681161030557806362354e031161029857806374e6310e1161026757806374e6310e1461094c578063755d10a4146109f25780637a1395aa14610a185780637de5b8ed14610a385780637f4fcaa914610b05576103e6565b806362354e03146108d157806367fc4029146108d95780636b4237941461090057806370a0823114610926576103e6565b80634ee2cd7e116102d45780634ee2cd7e146107d55780635aa6e675146108015780635d6d11eb146108095780635ff27079146108aa576103e6565b806342966c68146106a057806343ea370b146106bd57806349e3c7e5146106da5780634eac870f146107cd576103e6565b80631fec092a1161037d578063366052b51161034c578063366052b514610605578063395093511461062b5780633e5aa26a1461065757806340c10f1914610674576103e6565b80631fec092a1461058357806323b872dd1461058b578063313ce567146105c157806331d12a16146105df576103e6565b80630db440e8116103b95780630db440e81461051457806313de97f514610538578063142d10181461055557806318160ddd1461057b576103e6565b8063026e402b146103eb57806304bb4e431461041957806306fdde0314610457578063095ea7b3146104d4575b600080fd5b6104176004803603604081101561040157600080fd5b506001600160a01b038135169060200135610fe1565b005b6104456004803603604081101561042f57600080fd5b506001600160a01b03813516906020013561107c565b60408051918252519081900360200190f35b61045f61110f565b6040805160208082528351818301528351919283929083019185019080838360005b83811015610499578181015183820152602001610481565b50505050905090810190601f1680156104c65780820380516001836020036101000a031916815260200191505b509250505060405180910390f35b610500600480360360408110156104ea57600080fd5b506001600160a01b03813516906020013561111e565b604080519115158252519081900360200190f35b61051c61113b565b604080516001600160a01b039092168252519081900360200190f35b6104176004803603602081101561054e57600080fd5b5035611145565b6104456004803603602081101561056b57600080fd5b50356001600160a01b0316611334565b6104456113be565b61051c6113c4565b610500600480360360608110156105a157600080fd5b506001600160a01b038135811691602081013590911690604001356113d3565b6105c961145b565b6040805160ff9092168252519081900360200190f35b610417600480360360208110156105f557600080fd5b50356001600160a01b0316611465565b6104176004803603602081101561061b57600080fd5b50356001600160a01b0316611635565b6105006004803603604081101561064157600080fd5b506001600160a01b03813516906020013561163f565b6104456004803603602081101561066d57600080fd5b503561168d565b6104176004803603604081101561068a57600080fd5b506001600160a01b038135169060200135611698565b610417600480360360208110156106b657600080fd5b50356116a6565b610445600480360360208110156106d357600080fd5b50356116b0565b61077d600480360360408110156106f057600080fd5b810190602081018135600160201b81111561070a57600080fd5b82018360208201111561071c57600080fd5b803590602001918460208302840111600160201b8311171561073d57600080fd5b919080806020026020016040519081016040528093929190818152602001838360200280828437600092019190915250929550509135925061176b915050565b60408051602080825283518183015283519192839290830191858101910280838360005b838110156107b95781810151838201526020016107a1565b505050509050019250505060405180910390f35b61051c6118cd565b610445600480360360408110156107eb57600080fd5b506001600160a01b0381351690602001356118dc565b61051c6118e8565b6104456004803603602081101561081f57600080fd5b810190602081018135600160201b81111561083957600080fd5b82018360208201111561084b57600080fd5b803590602001918460208302840111600160201b8311171561086c57600080fd5b91908080602002602001604051908101604052809392919081815260200183836020028082843760009201919091525092955061197e945050505050565b610417600480360360208110156108c057600080fd5b50356001600160e01b031916611a30565b61051c611d87565b610417600480360360208110156108ef57600080fd5b50356001600160e01b031916611d92565b6104456004803603602081101561091657600080fd5b50356001600160a01b0316611e78565b6104456004803603602081101561093c57600080fd5b50356001600160a01b0316611e84565b6109736004803603602081101561096257600080fd5b50356001600160e01b031916611e9f565b6040518083815260200180602001828103825283818151815260200191508051906020019080838360005b838110156109b657818101518382015260200161099e565b50505050905090810190601f1680156109e35780820380516001836020036101000a031916815260200191505b50935050505060405180910390f35b61041760048036036020811015610a0857600080fd5b50356001600160a01b0316611f46565b61041760048036036020811015610a2e57600080fd5b503560ff166121d3565b610a5e60048036036020811015610a4e57600080fd5b50356001600160a01b03166121dc565b604051808060200180602001858152602001848152602001838103835287818151815260200191508051906020019060200280838360005b83811015610aae578181015183820152602001610a96565b50505050905001838103825286818151815260200191508051906020019060200280838360005b83811015610aed578181015183820152602001610ad5565b50505050905001965050505050505060405180910390f35b61041760048036036020811015610b1b57600080fd5b50356001600160a01b031661239f565b61044560048036036040811015610b4157600080fd5b506001600160a01b0381351690602001356123ee565b61051c61245d565b61044560048036036040811015610b7557600080fd5b506001600160a01b03813516906020013561246c565b61045f6124ca565b61044560048036036020811015610ba957600080fd5b50356124d4565b61051c6124df565b61051c6124ee565b61051c6124f8565b61041760048036036020811015610bde57600080fd5b50356001600160a01b0316612507565b61041760048036036020811015610c0457600080fd5b50356001600160a01b0316612657565b61050060048036036040811015610c2a57600080fd5b506001600160a01b038135169060200135612710565b61050060048036036040811015610c5657600080fd5b506001600160a01b038135169060200135612778565b61041761278c565b61041760048036036040811015610c8a57600080fd5b506001600160a01b038135169060200135612806565b61044560048036036040811015610cb657600080fd5b506001600160a01b0381358116916020013516612973565b6105006129ea565b61044560048036036020811015610cec57600080fd5b50356129fa565b61041760048036036040811015610d0957600080fd5b506001600160a01b038135169060200135612a05565b61044560048036036020811015610d3557600080fd5b50356001600160a01b0316612a26565b61041760048036036040811015610d5b57600080fd5b810190602081018135600160201b811115610d7557600080fd5b820183602082011115610d8757600080fd5b803590602001918460208302840111600160201b83111715610da857600080fd5b9190808060200260200160405190810160405280939291908181526020018383602002808284376000920191909152509295949360208101935035915050600160201b811115610df757600080fd5b820183602082011115610e0957600080fd5b803590602001918460208302840111600160201b83111715610e2a57600080fd5b919080806020026020016040519081016040528093929190818152602001838360200280828437600092019190915250929550612a8c945050505050565b61044560048036036040811015610e7e57600080fd5b506001600160a01b0381358116916020013516612c28565b610445612c53565b610500612c5d565b610445612c6d565b61044560048036036040811015610ec457600080fd5b506001600160a01b038135169060200135612c78565b61044560048036036060811015610ef057600080fd5b506001600160a01b03813581169160208101359091169060400135612cec565b610a5e60048036036040811015610f2657600080fd5b506001600160a01b038135169060200135612da0565b61044560048036036040811015610f5257600080fd5b506001600160a01b038135169060200135612f6c565b610417612fd9565b610445613093565b61044560048036036020811015610f8e57600080fd5b503561309d565b61044560048036036020811015610fab57600080fd5b50356001600160a01b0316613108565b61041760048036036020811015610fd157600080fd5b50356001600160a01b031661315e565b610fe9613322565b6001600160a01b0316636230001a338461100233611e84565b856040518563ffffffff1660e01b815260040180856001600160a01b03168152602001846001600160a01b03168152602001838152602001828152602001945050505050600060405180830381600087803b15801561106057600080fd5b505af1158015611074573d6000803e3d6000fd5b505050505050565b6000611086613383565b6001600160a01b03166304bb4e4384846040518363ffffffff1660e01b815260040180836001600160a01b031681526020018281526020019250505060206040518083038186803b1580156110da57600080fd5b505afa1580156110ee573d6000803e3d6000fd5b505050506040513d602081101561110457600080fd5b505190505b92915050565b60606111196133e4565b905090565b600061113261112b61347a565b848461347e565b50600192915050565b60006111196113c4565b6011546001600160a01b031633146111a4576040805162461bcd60e51b815260206004820152601a60248201527f6f6e6c7920636c65616e757020626c6f636b206d616e61676572000000000000604482015290519081900360640190fd5b6111ad8161356a565b600e546001600160a01b03161561122457600e54604080516313de97f560e01b81526004810184905290516001600160a01b03909216916313de97f59160248082019260009290919082900301818387803b15801561120b57600080fd5b505af115801561121f573d6000803e3d6000fd5b505050505b600f546001600160a01b03161580159061124f5750600e54600f546001600160a01b03908116911614155b156112ba57600f54604080516313de97f560e01b81526004810184905290516001600160a01b03909216916313de97f59160248082019260009290919082900301818387803b1580156112a157600080fd5b505af11580156112b5573d6000803e3d6000fd5b505050505b6010546001600160a01b03161561133157601054604080516313de97f560e01b81526004810184905290516001600160a01b03909216916313de97f59160248082019260009290919082900301818387803b15801561131857600080fd5b505af115801561132c573d6000803e3d6000fd5b505050505b50565b600061133e613383565b6001600160a01b031663142d1018836040518263ffffffff1660e01b815260040180826001600160a01b0316815260200191505060206040518083038186803b15801561138a57600080fd5b505afa15801561139e573d6000803e3d6000fd5b505050506040513d60208110156113b457600080fd5b505190505b919050565b60025490565b600f546001600160a01b031690565b60006113e08484846135ee565b611450846113ec61347a565b61144b85604051806060016040528060288152602001614c67602891396001600160a01b038a1660009081526001602052604081209061142a61347a565b6001600160a01b031681526020810191909152604001600020549190613749565b61347e565b5060015b9392505050565b60006111196137e0565b600c54600160b01b900460ff16806114875750600c54600160a81b900460ff16155b1561162a576114946137e9565b6001600160a01b038116156115bd57306001600160a01b0316816001600160a01b031663653718836040518163ffffffff1660e01b815260040160206040518083038186803b1580156114e657600080fd5b505afa1580156114fa573d6000803e3d6000fd5b505050506040513d602081101561151057600080fd5b50516001600160a01b0316146115575760405162461bcd60e51b8152600401808060200182810382526022815260200180614d8b6022913960400191505060405180910390fd5b806001600160a01b03166313de97f561156e613820565b6040518263ffffffff1660e01b815260040180828152602001915050600060405180830381600087803b1580156115a457600080fd5b505af11580156115b8573d6000803e3d6000fd5b505050505b600e5460408051600081526001600160a01b03928316602082015291831682820152517fbec98a6c0f609cda6b9f23b95824ba6ac733cb57edd17d344f2f2796844007399181900360600190a1600e80546001600160a01b0319166001600160a01b038316179055611331565b611331600036613826565b6113318143612806565b600061113261164c61347a565b8461144b856001600061165d61347a565b6001600160a01b03908116825260208083019390935260409182016000908120918c1681529252902054906139ab565b6000611109826124d4565b6116a28282613a05565b5050565b6113313382613af5565b600b546000906001600160a01b0316331461170a576040805162461bcd60e51b815260206004820152601560248201527413db9b1e4818db19585b995c8818dbdb9d1c9858dd605a1b604482015290519081900360640190fd5b600a548210611760576040805162461bcd60e51b815260206004820152601e60248201527f4e6f20636c65616e757020616674657220636c65616e757020626c6f636b0000604482015290519081900360640190fd5b611109600983613bf1565b6060611775613383565b6001600160a01b03166349e3c7e584846040518363ffffffff1660e01b81526004018080602001838152602001828103825284818151815260200191508051906020019060200280838360005b838110156117da5781810151838201526020016117c2565b50505050905001935050505060006040518083038186803b1580156117fe57600080fd5b505afa158015611812573d6000803e3d6000fd5b505050506040513d6000823e601f3d908101601f19168201604052602081101561183b57600080fd5b8101908080516040519392919084600160201b82111561185a57600080fd5b90830190602082018581111561186f57600080fd5b82518660208202830111600160201b8211171561188b57600080fd5b82525081516020918201928201910280838360005b838110156118b85781810151838201526020016118a0565b50505050905001604052505050905092915050565b6011546001600160a01b031681565b60006114548383613c25565b600c54600090600160a81b900460ff1661190d57600c546001600160a01b0316611119565b60076001609c1b016001600160a01b031663732524946040518163ffffffff1660e01b815260040160206040518083038186803b15801561194d57600080fd5b505afa158015611961573d6000803e3d6000fd5b505050506040513d602081101561197757600080fd5b5051905090565b6000611988613322565b6001600160a01b0316630f8b8af733846040518363ffffffff1660e01b815260040180836001600160a01b0316815260200180602001828103825283818151815260200191508051906020019060200280838360005b838110156119f65781810151838201526020016119de565b505050509050019350505050602060405180830381600087803b158015611a1c57600080fd5b505af115801561139e573d6000803e3d6000fd5b60408051630debfda360e41b8152336004820152905160076001609c1b019163debfda30916024808301926020929190829003018186803b158015611a7457600080fd5b505afa158015611a88573d6000803e3d6000fd5b505050506040513d6020811015611a9e57600080fd5b5051611ae1576040805162461bcd60e51b815260206004820152600d60248201526c37b7363c9032bc32b1baba37b960991b604482015290519081900360640190fd5b6001600160e01b031981166000908152600d602052604090208054611b4d576040805162461bcd60e51b815260206004820152601a60248201527f74696d656c6f636b3a20696e76616c69642073656c6563746f72000000000000604482015290519081900360640190fd5b8054421015611ba3576040805162461bcd60e51b815260206004820152601960248201527f74696d656c6f636b3a206e6f7420616c6c6f7765642079657400000000000000604482015290519081900360640190fd5b6000816001018054600181600116156101000203166002900480601f016020809104026020016040519081016040528092919081815260200182805460018160011615610100020316600290048015611c3d5780601f10611c1257610100808354040283529160200191611c3d565b820191906000526020600020905b815481529060010190602001808311611c2057829003601f168201915b505050506001600160e01b031985166000908152600d602052604081208181559293509050611c6f6001830182614a37565b5050600c805460ff60b01b1916600160b01b17905560405181516000913091849190819060208401908083835b60208310611cbb5780518252601f199092019160209182019101611c9c565b6001836020036101000a0380198251168184511680821785525050505050509050019150506000604051808303816000865af19150503d8060008114611d1d576040519150601f19603f3d011682016040523d82523d6000602084013e611d22565b606091505b5050600c805460ff60b01b19169055604080516001600160e01b03198716815242602082015281519293507fa7326b57fc9cfe267aaea5e7f0b01757154d265620a0585819416ee9ddd2c438929081900390910190a1611d8181613c7d565b50505050565b60076001609c1b0181565b611d9a613c9a565b6001600160e01b031981166000908152600d6020526040902054611e05576040805162461bcd60e51b815260206004820152601a60248201527f74696d656c6f636b3a20696e76616c69642073656c6563746f72000000000000604482015290519081900360640190fd5b604080516001600160e01b03198316815242602082015281517f7735b2391c38a81419c513e30ca578db7158eadd7101511b23e221c654d19cf8929181900390910190a16001600160e01b031981166000908152600d6020526040812081815590611e736001830182614a37565b505050565b60006111098243612c78565b6001600160a01b031660009081526020819052604090205490565b600d602090815260009182526040918290208054600180830180548651600293821615610100026000190190911692909204601f810186900486028301860190965285825291949293909290830182828015611f3c5780601f10611f1157610100808354040283529160200191611f3c565b820191906000526020600020905b815481529060010190602001808311611f1f57829003601f168201915b5050505050905082565b600c54600160b01b900460ff1680611f685750600c54600160a81b900460ff16155b1561162a57611f756137e9565b6001600160a01b0381161561216657306001600160a01b0316816001600160a01b031663653718836040518163ffffffff1660e01b815260040160206040518083038186803b158015611fc757600080fd5b505afa158015611fdb573d6000803e3d6000fd5b505050506040513d6020811015611ff157600080fd5b50516001600160a01b0316146120385760405162461bcd60e51b8152600401808060200182810382526022815260200180614d8b6022913960400191505060405180910390fd5b601154600160a01b900460ff1615806120b25750806001600160a01b031663aa94d3f26040518163ffffffff1660e01b815260040160206040518083038186803b15801561208557600080fd5b505afa158015612099573d6000803e3d6000fd5b505050506040513d60208110156120af57600080fd5b50515b6120ed5760405162461bcd60e51b8152600401808060200182810382526029815260200180614c186029913960400191505060405180910390fd5b806001600160a01b03166313de97f5612104613820565b6040518263ffffffff1660e01b815260040180828152602001915050600060405180830381600087803b15801561213a57600080fd5b505af115801561214e573d6000803e3d6000fd5b50506011805460ff60a01b1916600160a01b17905550505b600f5460408051600181526001600160a01b03928316602082015291831682820152517fbec98a6c0f609cda6b9f23b95824ba6ac733cb57edd17d344f2f2796844007399181900360600190a1600f80546001600160a01b0319166001600160a01b038316179055611331565b61133181613cf9565b6060806000806121ea613383565b6001600160a01b0316637de5b8ed866040518263ffffffff1660e01b815260040180826001600160a01b0316815260200191505060006040518083038186803b15801561223657600080fd5b505afa15801561224a573d6000803e3d6000fd5b505050506040513d6000823e601f3d908101601f19168201604052608081101561227357600080fd5b8101908080516040519392919084600160201b82111561229257600080fd5b9083019060208201858111156122a757600080fd5b82518660208202830111600160201b821117156122c357600080fd5b82525081516020918201928201910280838360005b838110156122f05781810151838201526020016122d8565b5050505090500160405260200180516040519392919084600160201b82111561231857600080fd5b90830190602082018581111561232d57600080fd5b82518660208202830111600160201b8211171561234957600080fd5b82525081516020918201928201910280838360005b8381101561237657818101518382015260200161235e565b505050509190910160409081526020830151920151959b949a5090985093965091945050505050565b600c54600160b01b900460ff16806123c15750600c54600160a81b900460ff16155b1561162a576123ce6137e9565b601180546001600160a01b0319166001600160a01b038316179055611331565b60006123f8613383565b6001600160a01b031663315039278461241186866118dc565b856040518463ffffffff1660e01b815260040180846001600160a01b03168152602001838152602001828152602001935050505060206040518083038186803b1580156110da57600080fd5b6010546001600160a01b031690565b6000612476613383565b6001600160a01b03166392bfe6d884846040518363ffffffff1660e01b815260040180836001600160a01b031681526020018281526020019250505060206040518083038186803b1580156110da57600080fd5b6060611119613d0f565b600061110982613d70565b600e546001600160a01b031690565b60006111196124df565b600b546001600160a01b031681565b600c54600160b01b900460ff16806125295750600c54600160a81b900460ff16155b1561162a576125366137e9565b306001600160a01b0316816001600160a01b031663653718836040518163ffffffff1660e01b815260040160206040518083038186803b15801561257957600080fd5b505afa15801561258d573d6000803e3d6000fd5b505050506040513d60208110156125a357600080fd5b50516001600160a01b0316146125ea5760405162461bcd60e51b815260040180806020018281038252603d815260200180614c8f603d913960400191505060405180910390fd5b60105460408051600281526001600160a01b03928316602082015291831682820152517fbec98a6c0f609cda6b9f23b95824ba6ac733cb57edd17d344f2f2796844007399181900360600190a1601080546001600160a01b0319166001600160a01b038316179055611331565b600c54600160a01b900460ff16156126ad576040805162461bcd60e51b8152602060048201526014602482015273696e697469616c6973656420213d2066616c736560601b604482015290519081900360640190fd5b600c8054600160a01b60ff60a01b19909116176001600160a01b0319166001600160a01b03831690811790915560408051918252517f9789733827840833afc031fb2ef9ab6894271f77bad2085687cf4ae5c7bee4db916020908290030190a150565b600061113261271d61347a565b8461144b85604051806060016040528060258152602001614d66602591396001600061274761347a565b6001600160a01b03908116825260208083019390935260409182016000908120918d16815292529020549190613749565b600061113261278561347a565b84846135ee565b612794613322565b6001600160a01b03166305109ecf336127ac33611e84565b6040518363ffffffff1660e01b815260040180836001600160a01b0316815260200182815260200192505050600060405180830381600087803b1580156127f257600080fd5b505af1158015611d81573d6000803e3d6000fd5b600f54600e546001600160a01b03918216911681156128b157816001600160a01b031663c7c62fab338661283a33886118dc565b876040518563ffffffff1660e01b815260040180856001600160a01b03168152602001846001600160a01b03168152602001838152602001828152602001945050505050600060405180830381600087803b15801561289857600080fd5b505af11580156128ac573d6000803e3d6000fd5b505050505b816001600160a01b0316816001600160a01b0316141580156128db57506001600160a01b03811615155b15611d8157806001600160a01b031663c7c62fab33866128fb33886118dc565b876040518563ffffffff1660e01b815260040180856001600160a01b03168152602001846001600160a01b03168152602001838152602001828152602001945050505050600060405180830381600087803b15801561295957600080fd5b505af192505050801561296a575060015b611d8157611d81565b600061297d613383565b6001600160a01b0316639dc6b9f2848461299687611e84565b6040518463ffffffff1660e01b815260040180846001600160a01b03168152602001836001600160a01b03168152602001828152602001935050505060206040518083038186803b1580156110da57600080fd5b601154600160a01b900460ff1681565b600061110982613dbf565b612a0d613322565b6001600160a01b031663404d9e82338461100233611e84565b6000612a30613383565b6001600160a01b0316634a03d55683612a4885611e84565b6040518363ffffffff1660e01b815260040180836001600160a01b031681526020018281526020019250505060206040518083038186803b15801561138a57600080fd5b8051825114612ada576040805162461bcd60e51b8152602060048201526015602482015274082e4e4c2f240d8cadccee8d040dad2e6dac2e8c6d605b1b604482015290519081900360640190fd5b6000612ae4613322565b90506000612af133611e84565b9050816001600160a01b03166305109ecf33836040518363ffffffff1660e01b815260040180836001600160a01b0316815260200182815260200192505050600060405180830381600087803b158015612b4a57600080fd5b505af1158015612b5e573d6000803e3d6000fd5b5050505060005b845181101561132c57826001600160a01b0316636230001a33878481518110612b8a57fe5b602002602001015185888681518110612b9f57fe5b60200260200101516040518563ffffffff1660e01b815260040180856001600160a01b03168152602001846001600160a01b03168152602001838152602001828152602001945050505050600060405180830381600087803b158015612c0457600080fd5b505af1158015612c18573d6000803e3d6000fd5b505060019092019150612b659050565b6001600160a01b03918216600090815260016020908152604080832093909416825291909152205490565b6000611119613820565b600c54600160a81b900460ff1681565b6000611119436129fa565b6000612c82613383565b6001600160a01b031663e587497e84846040518363ffffffff1660e01b815260040180836001600160a01b0316815260200182815260200192505050602060405180830381600087803b158015612cd857600080fd5b505af11580156110ee573d6000803e3d6000fd5b6000612cf6613383565b6001600160a01b031663833aca928585612d1088876118dc565b866040518563ffffffff1660e01b815260040180856001600160a01b03168152602001846001600160a01b0316815260200183815260200182815260200194505050505060206040518083038186803b158015612d6c57600080fd5b505afa158015612d80573d6000803e3d6000fd5b505050506040513d6020811015612d9657600080fd5b5051949350505050565b606080600080612dae613383565b6001600160a01b031663ed475a7987876040518363ffffffff1660e01b815260040180836001600160a01b031681526020018281526020019250505060006040518083038186803b158015612e0257600080fd5b505afa158015612e16573d6000803e3d6000fd5b505050506040513d6000823e601f3d908101601f191682016040526080811015612e3f57600080fd5b8101908080516040519392919084600160201b821115612e5e57600080fd5b908301906020820185811115612e7357600080fd5b82518660208202830111600160201b82111715612e8f57600080fd5b82525081516020918201928201910280838360005b83811015612ebc578181015183820152602001612ea4565b5050505090500160405260200180516040519392919084600160201b821115612ee457600080fd5b908301906020820185811115612ef957600080fd5b82518660208202830111600160201b82111715612f1557600080fd5b82525081516020918201928201910280838360005b83811015612f42578181015183820152602001612f2a565b505050509190910160409081526020830151920151959c949b509099509397509195505050505050565b600b546000906001600160a01b03163314612fc6576040805162461bcd60e51b815260206004820152601560248201527413db9b1e4818db19585b995c8818dbdb9d1c9858dd605a1b604482015290519081900360640190fd5b600a546114549060069085908590613ead565b612fe1613c9a565b600c54600160a81b900460ff1615613040576040805162461bcd60e51b815260206004820152601a60248201527f616c726561647920696e2070726f64756374696f6e206d6f6465000000000000604482015290519081900360640190fd5b600c8054600161ff0160a01b031916600160a81b1790556040805160076001609c1b01815290517f83af113638b5422f9e977cebc0aaf0eaf2188eb9a8baae7f9d46c42b33a1560c9181900360200190a1565b60006111196113be565b600b546000906001600160a01b031633146130f7576040805162461bcd60e51b815260206004820152601560248201527413db9b1e4818db19585b995c8818dbdb9d1c9858dd605a1b604482015290519081900360640190fd5b600a54611109906007908490613ef3565b6000613112613383565b6001600160a01b031663f6837767836040518263ffffffff1660e01b815260040180826001600160a01b0316815260200191505060206040518083038186803b15801561138a57600080fd5b600c54600160b01b900460ff16806131805750600c54600160a81b900460ff16155b1561162a5761318d6137e9565b61319681613fe0565b600e546001600160a01b03161561320e57600e546040805163f6a494af60e01b81526001600160a01b0384811660048301529151919092169163f6a494af91602480830192600092919082900301818387803b1580156131f557600080fd5b505af1158015613209573d6000803e3d6000fd5b505050505b600f546001600160a01b0316158015906132395750600e54600f546001600160a01b03908116911614155b156132a557600f546040805163f6a494af60e01b81526001600160a01b0384811660048301529151919092169163f6a494af91602480830192600092919082900301818387803b15801561328c57600080fd5b505af11580156132a0573d6000803e3d6000fd5b505050505b6010546001600160a01b03161561331d576010546040805163f6a494af60e01b81526001600160a01b0384811660048301529151919092169163f6a494af91602480830192600092919082900301818387803b15801561330457600080fd5b505af1158015613318573d6000803e3d6000fd5b505050505b611331565b600f546000906001600160a01b031680611119576040805162461bcd60e51b815260206004820152601e60248201527f546f6b656e206d697373696e67207772697465205650436f6e74726163740000604482015290519081900360640190fd5b600e546000906001600160a01b031680611119576040805162461bcd60e51b815260206004820152601d60248201527f546f6b656e206d697373696e672072656164205650436f6e7472616374000000604482015290519081900360640190fd5b60038054604080516020601f60026000196101006001881615020190951694909404938401819004810282018101909252828152606093909290918301828280156134705780601f1061344557610100808354040283529160200191613470565b820191906000526020600020905b81548152906001019060200180831161345357829003601f168201915b5050505050905090565b3390565b6001600160a01b0383166134c35760405162461bcd60e51b8152600401808060200182810382526024815260200180614d126024913960400191505060405180910390fd5b6001600160a01b0382166135085760405162461bcd60e51b8152600401808060200182810382526022815260200180614b7b6022913960400191505060405180910390fd5b6001600160a01b03808416600081815260016020908152604080832094871680845294825291829020859055815185815291517f8c5be1e5ebec7d5bd14f71427d1e84f3dd0314c0f7b2291e5b200ac8c7c3b9259281900390910190a3505050565b600a548110156135ab5760405162461bcd60e51b8152600401808060200182810382526028815260200180614bc36028913960400191505060405180910390fd5b4381106135e95760405162461bcd60e51b8152600401808060200182810382526021815260200180614b5a6021913960400191505060405180910390fd5b600a55565b6001600160a01b0383166136335760405162461bcd60e51b8152600401808060200182810382526025815260200180614ced6025913960400191505060405180910390fd5b6001600160a01b0382166136785760405162461bcd60e51b8152600401808060200182810382526023815260200180614b156023913960400191505060405180910390fd5b613683838383614002565b6136c081604051806060016040528060268152602001614b9d602691396001600160a01b0386166000908152602081905260409020549190613749565b6001600160a01b0380851660009081526020819052604080822093909355908416815220546136ef90826139ab565b6001600160a01b038084166000818152602081815260409182902094909455805185815290519193928716927fddf252ad1be2c89b69c2b068fc378daa952ba7f163c4a11628f55a4df523b3ef92918290030190a3505050565b600081848411156137d85760405162461bcd60e51b81526004018080602001828103825283818151815260200191508051906020019080838360005b8381101561379d578181015183820152602001613785565b50505050905090810190601f1680156137ca5780820380516001836020036101000a031916815260200191505b509250505060405180910390fd5b505050900390565b60055460ff1690565b600c54600160b01b900460ff16156138165733301461380457fe5b600c805460ff60b01b1916905561381e565b61381e613c9a565b565b600a5490565b61382e613c9a565b600082359050600060076001609c1b016001600160a01b0316636221a54b6040518163ffffffff1660e01b815260040160206040518083038186803b15801561387657600080fd5b505afa15801561388a573d6000803e3d6000fd5b505050506040513d60208110156138a057600080fd5b505160408051808201825242830180825282516020601f89018190048102820181019094528781529394509290918281019190889088908190840183828082843760009201829052509390945250506001600160e01b031986168152600d6020908152604090912083518155838201518051919350613926926001850192910190614a7b565b509050507fed948300a3694aa01d4a6b258bfd664350193d770c0b51f8387277f6d83ea3b68382878760405180856001600160e01b0319168152602001848152602001806020018281038252848482818152602001925080828437600083820152604051601f909101601f191690920182900397509095505050505050a15050505050565b600082820183811015611454576040805162461bcd60e51b815260206004820152601b60248201527f536166654d6174683a206164646974696f6e206f766572666c6f770000000000604482015290519081900360640190fd5b6001600160a01b038216613a60576040805162461bcd60e51b815260206004820152601f60248201527f45524332303a206d696e7420746f20746865207a65726f206164647265737300604482015290519081900360640190fd5b613a6c60008383614002565b600254613a7990826139ab565b6002556001600160a01b038216600090815260208190526040902054613a9f90826139ab565b6001600160a01b0383166000818152602081815260408083209490945583518581529351929391927fddf252ad1be2c89b69c2b068fc378daa952ba7f163c4a11628f55a4df523b3ef9281900390910190a35050565b6001600160a01b038216613b3a5760405162461bcd60e51b8152600401808060200182810382526021815260200180614ccc6021913960400191505060405180910390fd5b613b4682600083614002565b613b8381604051806060016040528060228152602001614b38602291396001600160a01b0385166000908152602081905260409020549190613749565b6001600160a01b038316600090815260208190526040902055600254613ba99082614211565b6002556040805182815290516000916001600160a01b038516917fddf252ad1be2c89b69c2b068fc378daa952ba7f163c4a11628f55a4df523b3ef9181900360200190a35050565b60008181526020839052604081205415613c1c57506000818152602083905260408120556001611109565b50600092915050565b600081600a54811015613c695760405162461bcd60e51b815260040180806020018281038252602d815260200180614beb602d913960400191505060405180910390fd5b613c756006858561426e565b949350505050565b3d604051818101604052816000823e8215613c96578181f35b8181fd5b613ca26118e8565b6001600160a01b0316336001600160a01b03161461381e576040805162461bcd60e51b815260206004820152600f60248201526e6f6e6c7920676f7665726e616e636560881b604482015290519081900360640190fd5b6005805460ff191660ff92909216919091179055565b60048054604080516020601f60026000196101006001881615020190951694909404938401819004810282018101909252828152606093909290918301828280156134705780601f1061344557610100808354040283529160200191613470565b600081600a54811015613db45760405162461bcd60e51b815260040180806020018281038252602d815260200180614beb602d913960400191505060405180910390fd5b611454600784614299565b600081600a54811015613e035760405162461bcd60e51b815260040180806020018281038252602d815260200180614beb602d913960400191505060405180910390fd5b438310613e57576040805162461bcd60e51b815260206004820181905260248201527f43616e206f6e6c79206265207573656420666f72207061737420626c6f636b73604482015290519081900360640190fd5b600080613e6760096007876143dc565b915091508015613ea5576040805186815290517ffec477a10b4fcdfdf1114eb32b3caf6118b2d76d20e1fcb70007274bb4b616be9181900360200190a15b509392505050565b60006001600160a01b03841615613ee8576001600160a01b0384166000908152602086905260409020613ee1908484613ef3565b9050613c75565b506000949350505050565b600081613f0257506000611454565b6001840154600160401b90046001600160401b031680613f26576000915050611454565b60018501546001600160401b03166000613f4c613f4383886139ab565b6001850361443a565b9050815b8181108015613f81575060018101600090815260208990526040902054600160c01b90046001600160401b03168610155b15613f9d57600081815260208990526040812055600101613f50565b82811115613fd257613fae81614450565b60018901805467ffffffffffffffff19166001600160401b03929092169190911790555b919091039695505050505050565b600b80546001600160a01b0319166001600160a01b0392909216919091179055565b816001600160a01b0316836001600160a01b03161415614069576040805162461bcd60e51b815260206004820152601760248201527f43616e6e6f74207472616e7366657220746f2073656c66000000000000000000604482015290519081900360640190fd5b60006001600160a01b038416614080576000614089565b61408984611e84565b905060006001600160a01b0384166140a25760006140ab565b6140ab84611e84565b600f549091506001600160a01b03168015614145576040805163756da1b160e11b81526001600160a01b038881166004830152878116602483015260448201869052606482018590526084820187905291519183169163eadb43629160a48082019260009290919082900301818387803b15801561412857600080fd5b505af115801561413c573d6000803e3d6000fd5b5050505061416a565b601154600160a01b900460ff1661416a576011805460ff60a01b1916600160a01b1790555b6010546001600160a01b031680156141fd576040805163756da1b160e11b81526001600160a01b038981166004830152888116602483015260448201879052606482018690526084820188905291519183169163eadb43629160a48082019260009290919082900301818387803b1580156141e457600080fd5b505af11580156141f8573d6000803e3d6000fd5b505050505b614208878787614498565b50505050505050565b600082821115614268576040805162461bcd60e51b815260206004820152601e60248201527f536166654d6174683a207375627472616374696f6e206f766572666c6f770000604482015290519081900360640190fd5b50900390565b6001600160a01b03821660009081526020849052604081206142908184614299565b95945050505050565b6001820154600090600160401b90046001600160401b0316806142c0576000915050611109565b43831015806142f257506000198101600090815260208590526040902054600160c01b90046001600160401b03168310155b1561431a57600019016000908152602084905260409020546001600160c01b03169050611109565b60018401546001600160401b039081166000818152602087905260409020549091600160c01b909104168410156143935780156143885760405162461bcd60e51b8152600401808060200182810382526030815260200180614d366030913960400191505060405180910390fd5b600092505050611109565b60018501546000906143b99087908490600160401b90046001600160401b0316886144d8565b6000908152602087905260409020546001600160c01b0316935050505092915050565b600081815260208490526040812054819080156144025760001901915060009050614432565b600061440e8686614299565b905061441b8160016139ab565b600086815260208990526040902055925060019150505b935093915050565b60008183106144495781611454565b5090919050565b6000600160401b82106144945760405162461bcd60e51b8152600401808060200182810382526026815260200180614c416026913960400191505060405180910390fd5b5090565b6001600160a01b0383166144b5576144b08282614562565b611e73565b6001600160a01b0382166144cd576144b083826145bf565b611e7383838361466e565b600083816144e7856001614211565b90505b81811115614558576000614514600261450e600161450886886139ab565b906139ab565b906146a4565b600081815260208a90526040902054909150600160c01b90046001600160401b0316851061454457809250614552565b61454f816001614211565b91505b506144ea565b5095945050505050565b60006145728261450885436118dc565b90506145806006848361470b565b600a54614594906006908590600290613ead565b506145ad6145a583614508436124d4565b600790614729565b600a54611d8190600790600290613ef3565b60006146058260405180604001604052806016815260200175213ab937103a37b7903134b3903337b91037bbb732b960511b8152506145fe86436118dc565b9190613749565b90506146136006848361470b565b600a54614627906006908590600290613ead565b506145ad6145a5836040518060400160405280601d81526020017f4275726e20746f6f2062696720666f7220746f74616c20737570706c790000008152506145fe436124d4565b61467b60068484846148ea565b600a5461468f906006908590600290613ead565b50600a54611d81906006908490600290613ead565b60008082116146fa576040805162461bcd60e51b815260206004820152601a60248201527f536166654d6174683a206469766973696f6e206279207a65726f000000000000604482015290519081900360640190fd5b81838161470357fe5b049392505050565b6001600160a01b0382166000908152602084905260409020611d8181835b6001820154600160401b90046001600160401b0316806147e057604051806040016040528061475784614979565b6001600160c01b0316815260200161476e43614450565b6001600160401b03908116909152600080805260208681526040909120835181549490920151909216600160c01b026001600160c01b039182166001600160c01b0319909416939093171691909117905560018301805467ffffffffffffffff60401b1916600160401b179055611e73565b600019810160009081526020849052604090208054600160c01b90046001600160401b0316438114156148365761481684614979565b82546001600160c01b0319166001600160c01b039190911617825561132c565b80431161483f57fe5b604051806040016040528061485386614979565b6001600160c01b0316815260200161486a43614450565b6001600160401b039081169091526000858152602088815260409091208351815494909201518316600160c01b026001600160c01b039283166001600160c01b0319909516949094179091169290921790915560018087018054918601909216600160401b0267ffffffffffffffff60401b199091161790555050505050565b806148f457611d81565b6001600160a01b03831615801561491257506001600160a01b038216155b1561491957fe5b6001600160a01b0383161561494d57600061493e8261493887876149d3565b90614211565b905061494b85858361470b565b505b6001600160a01b03821615611d8157600061496c8261450887866149d3565b905061132c85848361470b565b6000600160c01b8210614494576040805162461bcd60e51b815260206004820152601d60248201527f76616c756520646f65736e27742066697420696e203139322062697473000000604482015290519081900360640190fd5b6001600160a01b0381166000908152602083905260408120613c75816001810154600090600160401b90046001600160401b031680614a165760009150506113b9565b6000190160009081526020929092525060409020546001600160c01b031690565b50805460018160011615610100020316600290046000825580601f10614a5d5750611331565b601f0160209004906000526020600020908101906113319190614aff565b828054600181600116156101000203166002900490600052602060002090601f016020900481019282614ab15760008555614af7565b82601f10614aca57805160ff1916838001178555614af7565b82800160010185558215614af7579182015b82811115614af7578251825591602001919060010190614adc565b506144949291505b5b808211156144945760008155600101614b0056fe45524332303a207472616e7366657220746f20746865207a65726f206164647265737345524332303a206275726e20616d6f756e7420657863656564732062616c616e6365436c65616e757020626c6f636b206d75737420626520696e20746865207061737445524332303a20617070726f766520746f20746865207a65726f206164647265737345524332303a207472616e7366657220616d6f756e7420657863656564732062616c616e6365436c65616e757020626c6f636b206e756d626572206d757374206e65766572206465637265617365436865636b506f696e7461626c653a2072656164696e672066726f6d20636c65616e65642d757020626c6f636b5650436f6e7472616374206e6f7420636f6e6669677572656420666f72207265706c6163656d656e7453616665436173743a2076616c756520646f65736e27742066697420696e203634206269747345524332303a207472616e7366657220616d6f756e74206578636565647320616c6c6f77616e6365476f7665726e616e636520766f746520706f77657220636f6e747261637420646f6573206e6f742062656c6f6e6720746f207468697320746f6b656e2e45524332303a206275726e2066726f6d20746865207a65726f206164647265737345524332303a207472616e736665722066726f6d20746865207a65726f206164647265737345524332303a20617070726f76652066726f6d20746865207a65726f2061646472657373436865636b506f696e74486973746f72793a2072656164696e672066726f6d20636c65616e65642d757020626c6f636b45524332303a2064656372656173656420616c6c6f77616e63652062656c6f77207a65726f5650436f6e7472616374206e6f74206f776e6564206279207468697320746f6b656ea26469706673582212203cf3bbf202955d7d26f503ecc3aa8aa390acd7cf4d2e91ec30a817574dffe15f64736f6c63430007060033",
  "linkReferences": {},
  "deployedLinkReferences": {}
}