{
  "_format": "hh-sol-artifact-1",
  "contractName": "RevertErrorTrackingMock",
  "sourceName": "contracts/utils/mock/RevertErrorTrackingMock.sol",
  "abi": [
    {
      "anonymous": false,
      "inputs": [
        {
          "indexed": false,
          "internalType": "address",
          "name": "theContract",
          "type": "address"
        },
        {
          "indexed": false,
          "internalType": "uint256",
          "name": "atBlock",
          "type": "uint256"
        },
        {
          "indexed": false,
          "internalType": "string",
          "name": "theMessage",
          "type": "string"
        }
      ],
      "name": "ContractRevertError",
      "type": "event"
    },
    {
      "inputs": [
        {
          "internalType": "address",
          "name": "revertedContract",
          "type": "address"
        },
        {
          "internalType": "string",
          "name": "message",
          "type": "string"
        }
      ],
      "name": "addRevertErrorMock",
      "outputs": [],
      "stateMutability": "nonpayable",
      "type": "function"
    },
    {
      "inputs": [],
      "name": "errorData",
      "outputs": [
        {
          "internalType": "uint192",
          "name": "totalRevertedErrors",
          "type": "uint192"
        },
        {
          "internalType": "uint64",
          "name": "lastErrorTypeIndex",
          "type": "uint64"
        }
      ],
      "stateMutability": "view",
      "type": "function"
    },
    {
      "inputs": [],
      "name": "showLastRevertedError",
      "outputs": [
        {
          "internalType": "uint256[]",
          "name": "_lastErrorBlock",
          "type": "uint256[]"
        },
        {
          "internalType": "uint256[]",
          "name": "_numErrors",
          "type": "uint256[]"
        },
        {
          "internalType": "string[]",
          "name": "_errorString",
          "type": "string[]"
        },
        {
          "internalType": "address[]",
          "name": "_erroringContract",
          "type": "address[]"
        },
        {
          "internalType": "uint256",
          "name": "_totalRevertedErrors",
          "type": "uint256"
        }
      ],
      "stateMutability": "view",
      "type": "function"
    },
    {
      "inputs": [
        {
          "internalType": "uint256",
          "name": "startIndex",
          "type": "uint256"
        },
        {
          "internalType": "uint256",
          "name": "numErrorTypesToShow",
          "type": "uint256"
        }
      ],
      "name": "showRevertedErrors",
      "outputs": [
        {
          "internalType": "uint256[]",
          "name": "_lastErrorBlock",
          "type": "uint256[]"
        },
        {
          "internalType": "uint256[]",
          "name": "_numErrors",
          "type": "uint256[]"
        },
        {
          "internalType": "string[]",
          "name": "_errorString",
          "type": "string[]"
        },
        {
          "internalType": "address[]",
          "name": "_erroringContract",
          "type": "address[]"
        },
        {
          "internalType": "uint256",
          "name": "_totalRevertedErrors",
          "type": "uint256"
        }
      ],
      "stateMutability": "view",
      "type": "function"
    }
  ],
  "bytecode": "0x608060405234801561001057600080fd5b506109ef806100206000396000f3fe608060405234801561001057600080fd5b506004361061004c5760003560e01c80632a475fe0146100515780632b3c41a4146100665780636ea0aa3114610088578063e371aef01461009b575b600080fd5b61006461005f3660046106f0565b6100b1565b005b61006e6100bf565b60405161007f9594939291906108de565b60405180910390f35b61006e6100963660046107a4565b6100fa565b6100a361045c565b60405161007f929190610997565b6100bb828261047d565b5050565b6002546060908190819081906000906100e990600160c01b90046001600160401b031660016100fa565b945094509450945094509091929394565b606080606080600060018054905087106040518060400160405280601081526020016f0e6e8c2e4e840d2dcc8caf040d0d2ced60831b8152509061015a5760405162461bcd60e51b8152600401610151919061097d565b60405180910390fd5b50600154600090888801111561017557600154889003610177565b865b9050806001600160401b038111801561018f57600080fd5b506040519080825280602002602001820160405280156101b9578160200160208202803683370190505b509550806001600160401b03811180156101d257600080fd5b506040519080825280602002602001820160405280156101fc578160200160208202803683370190505b509450806001600160401b038111801561021557600080fd5b5060405190808252806020026020018201604052801561024957816020015b60608152602001906001900390816102345790505b509350806001600160401b038111801561026257600080fd5b5060405190808252806020026020018201604052801561028c578160200160208202803683370190505b50925060005b818110156104405760006001828b01815481106102ab57fe5b60009182526020808320909101548083529082905260409091205489519192506001600160c01b0316908990849081106102e157fe5b60200260200101818152505060008082815260200190815260200160002060000160189054906101000a90046001600160401b03166001600160401b031687838151811061032b57fe5b60209081029190910181019190915260008281528082526040908190206002908101805483516001821615610100026000190190911692909204601f810185900485028301850190935282825290929091908301828280156103ce5780601f106103a3576101008083540402835291602001916103ce565b820191906000526020600020905b8154815290600101906020018083116103b157829003601f168201915b50505050508683815181106103df57fe5b602002602001018190525060008082815260200190815260200160002060010160009054906101000a90046001600160a01b031685838151811061041f57fe5b6001600160a01b039092166020928302919091019091015250600101610292565b50506002549497939650919450926001600160c01b0316919050565b6002546001600160c01b03811690600160c01b90046001600160401b031682565b60008282604051602001610492929190610882565b60408051601f1981840301815282825280516020918201206000818152918290529190208054436001600160c01b038181166001600160401b03600160c01b80860482166001019091160291909316176001600160c01b031916919091179091559092507f1a601cf5e0efbd558b2778b7389af04741d1c49bcab104c40daa2da1945936179161052591869186906108ae565b60405180910390a1600280546001600160c01b0319811660016001600160c01b03928316810190921617909155600082815260208190526040902054600160c01b90046001600160401b0316111561057d57506100bb565b6001805480820182557fb10e2d527612073b26eecdfd717e6a320cf44b4afac2b0732d9fcbe2b7fa0cf60182905560008281526020818152604090912091820180546001600160a01b0319166001600160a01b03871617905583516105e8926002019185019061064f565b506001805460009283526020839052604090922001805467ffffffffffffffff60a01b1916600160a01b6000199093016001600160401b0390811684029190911791829055600280546001600160c01b03169390920416600160c01b029190911790555050565b828054600181600116156101000203166002900490600052602060002090601f01602090048101928261068557600085556106cb565b82601f1061069e57805160ff19168380011785556106cb565b828001600101855582156106cb579182015b828111156106cb5782518255916020019190600101906106b0565b506106d79291506106db565b5090565b5b808211156106d757600081556001016106dc565b60008060408385031215610702578182fd5b82356001600160a01b0381168114610718578283fd5b91506020838101356001600160401b0380821115610734578384fd5b818601915086601f830112610747578384fd5b81358181111561075357fe5b604051601f8201601f191681018501838111828210171561077057fe5b6040528181528382018501891015610786578586fd5b81858501868301378585838301015280955050505050509250929050565b600080604083850312156107b6578182fd5b50508035926020909101359150565b6000815180845260208085019450808401835b838110156107fd5781516001600160a01b0316875295820195908201906001016107d8565b509495945050505050565b6000815180845260208085019450808401835b838110156107fd5781518752958201959082019060010161081b565b60008151808452815b8181101561085c57602081850181015186830182015201610840565b8181111561086d5782602083870101525b50601f01601f19169290920160200192915050565b6001600160a01b03831681526040602082018190526000906108a690830184610837565b949350505050565b600060018060a01b0385168252836020830152606060408301526108d56060830184610837565b95945050505050565b600060a082526108f160a0830188610808565b6020838203818501526109048289610808565b848103604086015287518082529092508183019082810284018301838a01865b8381101561095257601f19878403018552610940838351610837565b94860194925090850190600101610924565b50508681036060880152610966818a6107c5565b955050505050508260808301529695505050505050565b6000602082526109906020830184610837565b9392505050565b6001600160c01b039290921682526001600160401b031660208201526040019056fea26469706673582212209cf6f7f989bb26c3043a60d798ff42bbf33564d420f51f34a8bb597c213094f964736f6c63430007060033",
  "linkReferences": {},
  "deployedLinkReferences": {}
}