{
  "_format": "hh-sol-artifact-1",
  "contractName": "IncentivePoolTreasury",
  "sourceName": "contracts/genesis/implementation/IncentivePoolTreasury.sol",
  "abi": [
    {
      "inputs": [
        {
          "internalType": "address",
          "name": "_governance",
          "type": "address"
        }
      ],
      "stateMutability": "nonpayable",
      "type": "constructor"
    },
    {
      "anonymous": false,
      "inputs": [
        {
          "indexed": false,
          "internalType": "bytes4",
          "name": "selector",
          "type": "bytes4"
        },
        {
          "indexed": false,
          "internalType": "uint256",
          "name": "allowedAfterTimestamp",
          "type": "uint256"
        },
        {
          "indexed": false,
          "internalType": "bytes",
          "name": "encodedCall",
          "type": "bytes"
        }
      ],
      "name": "GovernanceCallTimelocked",
      "type": "event"
    },
    {
      "anonymous": false,
      "inputs": [
        {
          "indexed": false,
          "internalType": "address",
          "name": "initialGovernance",
          "type": "address"
        }
      ],
      "name": "GovernanceInitialised",
      "type": "event"
    },
    {
      "anonymous": false,
      "inputs": [
        {
          "indexed": false,
          "internalType": "address",
          "name": "governanceSettings",
          "type": "address"
        }
      ],
      "name": "GovernedProductionModeEntered",
      "type": "event"
    },
    {
      "anonymous": false,
      "inputs": [
        {
          "indexed": false,
          "internalType": "bytes4",
          "name": "selector",
          "type": "bytes4"
        },
        {
          "indexed": false,
          "internalType": "uint256",
          "name": "timestamp",
          "type": "uint256"
        }
      ],
      "name": "TimelockedGovernanceCallCanceled",
      "type": "event"
    },
    {
      "anonymous": false,
      "inputs": [
        {
          "indexed": false,
          "internalType": "bytes4",
          "name": "selector",
          "type": "bytes4"
        },
        {
          "indexed": false,
          "internalType": "uint256",
          "name": "timestamp",
          "type": "uint256"
        }
      ],
      "name": "TimelockedGovernanceCallExecuted",
      "type": "event"
    },
    {
      "inputs": [
        {
          "internalType": "bytes4",
          "name": "_selector",
          "type": "bytes4"
        }
      ],
      "name": "cancelGovernanceCall",
      "outputs": [],
      "stateMutability": "nonpayable",
      "type": "function"
    },
    {
      "inputs": [
        {
          "internalType": "bytes4",
          "name": "_selector",
          "type": "bytes4"
        }
      ],
      "name": "executeGovernanceCall",
      "outputs": [],
      "stateMutability": "nonpayable",
      "type": "function"
    },
    {
      "inputs": [],
      "name": "governance",
      "outputs": [
        {
          "internalType": "address",
          "name": "",
          "type": "address"
        }
      ],
      "stateMutability": "view",
      "type": "function"
    },
    {
      "inputs": [],
      "name": "governanceSettings",
      "outputs": [
        {
          "internalType": "contract IGovernanceSettings",
          "name": "",
          "type": "address"
        }
      ],
      "stateMutability": "view",
      "type": "function"
    },
    {
      "inputs": [],
      "name": "incentivePool",
      "outputs": [
        {
          "internalType": "address",
          "name": "",
          "type": "address"
        }
      ],
      "stateMutability": "view",
      "type": "function"
    },
    {
      "inputs": [
        {
          "internalType": "address",
          "name": "_initialGovernance",
          "type": "address"
        }
      ],
      "name": "initialise",
      "outputs": [],
      "stateMutability": "nonpayable",
      "type": "function"
    },
    {
      "inputs": [],
      "name": "lastPullTs",
      "outputs": [
        {
          "internalType": "uint256",
          "name": "",
          "type": "uint256"
        }
      ],
      "stateMutability": "view",
      "type": "function"
    },
    {
      "inputs": [],
      "name": "lastUpdateMaxPullRequestTs",
      "outputs": [
        {
          "internalType": "uint256",
          "name": "",
          "type": "uint256"
        }
      ],
      "stateMutability": "view",
      "type": "function"
    },
    {
      "inputs": [],
      "name": "maxPullRequestWei",
      "outputs": [
        {
          "internalType": "uint256",
          "name": "",
          "type": "uint256"
        }
      ],
      "stateMutability": "view",
      "type": "function"
    },
    {
      "inputs": [],
      "name": "productionMode",
      "outputs": [
        {
          "internalType": "bool",
          "name": "",
          "type": "bool"
        }
      ],
      "stateMutability": "view",
      "type": "function"
    },
    {
      "inputs": [
        {
          "internalType": "uint256",
          "name": "_amountWei",
          "type": "uint256"
        }
      ],
      "name": "pullFunds",
      "outputs": [],
      "stateMutability": "nonpayable",
      "type": "function"
    },
    {
      "inputs": [
        {
          "internalType": "address",
          "name": "_incentivePool",
          "type": "address"
        }
      ],
      "name": "setIncentivePoolContract",
      "outputs": [],
      "stateMutability": "nonpayable",
      "type": "function"
    },
    {
      "inputs": [
        {
          "internalType": "uint256",
          "name": "_maxPullRequestWei",
          "type": "uint256"
        }
      ],
      "name": "setMaxPullRequest",
      "outputs": [],
      "stateMutability": "nonpayable",
      "type": "function"
    },
    {
      "inputs": [],
      "name": "switchToProductionMode",
      "outputs": [],
      "stateMutability": "nonpayable",
      "type": "function"
    },
    {
      "inputs": [
        {
          "internalType": "bytes4",
          "name": "",
          "type": "bytes4"
        }
      ],
      "name": "timelockedCalls",
      "outputs": [
        {
          "internalType": "uint256",
          "name": "allowedAfterTimestamp",
          "type": "uint256"
        },
        {
          "internalType": "bytes",
          "name": "encodedCall",
          "type": "bytes"
        }
      ],
      "stateMutability": "view",
      "type": "function"
    },
    {
      "stateMutability": "payable",
      "type": "receive"
    }
  ],
  "bytecode": "0x608060405234801561001057600080fd5b506040516117a23803806117a28339818101604052602081101561003357600080fd5b505180806001600160a01b0381161561004f5761004f816100b4565b506001600160a01b03811661009e576040805162461bcd60e51b815260206004820152601060248201526f5f676f7665726e616e6365207a65726f60801b604482015290519081900360640190fd5b50506a14adf4b7320334b9000000600355610176565b600054600160a01b900460ff1615610113576040805162461bcd60e51b815260206004820152601460248201527f696e697469616c6973656420213d2066616c7365000000000000000000000000604482015290519081900360640190fd5b60008054600160a01b60ff60a01b19909116176001600160a01b0319166001600160a01b03831690811790915560408051918252517f9789733827840833afc031fb2ef9ab6894271f77bad2085687cf4ae5c7bee4db916020908290030190a150565b61161d806101856000396000f3fe6080604052600436106100ec5760003560e01c806386f2054d1161008a578063d4456c9711610059578063d4456c97146103ec578063e17f212e1461041f578063ec8d877714610448578063f5a9838314610472576101c1565b806386f2054d146103655780639c5dd6d11461037a5780639d6a890f1461038f578063c1f25444146103c2576101c1565b80635ff27079116100c65780635ff270791461023357806362354e031461026957806367fc40291461027e57806374e6310e146102b2576101c1565b8063100223bb146101c65780634841422e146101ed5780635aa6e6751461021e576101c1565b366101c1576100f9610487565b6001600160a01b0316336001600160a01b0316146040518060400160405280600f81526020016e6f6e6c7920676f7665726e616e636560881b815250906101be5760405162461bcd60e51b81526004018080602001828103825283818151815260200191508051906020019080838360005b8381101561018357818101518382015260200161016b565b50505050905090810190601f1680156101b05780820380516001836020036101000a031916815260200191505b509250505060405180910390fd5b50005b600080fd5b3480156101d257600080fd5b506101db61051c565b60408051918252519081900360200190f35b3480156101f957600080fd5b50610202610522565b604080516001600160a01b039092168252519081900360200190f35b34801561022a57600080fd5b50610202610487565b34801561023f57600080fd5b506102676004803603602081101561025657600080fd5b50356001600160e01b031916610531565b005b34801561027557600080fd5b50610202610886565b34801561028a57600080fd5b50610267600480360360208110156102a157600080fd5b50356001600160e01b031916610891565b3480156102be57600080fd5b506102e6600480360360208110156102d557600080fd5b50356001600160e01b031916610979565b6040518083815260200180602001828103825283818151815260200191508051906020019080838360005b83811015610329578181015183820152602001610311565b50505050905090810190601f1680156103565780820380516001836020036101000a031916815260200191505b50935050505060405180910390f35b34801561037157600080fd5b506101db610a1f565b34801561038657600080fd5b506101db610a25565b34801561039b57600080fd5b50610267600480360360208110156103b257600080fd5b50356001600160a01b0316610a2b565b3480156103ce57600080fd5b50610267600480360360208110156103e557600080fd5b5035610ae4565b3480156103f857600080fd5b506102676004803603602081101561040f57600080fd5b50356001600160a01b0316610caf565b34801561042b57600080fd5b50610434610d77565b604080519115158252519081900360200190f35b34801561045457600080fd5b506102676004803603602081101561046b57600080fd5b5035610d87565b34801561047e57600080fd5b50610267610fc0565b60008054600160a81b900460ff166104aa576000546001600160a01b0316610517565b60076001609c1b016001600160a01b031663732524946040518163ffffffff1660e01b815260040160206040518083038186803b1580156104ea57600080fd5b505afa1580156104fe573d6000803e3d6000fd5b505050506040513d602081101561051457600080fd5b50515b905090565b60045481565b6002546001600160a01b031681565b60408051630debfda360e41b8152336004820152905160076001609c1b019163debfda30916024808301926020929190829003018186803b15801561057557600080fd5b505afa158015610589573d6000803e3d6000fd5b505050506040513d602081101561059f57600080fd5b50516105e2576040805162461bcd60e51b815260206004820152600d60248201526c37b7363c9032bc32b1baba37b960991b604482015290519081900360640190fd5b6001600160e01b031981166000908152600160205260409020805461064e576040805162461bcd60e51b815260206004820152601a60248201527f74696d656c6f636b3a20696e76616c69642073656c6563746f72000000000000604482015290519081900360640190fd5b80544210156106a4576040805162461bcd60e51b815260206004820152601960248201527f74696d656c6f636b3a206e6f7420616c6c6f7765642079657400000000000000604482015290519081900360640190fd5b6000816001018054600181600116156101000203166002900480601f01602080910402602001604051908101604052809291908181526020018280546001816001161561010002031660029004801561073e5780601f106107135761010080835404028352916020019161073e565b820191906000526020600020905b81548152906001019060200180831161072157829003601f168201915b5050506001600160e01b031986166000908152600160208190526040822082815594955090925061077291508301826114e1565b50506000805460ff60b01b1916600160b01b178155604051825130918491819060208401908083835b602083106107ba5780518252601f19909201916020918201910161079b565b6001836020036101000a0380198251168184511680821785525050505050509050019150506000604051808303816000865af19150503d806000811461081c576040519150601f19603f3d011682016040523d82523d6000602084013e610821565b606091505b50506000805460ff60b01b19169055604080516001600160e01b03198716815242602082015281519293507fa7326b57fc9cfe267aaea5e7f0b01757154d265620a0585819416ee9ddd2c438929081900390910190a16108808161107a565b50505050565b60076001609c1b0181565b610899611097565b6001600160e01b03198116600090815260016020526040902054610904576040805162461bcd60e51b815260206004820152601a60248201527f74696d656c6f636b3a20696e76616c69642073656c6563746f72000000000000604482015290519081900360640190fd5b604080516001600160e01b03198316815242602082015281517f7735b2391c38a81419c513e30ca578db7158eadd7101511b23e221c654d19cf8929181900390910190a16001600160e01b03198116600090815260016020819052604082208281559190610974908301826114e1565b505050565b600160208181526000928352604092839020805481840180548651600296821615610100026000190190911695909504601f81018590048502860185019096528585529094919392909190830182828015610a155780601f106109ea57610100808354040283529160200191610a15565b820191906000526020600020905b8154815290600101906020018083116109f857829003601f168201915b5050505050905082565b60055481565b60035481565b600054600160a01b900460ff1615610a81576040805162461bcd60e51b8152602060048201526014602482015273696e697469616c6973656420213d2066616c736560601b604482015290519081900360640190fd5b60008054600160a01b60ff60a01b19909116176001600160a01b0319166001600160a01b03831690811790915560408051918252517f9789733827840833afc031fb2ef9ab6894271f77bad2085687cf4ae5c7bee4db916020908290030190a150565b600054600160b01b900460ff1680610b065750600054600160a81b900460ff16155b15610ca157610b136110f8565b600354610b2390606e606461112d565b811115604051806040016040528060118152602001700dac2f040e0ead8d840e8dede40d0d2ced607b1b81525090610b9c5760405162461bcd60e51b815260206004820181815283516024840152835190928392604490910191908501908083836000831561018357818101518382015260200161016b565b5060408051808201909152601081526f6d61782070756c6c206973207a65726f60801b602082015281610c105760405162461bcd60e51b815260206004820181815283516024840152835190928392604490910191908501908083836000831561018357818101518382015260200161016b565b5062093a80600554014211604051806040016040528060128152602001711d1a5b594819d85c081d1bdbc81cda1bdc9d60721b81525090610c925760405162461bcd60e51b815260206004820181815283516024840152835190928392604490910191908501908083836000831561018357818101518382015260200161016b565b50600381905542600555610cac565b610cac60003661123b565b50565b600054600160b01b900460ff1680610cd15750600054600160a81b900460ff16155b15610ca157610cde6110f8565b60408051808201909152600c81526b61646472657373207a65726f60a01b60208201526001600160a01b038216610d565760405162461bcd60e51b815260206004820181815283516024840152835190928392604490910191908501908083836000831561018357818101518382015260200161016b565b50600280546001600160a01b0319166001600160a01b038316179055610cac565b600054600160a81b900460ff1681565b600254604080518082019091526013815272696e63656e7469766520706f6f6c206f6e6c7960681b6020820152906001600160a01b03163314610e0b5760405162461bcd60e51b815260206004820181815283516024840152835190928392604490910191908501908083836000831561018357818101518382015260200161016b565b504262014370600454011115604051806040016040528060098152602001683a37b79037b33a32b760b91b81525090610e855760405162461bcd60e51b815260206004820181815283516024840152835190928392604490910191908501908083836000831561018357818101518382015260200161016b565b506040805180820190915260088152670e8dede40daeac6d60c31b60208201526a14adf4b7320334b9000000821115610eff5760405162461bcd60e51b815260206004820181815283516024840152835190928392604490910191908501908083836000831561018357818101518382015260200161016b565b5042600455604051600090339083908381818185875af1925050503d8060008114610f46576040519150601f19603f3d011682016040523d82523d6000602084013e610f4b565b606091505b50509050806040518060400160405280600b81526020016a1c1d5b1b0819985a5b195960aa1b815250906109745760405162461bcd60e51b815260206004820181815283516024840152835190928392604490910191908501908083836000831561018357818101518382015260200161016b565b610fc8611097565b600054600160a81b900460ff1615611027576040805162461bcd60e51b815260206004820152601a60248201527f616c726561647920696e2070726f64756374696f6e206d6f6465000000000000604482015290519081900360640190fd5b60008054600161ff0160a01b031916600160a81b1790556040805160076001609c1b01815290517f83af113638b5422f9e977cebc0aaf0eaf2188eb9a8baae7f9d46c42b33a1560c9181900360200190a1565b3d604051818101604052816000823e8215611093578181f35b8181fd5b61109f610487565b6001600160a01b0316336001600160a01b0316146110f6576040805162461bcd60e51b815260206004820152600f60248201526e6f6e6c7920676f7665726e616e636560881b604482015290519081900360640190fd5b565b600054600160b01b900460ff16156111255733301461111357fe5b6000805460ff60b01b191690556110f6565b6110f6611097565b6000808211611176576040805162461bcd60e51b815260206004820152601060248201526f4469766973696f6e206279207a65726f60801b604482015290519081900360640190fd5b8361118357506000611234565b8383028385828161119057fe5b0414156111a9578281816111a057fe5b04915050611234565b60008386816111b457fe5b04905060008487816111c257fe5b06905060008587816111d057fe5b04905060008688816111de57fe5b06905061122c6111f8886111f286856113be565b90611420565b61122661120586866113be565b61122661121289876113be565b6112268d6112208c8b6113be565b906113be565b90611487565b955050505050505b9392505050565b611243611097565b600082359050600060076001609c1b016001600160a01b0316636221a54b6040518163ffffffff1660e01b815260040160206040518083038186803b15801561128b57600080fd5b505afa15801561129f573d6000803e3d6000fd5b505050506040513d60208110156112b557600080fd5b505160408051808201825242830180825282516020601f89018190048102820181019094528781529394509290918281019190889088908190840183828082843760009201829052509390945250506001600160e01b0319861681526001602081815260409092208451815584830151805191945061133993928501920190611525565b509050507fed948300a3694aa01d4a6b258bfd664350193d770c0b51f8387277f6d83ea3b68382878760405180856001600160e01b0319168152602001848152602001806020018281038252848482818152602001925080828437600083820152604051601f909101601f191690920182900397509095505050505050a15050505050565b6000826113cd5750600061141a565b828202828482816113da57fe5b04146114175760405162461bcd60e51b81526004018080602001828103825260218152602001806115c76021913960400191505060405180910390fd5b90505b92915050565b6000808211611476576040805162461bcd60e51b815260206004820152601a60248201527f536166654d6174683a206469766973696f6e206279207a65726f000000000000604482015290519081900360640190fd5b81838161147f57fe5b049392505050565b600082820183811015611417576040805162461bcd60e51b815260206004820152601b60248201527f536166654d6174683a206164646974696f6e206f766572666c6f770000000000604482015290519081900360640190fd5b50805460018160011615610100020316600290046000825580601f106115075750610cac565b601f016020900490600052602060002090810190610cac91906115b1565b828054600181600116156101000203166002900490600052602060002090601f01602090048101928261155b57600085556115a1565b82601f1061157457805160ff19168380011785556115a1565b828001600101855582156115a1579182015b828111156115a1578251825591602001919060010190611586565b506115ad9291506115b1565b5090565b5b808211156115ad57600081556001016115b256fe536166654d6174683a206d756c7469706c69636174696f6e206f766572666c6f77a264697066735822122000b7e1a4a53373edf202858bb4d4ec9fa9e4bf1fd5bc48d72c47b0be2cd3b19a64736f6c63430007060033",
  "linkReferences": {},
  "deployedLinkReferences": {}
}