{
  "_format": "hh-sol-artifact-1",
  "contractName": "FlareAssetRegistryProviderMock",
  "sourceName": "contracts/mockXAsset/mock/FlareAssetRegistryProviderMock.sol",
  "abi": [
    {
      "inputs": [
        {
          "internalType": "bytes32",
          "name": "_name",
          "type": "bytes32"
        },
        {
          "internalType": "address[]",
          "name": "_assets",
          "type": "address[]"
        },
        {
          "internalType": "contract IIFlareAssetRegistry",
          "name": "_assetRegistry",
          "type": "address"
        }
      ],
      "stateMutability": "nonpayable",
      "type": "constructor"
    },
    {
      "inputs": [],
      "name": "allAssets",
      "outputs": [
        {
          "internalType": "address[]",
          "name": "",
          "type": "address[]"
        }
      ],
      "stateMutability": "view",
      "type": "function"
    },
    {
      "inputs": [],
      "name": "assetRegistry",
      "outputs": [
        {
          "internalType": "contract IIFlareAssetRegistry",
          "name": "",
          "type": "address"
        }
      ],
      "stateMutability": "view",
      "type": "function"
    },
    {
      "inputs": [],
      "name": "assetType",
      "outputs": [
        {
          "internalType": "bytes32",
          "name": "",
          "type": "bytes32"
        }
      ],
      "stateMutability": "view",
      "type": "function"
    },
    {
      "inputs": [
        {
          "internalType": "uint256",
          "name": "",
          "type": "uint256"
        }
      ],
      "name": "assets",
      "outputs": [
        {
          "internalType": "address",
          "name": "",
          "type": "address"
        }
      ],
      "stateMutability": "view",
      "type": "function"
    },
    {
      "inputs": [
        {
          "internalType": "address",
          "name": "",
          "type": "address"
        },
        {
          "internalType": "bytes32",
          "name": "_nameHash",
          "type": "bytes32"
        }
      ],
      "name": "getAttribute",
      "outputs": [
        {
          "internalType": "bool",
          "name": "_defined",
          "type": "bool"
        },
        {
          "internalType": "bytes32",
          "name": "_value",
          "type": "bytes32"
        }
      ],
      "stateMutability": "pure",
      "type": "function"
    },
    {
      "inputs": [],
      "name": "name",
      "outputs": [
        {
          "internalType": "bytes32",
          "name": "",
          "type": "bytes32"
        }
      ],
      "stateMutability": "view",
      "type": "function"
    },
    {
      "inputs": [
        {
          "internalType": "address",
          "name": "asset",
          "type": "address"
        }
      ],
      "name": "registerAsset",
      "outputs": [],
      "stateMutability": "nonpayable",
      "type": "function"
    },
    {
      "inputs": [
        {
          "internalType": "address",
          "name": "asset",
          "type": "address"
        }
      ],
      "name": "unregisterAsset",
      "outputs": [],
      "stateMutability": "nonpayable",
      "type": "function"
    }
  ],
  "bytecode": "0x608060405234801561001057600080fd5b506040516105803803806105808339818101604052606081101561003357600080fd5b81516020830180516040519294929383019291908464010000000082111561005a57600080fd5b90830190602082018581111561006f57600080fd5b825186602082028301116401000000008211171561008c57600080fd5b82525081516020918201928201910280838360005b838110156100b95781810151838201526020016100a1565b505050509190910160405250602090810151600086905584519093506100e5925060019185019061010e565b50600280546001600160a01b0319166001600160a01b0392909216919091179055506101889050565b828054828255906000526020600020908101928215610163579160200282015b8281111561016357825182546001600160a01b0319166001600160a01b0390911617825560209092019160019091019061012e565b5061016f929150610173565b5090565b5b8082111561016f5760008155600101610174565b6103e9806101976000396000f3fe608060405234801561001057600080fd5b50600436106100885760003560e01c8063979d7e861161005b578063979d7e861461014e578063c906d2cf14610172578063cf35bdd01461019a578063d312998f146101b757610088565b806306fdde031461008d578063163f6691146100a75780633fe3347a146100ee57806376d708d7146100f6575b600080fd5b6100956101dd565b60408051918252519081900360200190f35b6100d3600480360360408110156100bd57600080fd5b506001600160a01b0381351690602001356101e3565b60408051921515835260208301919091528051918290030190f35b61009561025b565b6100fe610261565b60408051602080825283518183015283519192839290830191858101910280838360005b8381101561013a578181015183820152602001610122565b505050509050019250505060405180910390f35b6101566102c3565b604080516001600160a01b039092168252519081900360200190f35b6101986004803603602081101561018857600080fd5b50356001600160a01b03166102d2565b005b610156600480360360208110156101b057600080fd5b503561033b565b610198600480360360208110156101cd57600080fd5b50356001600160a01b0316610365565b60005481565b6000807fd6f6d4fc8b7263c065f116d4b064a7f172e566382921561dc0f5ba862046d4cc83141561021a575060019050600a610254565b7f935bf1a0c40d6e14ab58d0de214f9d9cf405434941167e988ffe97c0f8dac4f283141561024d57506001905080610254565b5060009050805b9250929050565b60005490565b606060018054806020026020016040519081016040528092919081815260200182805480156102b957602002820191906000526020600020905b81546001600160a01b0316815260019091019060200180831161029b575b5050505050905090565b6002546001600160a01b031681565b6002546040805163c906d2cf60e01b81526001600160a01b0384811660048301529151919092169163c906d2cf91602480830192600092919082900301818387803b15801561032057600080fd5b505af1158015610334573d6000803e3d6000fd5b5050505050565b6001818154811061034b57600080fd5b6000918252602090912001546001600160a01b0316905081565b6002546040805163d312998f60e01b81526001600160a01b0384811660048301529151919092169163d312998f91602480830192600092919082900301818387803b15801561032057600080fdfea26469706673582212200b83320e35cf57d81757a235fc6bec4a14dcc323e53649c67e2fa05bdce8afed64736f6c63430007060033",
  "linkReferences": {},
  "deployedLinkReferences": {}
}