{
  "_format": "hh-sol-artifact-1",
  "contractName": "SimpleMockFtso",
  "sourceName": "contracts/ftso/mock/SimpleMockFtso.sol",
  "abi": [
    {
      "inputs": [
        {
          "internalType": "string",
          "name": "_symbol",
          "type": "string"
        },
        {
          "internalType": "uint256",
          "name": "_decimals",
          "type": "uint256"
        },
        {
          "internalType": "contract IPriceSubmitter",
          "name": "_priceSubmitter",
          "type": "address"
        },
        {
          "internalType": "contract IIVPToken",
          "name": "_wNat",
          "type": "address"
        },
        {
          "internalType": "address",
          "name": "_ftsoManager",
          "type": "address"
        },
        {
          "internalType": "uint256",
          "name": "_firstEpochStartTs",
          "type": "uint256"
        },
        {
          "internalType": "uint256",
          "name": "_submitPeriodSeconds",
          "type": "uint256"
        },
        {
          "internalType": "uint256",
          "name": "_revealPeriodSeconds",
          "type": "uint256"
        },
        {
          "internalType": "uint128",
          "name": "_initialPrice",
          "type": "uint128"
        },
        {
          "internalType": "uint256",
          "name": "_priceDeviationThresholdBIPS",
          "type": "uint256"
        },
        {
          "internalType": "uint256",
          "name": "_cyclicBufferSize",
          "type": "uint256"
        }
      ],
      "stateMutability": "nonpayable",
      "type": "constructor"
    },
    {
      "anonymous": false,
      "inputs": [
        {
          "indexed": true,
          "internalType": "uint256",
          "name": "epochId",
          "type": "uint256"
        },
        {
          "indexed": false,
          "internalType": "uint256",
          "name": "natTurnout",
          "type": "uint256"
        },
        {
          "indexed": false,
          "internalType": "uint256",
          "name": "lowNatTurnoutThresholdBIPS",
          "type": "uint256"
        },
        {
          "indexed": false,
          "internalType": "uint256",
          "name": "timestamp",
          "type": "uint256"
        }
      ],
      "name": "LowTurnout",
      "type": "event"
    },
    {
      "anonymous": false,
      "inputs": [
        {
          "indexed": true,
          "internalType": "uint256",
          "name": "epochId",
          "type": "uint256"
        },
        {
          "indexed": false,
          "internalType": "uint256",
          "name": "endTime",
          "type": "uint256"
        },
        {
          "indexed": false,
          "internalType": "uint256",
          "name": "timestamp",
          "type": "uint256"
        }
      ],
      "name": "PriceEpochInitializedOnFtso",
      "type": "event"
    },
    {
      "anonymous": false,
      "inputs": [
        {
          "indexed": true,
          "internalType": "uint256",
          "name": "epochId",
          "type": "uint256"
        },
        {
          "indexed": false,
          "internalType": "uint256",
          "name": "price",
          "type": "uint256"
        },
        {
          "indexed": false,
          "internalType": "bool",
          "name": "rewardedFtso",
          "type": "bool"
        },
        {
          "indexed": false,
          "internalType": "uint256",
          "name": "lowIQRRewardPrice",
          "type": "uint256"
        },
        {
          "indexed": false,
          "internalType": "uint256",
          "name": "highIQRRewardPrice",
          "type": "uint256"
        },
        {
          "indexed": false,
          "internalType": "uint256",
          "name": "lowElasticBandRewardPrice",
          "type": "uint256"
        },
        {
          "indexed": false,
          "internalType": "uint256",
          "name": "highElasticBandRewardPrice",
          "type": "uint256"
        },
        {
          "indexed": false,
          "internalType": "enum IFtso.PriceFinalizationType",
          "name": "finalizationType",
          "type": "uint8"
        },
        {
          "indexed": false,
          "internalType": "uint256",
          "name": "timestamp",
          "type": "uint256"
        }
      ],
      "name": "PriceFinalized",
      "type": "event"
    },
    {
      "anonymous": false,
      "inputs": [
        {
          "indexed": true,
          "internalType": "address",
          "name": "submitter",
          "type": "address"
        },
        {
          "indexed": true,
          "internalType": "uint256",
          "name": "epochId",
          "type": "uint256"
        },
        {
          "indexed": false,
          "internalType": "bytes32",
          "name": "hash",
          "type": "bytes32"
        },
        {
          "indexed": false,
          "internalType": "uint256",
          "name": "timestamp",
          "type": "uint256"
        }
      ],
      "name": "PriceHashSubmitted",
      "type": "event"
    },
    {
      "anonymous": false,
      "inputs": [
        {
          "indexed": true,
          "internalType": "address",
          "name": "voter",
          "type": "address"
        },
        {
          "indexed": true,
          "internalType": "uint256",
          "name": "epochId",
          "type": "uint256"
        },
        {
          "indexed": false,
          "internalType": "uint256",
          "name": "price",
          "type": "uint256"
        },
        {
          "indexed": false,
          "internalType": "uint256",
          "name": "timestamp",
          "type": "uint256"
        },
        {
          "indexed": false,
          "internalType": "uint256",
          "name": "votePowerNat",
          "type": "uint256"
        },
        {
          "indexed": false,
          "internalType": "uint256",
          "name": "votePowerAsset",
          "type": "uint256"
        }
      ],
      "name": "PriceRevealed",
      "type": "event"
    },
    {
      "inputs": [],
      "name": "ASSET_PRICE_USD_DECIMALS",
      "outputs": [
        {
          "internalType": "uint256",
          "name": "",
          "type": "uint256"
        }
      ],
      "stateMutability": "view",
      "type": "function"
    },
    {
      "inputs": [
        {
          "internalType": "uint256",
          "name": "_firstEpochStartTs",
          "type": "uint256"
        },
        {
          "internalType": "uint256",
          "name": "_submitPeriodSeconds",
          "type": "uint256"
        },
        {
          "internalType": "uint256",
          "name": "_revealPeriodSeconds",
          "type": "uint256"
        }
      ],
      "name": "activateFtso",
      "outputs": [],
      "stateMutability": "nonpayable",
      "type": "function"
    },
    {
      "inputs": [],
      "name": "active",
      "outputs": [
        {
          "internalType": "bool",
          "name": "",
          "type": "bool"
        }
      ],
      "stateMutability": "view",
      "type": "function"
    },
    {
      "inputs": [
        {
          "internalType": "uint256",
          "name": "",
          "type": "uint256"
        }
      ],
      "name": "assetFtsos",
      "outputs": [
        {
          "internalType": "contract IIFtso",
          "name": "",
          "type": "address"
        }
      ],
      "stateMutability": "view",
      "type": "function"
    },
    {
      "inputs": [
        {
          "internalType": "uint256",
          "name": "",
          "type": "uint256"
        }
      ],
      "name": "assets",
      "outputs": [
        {
          "internalType": "contract IIVPToken",
          "name": "",
          "type": "address"
        }
      ],
      "stateMutability": "view",
      "type": "function"
    },
    {
      "inputs": [
        {
          "internalType": "uint256",
          "name": "_maxVotePowerNatThresholdFraction",
          "type": "uint256"
        },
        {
          "internalType": "uint256",
          "name": "_maxVotePowerAssetThresholdFraction",
          "type": "uint256"
        },
        {
          "internalType": "uint256",
          "name": "_lowAssetUSDThreshold",
          "type": "uint256"
        },
        {
          "internalType": "uint256",
          "name": "_highAssetUSDThreshold",
          "type": "uint256"
        },
        {
          "internalType": "uint256",
          "name": "_highAssetTurnoutThresholdBIPS",
          "type": "uint256"
        },
        {
          "internalType": "uint256",
          "name": "_lowNatTurnoutThresholdBIPS",
          "type": "uint256"
        },
        {
          "internalType": "uint256",
          "name": "_elasticBandRewardBIPS",
          "type": "uint256"
        },
        {
          "internalType": "uint256",
          "name": "_elasticBandWidthPPM",
          "type": "uint256"
        },
        {
          "internalType": "address[]",
          "name": "_trustedAddresses",
          "type": "address[]"
        }
      ],
      "name": "configureEpochs",
      "outputs": [],
      "stateMutability": "nonpayable",
      "type": "function"
    },
    {
      "inputs": [],
      "name": "deactivateFtso",
      "outputs": [],
      "stateMutability": "nonpayable",
      "type": "function"
    },
    {
      "inputs": [
        {
          "internalType": "uint256",
          "name": "_epochId",
          "type": "uint256"
        }
      ],
      "name": "epochRevealInProcess",
      "outputs": [
        {
          "internalType": "bool",
          "name": "",
          "type": "bool"
        }
      ],
      "stateMutability": "view",
      "type": "function"
    },
    {
      "inputs": [],
      "name": "epochsConfiguration",
      "outputs": [
        {
          "internalType": "uint256",
          "name": "_maxVotePowerNatThresholdFraction",
          "type": "uint256"
        },
        {
          "internalType": "uint256",
          "name": "_maxVotePowerAssetThresholdFraction",
          "type": "uint256"
        },
        {
          "internalType": "uint256",
          "name": "_lowAssetUSDThreshold",
          "type": "uint256"
        },
        {
          "internalType": "uint256",
          "name": "_highAssetUSDThreshold",
          "type": "uint256"
        },
        {
          "internalType": "uint256",
          "name": "_highAssetTurnoutThresholdBIPS",
          "type": "uint256"
        },
        {
          "internalType": "uint256",
          "name": "_lowNatTurnoutThresholdBIPS",
          "type": "uint256"
        },
        {
          "internalType": "uint256",
          "name": "_elasticBandRewardBIPS",
          "type": "uint256"
        },
        {
          "internalType": "uint256",
          "name": "_elasticBandWidthPPM",
          "type": "uint256"
        },
        {
          "internalType": "address[]",
          "name": "_trustedAddresses",
          "type": "address[]"
        }
      ],
      "stateMutability": "view",
      "type": "function"
    },
    {
      "inputs": [
        {
          "internalType": "uint256",
          "name": "_epochId",
          "type": "uint256"
        }
      ],
      "name": "fallbackFinalizePriceEpoch",
      "outputs": [],
      "stateMutability": "nonpayable",
      "type": "function"
    },
    {
      "inputs": [
        {
          "internalType": "uint256",
          "name": "_epochId",
          "type": "uint256"
        },
        {
          "internalType": "bool",
          "name": "_returnRewardData",
          "type": "bool"
        }
      ],
      "name": "finalizePriceEpoch",
      "outputs": [
        {
          "internalType": "address[]",
          "name": "_eligibleAddresses",
          "type": "address[]"
        },
        {
          "internalType": "uint256[]",
          "name": "_natWeights",
          "type": "uint256[]"
        },
        {
          "internalType": "uint256",
          "name": "_natWeightsSum",
          "type": "uint256"
        }
      ],
      "stateMutability": "nonpayable",
      "type": "function"
    },
    {
      "inputs": [
        {
          "internalType": "uint256",
          "name": "_epochId",
          "type": "uint256"
        }
      ],
      "name": "forceFinalizePriceEpoch",
      "outputs": [],
      "stateMutability": "nonpayable",
      "type": "function"
    },
    {
      "inputs": [],
      "name": "ftsoManager",
      "outputs": [
        {
          "internalType": "address",
          "name": "",
          "type": "address"
        }
      ],
      "stateMutability": "view",
      "type": "function"
    },
    {
      "inputs": [],
      "name": "getAsset",
      "outputs": [
        {
          "internalType": "contract IIVPToken",
          "name": "",
          "type": "address"
        }
      ],
      "stateMutability": "view",
      "type": "function"
    },
    {
      "inputs": [],
      "name": "getAssetFtsos",
      "outputs": [
        {
          "internalType": "contract IIFtso[]",
          "name": "",
          "type": "address[]"
        }
      ],
      "stateMutability": "view",
      "type": "function"
    },
    {
      "inputs": [],
      "name": "getCurrentEpochId",
      "outputs": [
        {
          "internalType": "uint256",
          "name": "",
          "type": "uint256"
        }
      ],
      "stateMutability": "view",
      "type": "function"
    },
    {
      "inputs": [],
      "name": "getCurrentPrice",
      "outputs": [
        {
          "internalType": "uint256",
          "name": "_price",
          "type": "uint256"
        },
        {
          "internalType": "uint256",
          "name": "_timestamp",
          "type": "uint256"
        }
      ],
      "stateMutability": "view",
      "type": "function"
    },
    {
      "inputs": [],
      "name": "getCurrentPriceDetails",
      "outputs": [
        {
          "internalType": "uint256",
          "name": "_price",
          "type": "uint256"
        },
        {
          "internalType": "uint256",
          "name": "_priceTimestamp",
          "type": "uint256"
        },
        {
          "internalType": "enum IFtso.PriceFinalizationType",
          "name": "_priceFinalizationType",
          "type": "uint8"
        },
        {
          "internalType": "uint256",
          "name": "_lastPriceEpochFinalizationTimestamp",
          "type": "uint256"
        },
        {
          "internalType": "enum IFtso.PriceFinalizationType",
          "name": "_lastPriceEpochFinalizationType",
          "type": "uint8"
        }
      ],
      "stateMutability": "view",
      "type": "function"
    },
    {
      "inputs": [],
      "name": "getCurrentPriceFromTrustedProviders",
      "outputs": [
        {
          "internalType": "uint256",
          "name": "_price",
          "type": "uint256"
        },
        {
          "internalType": "uint256",
          "name": "_timestamp",
          "type": "uint256"
        }
      ],
      "stateMutability": "view",
      "type": "function"
    },
    {
      "inputs": [],
      "name": "getCurrentPriceWithDecimals",
      "outputs": [
        {
          "internalType": "uint256",
          "name": "_price",
          "type": "uint256"
        },
        {
          "internalType": "uint256",
          "name": "_timestamp",
          "type": "uint256"
        },
        {
          "internalType": "uint256",
          "name": "_assetPriceUsdDecimals",
          "type": "uint256"
        }
      ],
      "stateMutability": "view",
      "type": "function"
    },
    {
      "inputs": [],
      "name": "getCurrentPriceWithDecimalsFromTrustedProviders",
      "outputs": [
        {
          "internalType": "uint256",
          "name": "_price",
          "type": "uint256"
        },
        {
          "internalType": "uint256",
          "name": "_timestamp",
          "type": "uint256"
        },
        {
          "internalType": "uint256",
          "name": "_assetPriceUsdDecimals",
          "type": "uint256"
        }
      ],
      "stateMutability": "view",
      "type": "function"
    },
    {
      "inputs": [],
      "name": "getCurrentRandom",
      "outputs": [
        {
          "internalType": "uint256",
          "name": "",
          "type": "uint256"
        }
      ],
      "stateMutability": "view",
      "type": "function"
    },
    {
      "inputs": [
        {
          "internalType": "uint256",
          "name": "_timestamp",
          "type": "uint256"
        }
      ],
      "name": "getEpochId",
      "outputs": [
        {
          "internalType": "uint256",
          "name": "",
          "type": "uint256"
        }
      ],
      "stateMutability": "view",
      "type": "function"
    },
    {
      "inputs": [
        {
          "internalType": "uint256",
          "name": "_epochId",
          "type": "uint256"
        }
      ],
      "name": "getEpochPrice",
      "outputs": [
        {
          "internalType": "uint256",
          "name": "",
          "type": "uint256"
        }
      ],
      "stateMutability": "view",
      "type": "function"
    },
    {
      "inputs": [
        {
          "internalType": "uint256",
          "name": "_epochId",
          "type": "uint256"
        },
        {
          "internalType": "address",
          "name": "_voter",
          "type": "address"
        }
      ],
      "name": "getEpochPriceForVoter",
      "outputs": [
        {
          "internalType": "uint256",
          "name": "",
          "type": "uint256"
        }
      ],
      "stateMutability": "view",
      "type": "function"
    },
    {
      "inputs": [
        {
          "internalType": "uint256",
          "name": "_epochId",
          "type": "uint256"
        }
      ],
      "name": "getEpochTimes",
      "outputs": [
        {
          "internalType": "uint256",
          "name": "_epochSubmitStartTime",
          "type": "uint256"
        },
        {
          "internalType": "uint256",
          "name": "_epochSubmitEndTime",
          "type": "uint256"
        },
        {
          "internalType": "uint256",
          "name": "_epochRevealEndTime",
          "type": "uint256"
        }
      ],
      "stateMutability": "view",
      "type": "function"
    },
    {
      "inputs": [],
      "name": "getPriceEpochConfiguration",
      "outputs": [
        {
          "internalType": "uint256",
          "name": "_firstEpochStartTs",
          "type": "uint256"
        },
        {
          "internalType": "uint256",
          "name": "_submitPeriodSeconds",
          "type": "uint256"
        },
        {
          "internalType": "uint256",
          "name": "_revealPeriodSeconds",
          "type": "uint256"
        }
      ],
      "stateMutability": "view",
      "type": "function"
    },
    {
      "inputs": [],
      "name": "getPriceEpochData",
      "outputs": [
        {
          "internalType": "uint256",
          "name": "_epochId",
          "type": "uint256"
        },
        {
          "internalType": "uint256",
          "name": "_epochSubmitEndTime",
          "type": "uint256"
        },
        {
          "internalType": "uint256",
          "name": "_epochRevealEndTime",
          "type": "uint256"
        },
        {
          "internalType": "uint256",
          "name": "_votePowerBlock",
          "type": "uint256"
        },
        {
          "internalType": "bool",
          "name": "_fallbackMode",
          "type": "bool"
        }
      ],
      "stateMutability": "view",
      "type": "function"
    },
    {
      "inputs": [
        {
          "internalType": "uint256",
          "name": "_epochId",
          "type": "uint256"
        }
      ],
      "name": "getRandom",
      "outputs": [
        {
          "internalType": "uint256",
          "name": "",
          "type": "uint256"
        }
      ],
      "stateMutability": "view",
      "type": "function"
    },
    {
      "inputs": [
        {
          "internalType": "address",
          "name": "_owner",
          "type": "address"
        }
      ],
      "name": "getVotePowerOf",
      "outputs": [
        {
          "internalType": "uint256",
          "name": "_votePowerNat",
          "type": "uint256"
        },
        {
          "internalType": "uint256",
          "name": "_votePowerAsset",
          "type": "uint256"
        }
      ],
      "stateMutability": "nonpayable",
      "type": "function"
    },
    {
      "inputs": [
        {
          "internalType": "address[]",
          "name": "_owners",
          "type": "address[]"
        }
      ],
      "name": "getVotePowerWeights",
      "outputs": [
        {
          "internalType": "uint256[]",
          "name": "_weights",
          "type": "uint256[]"
        }
      ],
      "stateMutability": "nonpayable",
      "type": "function"
    },
    {
      "inputs": [],
      "name": "getVoteWeightingParameters",
      "outputs": [
        {
          "internalType": "contract IIVPToken[]",
          "name": "_assets",
          "type": "address[]"
        },
        {
          "internalType": "uint256[]",
          "name": "_assetMultipliers",
          "type": "uint256[]"
        },
        {
          "internalType": "uint256",
          "name": "_totalVotePowerNat",
          "type": "uint256"
        },
        {
          "internalType": "uint256",
          "name": "_totalVotePowerAsset",
          "type": "uint256"
        },
        {
          "internalType": "uint256",
          "name": "_assetWeightRatio",
          "type": "uint256"
        },
        {
          "internalType": "uint256",
          "name": "_votePowerBlock",
          "type": "uint256"
        }
      ],
      "stateMutability": "view",
      "type": "function"
    },
    {
      "inputs": [
        {
          "internalType": "uint256",
          "name": "_epochId",
          "type": "uint256"
        },
        {
          "internalType": "uint256",
          "name": "_weightNatSum",
          "type": "uint256"
        },
        {
          "internalType": "uint256",
          "name": "_weightAssetSum",
          "type": "uint256"
        }
      ],
      "name": "getWeightRatio",
      "outputs": [
        {
          "internalType": "uint256",
          "name": "",
          "type": "uint256"
        }
      ],
      "stateMutability": "view",
      "type": "function"
    },
    {
      "inputs": [
        {
          "internalType": "uint256",
          "name": "_circulatingSupplyNat",
          "type": "uint256"
        },
        {
          "internalType": "bool",
          "name": "_fallbackMode",
          "type": "bool"
        }
      ],
      "name": "initializeCurrentEpochStateForReveal",
      "outputs": [],
      "stateMutability": "nonpayable",
      "type": "function"
    },
    {
      "inputs": [],
      "name": "priceDeviationThresholdBIPS",
      "outputs": [
        {
          "internalType": "uint256",
          "name": "",
          "type": "uint256"
        }
      ],
      "stateMutability": "view",
      "type": "function"
    },
    {
      "inputs": [],
      "name": "priceEpochCyclicBufferSize",
      "outputs": [
        {
          "internalType": "uint256",
          "name": "",
          "type": "uint256"
        }
      ],
      "stateMutability": "view",
      "type": "function"
    },
    {
      "inputs": [],
      "name": "priceSubmitter",
      "outputs": [
        {
          "internalType": "contract IPriceSubmitter",
          "name": "",
          "type": "address"
        }
      ],
      "stateMutability": "view",
      "type": "function"
    },
    {
      "inputs": [
        {
          "internalType": "uint256",
          "name": "_epochId",
          "type": "uint256"
        }
      ],
      "name": "readVotes",
      "outputs": [
        {
          "internalType": "uint256[]",
          "name": "_price",
          "type": "uint256[]"
        },
        {
          "internalType": "uint256[]",
          "name": "_weight",
          "type": "uint256[]"
        },
        {
          "internalType": "uint256[]",
          "name": "_weightNat",
          "type": "uint256[]"
        }
      ],
      "stateMutability": "view",
      "type": "function"
    },
    {
      "inputs": [
        {
          "internalType": "uint256",
          "name": "_epochId",
          "type": "uint256"
        },
        {
          "internalType": "uint256",
          "name": "_price",
          "type": "uint256"
        },
        {
          "internalType": "uint256",
          "name": "_random",
          "type": "uint256"
        }
      ],
      "name": "revealPrice",
      "outputs": [],
      "stateMutability": "nonpayable",
      "type": "function"
    },
    {
      "inputs": [
        {
          "internalType": "address",
          "name": "_voter",
          "type": "address"
        },
        {
          "internalType": "uint256",
          "name": "_epochId",
          "type": "uint256"
        },
        {
          "internalType": "uint256",
          "name": "_price",
          "type": "uint256"
        },
        {
          "internalType": "uint256",
          "name": "_voterWNatVP",
          "type": "uint256"
        }
      ],
      "name": "revealPriceSubmitter",
      "outputs": [],
      "stateMutability": "nonpayable",
      "type": "function"
    },
    {
      "inputs": [
        {
          "internalType": "contract IIVPToken",
          "name": "_asset",
          "type": "address"
        }
      ],
      "name": "setAsset",
      "outputs": [],
      "stateMutability": "nonpayable",
      "type": "function"
    },
    {
      "inputs": [
        {
          "internalType": "contract IIFtso[]",
          "name": "_assetFtsos",
          "type": "address[]"
        }
      ],
      "name": "setAssetFtsos",
      "outputs": [],
      "stateMutability": "nonpayable",
      "type": "function"
    },
    {
      "inputs": [
        {
          "internalType": "uint256",
          "name": "_votePowerBlock",
          "type": "uint256"
        }
      ],
      "name": "setVotePowerBlock",
      "outputs": [],
      "stateMutability": "nonpayable",
      "type": "function"
    },
    {
      "inputs": [
        {
          "internalType": "uint256",
          "name": "_epochId",
          "type": "uint256"
        },
        {
          "internalType": "bytes32",
          "name": "_hash",
          "type": "bytes32"
        }
      ],
      "name": "submitPriceHash",
      "outputs": [],
      "stateMutability": "nonpayable",
      "type": "function"
    },
    {
      "inputs": [],
      "name": "symbol",
      "outputs": [
        {
          "internalType": "string",
          "name": "",
          "type": "string"
        }
      ],
      "stateMutability": "view",
      "type": "function"
    },
    {
      "inputs": [
        {
          "internalType": "uint256",
          "name": "_initialPriceUSD",
          "type": "uint256"
        },
        {
          "internalType": "uint256",
          "name": "_initialPriceTimestamp",
          "type": "uint256"
        }
      ],
      "name": "updateInitialPrice",
      "outputs": [],
      "stateMutability": "nonpayable",
      "type": "function"
    },
    {
      "inputs": [],
      "name": "wNat",
      "outputs": [
        {
          "internalType": "contract IIVPToken",
          "name": "",
          "type": "address"
        }
      ],
      "stateMutability": "view",
      "type": "function"
    },
    {
      "inputs": [
        {
          "internalType": "address",
          "name": "_owner",
          "type": "address"
        },
        {
          "internalType": "uint256",
          "name": "_epochId",
          "type": "uint256"
        }
      ],
      "name": "wNatVotePowerCached",
      "outputs": [
        {
          "internalType": "uint256",
          "name": "",
          "type": "uint256"
        }
      ],
      "stateMutability": "nonpayable",
      "type": "function"
    }
  ],
  "bytecode": "0x6101a06040523480156200001257600080fd5b50604051620060e6380380620060e683398181016040526101608110156200003957600080fd5b81019080805160405193929190846401000000008211156200005a57600080fd5b9083019060208201858111156200007057600080fd5b82516401000000008111828201881017156200008b57600080fd5b82525081516020918201929091019080838360005b83811015620000ba578181015183820152602001620000a0565b50505050905090810190601f168015620000e85780820380516001836020036101000a031916815260200191505b506040908152602082810151918301516060840151608085015160a086015160c087015160e08801516101008901516101208a0151610140909a01518d51999c50969a5094989397929691959094939290918c918c918c918c918c918c918c918c918c918c918c916200016291600191908e0190620001ec565b5060c0999099526001600160601b0319606098891b81166101805296881b8716610140529490961b9094166101605260e091909152610100526101209190915260028054426001600160801b03908116600160801b029481166001600160801b031990921691909117169290921790915560805260a05250620002989a5050505050505050505050565b828054600181600116156101000203166002900490600052602060002090601f0160209004810192826200022457600085556200026f565b82601f106200023f57805160ff19168380011785556200026f565b828001600101855582156200026f579182015b828111156200026f57825182559160200191906001019062000252565b506200027d92915062000281565b5090565b5b808211156200027d576000815560010162000282565b60805160a05160c05160e05161010051610120516101405160601c6101605160601c6101805160601c615d24620003c2600039806124e15280612b4c525080610d555280610dab5280610fcf52806112c0528061140e52806117ea52806119b252806119f652806121a252806125c9528061285e528061291352508061205352806121fc5280612a265280612b0f525080610ed9528061123652806127cb528061410f5280614a86525080610eb852806111935280613d1f528061407952806140e5525080610e9752806110f05280613cef5280613d40528061409b52806140c05250806113da5280611bc65280611bec52508061157552806127f552806128e652806129535280612b755280613ee5528061469552508061154a52806125815250615d246000f3fe608060405234801561001057600080fd5b50600436106102a05760003560e01c806395d89b4111610167578063cd4b6914116100ce578063e536f39611610087578063e536f39614610c85578063eb91d37e14610ca2578063f025bf6614610caa578063f670ebe314610cb2578063f72cab2814610cd7578063f937d6ad14610d03576102a0565b8063cd4b691414610b54578063cf35bdd014610b71578063d0d552dd14610b8e578063d89601fd14610bb4578063e3749e0c14610bbc578063e3b3a3b314610c50576102a0565b8063aca2b83711610120578063aca2b83714610a9a578063af52df0814610ac3578063c1f6c36e14610acb578063c5d8b9e714610b03578063c7e6da0214610b2f578063cc245ab514610b4c576102a0565b806395d89b411461090e578063974d7a6b1461098b5780639edbf007146109a85780639f92e378146109b0578063a29a839f146109ef578063a50c153a146109f7576102a0565b80635303548b1161020b5780636b52b242116101c45780636b52b242146107cf5780636f56f56f146107d75780637d1d6f12146107f45780637e85069814610811578063826cc76b146108345780638357d08c14610851576102a0565b80635303548b1461068957806353048c75146106b8578063555989da146106e15780635a3c9d8e146106e95780635c222bad146107bf57806365f5cd86146107c7576102a0565b806318931c351161025d57806318931c35146104fb5780632f0a6f3c14610553578063306ba2531461057c5780633cacb3ae1461059f57806340462a2d146105a75780634afd51021461066c576102a0565b806302fb0c5e146102a5578063040d73b8146102c157806311a7aaaa1461031157806311fa1cdf14610335578063131fdee214610430578063144e1591146104d5575b600080fd5b6102ad610d0b565b604080519115158252519081900360200190f35b6102c9610d14565b604051808681526020018581526020018460058111156102e557fe5b81526020018381526020018260058111156102fc57fe5b81526020019550505050505060405180910390f35b610319610d53565b604080516001600160a01b039092168252519081900360200190f35b6103526004803603602081101561034b57600080fd5b5035610d77565b60405180806020018060200180602001848103845287818151815260200191508051906020019060200280838360005b8381101561039a578181015183820152602001610382565b50505050905001848103835286818151815260200191508051906020019060200280838360005b838110156103d95781810151838201526020016103c1565b50505050905001848103825285818151815260200191508051906020019060200280838360005b83811015610418578181015183820152602001610400565b50505050905001965050505050505060405180910390f35b6104d36004803603602081101561044657600080fd5b81019060208101813564010000000081111561046157600080fd5b82018360208201111561047357600080fd5b8035906020019184602083028401116401000000008311171561049557600080fd5b919080806020026020016040519081016040528093929190818152602001838360200280828437600092019190915250929550610da0945050505050565b005b6104dd610e95565b60408051938452602084019290925282820152519081900360600190f35b610503610efd565b60408051602080825283518183015283519192839290830191858101910280838360005b8381101561053f578181015183820152602001610527565b505050509050019250505060405180910390f35b6104d36004803603606081101561056957600080fd5b5080359060208101359060400135610fc4565b6104d36004803603604081101561059257600080fd5b50803590602001356112b5565b6104dd6113c1565b6105cc600480360360408110156105bd57600080fd5b508035906020013515156113fe565b604051808060200180602001848152602001838103835286818151815260200191508051906020019060200280838360005b838110156106165781810151838201526020016105fe565b50505050905001838103825285818151815260200191508051906020019060200280838360005b8381101561065557818101518382015260200161063d565b505050509050019550505050505060405180910390f35b6104d36004803603602081101561068257600080fd5b50356117df565b6106a66004803603602081101561069f57600080fd5b5035611846565b60408051918252519081900360200190f35b6104d3600480360360608110156106ce57600080fd5b5080359060208101359060400135611859565b6104d3611995565b6104d3600480360361012081101561070057600080fd5b81359160208101359160408201359160608101359160808201359160a08101359160c08201359160e081013591810190610120810161010082013564010000000081111561074d57600080fd5b82018360208201111561075f57600080fd5b8035906020019184602083028401116401000000008311171561078157600080fd5b9190808060200260200160405190810160405280939291908181526020018383602002808284376000920191909152509295506119eb945050505050565b610319611b2d565b6104dd611bad565b6106a6611bea565b6104dd600480360360208110156107ed57600080fd5b5035611c0e565b6106a66004803603602081101561080a57600080fd5b5035611c3a565b6104d36004803603604081101561082757600080fd5b5080359060200135611c4f565b6103196004803603602081101561084a57600080fd5b5035611d77565b610859611da1565b604051808060200180602001878152602001868152602001858152602001848152602001838103835289818151815260200191508051906020019060200280838360005b838110156108b557818101518382015260200161089d565b50505050905001838103825288818151815260200191508051906020019060200280838360005b838110156108f45781810151838201526020016108dc565b505050509050019850505050505050505060405180910390f35b61091661210a565b6040805160208082528351818301528351919283929083019185019080838360005b83811015610950578181015183820152602001610938565b50505050905090810190601f16801561097d5780820380516001836020036101000a031916815260200191505b509250505060405180910390f35b6104d3600480360360208110156109a157600080fd5b5035612197565b6103196121fa565b6109d6600480360360208110156109c657600080fd5b50356001600160a01b031661221e565b6040805192835260208301919091528051918290030190f35b6106a6612273565b61050360048036036020811015610a0d57600080fd5b810190602081018135640100000000811115610a2857600080fd5b820183602082011115610a3a57600080fd5b80359060200191846020830284011164010000000083111715610a5c57600080fd5b91908080602002602001604051908101604052809392919081815260200183836020028082843760009201919091525092955061227e945050505050565b6106a660048036036060811015610ab057600080fd5b508035906020810135906040013561248a565b6109d66124a9565b6104d360048036036080811015610ae157600080fd5b506001600160a01b0381351690602081013590604081013590606001356124c4565b6106a660048036036040811015610b1957600080fd5b50803590602001356001600160a01b0316612520565b6102ad60048036036020811015610b4557600080fd5b5035612574565b6106a661257f565b6106a660048036036020811015610b6a57600080fd5b50356125a3565b61031960048036036020811015610b8757600080fd5b50356125ae565b6104d360048036036020811015610ba457600080fd5b50356001600160a01b03166125be565b6106a66126c3565b610bc46126f1565b604051808a815260200189815260200188815260200187815260200186815260200185815260200184815260200183815260200180602001828103825283818151815260200191508051906020019060200280838360005b83811015610c34578181015183820152602001610c1c565b505050509050019a505050505050505050505060405180910390f35b610c586127ac565b60408051958652602086019490945284840192909252606084015215156080830152519081900360a00190f35b6104d360048036036020811015610c9b57600080fd5b5035612853565b6109d66128c9565b6106a66128e4565b6104d360048036036040811015610cc857600080fd5b50803590602001351515612908565b6106a660048036036040811015610ced57600080fd5b506001600160a01b038135169060200135612b08565b610319612b4a565b60005460ff1681565b6002546004546001600160801b0380831693600160801b909304169160ff8083169261010081046001600160f01b031692600160f81b90910490911690565b7f000000000000000000000000000000000000000000000000000000000000000081565b60608060606000610d8785612b6e565b9050610d9281612c3c565b935093509350509193909250565b336001600160a01b037f00000000000000000000000000000000000000000000000000000000000000001614610dd857610dd8612dd1565b6000815111610de357fe5b600181511180610e195750306001600160a01b031681600081518110610e0557fe5b60200260200101516001600160a01b031614155b610e1f57fe5b8051610e32906013906020840190615a7c565b5080516001600160401b0381118015610e4a57600080fd5b50604051908082528060200260200182016040528015610e74578160200160208202803683370190505b508051610e8991601291602090910190615a7c565b50610e92612e39565b50565b7f00000000000000000000000000000000000000000000000000000000000000007f00000000000000000000000000000000000000000000000000000000000000007f0000000000000000000000000000000000000000000000000000000000000000909192565b6012546060906001148015610f1457506013546001145b8015610f4a5750306001600160a01b03166013600081548110610f3357fe5b6000918252602090912001546001600160a01b0316145b610fae576013805480602002602001604051908101604052809291908181526020018280548015610fa457602002820191906000526020600020905b81546001600160a01b03168152600190910190602001808311610f86575b5050505050610fbe565b6040805160008152602081019091525b90505b90565b336001600160a01b037f00000000000000000000000000000000000000000000000000000000000000001614610ffc57610ffc612dd1565b600054604080518082019091526016815275119514d3c8185b1c9958591e481858dd1a5d985d195960521b60208201529060ff16156110b95760405162461bcd60e51b81526004018080602001828103825283818151815260200191508051906020019080838360005b8381101561107e578181015183820152602001611066565b50505050905090810190601f1680156110ab5780820380516001836020036101000a031916815260200191505b509250505060405180910390fd5b5060408051808201909152601e81527f496e76616c69642070726963652065706f636820706172616d6574657273000060208201527f0000000000000000000000000000000000000000000000000000000000000000841461115c5760405162461bcd60e51b815260206004820181815283516024840152835190928392604490910191908501908083836000831561107e578181015183820152602001611066565b5060408051808201909152601e81527f496e76616c69642070726963652065706f636820706172616d6574657273000060208201527f000000000000000000000000000000000000000000000000000000000000000083146111ff5760405162461bcd60e51b815260206004820181815283516024840152835190928392604490910191908501908083836000831561107e578181015183820152602001611066565b5060408051808201909152601e81527f496e76616c69642070726963652065706f636820706172616d6574657273000060208201527f000000000000000000000000000000000000000000000000000000000000000082146112a25760405162461bcd60e51b815260206004820181815283516024840152835190928392604490910191908501908083836000831561107e578181015183820152602001611066565b50506000805460ff191660011790555050565b336001600160a01b037f000000000000000000000000000000000000000000000000000000000000000016146112ed576112ed612dd1565b600054604080518082019091526016815275119514d3c8185b1c9958591e481858dd1a5d985d195960521b60208201529060ff161561136d5760405162461bcd60e51b815260206004820181815283516024840152835190928392604490910191908501908083836000831561107e578181015183820152602001611066565b5061137782613015565b600280546001600160801b0319166001600160801b03929092169190911790556113a081613015565b600280546001600160801b03928316600160801b0292169190911790555050565b6003546001600160801b0380821691600160801b9004167f0000000000000000000000000000000000000000000000000000000000000000909192565b6060806000336001600160a01b037f0000000000000000000000000000000000000000000000000000000000000000161461143b5761143b612dd1565b60006114468661305d565b60018101805460ff60f01b1916905560058101549091506000901561147e5781600501546127108360080154028161147a57fe5b0490505b6001820154600160f81b900460ff168061149c575081600401548111155b1561150f576001820154600160f81b900460ff166114fc57600482015460408051838152602081019290925242828201525188917fbece8aa526cdc5e528cdaa56c1d03edc19da51e41845aa146f64a7071f74c65a919081900360600190a25b61150887836000613191565b50506117d8565b606080606061151d85612c3c565b91945092509050606061152e615add565b61153d858589601201546133c3565b61012081015191935091507f000000000000000000000000000000000000000000000000000000000000000090611599906005908f907f0000000000000000000000000000000000000000000000000000000000000000613703565b11156115b7576115ab8c886000613191565b505050505050506117d8565b60108701805460ff199081166001908117909255610120830151600f8a01819055600280546001600160801b0319166001600160801b03928316178216600160801b429384160217905560048054600160f81b6001600160f81b036001600160f01b0390941661010002610100600160f81b031992909516909517169290921716919091179055600e870154156116d4576116a387600e0180548060200260200160405190810160405280929190818152602001828054801561169957602002820191906000526020600020905b815481526020019060010190808311611685575b505050505061378f565b60038054426001600160801b03908116600160801b029381166001600160801b031990921691909117169190911790555b60008b1561170c5760006116e78e6138b3565b90506116f68984838a896138c5565b8251929e50909c509a501561170a57600191505b505b6117188d83858461251a565b8c7f1856740832ecbdceafeb109e01b188b9c0499df6a33dc8129aa0dd8f9d9a9db089600f015483856101400151866101600151876101800151886101a001518f60100160009054906101000a900460ff16426040518089815260200188151581526020018781526020018681526020018581526020018481526020018360058111156117a157fe5b81526020018281526020019850505050505050505060405180910390a2505050600190940180546001600160f81b03169055505050505b9250925092565b336001600160a01b037f0000000000000000000000000000000000000000000000000000000000000000161461181757611817612dd1565b60006118228261305d565b6001808201805460ff60f01b191690559091506118429083908390613191565b5050565b600061185182613ceb565b90505b919050565b60005460ff1661186b5761186b613d70565b60408051602080820185905281830184905233606080840182905284518085039091018152608090930184528251928201929092206000878152601483528481209381529290915291902054146118f35760405162461bcd60e51b8152600401808060200182810382526023815260200180615cab6023913960400191505060405180910390fd5b6119083384846119033388612b08565b613dda565b806040518060200160405280848152506040516020018083815260200182600160200280838360005b83811015611949578181015183820152602001611931565b50506040805193909501838103601f190184528552505080516020918201206000998a5260158252838a208054909101905560148152828920338a529052508620959095555050505050565b60005460ff166119a7576119a7613d70565b336001600160a01b037f000000000000000000000000000000000000000000000000000000000000000016146119df576119df612dd1565b6000805460ff19169055565b336001600160a01b037f00000000000000000000000000000000000000000000000000000000000000001614611a2357611a23612dd1565b60088990556009889055600a879055600b869055600c859055600d84905560108390556011829055600e5460005b81811015611aae5760006005600a01600060056009018481548110611a7257fe5b6000918252602080832091909101546001600160a01b031683528201929092526040019020805460ff1916911515919091179055600101611a51565b5050805160005b81811015611b0c5760016005600a016000858481518110611ad257fe5b6020908102919091018101516001600160a01b03168252810191909152604001600020805460ff1916911515919091179055600101611ab5565b508151611b2090600e906020850190615a7c565b5050505050505050505050565b6012546000906001148015611b4457506013546001145b8015611b7a5750306001600160a01b03166013600081548110611b6357fe5b6000918252602090912001546001600160a01b0316145b611b85576000610fbe565b6012600081548110611b9357fe5b6000918252602090912001546001600160a01b0316905090565b6002546001600160801b0380821691600160801b9004167f0000000000000000000000000000000000000000000000000000000000000000909192565b7f000000000000000000000000000000000000000000000000000000000000000081565b6000806000611c1c84614077565b9250611c27846140be565b9150611c328461410b565b929491935050565b6000611c4582612b6e565b600f015492915050565b60005460ff16611c6157611c61613d70565b611c69612273565b8214611cad576040805162461bcd60e51b815260206004820152600e60248201526d15dc9bdb99c8195c1bd8da081a5960921b604482015290519081900360640190fd5b600082815260146020908152604080832033845290915290205415611d19576040805162461bcd60e51b815260206004820152601960248201527f4475706c6963617465207375626d697420696e2065706f636800000000000000604482015290519081900360640190fd5b600082815260146020908152604080832033808552908352928190208490558051848152429281019290925280518593927f615c0184a2b16dbbcd09eae0bf239e28977aa4e6ff2204eda59c14016310bb6692908290030190a35050565b60138181548110611d8757600080fd5b6000918252602090912001546001600160a01b0316905081565b6060806000806000806012805480602002602001604051908101604052809291908181526020018280548015611e0057602002820191906000526020600020905b81546001600160a01b03168152600190910190602001808311611de2575b50506007548451949a506001600160f01b031694506000939250506001600160401b03821190508015611e3257600080fd5b50604051908082528060200260200182016040528015611e5c578160200160208202803683370190505b509050600087516001600160401b0381118015611e7857600080fd5b50604051908082528060200260200182016040528015611ea2578160200160208202803683370190505b50905060005b88518110156120315760006001600160a01b0316898281518110611ec857fe5b60200260200101516001600160a01b03161415611ee6576000611f6a565b888181518110611ef257fe5b60200260200101516001600160a01b0316633e5aa26a856040518263ffffffff1660e01b81526004018082815260200191505060206040518083038186803b158015611f3d57600080fd5b505afa158015611f51573d6000803e3d6000fd5b505050506040513d6020811015611f6757600080fd5b50515b838281518110611f7657fe5b60200260200101818152505060138181548110611f8f57fe5b9060005260206000200160009054906101000a90046001600160a01b03166001600160a01b031663eb91d37e6040518163ffffffff1660e01b8152600401604080518083038186803b158015611fe457600080fd5b505afa158015611ff8573d6000803e3d6000fd5b505050506040513d604081101561200e57600080fd5b5051825183908390811061201e57fe5b6020908102919091010152600101611ea8565b50600061204160058a858561413e565b905061204f60058a836142e4565b97507f00000000000000000000000000000000000000000000000000000000000000006001600160a01b0316633e5aa26a856040518263ffffffff1660e01b81526004018082815260200191505060206040518083038186803b1580156120b557600080fd5b505afa1580156120c9573d6000803e3d6000fd5b505050506040513d60208110156120df57600080fd5b505196506120f060058a8584614418565b95506120fd6005876144e0565b9450505050909192939495565b60018054604080516020600284861615610100026000190190941693909304601f8101849004840282018401909252818152929183018282801561218f5780601f106121645761010080835404028352916020019161218f565b820191906000526020600020905b81548152906001019060200180831161217257829003601f168201915b505050505081565b336001600160a01b037f000000000000000000000000000000000000000000000000000000000000000016146121cf576121cf612dd1565b60006121da8261305d565b6001808201805460ff60f01b191690559091506118429083908390614535565b7f000000000000000000000000000000000000000000000000000000000000000081565b600080600061223361222e614681565b612b6e565b9050612269818561224b87612246614681565b612b08565b600185015460ff600160f81b820416906001600160f01b03166146e5565b9250925050915091565b6000610fbe42613ceb565b6060600061228d61222e614681565b9050600083516001600160401b03811180156122a857600080fd5b506040519080825280602002602001820160405280156122d2578160200160208202803683370190505b509050600084516001600160401b03811180156122ee57600080fd5b50604051908082528060200260200182016040528015612318578160200160208202803683370190505b50905060005b85518110156124755760008061237f8689858151811061233a57fe5b60200260200101516123618b878151811061235157fe5b6020026020010151612246614681565b60018a015460ff600160f81b820416906001600160f01b03166146e5565b915091506123ab8689858151811061239357fe5b60209081029190910101516005919085856000614745565b600c860154600019016000908152600d87016020908152604091829020825160a08101845281546001600160801b03811682526001600160401b03600160801b82048116948301859052600160c01b9091041693810193909352600101546001600160a01b038116606084015263ffffffff600160a01b909104166080830152865187908690811061243957fe5b60200260200101818152505080604001516001600160401b031685858151811061245f57fe5b602090810291909101015250505060010161231e565b50612481838383614895565b95945050505050565b600061249f61249885612b6e565b84846149ac565b90505b9392505050565b6003546001600160801b0380821691600160801b9004169091565b60005460ff166124d6576124d6613d70565b336001600160a01b037f0000000000000000000000000000000000000000000000000000000000000000161461250e5761250e612dd1565b61251a84848484613dda565b50505050565b60008061252c84612b6e565b9050600061253a8285614a13565b90508061254c5760009250505061256e565b600019016000908152600d90910160205260409020546001600160801b031690505b92915050565b600061185182614a6b565b7f000000000000000000000000000000000000000000000000000000000000000081565b6000611851826138b3565b60128181548110611d8757600080fd5b336001600160a01b037f000000000000000000000000000000000000000000000000000000000000000016146125f6576125f6612dd1565b6040805160208101909152308152612612906013906001615a7c565b5060408051602081019091526001600160a01b0382168152612638906012906001615a7c565b50806001600160a01b031663313ce5676040518163ffffffff1660e01b815260040160206040518083038186803b15801561267257600080fd5b505afa158015612686573d6000803e3d6000fd5b505050506040513d602081101561269c57600080fd5b50516001600160a01b03909116600090815260066020526040902060ff909116600a0a9055565b6000806126ce612273565b9050806126df576000915050610fc1565b6126eb600182036138b3565b91505090565b600080600080600080600080606060056003015460056004015460058001546005600601546005600701546005600801546005600b01546005600c015460056009018080548060200260200160405190810160405280929190818152602001828054801561278857602002820191906000526020600020905b81546001600160a01b0316815260019091019060200180831161276a575b50505050509050985098509850985098509850985098509850909192939495969798565b60008060008060006127bc612273565b94506127c7856140be565b93507f00000000000000000000000000000000000000000000000000000000000000008401925060006005817f0000000000000000000000000000000000000000000000000000000000000000888161281c57fe5b0681526020810191909152604001600020600101549596949593946001600160f01b03851694600160f81b900460ff169350915050565b336001600160a01b037f0000000000000000000000000000000000000000000000000000000000000000161461288b5761288b612dd1565b43811061289757600080fd5b600160f01b81106128a757600080fd5b600780546001600160f01b0319166001600160f01b0392909216919091179055565b6002546001600160801b0380821691600160801b9004169091565b7f000000000000000000000000000000000000000000000000000000000000000081565b336001600160a01b037f0000000000000000000000000000000000000000000000000000000000000000161461294057612940612dd1565b600061294a612273565b905060006005817f0000000000000000000000000000000000000000000000000000000000000000848161297a57fe5b0681526020810191909152604001600090812060108101805460ff1916905560088101829055600c81018290556007546001820180546001600160f01b039092166001600160f01b0319909216919091176001600160f81b0316600160f81b871515021790556002810184905591506129f790600e830190615b4c565b8215612a04575050611842565b606080612a0f614aae565b6007549194509250612abf915084908890612a54907f0000000000000000000000000000000000000000000000000000000000000000906001600160f01b0316614ca4565b6012805480602002602001604051908101604052809291908181526020018280548015612aaa57602002820191906000526020600020905b81546001600160a01b03168152600190910190602001808311612a8c575b5060059796959493508a925089915050614d35565b837fc0eaa359541c7c642d9947c9496507c134f3e4f8e1fd433313eb27dc48cb1fb7612aea866140be565b604080519182524260208301528051918290030190a2505050505050565b60006124a27f000000000000000000000000000000000000000000000000000000000000000084612b3885612b6e565b600101546001600160f01b0316614df8565b7f000000000000000000000000000000000000000000000000000000000000000081565b60006005817f00000000000000000000000000000000000000000000000000000000000000008481612b9c57fe5b0681526020019081526020016000209050806002015482146040518060400160405280601881526020017f45706f63682064617461206e6f7420617661696c61626c65000000000000000081525090612c365760405162461bcd60e51b815260206004820181815283516024840152835190928392604490910191908501908083836000831561107e578181015183820152602001611066565b50919050565b6060806060600084600c01549050806001600160401b0381118015612c6057600080fd5b50604051908082528060200260200182016040528015612c8a578160200160208202803683370190505b509350806001600160401b0381118015612ca357600080fd5b50604051908082528060200260200182016040528015612ccd578160200160208202803683370190505b5091506000816001600160401b0381118015612ce857600080fd5b50604051908082528060200260200182016040528015612d12578160200160208202803683370190505b50905060005b82811015612dba576000818152600d880160205260409020805487516001600160801b0390911690889084908110612d4c57fe5b602090810291909101015280548551600160801b9091046001600160401b031690869084908110612d7957fe5b602090810291909101015280548351600160c01b9091046001600160401b031690849084908110612da657fe5b602090810291909101015250600101612d18565b50612dc6868483614895565b935050509193909250565b604080518082018252600d81526c1058d8d95cdcc819195b9a5959609a1b6020808301918252925162461bcd60e51b8152600481019384528251602482015282519293928392604490920191908083836000831561107e578181015183820152602001611066565b6013546001148015612e755750306001600160a01b03166013600081548110612e5e57fe5b6000918252602090912001546001600160a01b0316145b15612e7f57613013565b60005b601354811015610e9257600060138281548110612e9b57fe5b6000918252602091829020015460408051635c222bad60e01b815290516001600160a01b0390921692635c222bad92600480840193829003018186803b158015612ee457600080fd5b505afa158015612ef8573d6000803e3d6000fd5b505050506040513d6020811015612f0e57600080fd5b5051601280549192509083908110612f2257fe5b6000918252602090912001546001600160a01b0382811691161415612f47575061300b565b8060128381548110612f5557fe5b600091825260209091200180546001600160a01b0319166001600160a01b0392831617905581161561300957806001600160a01b031663313ce5676040518163ffffffff1660e01b815260040160206040518083038186803b158015612fba57600080fd5b505afa158015612fce573d6000803e3d6000fd5b505050506040513d6020811015612fe457600080fd5b50516001600160a01b038216600090815260066020526040902060ff909116600a0a90555b505b600101612e82565b565b6000600160801b82106130595760405162461bcd60e51b8152600401808060200182810382526027815260200180615c846027913960400191505060405180910390fd5b5090565b60006130688261410b565b4210156040518060400160405280602081526020017f45706f6368206e6f7420726561647920666f722066696e616c697a6174696f6e815250906130ed5760405162461bcd60e51b815260206004820181815283516024840152835190928392604490910191908501908083836000831561107e578181015183820152602001611066565b506130f782612b6e565b90506000601082015460ff16600581111561310e57fe5b146040518060400160405280601781526020017f45706f636820616c72656164792066696e616c697a656400000000000000000081525090612c365760405162461bcd60e51b815260206004820181815283516024840152835190928392604490910191908501908083836000831561107e578181015183820152602001611066565b600e820154156133b3576131f482600e01805480602002602001604051908101604052809291908181526020018280548015611699576020028201919060005260206000209081548152602001906001019080831161168557505050505061378f565b600f83015580613205576002613208565b60045b60108301805460ff1916600183600581111561322057fe5b0217905550600f82015460028054426001600160801b03908116600160801b029381166001600160801b0319909216919091171691909117905560108201546004805460ff9092169160ff1916600183600581111561327b57fe5b021790555060048054610100600160f81b031916610100426001600160f01b03160217808255601084015460ff1691906001600160f81b0316600160f81b8360058111156132c557fe5b0217905550600f82015460038054426001600160801b03908116600160801b029381166001600160801b0319909216919091171691909117905561330883610e92565b827f1856740832ecbdceafeb109e01b188b9c0499df6a33dc8129aa0dd8f9d9a9db083600f015460008060008060008960100160009054906101000a900460ff164260405180898152602001881515815260200187815260200186815260200185815260200184815260200183600581111561338057fe5b81526020018281526020019850505050505050505060405180910390a26001820180546001600160f81b031690556133be565b6133be838383614535565b505050565b60606133cd615add565b8451806001600160401b03811180156133e557600080fd5b5060405190808252806020026020018201604052801561340f578160200160208202803683370190505b50925060005b8181101561343d578084828151811061342a57fe5b6020908102919091010152600101613415565b506134546002600060018403600080888c8c614e9a565b60808501526060840152808352835186918591811061346f57fe5b60200260200101518151811061348157fe5b602090810291909101015160a08301819052608083015160608401518451920101906134ba578251600060c0850152602084015261350e565b600481048360600151116134de578251606084015160c0850152602084015261350e565b61350260016000600186600001510360008760a00151886080015101898d8d614e9a565b5060c085015260208401525b82516000198301141561352f57825160006101008501526040840152613587565b6004810483608001511161355457825160808401516101008501526040840152613587565b61357a60038460000151600101600185038660a001518760600151016000898d8d614e9a565b6101008601525060408401525b868484600001518151811061359857fe5b6020026020010151815181106135aa57fe5b6020908102919091010151610120840152600281048360a001518460600151011480156135d8575060028106155b156136085760026135f2846000015160018503878b615175565b846101200151018161360057fe5b046101208401525b613622836020015160006000198660c00151888c8c615235565b60c08501526020840152604083015161010084015161364d9190600019850190600190888c8c615235565b61010085015260408401526020830151845188918691811061366b57fe5b60200260200101518151811061367d57fe5b60200260200101518361014001818152505086848460400151815181106136a057fe5b6020026020010151815181106136b257fe5b602090810291909101015161016084015261010083015160c08401519091030360e083015250610120810151620f4240938102939093048084036101808301529092016101a0830152939092509050565b60008361371257506000613787565b600085818460001988018161372357fe5b068152602001908152602001600020600f015490508084141561374a576000915050613787565b8361375d5764e8d4a51000915050613787565b6000848211156137705750838103613775565b508084035b6137828161271087615309565b925050505b949350505050565b80516000908061379b57fe5b60015b818110156138475760008482815181106137b457fe5b6020026020010151905060008290505b6000811180156137e95750818660018303815181106137df57fe5b6020026020010151115b15613825578560018203815181106137fd57fe5b602002602001015186828151811061381157fe5b6020908102919091010152600019016137c4565b8186828151811061383257fe5b6020908102919091010152505060010161379e565b5060028104600180831614156138745783818151811061386357fe5b602002602001015192505050611854565b600284828151811061388257fe5b602002602001015185600184038151811061389957fe5b602002602001015101816138a957fe5b0492505050611854565b60009081526015602052604090205490565b60608060006138d2615b6a565b601189015460a0820152600c890154608082018190526001600160401b03811180156138fd57600080fd5b50604051908082528060200260200182016040528015613927578160200160208202803683370190505b50815260808101516001600160401b038111801561394457600080fd5b5060405190808252806020026020018201604052801561396e578160200160208202803683370190505b5060208201526000805b8260800151811015613aeb57600087828151811061399257fe5b6020026020010151905060008983815181106139aa57fe5b602002602001015190508b6101400151811180156139cc57508b610160015181105b80613a1857508b61014001518114806139e957508b610160015181145b8015613a1857506000838152600d8e016020526040902060010154613a18908c906001600160a01b0316615415565b15613a4e578460a0015161271003820285600001518481518110613a3857fe5b6020908102919091010152604085018051830190525b808c6101800151108015613a6657508b6101a0015181105b15613a98578460a00151820285602001518481518110613a8257fe5b6020908102919091010152606085018051830190525b600085600001518481518110613aaa57fe5b60200260200101511180613ad55750600085602001518481518110613acb57fe5b6020026020010151115b15613ae1576001909301925b5050600101613978565b50806001600160401b0381118015613b0257600080fd5b50604051908082528060200260200182016040528015613b2c578160200160208202803683370190505b509450806001600160401b0381118015613b4557600080fd5b50604051908082528060200260200182016040528015613b6f578160200160208202803683370190505b5093506000905060005b8260800151811015613cdd57600083600001518281518110613b9757fe5b60200260200101511180613bc25750600083602001518281518110613bb857fe5b6020026020010151115b15613cd5576000836060015111613bda576001613be0565b82606001515b8351805183908110613bee57fe5b602002602001015102858381518110613c0357fe5b6020026020010181815101915081815250506000836040015111613c28576001613c2e565b82604001515b83602001518281518110613c3e57fe5b602002602001015102858381518110613c5357fe5b602090810291909101810180519092019091526000828152600d8d01909152604090206001015486516001600160a01b0390911690879084908110613c9457fe5b60200260200101906001600160a01b031690816001600160a01b031681525050848281518110613cc057fe5b60200260200101518401935081806001019250505b600101613b79565b505050955095509592505050565b60007f0000000000000000000000000000000000000000000000000000000000000000821015613d1d57506000611854565b7f00000000000000000000000000000000000000000000000000000000000000007f0000000000000000000000000000000000000000000000000000000000000000830381613d6857fe5b049050611854565b604080518082018252600f81526e4654534f206e6f742061637469766560881b6020808301918252925162461bcd60e51b8152600481019384528251602482015282519293928392604490920191908083836000831561107e578181015183820152602001611066565b60408051808201909152600e81526d0a0e4d2c6ca40e8dede40d0d2ced60931b6020820152600160801b8310613e515760405162461bcd60e51b815260206004820181815283516024840152835190928392604490910191908501908083836000831561107e578181015183820152602001611066565b50613e5b83614a6b565b6040518060400160405280601881526020017f52657665616c20706572696f64206e6f7420616374697665000000000000000081525090613edd5760405162461bcd60e51b815260206004820181815283516024840152835190928392604490910191908501908083836000831561107e578181015183820152602001611066565b5060006005817f00000000000000000000000000000000000000000000000000000000000000008681613f0c57fe5b0681526020810191909152604001600020600181015490915060ff600160f81b8204811691600160f01b8104909116906001600160f01b03168180613f715750828015613f7157506001600160a01b0388166000908152600f602052604090205460ff165b6040518060400160405280602081526020017f45706f6368206e6f7420696e697469616c697a656420666f722072657665616c81525090613ff35760405162461bcd60e51b815260206004820181815283516024840152835190928392604490910191908501908083836000831561107e578181015183820152602001611066565b50600080614004868b8988876146e5565b90925090506140186005878c85858d614745565b604080518981524260208201528082018490526060810183905290518a916001600160a01b038d16917fc1b1d37612887c207efe8cb44f4069b7f10c45edaf6e8405648a94e02b6e9ec79181900360800190a350505050505050505050565b7f0000000000000000000000000000000000000000000000000000000000000000027f00000000000000000000000000000000000000000000000000000000000000000190565b7f0000000000000000000000000000000000000000000000000000000000000000600182017f00000000000000000000000000000000000000000000000000000000000000000201919050565b60007f0000000000000000000000000000000000000000000000000000000000000000614137836140be565b0192915050565b82516060906000816001600160401b038111801561415b57600080fd5b50604051908082528060200260200182016040528015614185578160200160208202803683370190505b5090506000805b8381101561426e5760006001600160a01b03168882815181106141ab57fe5b60200260200101516001600160a01b031614156141c757614266565b600061423e8783815181106141d857fe5b60200260200101518b60010160008c86815181106141f257fe5b60200260200101516001600160a01b03166001600160a01b03168152602001908152602001600020548a858151811061422757fe5b60200260200101516153099092919063ffffffff16565b90508084838151811061424d57fe5b60209081029190910101526142628382615450565b9250505b60010161418c565b5080156142d95760005b838110156142d7576142b86142ab61271088848151811061429557fe5b60200260200101516154aa90919063ffffffff16565b8385848151811061422757fe5b8382815181106142c457fe5b6020908102919091010152600101614278565b505b509695505050505050565b8151606090806001600160401b03811180156142ff57600080fd5b50604051908082528060200260200182016040528015614329578160200160208202803683370190505b50915060005b8181101561440f5760006001600160a01b031685828151811061434e57fe5b60200260200101516001600160a01b0316146143ec57600086600101600087848151811061437857fe5b60200260200101516001600160a01b03166001600160a01b031681526020019081526020016000205490506143ce61271064e8d4a51000816143b657fe5b04670de0b6b3a7640000028287858151811061422757fe5b8483815181106143da57fe5b60200260200101818152505050614407565b60008382815181106143fa57fe5b6020026020010181815250505b60010161432f565b50509392505050565b600080805b85518110156144d65760006001600160a01b031686828151811061443d57fe5b60200260200101516001600160a01b0316146144ce5760006127106144b687848151811061446757fe5b60200260200101518a60010160008b878151811061448157fe5b60200260200101516001600160a01b03166001600160a01b031681526020019081526020016000205488868151811061422757fe5b816144bd57fe5b0490506144ca8382615450565b9250505b60010161441d565b5095945050505050565b60008083600501548310156144f7575060006124a2565b8360060154831061450b57506113886124a2565b600584015460068501546101f49190819003908503611194028161452b57fe5b0401949350505050565b8215614551576002546001600160801b0316600f830155614559565b6000600f8301555b80614565576003614568565b60055b60108301805460ff1916600183600581111561458057fe5b021790555060048054610100600160f81b031916610100426001600160f01b03160217808255601084015460ff1691906001600160f81b0316600160f81b8360058111156145ca57fe5b02179055506145d883610e92565b827f1856740832ecbdceafeb109e01b188b9c0499df6a33dc8129aa0dd8f9d9a9db083600f015460008060008060008960100160009054906101000a900460ff164260405180898152602001881515815260200187815260200186815260200185815260200184815260200183600581111561465057fe5b81526020018281526020019850505050505050505060405180910390a25060010180546001600160f81b0316905550565b60008061468c612273565b905080600560007f000000000000000000000000000000000000000000000000000000000000000083816146bc57fe5b0681526020019081526020016000206002015414156146dc579050610fc1565b60001901905090565b60008083156146f95750600090508061473b565b849150614707878785615503565b87549091506001600160801b0380821691600160801b9004168184111561472c578193505b80831115614738578092505b50505b9550959350505050565b600085600c0154905060006147668686868a600601548b60070154886155b8565b63ffffffff838116608083019081526000858152600d8b0160209081526040918290208551815492870151938701516001600160801b03199093166001600160801b039091161767ffffffffffffffff60801b1916600160801b6001600160401b0394851602176001600160c01b0316600160c01b939092169290920217815560608401516001918201805493516001600160a01b03199094166001600160a01b039092169190911763ffffffff60a01b1916600160a01b93851693909302929092179091558401600c8a015560088901549192506148489190879061545016565b60088801556001600160a01b0386166000908152600a8901602052604090205460ff161561488b57600e8701805460018101825560009182526020909120018390555b5050505050505050565b600c830154606090806001600160401b03811180156148b357600080fd5b506040519080825280602002602001820160405280156148dd578160200160208202803683370190505b50915060006148eb85615615565b905060006148f885615615565b90506000806149088985856149ac565b9050831561491857806127100391505b60005b8581101561499f57600083156149615761495e8a838151811061493a57fe5b602002602001015164e8d4a51000026127108802866153099092919063ffffffff16565b90505b6000831561497b576149788a848151811061493a57fe5b90505b80820189848151811061498a57fe5b6020908102919091010152505060010161491b565b5050505050509392505050565b6000816149bb575060006124a2565b826149c957506127106124a2565b60006149dd8361271064e8d4a51000615309565b9050846003015481106149f657505060098301546124a2565b60038501546009860154614a0b918390615309565b9150506124a2565b600c820154600090815b81811015614a60576000818152600d860160205260409020600101546001600160a01b0385811691161415614a5857600101915061256e9050565b600101614a1d565b506000949350505050565b600080614a77836140be565b90504281111580156124a257507f000000000000000000000000000000000000000000000000000000000000000001421092915050565b6060806060614abb612e39565b6012805480602002602001604051908101604052809291908181526020018280548015614b1157602002820191906000526020600020905b81546001600160a01b03168152600190910190602001808311614af3575b5050505050925082516001600160401b0381118015614b2f57600080fd5b50604051908082528060200260200182016040528015614b59578160200160208202803683370190505b50915082516001600160401b0381118015614b7357600080fd5b50604051908082528060200260200182016040528015614b9d578160200160208202803683370190505b50905060005b8351811015614c9e57614bd7848281518110614bbb57fe5b60209081029190910101516007546001600160f01b0316614ca4565b838281518110614be357fe5b60200260200101818152505060138181548110614bfc57fe5b9060005260206000200160009054906101000a90046001600160a01b03166001600160a01b031663eb91d37e6040518163ffffffff1660e01b8152600401604080518083038186803b158015614c5157600080fd5b505afa158015614c65573d6000803e3d6000fd5b505050506040513d6040811015614c7b57600080fd5b50518251839083908110614c8b57fe5b6020908102919091010152600101614ba3565b50909192565b60006001600160a01b038316614cbc5750600061256e565b826001600160a01b031663caeb942b836040518263ffffffff1660e01b815260040180828152602001915050602060405180830381600087803b158015614d0257600080fd5b505af1158015614d16573d6000803e3d6000fd5b505050506040513d6020811015614d2c57600080fd5b5051905061256e565b614d42878785858561565a565b6007870154600380880191909155600888015460048801556005870186905560068701859055870154614d7d908581614d7757fe5b04613015565b86546001600160801b0319166001600160801b039190911617865560048701546007870154614dae919081614d7757fe5b86546001600160801b03918216600160801b02911617865550505060018301805460ff60f01b1916600160f01b1790555050600b8201546011820155600c90910154601290910155565b60006001600160a01b038416614e10575060006124a2565b836001600160a01b031663e587497e84846040518363ffffffff1660e01b815260040180836001600160a01b0316815260200182815260200192505050602060405180830381600087803b158015614e6757600080fd5b505af1158015614e7b573d6000803e3d6000fd5b505050506040513d6020811015614e9157600080fd5b505190506124a2565b6000806000888a1415614eb4575088915086905085615167565b614ebc615ba0565b88815260208101889052614ece615bdd565b60208082018d905260408083018d90528051448184015242818301528151808203830181526060909101909152805191012060005b60208301516040840151614f359190816001818303018681614f2157fe5b0601876000015188602001518f8f8f6156c3565b606087015260408601528084528a518b91908110614f4f57fe5b602002602001015183606001818152505087836060015181518110614f7057fe5b6020026020010151846080018181525050836060015184604001518560800151010190508e6002141561504b5760028106600282040160a0850181905280820360c0860152604085015110801590614fcb57508b8460a00151115b15614ff057825160001901604084015260608401516080850151016020850152615046565b8360c00151846060015111801561500a57508a8460c00151115b1561502b578251600101602084015260408401516080850151018452615046565b50505160408201516060909201519094509092509050615167565b615162565b8e600114156150dc576004810460a0850181905280820360c0860152604085015111801561507c57508b8460a00151115b156150a157825160001901604084015260608401516080850151016020850152615046565b8360c0015184606001511015801561500a57508a8460c00151111561502b578251600101602084015260408401516080850151018452615046565b6004810460c08501819052810360a0850181905260408501511080159061510657508b8460a00151115b1561512b57825160001901604084015260608401516080850151016020850152615162565b8360c00151846060015111801561514557508a8460c00151115b1561502b5782516001016020840152604084015160808501510184525b614f03565b985098509895505050505050565b6000838514156151ad578183868151811061518c57fe5b60200260200101518151811061519e57fe5b60200260200101519050613787565b6000828487600101815181106151bf57fe5b6020026020010151815181106151d157fe5b602002602001015190506000808760020190505b86811161522957848682815181106151f957fe5b60200260200101518151811061520b57fe5b6020026020010151915082821015615221578192505b6001016151e5565b50909695505050505050565b60008085888a038802821361525057898792509250506152fd565b600085878c8151811061525f57fe5b60200260200101518151811061527157fe5b602090810291909101015190508a89016000815b60008c8e830302136152f15789818151811061529d57fe5b60200260200101519150838983815181106152b457fe5b602002602001015114156152ea578782815181106152ce57fe5b6020026020010151850394506152e583828c61588c565b918b01915b8b01615285565b50508990039350909150505b97509795505050505050565b6000808211615352576040805162461bcd60e51b815260206004820152601060248201526f4469766973696f6e206279207a65726f60801b604482015290519081900360640190fd5b8361535f575060006124a2565b8383028385828161536c57fe5b0414156153855782818161537c57fe5b049150506124a2565b600083868161539057fe5b049050600084878161539e57fe5b06905060008587816153ac57fe5b04905060008688816153ba57fe5b0690506154086153d4886153ce86856154aa565b906158f4565b6154026153e186866154aa565b6154026153ee89876154aa565b6154028d6153fc8c8b6154aa565b906154aa565b90615450565b9998505050505050505050565b604080516020808201949094526001600160a01b03929092168282015280518083038201815260609092019052805191012060019081161490565b6000828201838110156124a2576040805162461bcd60e51b815260206004820152601b60248201527f536166654d6174683a206164646974696f6e206f766572666c6f770000000000604482015290519081900360640190fd5b6000826154b95750600061256e565b828202828482816154c657fe5b04146124a25760405162461bcd60e51b8152600401808060200182810382526021815260200180615cce6021913960400191505060405180910390fd5b600a83015460009081906001600160401b038111801561552257600080fd5b5060405190808252806020026020018201604052801561554c578160200160208202803683370190505b50905060005b600a8601548110156155ab5761558c86600a01828154811061557057fe5b6000918252602090912001546001600160a01b03168686614df8565b82828151811061559857fe5b6020908102919091010152600101615552565b506124816005868361595b565b6155c0615c05565b6001600160a01b03871660608201526155d98685615a4b565b6001600160401b031660208201526155f18584615a4b565b6001600160401b031660408201526001600160801b03909116815295945050505050565b600080805b83518110156156535761564984828151811061563257fe5b60200260200101518361545090919063ffffffff16565b915060010161561a565b5092915050565b825161566f90600a8601906020860190615a7c565b5061567c8584848461413e565b805161569291600b870191602090910190615c33565b5060006156a086868561595b565b6007860181905590506156b386826144e0565b8560090181905550505050505050565b60008060008085878b815181106156d657fe5b6020026020010151815181106156e857fe5b60200260200101519050600060026001600160401b038111801561570b57600080fd5b50604051908082528060200260200182016040528015615735578160200160208202803683370190505b509050898160008151811061574657fe5b602002602001018181525050888160018151811061576057fe5b60209081029190910101528c8c6157788d828c61588c565b81805b8281101561583c5760008c828151811061579157fe5b60200260200101519050868c82815181106157a857fe5b602002602001015110156157ff578a81815181106157c257fe5b6020026020010151866000815181106157d757fe5b6020026020010181815101915081815250506157f483838f61588c565b600190920191615833565b8a818151811061580b57fe5b60200260200101518660018151811061582057fe5b6020026020010181815101915081815250505b5060010161577b565b5061584882828d61588c565b808460008151811061585657fe5b60200260200101518560018151811061586b57fe5b60200260200101519750975097505050505050985098509895505050505050565b81831415615899576133be565b8082815181106158a557fe5b60200260200101518184815181106158b957fe5b60200260200101518285815181106158cd57fe5b602002602001018385815181106158e057fe5b602090810291909101019190915252505050565b600080821161594a576040805162461bcd60e51b815260206004820152601a60248201527f536166654d6174683a206469766973696f6e206279207a65726f000000000000604482015290519081900360640190fd5b81838161595357fe5b049392505050565b600080805b600a850154811015615a425760006001600160a01b031685600a01828154811061598657fe5b6000918252602090912001546001600160a01b031614156159a657615a3a565b615a37612710615a278684815181106159bb57fe5b60200260200101518960010160008a600a0187815481106159d857fe5b60009182526020808320909101546001600160a01b03168352820192909252604001902054600b8a01805487908110615a0d57fe5b90600052602060002001546153099092919063ffffffff16565b81615a2e57fe5b84919004615450565b91505b600101615960565b50949350505050565b6000811580615a58575082155b15615a655750600061256e565b615a758364e8d4a5100084615309565b905061256e565b828054828255906000526020600020908101928215615ad1579160200282015b82811115615ad157825182546001600160a01b0319166001600160a01b03909116178255602090920191600190910190615a9c565b50613059929150615c6e565b604051806101c0016040528060008152602001600081526020016000815260200160008152602001600081526020016000815260200160008152602001600081526020016000815260200160008152602001600081526020016000815260200160008152602001600081525090565b5080546000825590600052602060002090810190610e929190615c6e565b6040518060c001604052806060815260200160608152602001600081526020016000815260200160008152602001600081525090565b6040518060e00160405280600081526020016000815260200160008152602001600081526020016000815260200160008152602001600081525090565b6040518060800160405280600081526020016000815260200160008152602001600081525090565b6040805160a08101825260008082526020820181905291810182905260608101829052608081019190915290565b828054828255906000526020600020908101928215615ad1579160200282015b82811115615ad1578251825591602001919060010190615c53565b5b808211156130595760008155600101615c6f56fe53616665436173743a2076616c756520646f65736e27742066697420696e203132382062697473507269636520616c72656164792072657665616c6564206f72206e6f742076616c6964536166654d6174683a206d756c7469706c69636174696f6e206f766572666c6f77a264697066735822122078dfe961d723cdb0aac91de0bfa7f9e1d25316b3f7b036e325c61b5e5671e23864736f6c63430007060033",
  "linkReferences": {},
  "deployedLinkReferences": {}
}