{
  "_format": "hh-sol-artifact-1",
  "contractName": "Inflation",
  "sourceName": "contracts/inflation/implementation/Inflation.sol",
  "abi": [
    {
      "inputs": [
        {
          "internalType": "address",
          "name": "_governance",
          "type": "address"
        },
        {
          "internalType": "contract FlareDaemon",
          "name": "_flareDaemon",
          "type": "address"
        },
        {
          "internalType": "address",
          "name": "_addressUpdater",
          "type": "address"
        },
        {
          "internalType": "uint256",
          "name": "_rewardEpochStartTs",
          "type": "uint256"
        }
      ],
      "stateMutability": "nonpayable",
      "type": "constructor"
    },
    {
      "anonymous": false,
      "inputs": [
        {
          "indexed": false,
          "internalType": "bytes4",
          "name": "selector",
          "type": "bytes4"
        },
        {
          "indexed": false,
          "internalType": "uint256",
          "name": "allowedAfterTimestamp",
          "type": "uint256"
        },
        {
          "indexed": false,
          "internalType": "bytes",
          "name": "encodedCall",
          "type": "bytes"
        }
      ],
      "name": "GovernanceCallTimelocked",
      "type": "event"
    },
    {
      "anonymous": false,
      "inputs": [
        {
          "indexed": false,
          "internalType": "address",
          "name": "initialGovernance",
          "type": "address"
        }
      ],
      "name": "GovernanceInitialised",
      "type": "event"
    },
    {
      "anonymous": false,
      "inputs": [
        {
          "indexed": false,
          "internalType": "address",
          "name": "governanceSettings",
          "type": "address"
        }
      ],
      "name": "GovernedProductionModeEntered",
      "type": "event"
    },
    {
      "anonymous": false,
      "inputs": [
        {
          "indexed": false,
          "internalType": "contract IIInflationAllocation",
          "name": "inflationAllocation",
          "type": "address"
        }
      ],
      "name": "InflationAllocationSet",
      "type": "event"
    },
    {
      "anonymous": false,
      "inputs": [
        {
          "indexed": false,
          "internalType": "uint256",
          "name": "amountWei",
          "type": "uint256"
        }
      ],
      "name": "InflationAuthorized",
      "type": "event"
    },
    {
      "anonymous": false,
      "inputs": [
        {
          "indexed": false,
          "internalType": "contract IIInflationReceiver",
          "name": "inflationReceiver",
          "type": "address"
        },
        {
          "indexed": false,
          "internalType": "uint256",
          "name": "amountWei",
          "type": "uint256"
        }
      ],
      "name": "InflationRewardServiceDailyAuthorizedInflationComputed",
      "type": "event"
    },
    {
      "anonymous": false,
      "inputs": [
        {
          "indexed": false,
          "internalType": "contract IIInflationReceiver",
          "name": "inflationReceiver",
          "type": "address"
        },
        {
          "indexed": false,
          "internalType": "uint256",
          "name": "amountWei",
          "type": "uint256"
        }
      ],
      "name": "InflationRewardServiceTopupComputed",
      "type": "event"
    },
    {
      "anonymous": false,
      "inputs": [
        {
          "indexed": false,
          "internalType": "contract IIInflationReceiver",
          "name": "inflationReceiver",
          "type": "address"
        },
        {
          "indexed": false,
          "internalType": "uint256",
          "name": "amountWei",
          "type": "uint256"
        }
      ],
      "name": "InflationRewardServiceTopupRequestReceived",
      "type": "event"
    },
    {
      "anonymous": false,
      "inputs": [
        {
          "indexed": false,
          "internalType": "uint256",
          "name": "amountWei",
          "type": "uint256"
        },
        {
          "indexed": false,
          "internalType": "uint256",
          "name": "selfDestructAmountWei",
          "type": "uint256"
        }
      ],
      "name": "MintingReceived",
      "type": "event"
    },
    {
      "anonymous": false,
      "inputs": [
        {
          "indexed": false,
          "internalType": "uint256",
          "name": "startTimeStamp",
          "type": "uint256"
        },
        {
          "indexed": false,
          "internalType": "uint256",
          "name": "endTimeStamp",
          "type": "uint256"
        },
        {
          "indexed": false,
          "internalType": "uint256",
          "name": "inflatableSupplyWei",
          "type": "uint256"
        },
        {
          "indexed": false,
          "internalType": "uint256",
          "name": "recognizedInflationWei",
          "type": "uint256"
        }
      ],
      "name": "NewTimeSlotInitialized",
      "type": "event"
    },
    {
      "anonymous": false,
      "inputs": [
        {
          "indexed": false,
          "internalType": "contract IISupply",
          "name": "oldSupply",
          "type": "address"
        },
        {
          "indexed": false,
          "internalType": "contract IISupply",
          "name": "newSupply",
          "type": "address"
        }
      ],
      "name": "SupplySet",
      "type": "event"
    },
    {
      "anonymous": false,
      "inputs": [
        {
          "indexed": false,
          "internalType": "bytes4",
          "name": "selector",
          "type": "bytes4"
        },
        {
          "indexed": false,
          "internalType": "uint256",
          "name": "timestamp",
          "type": "uint256"
        }
      ],
      "name": "TimelockedGovernanceCallCanceled",
      "type": "event"
    },
    {
      "anonymous": false,
      "inputs": [
        {
          "indexed": false,
          "internalType": "bytes4",
          "name": "selector",
          "type": "bytes4"
        },
        {
          "indexed": false,
          "internalType": "uint256",
          "name": "timestamp",
          "type": "uint256"
        }
      ],
      "name": "TimelockedGovernanceCallExecuted",
      "type": "event"
    },
    {
      "anonymous": false,
      "inputs": [
        {
          "components": [
            {
              "internalType": "enum TopupType",
              "name": "topupType",
              "type": "uint8"
            },
            {
              "internalType": "uint256",
              "name": "topupFactorX100",
              "type": "uint256"
            },
            {
              "internalType": "bool",
              "name": "configured",
              "type": "bool"
            }
          ],
          "indexed": false,
          "internalType": "struct TopupConfiguration",
          "name": "topupConfiguration",
          "type": "tuple"
        }
      ],
      "name": "TopupConfigurationSet",
      "type": "event"
    },
    {
      "anonymous": false,
      "inputs": [
        {
          "indexed": false,
          "internalType": "uint256",
          "name": "requestAmountWei",
          "type": "uint256"
        },
        {
          "indexed": false,
          "internalType": "uint256",
          "name": "reRequestAmountWei",
          "type": "uint256"
        }
      ],
      "name": "TopupRequested",
      "type": "event"
    },
    {
      "inputs": [
        {
          "internalType": "bytes4",
          "name": "_selector",
          "type": "bytes4"
        }
      ],
      "name": "cancelGovernanceCall",
      "outputs": [],
      "stateMutability": "nonpayable",
      "type": "function"
    },
    {
      "inputs": [],
      "name": "daemonize",
      "outputs": [
        {
          "internalType": "bool",
          "name": "",
          "type": "bool"
        }
      ],
      "stateMutability": "nonpayable",
      "type": "function"
    },
    {
      "inputs": [
        {
          "internalType": "bytes4",
          "name": "_selector",
          "type": "bytes4"
        }
      ],
      "name": "executeGovernanceCall",
      "outputs": [],
      "stateMutability": "nonpayable",
      "type": "function"
    },
    {
      "inputs": [],
      "name": "flareDaemon",
      "outputs": [
        {
          "internalType": "contract FlareDaemon",
          "name": "",
          "type": "address"
        }
      ],
      "stateMutability": "view",
      "type": "function"
    },
    {
      "inputs": [],
      "name": "getAddressUpdater",
      "outputs": [
        {
          "internalType": "address",
          "name": "_addressUpdater",
          "type": "address"
        }
      ],
      "stateMutability": "view",
      "type": "function"
    },
    {
      "inputs": [],
      "name": "getContractName",
      "outputs": [
        {
          "internalType": "string",
          "name": "",
          "type": "string"
        }
      ],
      "stateMutability": "pure",
      "type": "function"
    },
    {
      "inputs": [],
      "name": "getCurrentTimeSlot",
      "outputs": [
        {
          "components": [
            {
              "internalType": "uint256",
              "name": "recognizedInflationWei",
              "type": "uint256"
            },
            {
              "internalType": "uint256",
              "name": "startTimeStamp",
              "type": "uint256"
            },
            {
              "internalType": "uint256",
              "name": "endTimeStamp",
              "type": "uint256"
            }
          ],
          "internalType": "struct InflationTimeSlots.InflationTimeSlot",
          "name": "",
          "type": "tuple"
        }
      ],
      "stateMutability": "view",
      "type": "function"
    },
    {
      "inputs": [],
      "name": "getCurrentTimeSlotId",
      "outputs": [
        {
          "internalType": "uint256",
          "name": "",
          "type": "uint256"
        }
      ],
      "stateMutability": "view",
      "type": "function"
    },
    {
      "inputs": [],
      "name": "getNextExpectedTopupTs",
      "outputs": [
        {
          "internalType": "uint256",
          "name": "_nextTopupTs",
          "type": "uint256"
        }
      ],
      "stateMutability": "view",
      "type": "function"
    },
    {
      "inputs": [],
      "name": "getRewardServices",
      "outputs": [
        {
          "components": [
            {
              "internalType": "contract IIInflationReceiver",
              "name": "inflationReceiver",
              "type": "address"
            },
            {
              "internalType": "uint256",
              "name": "authorizedInflationWei",
              "type": "uint256"
            },
            {
              "internalType": "uint256",
              "name": "lastDailyAuthorizedInflationWei",
              "type": "uint256"
            },
            {
              "internalType": "uint256",
              "name": "inflationTopupRequestedWei",
              "type": "uint256"
            },
            {
              "internalType": "uint256",
              "name": "inflationTopupDistributedWei",
              "type": "uint256"
            }
          ],
          "internalType": "struct InflationRewardServices.RewardService[]",
          "name": "",
          "type": "tuple[]"
        }
      ],
      "stateMutability": "view",
      "type": "function"
    },
    {
      "inputs": [
        {
          "internalType": "uint256",
          "name": "_index",
          "type": "uint256"
        }
      ],
      "name": "getTimeSlot",
      "outputs": [
        {
          "components": [
            {
              "internalType": "uint256",
              "name": "recognizedInflationWei",
              "type": "uint256"
            },
            {
              "internalType": "uint256",
              "name": "startTimeStamp",
              "type": "uint256"
            },
            {
              "internalType": "uint256",
              "name": "endTimeStamp",
              "type": "uint256"
            }
          ],
          "internalType": "struct InflationTimeSlots.InflationTimeSlot",
          "name": "",
          "type": "tuple"
        }
      ],
      "stateMutability": "view",
      "type": "function"
    },
    {
      "inputs": [
        {
          "internalType": "contract IIInflationReceiver",
          "name": "_inflationReceiver",
          "type": "address"
        }
      ],
      "name": "getTopupConfiguration",
      "outputs": [
        {
          "components": [
            {
              "internalType": "enum TopupType",
              "name": "topupType",
              "type": "uint8"
            },
            {
              "internalType": "uint256",
              "name": "topupFactorX100",
              "type": "uint256"
            },
            {
              "internalType": "bool",
              "name": "configured",
              "type": "bool"
            }
          ],
          "internalType": "struct TopupConfiguration",
          "name": "_topupConfiguration",
          "type": "tuple"
        }
      ],
      "stateMutability": "view",
      "type": "function"
    },
    {
      "inputs": [],
      "name": "getTotals",
      "outputs": [
        {
          "internalType": "uint256",
          "name": "_totalAuthorizedInflationWei",
          "type": "uint256"
        },
        {
          "internalType": "uint256",
          "name": "_totalInflationTopupRequestedWei",
          "type": "uint256"
        },
        {
          "internalType": "uint256",
          "name": "_totalInflationTopupDistributedWei",
          "type": "uint256"
        },
        {
          "internalType": "uint256",
          "name": "_totalRecognizedInflationWei",
          "type": "uint256"
        }
      ],
      "stateMutability": "view",
      "type": "function"
    },
    {
      "inputs": [],
      "name": "governance",
      "outputs": [
        {
          "internalType": "address",
          "name": "",
          "type": "address"
        }
      ],
      "stateMutability": "view",
      "type": "function"
    },
    {
      "inputs": [],
      "name": "governanceSettings",
      "outputs": [
        {
          "internalType": "contract IGovernanceSettings",
          "name": "",
          "type": "address"
        }
      ],
      "stateMutability": "view",
      "type": "function"
    },
    {
      "inputs": [],
      "name": "inflationAllocation",
      "outputs": [
        {
          "internalType": "contract IIInflationAllocation",
          "name": "",
          "type": "address"
        }
      ],
      "stateMutability": "view",
      "type": "function"
    },
    {
      "inputs": [
        {
          "internalType": "address",
          "name": "_initialGovernance",
          "type": "address"
        }
      ],
      "name": "initialise",
      "outputs": [],
      "stateMutability": "nonpayable",
      "type": "function"
    },
    {
      "inputs": [],
      "name": "lastAuthorizationTs",
      "outputs": [
        {
          "internalType": "uint256",
          "name": "",
          "type": "uint256"
        }
      ],
      "stateMutability": "view",
      "type": "function"
    },
    {
      "inputs": [],
      "name": "preInflationCalculation",
      "outputs": [
        {
          "internalType": "contract IIPreInflationCalculation",
          "name": "",
          "type": "address"
        }
      ],
      "stateMutability": "view",
      "type": "function"
    },
    {
      "inputs": [],
      "name": "productionMode",
      "outputs": [
        {
          "internalType": "bool",
          "name": "",
          "type": "bool"
        }
      ],
      "stateMutability": "view",
      "type": "function"
    },
    {
      "inputs": [],
      "name": "receiveMinting",
      "outputs": [],
      "stateMutability": "payable",
      "type": "function"
    },
    {
      "inputs": [],
      "name": "rewardEpochStartTs",
      "outputs": [
        {
          "internalType": "uint256",
          "name": "",
          "type": "uint256"
        }
      ],
      "stateMutability": "view",
      "type": "function"
    },
    {
      "inputs": [],
      "name": "rewardEpochStartedTs",
      "outputs": [
        {
          "internalType": "uint256",
          "name": "",
          "type": "uint256"
        }
      ],
      "stateMutability": "view",
      "type": "function"
    },
    {
      "inputs": [
        {
          "internalType": "contract IIInflationV1",
          "name": "_oldInflation",
          "type": "address"
        },
        {
          "internalType": "uint256",
          "name": "_noOfAnnums",
          "type": "uint256"
        }
      ],
      "name": "setInitialData",
      "outputs": [],
      "stateMutability": "nonpayable",
      "type": "function"
    },
    {
      "inputs": [
        {
          "internalType": "contract IIPreInflationCalculation",
          "name": "_preInflationCalculation",
          "type": "address"
        }
      ],
      "name": "setPreInflationCalculation",
      "outputs": [],
      "stateMutability": "nonpayable",
      "type": "function"
    },
    {
      "inputs": [
        {
          "internalType": "contract IIInflationReceiver",
          "name": "_inflationReceiver",
          "type": "address"
        },
        {
          "internalType": "enum TopupType",
          "name": "_topupType",
          "type": "uint8"
        },
        {
          "internalType": "uint256",
          "name": "_topupFactorX100",
          "type": "uint256"
        }
      ],
      "name": "setTopupConfiguration",
      "outputs": [],
      "stateMutability": "nonpayable",
      "type": "function"
    },
    {
      "inputs": [],
      "name": "supply",
      "outputs": [
        {
          "internalType": "contract IISupply",
          "name": "",
          "type": "address"
        }
      ],
      "stateMutability": "view",
      "type": "function"
    },
    {
      "inputs": [],
      "name": "switchToFallbackMode",
      "outputs": [
        {
          "internalType": "bool",
          "name": "",
          "type": "bool"
        }
      ],
      "stateMutability": "view",
      "type": "function"
    },
    {
      "inputs": [],
      "name": "switchToProductionMode",
      "outputs": [],
      "stateMutability": "nonpayable",
      "type": "function"
    },
    {
      "inputs": [
        {
          "internalType": "bytes4",
          "name": "",
          "type": "bytes4"
        }
      ],
      "name": "timelockedCalls",
      "outputs": [
        {
          "internalType": "uint256",
          "name": "allowedAfterTimestamp",
          "type": "uint256"
        },
        {
          "internalType": "bytes",
          "name": "encodedCall",
          "type": "bytes"
        }
      ],
      "stateMutability": "view",
      "type": "function"
    },
    {
      "inputs": [
        {
          "internalType": "bytes32[]",
          "name": "_contractNameHashes",
          "type": "bytes32[]"
        },
        {
          "internalType": "address[]",
          "name": "_contractAddresses",
          "type": "address[]"
        }
      ],
      "name": "updateContractAddresses",
      "outputs": [],
      "stateMutability": "nonpayable",
      "type": "function"
    }
  ],
  "bytecode": "0x60c06040523480156200001157600080fd5b506040516200401b3803806200401b833981016040819052620000349162000206565b81848481806001600160a01b03811615620000545762000054816200011f565b506001600160a01b038116620000a4576040805162461bcd60e51b815260206004820152601060248201526f5f676f7665726e616e6365207a65726f60801b604482015290519081900360640190fd5b506001600160a01b038116620000f5576040805162461bcd60e51b8152602060048201526011602482015270666c617265206461656d6f6e207a65726f60781b604482015290519081900360640190fd5b60601b6001600160601b031916608052506200011181620001e2565b5060a0525062000278915050565b600054600160a01b900460ff16156200017f576040805162461bcd60e51b815260206004820152601460248201527f696e697469616c6973656420213d2066616c7365000000000000000000000000604482015290519081900360640190fd5b60008054600160a01b60ff60a01b19909116176001600160a01b0319166001600160a01b03831690811790915560408051918252517f9789733827840833afc031fb2ef9ab6894271f77bad2085687cf4ae5c7bee4db916020908290030190a150565b7f714f205b2abd25bef1d06a1af944e38c113fe6160375c4e1d6d5cf28848e771955565b600080600080608085870312156200021c578384fd5b845162000229816200025f565b60208601519094506200023c816200025f565b60408601519093506200024f816200025f565b6060959095015193969295505050565b6001600160a01b03811681146200027557600080fd5b50565b60805160601c60a051613d54620002c760003980610ce15280611a84525080610c795280610fb75280611048528061111052806111e152806115ab5280611ab15280611bdb5250613d546000f3fe6080604052600436106101d85760003560e01c806374e6310e11610102578063c611c2c511610095578063f3f8dcf911610064578063f3f8dcf9146104ec578063f5a9838314610501578063f5f5ba7214610516578063f639c12c14610538576101d8565b8063c611c2c5146104a5578063c9d3dc87146104ad578063e17f212e146104c2578063e22fdece146104d7576101d8565b8063aa5b5eca116100d1578063aa5b5eca1461042e578063b00c0b7614610450578063b6f1f74914610470578063b8cca0cf14610490576101d8565b806374e6310e146103a657806384e10a90146103d45780639d6a890f146103f9578063a107753214610419576101d8565b80635aa6e6751161017a57806367fc40291161014957806367fc40291461032f5780636d0e8c341461034f5780636e61ab96146103715780637292d72714610391576101d8565b80635aa6e675146102d05780635f61a576146102e55780635ff27079146102fa57806362354e031461031a576101d8565b80632b85dcc9116101b65780632b85dcc91461023f57806333ed77cc1461026c5780634b13e8721461028e5780635267a15d146102bb576101d8565b8063047fc9aa146101dd578063095bfd5a1461020857806317f4c8441461022a575b600080fd5b3480156101e957600080fd5b506101f261054d565b6040516101ff91906139b2565b60405180910390f35b34801561021457600080fd5b506102286102233660046135f3565b61055c565b005b34801561023657600080fd5b506101f26105b9565b34801561024b57600080fd5b5061025f61025a366004613929565b6105c8565b6040516101ff9190613abb565b34801561027857600080fd5b50610281610603565b6040516101ff9190613b3f565b34801561029a57600080fd5b506102ae6102a93660046135f3565b610609565b6040516101ff9190613adc565b3480156102c757600080fd5b506101f26106e0565b3480156102dc57600080fd5b506101f2610705565b3480156102f157600080fd5b5061025f61079b565b34801561030657600080fd5b50610228610315366004613797565b6107d4565b34801561032657600080fd5b506101f2610b29565b34801561033b57600080fd5b5061022861034a366004613797565b610b34565b34801561035b57600080fd5b50610364610c1c565b6040516101ff9190613a3d565b34801561037d57600080fd5b5061022861038c3660046137bf565b6112c3565b34801561039d57600080fd5b5061028161142a565b3480156103b257600080fd5b506103c66103c1366004613797565b611436565b6040516101ff929190613b48565b3480156103e057600080fd5b506103e96114dc565b6040516101ff9493929190613b6f565b34801561040557600080fd5b506102286104143660046135f3565b6114f0565b34801561042557600080fd5b506101f26115a9565b34801561043a57600080fd5b506104436115cd565b6040516101ff91906139c6565b34801561045c57600080fd5b5061022861046b36600461360f565b611664565b34801561047c57600080fd5b5061022861048b3660046137ff565b61170f565b34801561049c57600080fd5b50610281611a82565b610228611aa6565b3480156104b957600080fd5b50610281611bb8565b3480156104ce57600080fd5b50610364611bbe565b3480156104e357600080fd5b50610364611bce565b3480156104f857600080fd5b506101f2611c47565b34801561050d57600080fd5b50610228611c56565b34801561052257600080fd5b5061052b611d10565b6040516101ff9190613a7b565b34801561054457600080fd5b50610281611d33565b6003546001600160a01b031681565b600054600160b01b900460ff168061057e5750600054600160a81b900460ff16155b156105ab5761058b611d46565b600480546001600160a01b0319166001600160a01b0383161790556105b6565b6105b6600036611d7d565b50565b6004546001600160a01b031681565b6105d061331e565b6105db600583611f00565b6040805160608101825282548152600183015460208201526002909201549082015292915050565b600e5481565b61061161333f565b60408051808201909152600c81526b06164647265737320697320360a41b602082015282906001600160a01b0382166106665760405162461bcd60e51b815260040161065d9190613a7b565b60405180910390fd5b506001600160a01b0383166000908152600d6020526040908190208151606081019092528054829060ff16600181111561069c57fe5b60018111156106a757fe5b81526001820154602082015260029091015460ff1615156040918201528101519092506106da5760008252607860208301525b50919050565b7f714f205b2abd25bef1d06a1af944e38c113fe6160375c4e1d6d5cf28848e77195490565b60008054600160a81b900460ff16610728576000546001600160a01b0316610795565b60076001609c1b016001600160a01b031663732524946040518163ffffffff1660e01b815260040160206040518083038186803b15801561076857600080fd5b505afa15801561077c573d6000803e3d6000fd5b505050506040513d602081101561079257600080fd5b50515b90505b90565b6107a361331e565b6107ad6005611f76565b60408051606081018252825481526001830154602082015260029092015490820152905090565b60408051630debfda360e41b8152336004820152905160076001609c1b019163debfda30916024808301926020929190829003018186803b15801561081857600080fd5b505afa15801561082c573d6000803e3d6000fd5b505050506040513d602081101561084257600080fd5b5051610885576040805162461bcd60e51b815260206004820152600d60248201526c37b7363c9032bc32b1baba37b960991b604482015290519081900360640190fd5b6001600160e01b03198116600090815260016020526040902080546108f1576040805162461bcd60e51b815260206004820152601a60248201527f74696d656c6f636b3a20696e76616c69642073656c6563746f72000000000000604482015290519081900360640190fd5b8054421015610947576040805162461bcd60e51b815260206004820152601960248201527f74696d656c6f636b3a206e6f7420616c6c6f7765642079657400000000000000604482015290519081900360640190fd5b6000816001018054600181600116156101000203166002900480601f0160208091040260200160405190810160405280929190818152602001828054600181600116156101000203166002900480156109e15780601f106109b6576101008083540402835291602001916109e1565b820191906000526020600020905b8154815290600101906020018083116109c457829003601f168201915b5050506001600160e01b0319861660009081526001602081905260408220828155949550909250610a159150830182613361565b50506000805460ff60b01b1916600160b01b178155604051825130918491819060208401908083835b60208310610a5d5780518252601f199092019160209182019101610a3e565b6001836020036101000a0380198251168184511680821785525050505050509050019150506000604051808303816000865af19150503d8060008114610abf576040519150601f19603f3d011682016040523d82523d6000602084013e610ac4565b606091505b50506000805460ff60b01b19169055604080516001600160e01b03198716815242602082015281519293507fa7326b57fc9cfe267aaea5e7f0b01757154d265620a0585819416ee9ddd2c438929081900390910190a1610b2381611fef565b50505050565b60076001609c1b0181565b610b3c61200c565b6001600160e01b03198116600090815260016020526040902054610ba7576040805162461bcd60e51b815260206004820152601a60248201527f74696d656c6f636b3a20696e76616c69642073656c6563746f72000000000000604482015290519081900360640190fd5b604080516001600160e01b03198316815242602082015281517f7735b2391c38a81419c513e30ca578db7158eadd7101511b23e221c654d19cf8929181900390910190a16001600160e01b03198116600090815260016020819052604082208281559190610c1790830182613361565b505050565b60035460408051808201909152600c81526b06164647265737320697320360a41b60208201526000916001600160a01b03169081610c6d5760405162461bcd60e51b815260040161065d9190613a7b565b50336001600160a01b037f00000000000000000000000000000000000000000000000000000000000000001614610cdf576040805162461bcd60e51b815260206004820152601160248201527037b7363c90333630b932903230b2b6b7b760791b604482015290519081900360640190fd5b7f0000000000000000000000000000000000000000000000000000000000000000421015610d1057600191506112bf565b600e54610d1c5742600e555b610d26600561206b565b610d3857610d334261206f565b610d5d565b6000610d446005611f76565b60020154905080421115610d5b57610d5b4261206f565b505b600c544290610d6f90620151806122ba565b116112ba5742600c556004546001600160a01b031615610de5576004805460408051630ffd91a760e31b815290516001600160a01b0390921692637fec8d3892828201926000929082900301818387803b158015610dcc57600080fd5b505af1158015610de0573d6000803e3d6000fd5b505050505b6000610e9b600854600954610e0442610dfe6005611f76565b9061231d565b600260009054906101000a90046001600160a01b03166001600160a01b031663c853b8d46040518163ffffffff1660e01b8152600401600060405180830381600087803b158015610e5457600080fd5b505af1158015610e68573d6000803e3d6000fd5b505050506040513d6000823e601f3d908101601f19168201604052610e9091908101906136c6565b600793929190612342565b600954909150610eab90826122ba565b60098190556008541015610ebb57fe5b7fe69ea09c0c2d88b5a023a23e65e8ffeb65667d6b7b4076cbee9ba25f5450235581604051610eea9190613b3f565b60405180910390a1600354604051630512107160e51b81526001600160a01b039091169063a2420e2090610f22908490600401613b3f565b600060405180830381600087803b158015610f3c57600080fd5b505af1925050508015610f4d575060015b610fb057610f59613bd2565b80610f645750610f7e565b8060405162461bcd60e51b815260040161065d9190613a7b565b6040518060600160405280603c8152602001613ce3603c913960405162461bcd60e51b815260040161065d9190613a7b565b60006110dd7f00000000000000000000000000000000000000000000000000000000000000006001600160a01b031663106637506040518163ffffffff1660e01b815260040160206040518083038186803b15801561100e57600080fd5b505afa158015611022573d6000803e3d6000fd5b505050506040513d601f19601f820116820180604052508101906110469190613941565b7f00000000000000000000000000000000000000000000000000000000000000006001600160a01b03166362da19a56040518163ffffffff1660e01b815260040160206040518083038186803b15801561109f57600080fd5b505afa1580156110b3573d6000803e3d6000fd5b505050506040513d601f19601f820116820180604052508101906110d79190613941565b9061257e565b905060006110f8600b54600a5461257e90919063ffffffff16565b90508181101561110457fe5b600061117030611167847f00000000000000000000000000000000000000000000000000000000000000006001600160a01b0316634f6a77b56040518163ffffffff1660e01b815260040160206040518083038186803b15801561109f57600080fd5b600791906125db565b600a5490915061118090826122ba565b600a819055600954101561119057fe5b600061119c838561257e565b90507f0cfbdd1f8cebf9e30091fd690a7310feed553243a69b27e7c3f13f68511b1bf282826040516111cf929190613b61565b60405180910390a16001600160a01b037f00000000000000000000000000000000000000000000000000000000000000001663e9de7d6061121084846122ba565b6040518263ffffffff1660e01b815260040161122c9190613b3f565b600060405180830381600087803b15801561124657600080fd5b505af1925050508015611257575060015b6112b457611263613bd2565b80610f645750604080518082018252601d81527f756e6b6e6f776e206572726f722e20726571756573744d696e74696e670000006020820152905162461bcd60e51b815261065d9190600401613a7b565b50505050505b600191505b5090565b60408051808201909152600c81526b06164647265737320697320360a41b602082015283906001600160a01b03821661130f5760405162461bcd60e51b815260040161065d9190613a7b565b50600054600160b01b900460ff16806113325750600054600160a81b900460ff16155b1561141f5761133f611d46565b600083600181111561134d57fe5b141561139657604080518082019091526009815268746f707570206c6f7760b81b6020820152606483116113945760405162461bcd60e51b815260040161065d9190613a7b565b505b6001600160a01b0384166000908152600d6020526040902080548490829060ff1916600183818111156113c557fe5b0217905550600180820184905560028201805460ff191690911790556040517fcf085312d79a75faa5f1b9f6bec58a64813338f5e5e5759573cab22c6da2d25b90611411908390613b0b565b60405180910390a150610b23565b610b23600036611d7d565b60006107956005612940565b600160208181526000928352604092839020805481840180548651600296821615610100026000190190911695909504601f810185900485028601850190965285855290949193929091908301828280156114d25780601f106114a7576101008083540402835291602001916114d2565b820191906000526020600020905b8154815290600101906020018083116114b557829003601f168201915b5050505050905082565b600954600a54600b54600854929391929091565b600054600160a01b900460ff1615611546576040805162461bcd60e51b8152602060048201526014602482015273696e697469616c6973656420213d2066616c736560601b604482015290519081900360640190fd5b60008054600160a01b60ff60a01b19909116176001600160a01b0319166001600160a01b03831690811790915560408051918252517f9789733827840833afc031fb2ef9ab6894271f77bad2085687cf4ae5c7bee4db916020908290030190a150565b7f000000000000000000000000000000000000000000000000000000000000000081565b60606007600001805480602002602001604051908101604052809291908181526020016000905b8282101561165b5760008481526020908190206040805160a0810182526005860290920180546001600160a01b03168352600180820154848601526002820154928401929092526003810154606084015260040154608083015290835290920191016115f4565b50505050905090565b61166c6106e0565b6001600160a01b0316336001600160a01b0316146116c8576040805162461bcd60e51b815260206004820152601460248201527337b7363c9030b2323932b9b9903ab83230ba32b960611b604482015290519081900360640190fd5b6117016116fc83836040518060400160405280600e81526020016d20b2323932b9b9aab83230ba32b960911b815250612999565b612ac8565b61170b8282612aec565b5050565b61171761200c565b600c54156117375760405162461bcd60e51b815260040161065d90613a8e565b816001600160a01b031663c9d3dc876040518163ffffffff1660e01b8152600401602060405180830381600087803b15801561177257600080fd5b505af1158015611786573d6000803e3d6000fd5b505050506040513d601f19601f820116820180604052508101906117aa9190613941565b600c81905550816001600160a01b03166333ed77cc6040518163ffffffff1660e01b8152600401602060405180830381600087803b1580156117eb57600080fd5b505af11580156117ff573d6000803e3d6000fd5b505050506040513d601f19601f820116820180604052508101906118239190613941565b600e5560008080805b848110156119d85760405163f64cee6160e01b81526000906001600160a01b0388169063f64cee6190611863908590600401613b3f565b60006040518083038186803b15801561187b57600080fd5b505afa15801561188f573d6000803e3d6000fd5b505050506040513d6000823e601f3d908101601f191682016040526118b7919081019061382a565b905060005b606082015151518110156119ce57600082606001516000015182815181106118e057fe5b6020026020010151905060008061190583600001516007612c0c90919063ffffffff16565b915091506000821561193457600780548390811061191f57fe5b9060005260206000209060050201905061197a565b5060078054600181018255600091909152835160059091027fa66cc928b5edb82af9bd49922954155ab7b0942694bea4ce44661d9a8736c688019061197a908290612c6f565b604084015160028201556020840151600180830180548301905560608601516003840180548201905560809096015160049093018054840190559a0199989093019796909201959290920191506118bc9050565b505060010161182c565b506009839055600a91909155600b55600881905560058054600181018255600091909152600e547f036b6384b5eca791c62761152d0c79bb0604c104a5fb6f4eb0703f3154bb3db1600392909202918201557f036b6384b5eca791c62761152d0c79bb0604c104a5fb6f4eb0703f3154bb3db0810191909155600c546201517f017f036b6384b5eca791c62761152d0c79bb0604c104a5fb6f4eb0703f3154bb3db2909101555050565b7f000000000000000000000000000000000000000000000000000000000000000081565b336001600160a01b037f00000000000000000000000000000000000000000000000000000000000000001614611b17576040805162461bcd60e51b815260206004820152601160248201527037b7363c90333630b932903230b2b6b7b760791b604482015290519081900360640190fd5b6000611b236007612ca9565b600b54909150611b3390826122ba565b600b819055600a541015611b4357fe5b478015611b7b5760405161dead9082156108fc029083906000818181858888f19350505050158015611b79573d6000803e3d6000fd5b505b7f992ba5c7b7d6602101783b4d28d0b93011fb883039e68c729b933bf7116786278282604051611bac929190613b61565b60405180910390a15050565b600c5481565b600054600160a81b900460ff1681565b6000336001600160a01b037f00000000000000000000000000000000000000000000000000000000000000001614611c41576040805162461bcd60e51b815260206004820152601160248201527037b7363c90333630b932903230b2b6b7b760791b604482015290519081900360640190fd5b50600090565b6002546001600160a01b031681565b611c5e61200c565b600054600160a81b900460ff1615611cbd576040805162461bcd60e51b815260206004820152601a60248201527f616c726561647920696e2070726f64756374696f6e206d6f6465000000000000604482015290519081900360640190fd5b60008054600161ff0160a01b031916600160a81b1790556040805160076001609c1b01815290517f83af113638b5422f9e977cebc0aaf0eaf2188eb9a8baae7f9d46c42b33a1560c9181900360200190a1565b60408051808201909152600981526824b7333630ba34b7b760b91b602082015290565b600c5460009061079590620151806122ba565b600054600160b01b900460ff1615611d7357333014611d6157fe5b6000805460ff60b01b19169055611d7b565b611d7b61200c565b565b611d8561200c565b600082359050600060076001609c1b016001600160a01b0316636221a54b6040518163ffffffff1660e01b815260040160206040518083038186803b158015611dcd57600080fd5b505afa158015611de1573d6000803e3d6000fd5b505050506040513d6020811015611df757600080fd5b505160408051808201825242830180825282516020601f89018190048102820181019094528781529394509290918281019190889088908190840183828082843760009201829052509390945250506001600160e01b03198616815260016020818152604090922084518155848301518051919450611e7b939285019201906133a5565b509050507fed948300a3694aa01d4a6b258bfd664350193d770c0b51f8387277f6d83ea3b68382878760405180856001600160e01b0319168152602001848152602001806020018281038252848482818152602001925080828437600083820152604051601f909101601f191690920182900397509095505050505050a15050505050565b6000611f0b8361206b565b82106040518060400160405280600c81526020016b1b9bc81d1a5b59481cdb1bdd60a21b81525090611f505760405162461bcd60e51b815260040161065d9190613a7b565b50826000018281548110611f6057fe5b9060005260206000209060030201905092915050565b600080611f828361206b565b116040518060400160405280600c81526020016b1b9bc81d1a5b59481cdb1bdd60a21b81525090611fc65760405162461bcd60e51b815260040161065d9190613a7b565b5081600001826001015481548110611fda57fe5b90600052602060002090600302019050919050565b3d604051818101604052816000823e8215612008578181f35b8181fd5b612014610705565b6001600160a01b0316336001600160a01b031614611d7b576040805162461bcd60e51b815260206004820152600f60248201526e6f6e6c7920676f7665726e616e636560881b604482015290519081900360640190fd5b5490565b600360009054906101000a90046001600160a01b03166001600160a01b0316633c8c461c6040518163ffffffff1660e01b8152600401600060405180830381600087803b1580156120bf57600080fd5b505af11580156120d3573d6000803e3d6000fd5b505050506000600360009054906101000a90046001600160a01b03166001600160a01b0316631b73b4cb6040518163ffffffff1660e01b815260040160206040518083038186803b15801561212757600080fd5b505afa15801561213b573d6000803e3d6000fd5b505050506040513d601f19601f8201168201806040525081019061215f9190613941565b9050600260009054906101000a90046001600160a01b03166001600160a01b0316638f0612b36040518163ffffffff1660e01b8152600401602060405180830381600087803b1580156121b157600080fd5b505af19250505080156121e1575060408051601f3d908101601f191682019092526121de91810190613941565b60015b612225576121ed613bd2565b80610f645750604051806060016040528060288152602001613c9a6028913960405162461bcd60e51b815260040161065d9190613a7b565b60006122346005858585612e06565b6040805160608101825282548082526001840154602083015260029093015491810191909152600854909250612269916122ba565b6008556020810151604080830151835191517fd95e6623748edc96036b6d22300c879547b6fe4d203faa4162c6b7ec38867577936122ac93909291889190613b6f565b60405180910390a150505050565b600082820183811015612314576040805162461bcd60e51b815260206004820152601b60248201527f536166654d6174683a206164646974696f6e206f766572666c6f770000000000604482015290519081900360640190fd5b90505b92915050565b6000826002015482111561232d57fe5b612314600161233c8585612ecb565b906122ba565b600081516000141561235657506000612575565b600061236c84612366888861257e565b90612efc565b915081905061271060005b84518110156125715760006123ae86838151811061239157fe5b6020026020010151602001518486612f639092919063ffffffff16565b90506123ba848261257e565b93506123e68683815181106123cb57fe5b6020026020010151602001518461257e90919063ffffffff16565b925060008061240c8c8986815181106123fb57fe5b602002602001015160000151612c0c565b9150915081156124505760008c600001828154811061242757fe5b9060005260206000209060050201905061244a848261306390919063ffffffff16565b506124a1565b8b54600181018d5560008d815260209020895160059092020190612495908a908790811061247a57fe5b60200260200101516000015182612c6f90919063ffffffff16565b61249f8185613063565b505b8784815181106124ad57fe5b6020026020010151600001516001600160a01b031663e2739563846040518263ffffffff1660e01b81526004016124e49190613b3f565b600060405180830381600087803b1580156124fe57600080fd5b505af1158015612512573d6000803e3d6000fd5b505050507f0b86a1e961341119b156e2e5b986ca99709eb0591aa39750d01a3c2e0399add788858151811061254357fe5b6020026020010151600001518460405161255e929190613a48565b60405180910390a1505050600101612377565b5050505b95945050505050565b6000828211156125d5576040805162461bcd60e51b815260206004820152601e60248201527f536166654d6174683a207375627472616374696f6e206f766572666c6f770000604482015290519081900360640190fd5b50900390565b8254600090819067ffffffffffffffff811180156125f857600080fd5b50604051908082528060200260200182016040528015612622578160200160208202803683370190505b50905060005b855481101561273f576000856001600160a01b0316634b13e87288600001848154811061265157fe5b60009182526020909120600590910201546040516001600160e01b031960e084901b16815261268c916001600160a01b0316906004016139b2565b60606040518083038186803b1580156126a457600080fd5b505afa1580156126b8573d6000803e3d6000fd5b505050506040513d601f19601f820116820180604052508101906126dc91906138c3565b9050600061270f828960000185815481106126f357fe5b906000526020600020906005020161307f90919063ffffffff16565b90508084848151811061271e57fe5b602090810291909101015261273385826122ba565b94505050600101612628565b5082821115612840578282038260005b875481101561283257600084828151811061276657fe5b6020026020010151111561282a57600061279e85838151811061278557fe5b602002602001015184866131fa9092919063ffffffff16565b90506127c68583815181106127af57fe5b60200260200101518461257e90919063ffffffff16565b92506127ee818684815181106127d857fe5b602002602001015161257e90919063ffffffff16565b8583815181106127fa57fe5b602090810291909101015261280f868261257e565b955061281b848261257e565b9350826128285750612832565b505b60010161274f565b508484111561283d57fe5b50505b60005b85548110156129375761289282828151811061285b57fe5b602002602001015187600001838154811061287257fe5b9060005260206000209060050201600301546122ba90919063ffffffff16565b8660000182815481106128a157fe5b9060005260206000209060050201600301819055507f86ad53975f577f32dfee1a85bbe2b8c97e435f9ad4c235a3cb220929897727f08660000182815481106128e657fe5b600091825260209091206005909102015483516001600160a01b039091169084908490811061291157fe5b6020026020010151604051612927929190613a48565b60405180910390a1600101612843565b50509392505050565b60008061294c8361206b565b116040518060400160405280600c81526020016b1b9bc81d1a5b59481cdb1bdd60a21b815250906129905760405162461bcd60e51b815260040161065d9190613a7b565b50506001015490565b600080826040516020018080602001828103825283818151815260200191508051906020019080838360005b838110156129dd5781810151838201526020016129c5565b50505050905090810190601f168015612a0a5780820380516001836020036101000a031916815260200191505b50925050506040516020818303038152906040528051906020012090506000805b8651811015612a7257868181518110612a4057fe5b6020026020010151831415612a6a57858181518110612a5b57fe5b60200260200101519150612a72565b600101612a2b565b506001600160a01b038116612abd576040805162461bcd60e51b815260206004820152600c60248201526b61646472657373207a65726f60a01b604482015290519081900360640190fd5b9150505b9392505050565b7f714f205b2abd25bef1d06a1af944e38c113fe6160375c4e1d6d5cf28848e771955565b6000612b17838360405180604001604052806006815260200165537570706c7960d01b815250612999565b6003546040519192507f9a9b245c8db671c90d6db95f7ff0c18c15378a1d55ee4aea21759be8ad27d30e91612b57916001600160a01b0316908490613a61565b60405180910390a1600380546001600160a01b0319166001600160a01b03831617905560408051808201909152601381527224b7333630ba34b7b720b63637b1b0ba34b7b760691b6020820152612bb19084908490612999565b600280546001600160a01b0319166001600160a01b0392831617908190556040517f53cd61e1fdebbc2af2597f77a6a3681c1abbd8771874cc85cf65e035cf85b2af92612bff9216906139b2565b60405180910390a1505050565b600080805b8454811015612c6757836001600160a01b0316856000018281548110612c3357fe5b60009182526020909120600590910201546001600160a01b03161415612c5f5780915060019250612c67565b600101612c11565b509250929050565b81546001600160a01b0319166001600160a01b03919091161781556000600182018190556002820181905560038201819055600490910155565b6000805b82548110156106da576000612cdd846000018381548110612cca57fe5b9060005260206000209060050201613234565b9050612d0e81856000018481548110612cf257fe5b906000526020600020906005020161325190919063ffffffff16565b836000018281548110612d1d57fe5b60009182526020822060059091020154604080516306201f1d60e01b815290516001600160a01b03909216926306201f1d928592600480820193929182900301818588803b158015612d6e57600080fd5b505af1158015612d82573d6000803e3d6000fd5b5050505050612d9a81846122ba90919063ffffffff16565b92507f8178963edaf663c9d0ed4a9433661fd6b5a9a556f4df742fafea7dabdd350cdb846000018381548110612dcc57fe5b6000918252602090912060059091020154604051612df5916001600160a01b0316908490613a48565b60405180910390a150600101612cad565b600080612e128661206b565b1115612e6957612e2185611f76565b60020154841160405180604001604052806009815260200168746f6f206561726c7960b81b81525090612e675760405162461bcd60e51b815260040161065d9190613a7b565b505b508354600181810186556000868152602090206003909202909101908101849055612e94838361326c565b8155612e9f8461329b565b6002820155845460011015612ec357600185810154612ebd916122ba565b60018601555b949350505050565b600282015460009080831115612ee5576000915050612317565b6201518083820304915050612317565b5092915050565b6000808211612f52576040805162461bcd60e51b815260206004820152601a60248201527f536166654d6174683a206469766973696f6e206279207a65726f000000000000604482015290519081900360640190fd5b818381612f5b57fe5b049392505050565b6000808211612fac576040805162461bcd60e51b815260206004820152601060248201526f4469766973696f6e206279207a65726f60801b604482015290519081900360640190fd5b83612fb957506000612ac1565b83830283858281612fc657fe5b041415612fdf57828181612fd657fe5b04915050612ac1565b6000838681612fea57fe5b0490506000848781612ff857fe5b069050600085878161300657fe5b049050600086888161301457fe5b0690506130566130288861236686856132af565b61233c61303586866132af565b61233c61304289876132af565b61233c8d6130508c8b6132af565b906132af565b9998505050505050505050565b600182015461307290826122ba565b6001830155600290910155565b6000808360000160009054906101000a90046001600160a01b03166001600160a01b031663af04cd3b6040518163ffffffff1660e01b815260040160206040518083038186803b1580156130d257600080fd5b505afa925050508015613102575060408051601f3d908101601f191682019092526130ff91810190613941565b60015b613118575082546001600160a01b03163161311b565b90505b60008351600181111561312a57fe5b14156131c5576020830151600285015460009161314991906064612f63565b90506000828211156131625761315f828461257e565b90505b600061316d87613234565b905081811115613180576000945061318d565b61318a828261257e565b94505b60006131ae88600401546110d7848b6001015461257e90919063ffffffff16565b9050808611156131bc578095505b50505050612ef5565b6001835160018111156131d457fe5b14156131f457600384015460018501546131ed9161257e565b9150612ef5565b60009150fe5b600080613208858585612f63565b90506000838061321457fe5b85870990508015613228578160010161322a565b815b9695505050505050565b60006123178260040154836003015461257e90919063ffffffff16565b600482015461326090826122ba565b82600401819055505050565b600061231461327f84846201d4c0612f63565b6132966b1027e72f1f12813088000000600c612efc565b613308565b600061231760016110d78462278d006122ba565b6000826132be57506000612317565b828202828482816132cb57fe5b04146123145760405162461bcd60e51b8152600401808060200182810382526021815260200180613cc26021913960400191505060405180910390fd5b60008183106133175781612314565b5090919050565b60405180606001604052806000815260200160008152602001600081525090565b6040805160608101909152806000815260006020820181905260409091015290565b50805460018160011615610100020316600290046000825580601f1061338757506105b6565b601f0160209004906000526020600020908101906105b69190613429565b828054600181600116156101000203166002900490600052602060002090601f0160209004810192826133db5760008555613421565b82601f106133f457805160ff1916838001178555613421565b82800160010185558215613421579182015b82811115613421578251825591602001919060010190613406565b506112bf9291505b5b808211156112bf576000815560010161342a565b600082601f83011261344e578081fd5b8135602061346361345e83613bae565b613b8a565b828152818101908583018385028701840188101561347f578586fd5b855b858110156134a657813561349481613c77565b84529284019290840190600101613481565b5090979650505050505050565b600060a082840312156134c4578081fd5b6040805160a0810167ffffffffffffffff82821081831117156134e357fe5b81845282945085519150808211156134fa57600080fd5b818601915086601f83011261350e57600080fd5b8151602061351e61345e83613bae565b8281528181019085830160c0808602880185018d101561353d57600080fd5b60009750875b868110156135bb5781838f031215613559578889fd5b8a518281018181108a8211171561356c57fe5b8c52835161357981613c77565b815283870151878201528b8401518c820152606080850151908201526080808501519082015260a0808501519082015285529385019391810191600101613543565b505050808752505080880151818601525050505081840151828201526060840151606082015260808401516080820152505092915050565b600060208284031215613604578081fd5b813561231481613c77565b60008060408385031215613621578081fd5b823567ffffffffffffffff80821115613638578283fd5b818501915085601f83011261364b578283fd5b8135602061365b61345e83613bae565b82815281810190858301838502870184018b1015613677578788fd5b8796505b8487101561369957803583526001969096019591830191830161367b565b50965050860135925050808211156136af578283fd5b506136bc8582860161343e565b9150509250929050565b600060208083850312156136d8578182fd5b825167ffffffffffffffff808211156136ef578384fd5b818501915085601f830112613702578384fd5b815161371061345e82613bae565b818152848101908486016040808502870188018b101561372e578889fd5b8896505b848710156137885780828c031215613748578889fd5b8051818101818110888211171561375b57fe5b8252825161376881613c77565b815282890151898201528452600196909601959287019290810190613732565b50909998505050505050505050565b6000602082840312156137a8578081fd5b81356001600160e01b031981168114612314578182fd5b6000806000606084860312156137d3578081fd5b83356137de81613c77565b925060208401356137ee81613c8c565b929592945050506040919091013590565b60008060408385031215613811578182fd5b823561381c81613c77565b946020939093013593505050565b60006020828403121561383b578081fd5b815167ffffffffffffffff80821115613852578283fd5b9083019060808286031215613865578283fd5b60405160808101818110838211171561387a57fe5b80604052508251815260208301516020820152604083015160408201526060830151828111156138a8578485fd5b6138b4878286016134b3565b60608301525095945050505050565b6000606082840312156138d4578081fd5b6040516060810181811067ffffffffffffffff821117156138f157fe5b60405282516138ff81613c8c565b8152602083810151908201526040830151801515811461391d578283fd5b60408201529392505050565b60006020828403121561393a578081fd5b5035919050565b600060208284031215613952578081fd5b5051919050565b60008151808452815b8181101561397e57602081850181015186830182015201613962565b8181111561398f5782602083870101525b50601f01601f19169290920160200192915050565b600281106139ae57fe5b9052565b6001600160a01b0391909116815260200190565b602080825282518282018190526000919060409081850190868401855b82811015613a3057815180516001600160a01b0316855286810151878601528581015186860152606080820151908601526080908101519085015260a090930192908501906001016139e3565b5091979650505050505050565b901515815260200190565b6001600160a01b03929092168252602082015260400190565b6001600160a01b0392831681529116602082015260400190565b6000602082526123146020830184613959565b602080825260139082015272185b1c9958591e481a5b9a5d1a585b1a5e9959606a1b604082015260600190565b81518152602080830151908201526040918201519181019190915260600190565b6000606082019050613aef8284516139a4565b6020830151602083015260408301511515604083015292915050565b6000606082019050613b218260ff8554166139a4565b6001830154602083015260029092015460ff16151560409091015290565b90815260200190565b600083825260406020830152612ec36040830184613959565b918252602082015260400190565b93845260208401929092526040830152606082015260800190565b60405181810167ffffffffffffffff81118282101715613ba657fe5b604052919050565b600067ffffffffffffffff821115613bc257fe5b5060209081020190565b60e01c90565b600060443d1015613be257610798565b600481823e6308c379a0613bf68251613bcc565b14613c0057610798565b6040513d600319016004823e80513d67ffffffffffffffff8160248401118184111715613c305750505050610798565b82840192508251915080821115613c4a5750505050610798565b503d83016020828401011115613c6257505050610798565b601f01601f1916810160200160405291505090565b6001600160a01b03811681146105b657600080fd5b600281106105b657600080fdfe756e6b6e6f776e206572726f722e2067657454696d65536c6f7450657263656e7461676542697073536166654d6174683a206d756c7469706c69636174696f6e206f766572666c6f77756e6b6e6f776e206572726f722e20757064617465417574686f72697a6564496e666c6174696f6e416e6443697263756c6174696e67537570706c79a2646970667358221220b44022ef453d18baf9eea94620682c5446836c882bcd93dafb826f4cb249e87e64736f6c63430007060033",
  "linkReferences": {},
  "deployedLinkReferences": {}
}