{
  "_format": "hh-sol-artifact-1",
  "contractName": "FtsoMedianMock",
  "sourceName": "contracts/ftso/mock/FtsoMedianMock.sol",
  "abi": [
    {
      "inputs": [
        {
          "internalType": "uint256",
          "name": "_start",
          "type": "uint256"
        },
        {
          "internalType": "uint256",
          "name": "_end",
          "type": "uint256"
        },
        {
          "internalType": "uint256[]",
          "name": "_index",
          "type": "uint256[]"
        },
        {
          "internalType": "uint256[]",
          "name": "_price",
          "type": "uint256[]"
        }
      ],
      "name": "closestPriceFix",
      "outputs": [
        {
          "internalType": "uint256",
          "name": "",
          "type": "uint256"
        }
      ],
      "stateMutability": "pure",
      "type": "function"
    },
    {
      "inputs": [
        {
          "internalType": "uint256[]",
          "name": "_prices",
          "type": "uint256[]"
        }
      ],
      "name": "computeSimple",
      "outputs": [
        {
          "internalType": "uint256",
          "name": "_finalMedianPrice",
          "type": "uint256"
        },
        {
          "internalType": "uint256[]",
          "name": "",
          "type": "uint256[]"
        }
      ],
      "stateMutability": "pure",
      "type": "function"
    },
    {
      "inputs": [
        {
          "internalType": "uint256[]",
          "name": "_price",
          "type": "uint256[]"
        },
        {
          "internalType": "uint256[]",
          "name": "_weight",
          "type": "uint256[]"
        }
      ],
      "name": "computeWeighted",
      "outputs": [
        {
          "internalType": "uint256[]",
          "name": "_index",
          "type": "uint256[]"
        },
        {
          "components": [
            {
              "internalType": "uint256",
              "name": "medianIndex",
              "type": "uint256"
            },
            {
              "internalType": "uint256",
              "name": "quartile1Index",
              "type": "uint256"
            },
            {
              "internalType": "uint256",
              "name": "quartile3Index",
              "type": "uint256"
            },
            {
              "internalType": "uint256",
              "name": "leftSum",
              "type": "uint256"
            },
            {
              "internalType": "uint256",
              "name": "rightSum",
              "type": "uint256"
            },
            {
              "internalType": "uint256",
              "name": "medianWeight",
              "type": "uint256"
            },
            {
              "internalType": "uint256",
              "name": "lowWeightSum",
              "type": "uint256"
            },
            {
              "internalType": "uint256",
              "name": "rewardedWeightSum",
              "type": "uint256"
            },
            {
              "internalType": "uint256",
              "name": "highWeightSum",
              "type": "uint256"
            },
            {
              "internalType": "uint256",
              "name": "finalMedianPrice",
              "type": "uint256"
            },
            {
              "internalType": "uint256",
              "name": "quartile1Price",
              "type": "uint256"
            },
            {
              "internalType": "uint256",
              "name": "quartile3Price",
              "type": "uint256"
            },
            {
              "internalType": "uint256",
              "name": "lowElasticBandPrice",
              "type": "uint256"
            },
            {
              "internalType": "uint256",
              "name": "highElasticBandPrice",
              "type": "uint256"
            }
          ],
          "internalType": "struct FtsoMedian.Data",
          "name": "_d",
          "type": "tuple"
        },
        {
          "internalType": "uint256[]",
          "name": "",
          "type": "uint256[]"
        },
        {
          "internalType": "uint256[]",
          "name": "",
          "type": "uint256[]"
        }
      ],
      "stateMutability": "view",
      "type": "function"
    },
    {
      "inputs": [
        {
          "internalType": "uint256",
          "name": "_left0",
          "type": "uint256"
        },
        {
          "internalType": "uint256",
          "name": "_right0",
          "type": "uint256"
        },
        {
          "internalType": "uint256",
          "name": "_pivotId",
          "type": "uint256"
        },
        {
          "internalType": "uint256",
          "name": "_leftSum0",
          "type": "uint256"
        },
        {
          "internalType": "uint256",
          "name": "_rightSum0",
          "type": "uint256"
        },
        {
          "internalType": "uint256[]",
          "name": "_index",
          "type": "uint256[]"
        },
        {
          "internalType": "uint256[]",
          "name": "_price",
          "type": "uint256[]"
        },
        {
          "internalType": "uint256[]",
          "name": "_weight",
          "type": "uint256[]"
        }
      ],
      "name": "partition",
      "outputs": [
        {
          "internalType": "uint256",
          "name": "_pos",
          "type": "uint256"
        },
        {
          "internalType": "uint256",
          "name": "_leftSum",
          "type": "uint256"
        },
        {
          "internalType": "uint256",
          "name": "_rightSum",
          "type": "uint256"
        },
        {
          "internalType": "uint256[]",
          "name": "",
          "type": "uint256[]"
        },
        {
          "internalType": "uint256[]",
          "name": "",
          "type": "uint256[]"
        },
        {
          "internalType": "uint256[]",
          "name": "",
          "type": "uint256[]"
        }
      ],
      "stateMutability": "pure",
      "type": "function"
    },
    {
      "inputs": [
        {
          "internalType": "uint256",
          "name": "_start",
          "type": "uint256"
        },
        {
          "internalType": "uint256",
          "name": "_end",
          "type": "uint256"
        },
        {
          "internalType": "int256",
          "name": "_direction",
          "type": "int256"
        },
        {
          "internalType": "uint256",
          "name": "_sumInit",
          "type": "uint256"
        },
        {
          "internalType": "uint256[]",
          "name": "_index",
          "type": "uint256[]"
        },
        {
          "internalType": "uint256[]",
          "name": "_price",
          "type": "uint256[]"
        },
        {
          "internalType": "uint256[]",
          "name": "_weight",
          "type": "uint256[]"
        }
      ],
      "name": "samePriceFix",
      "outputs": [
        {
          "internalType": "uint256",
          "name": "_pos",
          "type": "uint256"
        },
        {
          "internalType": "uint256",
          "name": "_sum",
          "type": "uint256"
        },
        {
          "internalType": "uint256[]",
          "name": "",
          "type": "uint256[]"
        },
        {
          "internalType": "uint256[]",
          "name": "",
          "type": "uint256[]"
        },
        {
          "internalType": "uint256[]",
          "name": "",
          "type": "uint256[]"
        }
      ],
      "stateMutability": "pure",
      "type": "function"
    },
    {
      "inputs": [
        {
          "internalType": "uint256",
          "name": "_i",
          "type": "uint256"
        },
        {
          "internalType": "uint256",
          "name": "_j",
          "type": "uint256"
        },
        {
          "internalType": "uint256[]",
          "name": "_index",
          "type": "uint256[]"
        }
      ],
      "name": "swap",
      "outputs": [
        {
          "internalType": "uint256[]",
          "name": "",
          "type": "uint256[]"
        }
      ],
      "stateMutability": "pure",
      "type": "function"
    }
  ],
  "bytecode": "0x608060405234801561001057600080fd5b50611360806100206000396000f3fe608060405234801561001057600080fd5b50600436106100625760003560e01c8063053e146c146100675780631218fd131461009057806347ea4532146100b15780636094f29f146100d1578063768d2711146100f657806394a3af711461011a575b600080fd5b61007a610075366004610f47565b61013d565b604051610087919061125f565b60405180910390f35b6100a361009e366004610e65565b610156565b604051610087929190611268565b6100c46100bf366004610ef9565b610169565b6040516100879190611155565b6100e46100df366004611066565b61017d565b604051610087969594939291906112d2565b610109610104366004610fbb565b6101b8565b604051610087959493929190611281565b61012d610128366004610e98565b6101e4565b604051610087949392919061116f565b600061014b8585858561020a565b90505b949350505050565b60006060610163836102ca565b93915050565b60606101768484846103ef565b5092915050565b600080600060608060606101978e8e8e8e8e8e8e8e610458565b91975095509350889250879150869050985098509850985098509892505050565b60008060608060606101cf8c8c8c8c8c8c8c610623565b909d909c50979a509598509396505050505050565b60606101ee610d05565b6060806101fd868660006106f7565b9097909695945092505050565b600083851415610242578183868151811061022157fe5b60200260200101518151811061023357fe5b6020026020010151905061014e565b60008284876001018151811061025457fe5b60200260200101518151811061026657fe5b602002602001015190506000808760020190505b8681116102be578486828151811061028e57fe5b6020026020010151815181106102a057fe5b60200260200101519150828210156102b6578192505b60010161027a565b50909695505050505050565b8051600090806102d657fe5b60015b818110156103825760008482815181106102ef57fe5b6020026020010151905060008290505b60008111801561032457508186600183038151811061031a57fe5b6020026020010151115b156103605785600182038151811061033857fe5b602002602001015186828151811061034c57fe5b6020908102919091010152600019016102ff565b8186828151811061036d57fe5b602090810291909101015250506001016102d9565b5060028104600180831614156103af5783818151811061039e57fe5b6020026020010151925050506103ea565b60028482815181106103bd57fe5b60200260200101518560018403815181106103d457fe5b602002602001015101816103e457fe5b04925050505b919050565b818314156103fc57610453565b80828151811061040857fe5b602002602001015181848151811061041c57fe5b602002602001015182858151811061043057fe5b6020026020010183858151811061044357fe5b6020908102919091010191909152525b505050565b60008060008085878b8151811061046b57fe5b60200260200101518151811061047d57fe5b602002602001015190506000600267ffffffffffffffff811180156104a157600080fd5b506040519080825280602002602001820160405280156104cb578160200160208202803683370190505b50905089816000815181106104dc57fe5b60200260200101818152505088816001815181106104f657fe5b60209081029190910101528c8c61050e8d828c6103ef565b81805b828110156105d25760008c828151811061052757fe5b60200260200101519050868c828151811061053e57fe5b60200260200101511015610595578a818151811061055857fe5b60200260200101518660008151811061056d57fe5b60200260200101818151019150818152505061058a83838f6103ef565b6001909201916105c9565b8a81815181106105a157fe5b6020026020010151866001815181106105b657fe5b6020026020010181815101915081815250505b50600101610511565b506105de82828d6103ef565b80846000815181106105ec57fe5b60200260200101518560018151811061060157fe5b602002602001015197509750975050505050505b985098509895505050505050565b60008085888a038802821361063e57898792509250506106eb565b600085878c8151811061064d57fe5b60200260200101518151811061065f57fe5b602090810291909101015190508a89016000815b60008c8e830302136106df5789818151811061068b57fe5b60200260200101519150838983815181106106a257fe5b602002602001015114156106d8578782815181106106bc57fe5b6020026020010151850394506106d383828c6103ef565b918b01915b8b01610673565b50508990039350909150505b97509795505050505050565b6060610701610d05565b84518067ffffffffffffffff8111801561071a57600080fd5b50604051908082528060200260200182016040528015610744578160200160208202803683370190505b50925060005b81811015610772578084828151811061075f57fe5b602090810291909101015260010161074a565b506107896002600060018403600080888c8c610a38565b6080850152606084015280835283518691859181106107a457fe5b6020026020010151815181106107b657fe5b602090810291909101015160a08301819052608083015160608401518451920101906107ef578251600060c08501526020840152610843565b60048104836060015111610813578251606084015160c08501526020840152610843565b61083760016000600186600001510360008760a00151886080015101898d8d610a38565b5060c085015260208401525b825160001983011415610864578251600061010085015260408401526108bc565b60048104836080015111610889578251608084015161010085015260408401526108bc565b6108af60038460000151600101600185038660a001518760600151016000898d8d610a38565b6101008601525060408401525b86848460000151815181106108cd57fe5b6020026020010151815181106108df57fe5b6020908102919091010151610120840152600281048360a0015184606001510114801561090d575060028106155b1561093d576002610927846000015160018503878b61020a565b846101200151018161093557fe5b046101208401525b610957836020015160006000198660c00151888c8c610623565b60c0850152602084015260408301516101008401516109829190600019850190600190888c8c610623565b6101008501526040840152602083015184518891869181106109a057fe5b6020026020010151815181106109b257fe5b60200260200101518361014001818152505086848460400151815181106109d557fe5b6020026020010151815181106109e757fe5b602090810291909101015161016084015261010083015160c08401519091030360e083015250610120810151620f4240938102939093048084036101808301529092016101a0830152939092509050565b6000806000888a1415610a52575088915086905085610615565b610a5a610d74565b88815260208101889052610a6c610db1565b60208082018d905260408083018d90528051448184015242818301528151808203830181526060909101909152805191012060005b60208301516040840151610ad39190816001818303018681610abf57fe5b0601876000015188602001518f8f8f610458565b606087015260408601528084528a518b91908110610aed57fe5b602002602001015183606001818152505087836060015181518110610b0e57fe5b6020026020010151846080018181525050836060015184604001518560800151010190508e60021415610be95760028106600282040160a0850181905280820360c0860152604085015110801590610b6957508b8460a00151115b15610b8e57825160001901604084015260608401516080850151016020850152610be4565b8360c001518460600151118015610ba857508a8460c00151115b15610bc9578251600101602084015260408401516080850151018452610be4565b50505160408201516060909201519094509092509050610615565b610d00565b8e60011415610c7a576004810460a0850181905280820360c08601526040850151118015610c1a57508b8460a00151115b15610c3f57825160001901604084015260608401516080850151016020850152610be4565b8360c00151846060015110158015610ba857508a8460c001511115610bc9578251600101602084015260408401516080850151018452610be4565b6004810460c08501819052810360a08501819052604085015110801590610ca457508b8460a00151115b15610cc957825160001901604084015260608401516080850151016020850152610d00565b8360c001518460600151118015610ce357508a8460c00151115b15610bc95782516001016020840152604084015160808501510184525b610aa1565b604051806101c0016040528060008152602001600081526020016000815260200160008152602001600081526020016000815260200160008152602001600081526020016000815260200160008152602001600081526020016000815260200160008152602001600081525090565b6040518060e00160405280600081526020016000815260200160008152602001600081526020016000815260200160008152602001600081525090565b6040518060800160405280600081526020016000815260200160008152602001600081525090565b600082601f830112610de9578081fd5b8135602067ffffffffffffffff80831115610e0057fe5b81830260405183828201018181108482111715610e1957fe5b60405284815283810192508684018288018501891015610e37578687fd5b8692505b85831015610e59578035845292840192600192909201918401610e3b565b50979650505050505050565b600060208284031215610e76578081fd5b813567ffffffffffffffff811115610e8c578182fd5b61014e84828501610dd9565b60008060408385031215610eaa578081fd5b823567ffffffffffffffff80821115610ec1578283fd5b610ecd86838701610dd9565b93506020850135915080821115610ee2578283fd5b50610eef85828601610dd9565b9150509250929050565b600080600060608486031215610f0d578081fd5b8335925060208401359150604084013567ffffffffffffffff811115610f31578182fd5b610f3d86828701610dd9565b9150509250925092565b60008060008060808587031215610f5c578081fd5b8435935060208501359250604085013567ffffffffffffffff80821115610f81578283fd5b610f8d88838901610dd9565b93506060870135915080821115610fa2578283fd5b50610faf87828801610dd9565b91505092959194509250565b600080600080600080600060e0888a031215610fd5578283fd5b87359650602088013595506040880135945060608801359350608088013567ffffffffffffffff80821115611008578485fd5b6110148b838c01610dd9565b945060a08a0135915080821115611029578384fd5b6110358b838c01610dd9565b935060c08a013591508082111561104a578283fd5b506110578a828b01610dd9565b91505092959891949750929550565b600080600080600080600080610100898b031215611082578081fd5b883597506020890135965060408901359550606089013594506080890135935060a089013567ffffffffffffffff808211156110bc578283fd5b6110c88c838d01610dd9565b945060c08b01359150808211156110dd578283fd5b6110e98c838d01610dd9565b935060e08b01359150808211156110fe578283fd5b5061110b8b828c01610dd9565b9150509295985092959890939650565b6000815180845260208085019450808401835b8381101561114a5781518752958201959082019060010161112e565b509495945050505050565b600060208252611168602083018461111b565b9392505050565b60006102208083526111838184018861111b565b905085516020840152602086015160408401526040860151606084015260608601516080840152608086015160a084015260a086015160c084015260c086015160e084015260e08601516101008181860152808801519150506101208181860152808801519150506101408181860152808801519150506101608181860152808801519150506101808181860152808801519150506101a08181860152808801516101c086015250508281036101e084015261123f818661111b565b9050828103610200840152611254818561111b565b979650505050505050565b90815260200190565b60008382526040602083015261014e604083018461111b565b600086825285602083015260a060408301526112a060a083018661111b565b82810360608401526112b2818661111b565b905082810360808401526112c6818561111b565b98975050505050505050565b600087825286602083015285604083015260c060608301526112f760c083018661111b565b8281036080840152611309818661111b565b905082810360a084015261131d818561111b565b999850505050505050505056fea264697066735822122054f91055148733c2097024c037cd041feeac4a9dbe2f788ffe5d7fd6db7fbcd664736f6c63430007060033",
  "linkReferences": {},
  "deployedLinkReferences": {}
}