{
  "_format": "hh-sol-artifact-1",
  "contractName": "AddressUpdaterMock",
  "sourceName": "contracts/addressUpdater/mock/AddressUpdaterMock.sol",
  "abi": [
    {
      "inputs": [
        {
          "internalType": "address",
          "name": "_governance",
          "type": "address"
        },
        {
          "internalType": "address",
          "name": "_wnat",
          "type": "address"
        }
      ],
      "stateMutability": "nonpayable",
      "type": "constructor"
    },
    {
      "anonymous": false,
      "inputs": [
        {
          "indexed": false,
          "internalType": "bytes4",
          "name": "selector",
          "type": "bytes4"
        },
        {
          "indexed": false,
          "internalType": "uint256",
          "name": "allowedAfterTimestamp",
          "type": "uint256"
        },
        {
          "indexed": false,
          "internalType": "bytes",
          "name": "encodedCall",
          "type": "bytes"
        }
      ],
      "name": "GovernanceCallTimelocked",
      "type": "event"
    },
    {
      "anonymous": false,
      "inputs": [
        {
          "indexed": false,
          "internalType": "address",
          "name": "initialGovernance",
          "type": "address"
        }
      ],
      "name": "GovernanceInitialised",
      "type": "event"
    },
    {
      "anonymous": false,
      "inputs": [
        {
          "indexed": false,
          "internalType": "address",
          "name": "governanceSettings",
          "type": "address"
        }
      ],
      "name": "GovernedProductionModeEntered",
      "type": "event"
    },
    {
      "anonymous": false,
      "inputs": [
        {
          "indexed": false,
          "internalType": "bytes4",
          "name": "selector",
          "type": "bytes4"
        },
        {
          "indexed": false,
          "internalType": "uint256",
          "name": "timestamp",
          "type": "uint256"
        }
      ],
      "name": "TimelockedGovernanceCallCanceled",
      "type": "event"
    },
    {
      "anonymous": false,
      "inputs": [
        {
          "indexed": false,
          "internalType": "bytes4",
          "name": "selector",
          "type": "bytes4"
        },
        {
          "indexed": false,
          "internalType": "uint256",
          "name": "timestamp",
          "type": "uint256"
        }
      ],
      "name": "TimelockedGovernanceCallExecuted",
      "type": "event"
    },
    {
      "inputs": [
        {
          "internalType": "bytes4",
          "name": "_selector",
          "type": "bytes4"
        }
      ],
      "name": "cancelGovernanceCall",
      "outputs": [],
      "stateMutability": "nonpayable",
      "type": "function"
    },
    {
      "inputs": [
        {
          "internalType": "bytes4",
          "name": "_selector",
          "type": "bytes4"
        }
      ],
      "name": "executeGovernanceCall",
      "outputs": [],
      "stateMutability": "nonpayable",
      "type": "function"
    },
    {
      "inputs": [
        {
          "internalType": "string",
          "name": "",
          "type": "string"
        }
      ],
      "name": "getContractAddress",
      "outputs": [
        {
          "internalType": "address",
          "name": "",
          "type": "address"
        }
      ],
      "stateMutability": "view",
      "type": "function"
    },
    {
      "inputs": [],
      "name": "governance",
      "outputs": [
        {
          "internalType": "address",
          "name": "",
          "type": "address"
        }
      ],
      "stateMutability": "view",
      "type": "function"
    },
    {
      "inputs": [],
      "name": "governanceSettings",
      "outputs": [
        {
          "internalType": "contract IGovernanceSettings",
          "name": "",
          "type": "address"
        }
      ],
      "stateMutability": "view",
      "type": "function"
    },
    {
      "inputs": [
        {
          "internalType": "address",
          "name": "_initialGovernance",
          "type": "address"
        }
      ],
      "name": "initialise",
      "outputs": [],
      "stateMutability": "nonpayable",
      "type": "function"
    },
    {
      "inputs": [],
      "name": "productionMode",
      "outputs": [
        {
          "internalType": "bool",
          "name": "",
          "type": "bool"
        }
      ],
      "stateMutability": "view",
      "type": "function"
    },
    {
      "inputs": [],
      "name": "switchToProductionMode",
      "outputs": [],
      "stateMutability": "nonpayable",
      "type": "function"
    },
    {
      "inputs": [
        {
          "internalType": "bytes4",
          "name": "",
          "type": "bytes4"
        }
      ],
      "name": "timelockedCalls",
      "outputs": [
        {
          "internalType": "uint256",
          "name": "allowedAfterTimestamp",
          "type": "uint256"
        },
        {
          "internalType": "bytes",
          "name": "encodedCall",
          "type": "bytes"
        }
      ],
      "stateMutability": "view",
      "type": "function"
    },
    {
      "inputs": [
        {
          "internalType": "address",
          "name": "_updatable",
          "type": "address"
        },
        {
          "internalType": "bytes32[]",
          "name": "_contractNameHashes",
          "type": "bytes32[]"
        },
        {
          "internalType": "address[]",
          "name": "_contractAddresses",
          "type": "address[]"
        }
      ],
      "name": "updateContractAddresses",
      "outputs": [],
      "stateMutability": "nonpayable",
      "type": "function"
    }
  ],
  "bytecode": "0x608060405234801561001057600080fd5b50604051610f2c380380610f2c83398101604081905261002f9161019d565b81806001600160a01b0381161561004957610049816100bf565b506001600160a01b038116610098576040805162461bcd60e51b815260206004820152601060248201526f5f676f7665726e616e6365207a65726f60801b604482015290519081900360640190fd5b50600280546001600160a01b0319166001600160a01b0392909216919091179055506101cf565b600054600160a01b900460ff161561011e576040805162461bcd60e51b815260206004820152601460248201527f696e697469616c6973656420213d2066616c7365000000000000000000000000604482015290519081900360640190fd5b60008054600160a01b60ff60a01b19909116176001600160a01b0319166001600160a01b03831690811790915560408051918252517f9789733827840833afc031fb2ef9ab6894271f77bad2085687cf4ae5c7bee4db916020908290030190a150565b80516001600160a01b038116811461019857600080fd5b919050565b600080604083850312156101af578182fd5b6101b883610181565b91506101c660208401610181565b90509250929050565b610d4e806101de6000396000f3fe608060405234801561001057600080fd5b506004361061009e5760003560e01c806374e6310e1161006657806374e6310e146101045780639d6a890f14610125578063beb739c814610138578063e17f212e1461014b578063f5a98383146101605761009e565b806304433bbc146100a35780635aa6e675146100cc5780635ff27079146100d457806362354e03146100e957806367fc4029146100f1575b600080fd5b6100b66100b1366004610b5f565b610168565b6040516100c39190610be6565b60405180910390f35b6100b661017a565b6100e76100e2366004610b37565b61020f565b005b6100b6610564565b6100e76100ff366004610b37565b61056f565b610117610112366004610b37565b610657565b6040516100c3929190610c7b565b6100e7610133366004610a4d565b6106fd565b6100e7610146366004610a6e565b6107b6565b61015361081b565b6040516100c39190610c70565b6100e761082b565b6002546001600160a01b03165b919050565b60008054600160a81b900460ff1661019d576000546001600160a01b031661020a565b60076001609c1b016001600160a01b031663732524946040518163ffffffff1660e01b815260040160206040518083038186803b1580156101dd57600080fd5b505afa1580156101f1573d6000803e3d6000fd5b505050506040513d602081101561020757600080fd5b50515b905090565b60408051630debfda360e41b8152336004820152905160076001609c1b019163debfda30916024808301926020929190829003018186803b15801561025357600080fd5b505afa158015610267573d6000803e3d6000fd5b505050506040513d602081101561027d57600080fd5b50516102c0576040805162461bcd60e51b815260206004820152600d60248201526c37b7363c9032bc32b1baba37b960991b604482015290519081900360640190fd5b6001600160e01b031981166000908152600160205260409020805461032c576040805162461bcd60e51b815260206004820152601a60248201527f74696d656c6f636b3a20696e76616c69642073656c6563746f72000000000000604482015290519081900360640190fd5b8054421015610382576040805162461bcd60e51b815260206004820152601960248201527f74696d656c6f636b3a206e6f7420616c6c6f7765642079657400000000000000604482015290519081900360640190fd5b6000816001018054600181600116156101000203166002900480601f01602080910402602001604051908101604052809291908181526020018280546001816001161561010002031660029004801561041c5780601f106103f15761010080835404028352916020019161041c565b820191906000526020600020905b8154815290600101906020018083116103ff57829003601f168201915b5050506001600160e01b03198616600090815260016020819052604082208281559495509092506104509150830182610963565b50506000805460ff60b01b1916600160b01b178155604051825130918491819060208401908083835b602083106104985780518252601f199092019160209182019101610479565b6001836020036101000a0380198251168184511680821785525050505050509050019150506000604051808303816000865af19150503d80600081146104fa576040519150601f19603f3d011682016040523d82523d6000602084013e6104ff565b606091505b50506000805460ff60b01b19169055604080516001600160e01b03198716815242602082015281519293507fa7326b57fc9cfe267aaea5e7f0b01757154d265620a0585819416ee9ddd2c438929081900390910190a161055e816108e5565b50505050565b60076001609c1b0181565b610577610902565b6001600160e01b031981166000908152600160205260409020546105e2576040805162461bcd60e51b815260206004820152601a60248201527f74696d656c6f636b3a20696e76616c69642073656c6563746f72000000000000604482015290519081900360640190fd5b604080516001600160e01b03198316815242602082015281517f7735b2391c38a81419c513e30ca578db7158eadd7101511b23e221c654d19cf8929181900390910190a16001600160e01b0319811660009081526001602081905260408220828155919061065290830182610963565b505050565b600160208181526000928352604092839020805481840180548651600296821615610100026000190190911695909504601f810185900485028601850190965285855290949193929091908301828280156106f35780601f106106c8576101008083540402835291602001916106f3565b820191906000526020600020905b8154815290600101906020018083116106d657829003601f168201915b5050505050905082565b600054600160a01b900460ff1615610753576040805162461bcd60e51b8152602060048201526014602482015273696e697469616c6973656420213d2066616c736560601b604482015290519081900360640190fd5b60008054600160a01b60ff60a01b19909116176001600160a01b0319166001600160a01b03831690811790915560408051918252517f9789733827840833afc031fb2ef9ab6894271f77bad2085687cf4ae5c7bee4db916020908290030190a150565b60405163580605bb60e11b81526001600160a01b0384169063b00c0b76906107e49085908590600401610bfa565b600060405180830381600087803b1580156107fe57600080fd5b505af1158015610812573d6000803e3d6000fd5b50505050505050565b600054600160a81b900460ff1681565b610833610902565b600054600160a81b900460ff1615610892576040805162461bcd60e51b815260206004820152601a60248201527f616c726561647920696e2070726f64756374696f6e206d6f6465000000000000604482015290519081900360640190fd5b60008054600161ff0160a01b031916600160a81b1790556040805160076001609c1b01815290517f83af113638b5422f9e977cebc0aaf0eaf2188eb9a8baae7f9d46c42b33a1560c9181900360200190a1565b3d604051818101604052816000823e82156108fe578181f35b8181fd5b61090a61017a565b6001600160a01b0316336001600160a01b031614610961576040805162461bcd60e51b815260206004820152600f60248201526e6f6e6c7920676f7665726e616e636560881b604482015290519081900360640190fd5b565b50805460018160011615610100020316600290046000825580601f1061098957506109a7565b601f0160209004906000526020600020908101906109a791906109aa565b50565b5b808211156109bf57600081556001016109ab565b5090565b80356001600160a01b038116811461017557600080fd5b600082601f8301126109ea578081fd5b813560206109ff6109fa83610cfa565b610cd6565b8281528181019085830183850287018401881015610a1b578586fd5b855b85811015610a4057610a2e826109c3565b84529284019290840190600101610a1d565b5090979650505050505050565b600060208284031215610a5e578081fd5b610a67826109c3565b9392505050565b600080600060608486031215610a82578182fd5b610a8b846109c3565b925060208085013567ffffffffffffffff80821115610aa8578485fd5b818701915087601f830112610abb578485fd5b8135610ac96109fa82610cfa565b81815284810190848601868402860187018c1015610ae5578889fd5b8895505b83861015610b07578035835260019590950194918601918601610ae9565b50965050506040870135925080831115610b1f578384fd5b5050610b2d868287016109da565b9150509250925092565b600060208284031215610b48578081fd5b81356001600160e01b031981168114610a67578182fd5b60006020808385031215610b71578182fd5b823567ffffffffffffffff80821115610b88578384fd5b818501915085601f830112610b9b578384fd5b813581811115610ba757fe5b610bb9601f8201601f19168501610cd6565b91508082528684828501011115610bce578485fd5b80848401858401378101909201929092529392505050565b6001600160a01b0391909116815260200190565b604080825283519082018190526000906020906060840190828701845b82811015610c3357815184529284019290840190600101610c17565b50505083810382850152845180825285830191830190845b81811015610a405783516001600160a01b031683529284019291840191600101610c4b565b901515815260200190565b600083825260206040818401528351806040850152825b81811015610cae57858101830151858201606001528201610c92565b81811115610cbf5783606083870101525b50601f01601f191692909201606001949350505050565b60405181810167ffffffffffffffff81118282101715610cf257fe5b604052919050565b600067ffffffffffffffff821115610d0e57fe5b506020908102019056fea26469706673582212205ccf1410041336e8210c857fbdcd8c5b6bb8ca499bc90ab87fa248797f85a73564736f6c63430007060033",
  "linkReferences": {},
  "deployedLinkReferences": {}
}