{
  "_format": "hh-sol-artifact-1",
  "contractName": "VPContractMock",
  "sourceName": "contracts/token/mock/VPContractMock.sol",
  "abi": [
    {
      "inputs": [
        {
          "internalType": "contract IVPToken",
          "name": "_ownerToken",
          "type": "address"
        },
        {
          "internalType": "bool",
          "name": "_isReplacement",
          "type": "bool"
        }
      ],
      "stateMutability": "nonpayable",
      "type": "constructor"
    },
    {
      "anonymous": false,
      "inputs": [
        {
          "indexed": false,
          "internalType": "address",
          "name": "_owner",
          "type": "address"
        },
        {
          "indexed": false,
          "internalType": "uint256",
          "name": "_blockNumber",
          "type": "uint256"
        }
      ],
      "name": "CreatedVotePowerCache",
      "type": "event"
    },
    {
      "anonymous": false,
      "inputs": [
        {
          "indexed": true,
          "internalType": "address",
          "name": "from",
          "type": "address"
        },
        {
          "indexed": true,
          "internalType": "address",
          "name": "to",
          "type": "address"
        },
        {
          "indexed": false,
          "internalType": "uint256",
          "name": "priorVotePower",
          "type": "uint256"
        },
        {
          "indexed": false,
          "internalType": "uint256",
          "name": "newVotePower",
          "type": "uint256"
        }
      ],
      "name": "Delegate",
      "type": "event"
    },
    {
      "anonymous": false,
      "inputs": [
        {
          "indexed": true,
          "internalType": "address",
          "name": "delegator",
          "type": "address"
        },
        {
          "indexed": true,
          "internalType": "address",
          "name": "delegatee",
          "type": "address"
        },
        {
          "indexed": false,
          "internalType": "uint256",
          "name": "votePower",
          "type": "uint256"
        },
        {
          "indexed": false,
          "internalType": "uint256",
          "name": "blockNumber",
          "type": "uint256"
        }
      ],
      "name": "Revoke",
      "type": "event"
    },
    {
      "inputs": [
        {
          "internalType": "address[]",
          "name": "_owners",
          "type": "address[]"
        },
        {
          "internalType": "uint256",
          "name": "_blockNumber",
          "type": "uint256"
        }
      ],
      "name": "batchVotePowerOfAt",
      "outputs": [
        {
          "internalType": "uint256[]",
          "name": "_votePowers",
          "type": "uint256[]"
        }
      ],
      "stateMutability": "view",
      "type": "function"
    },
    {
      "inputs": [],
      "name": "cleanerContract",
      "outputs": [
        {
          "internalType": "address",
          "name": "",
          "type": "address"
        }
      ],
      "stateMutability": "view",
      "type": "function"
    },
    {
      "inputs": [],
      "name": "cleanupBlockNumber",
      "outputs": [
        {
          "internalType": "uint256",
          "name": "",
          "type": "uint256"
        }
      ],
      "stateMutability": "view",
      "type": "function"
    },
    {
      "inputs": [
        {
          "internalType": "address",
          "name": "_from",
          "type": "address"
        },
        {
          "internalType": "address",
          "name": "_to",
          "type": "address"
        },
        {
          "internalType": "uint256",
          "name": "_balance",
          "type": "uint256"
        },
        {
          "internalType": "uint256",
          "name": "_bips",
          "type": "uint256"
        }
      ],
      "name": "delegate",
      "outputs": [],
      "stateMutability": "nonpayable",
      "type": "function"
    },
    {
      "inputs": [
        {
          "internalType": "address",
          "name": "_from",
          "type": "address"
        },
        {
          "internalType": "address",
          "name": "_to",
          "type": "address"
        },
        {
          "internalType": "uint256",
          "name": "_balance",
          "type": "uint256"
        },
        {
          "internalType": "uint256",
          "name": "_amount",
          "type": "uint256"
        }
      ],
      "name": "delegateExplicit",
      "outputs": [],
      "stateMutability": "nonpayable",
      "type": "function"
    },
    {
      "inputs": [
        {
          "internalType": "address",
          "name": "_owner",
          "type": "address"
        }
      ],
      "name": "delegatesOf",
      "outputs": [
        {
          "internalType": "address[]",
          "name": "_delegateAddresses",
          "type": "address[]"
        },
        {
          "internalType": "uint256[]",
          "name": "_bips",
          "type": "uint256[]"
        },
        {
          "internalType": "uint256",
          "name": "_count",
          "type": "uint256"
        },
        {
          "internalType": "uint256",
          "name": "_delegationMode",
          "type": "uint256"
        }
      ],
      "stateMutability": "view",
      "type": "function"
    },
    {
      "inputs": [
        {
          "internalType": "address",
          "name": "_owner",
          "type": "address"
        },
        {
          "internalType": "uint256",
          "name": "_blockNumber",
          "type": "uint256"
        }
      ],
      "name": "delegatesOfAt",
      "outputs": [
        {
          "internalType": "address[]",
          "name": "_delegateAddresses",
          "type": "address[]"
        },
        {
          "internalType": "uint256[]",
          "name": "_bips",
          "type": "uint256[]"
        },
        {
          "internalType": "uint256",
          "name": "_count",
          "type": "uint256"
        },
        {
          "internalType": "uint256",
          "name": "_delegationMode",
          "type": "uint256"
        }
      ],
      "stateMutability": "view",
      "type": "function"
    },
    {
      "inputs": [
        {
          "internalType": "address",
          "name": "_who",
          "type": "address"
        }
      ],
      "name": "delegationModeOf",
      "outputs": [
        {
          "internalType": "uint256",
          "name": "",
          "type": "uint256"
        }
      ],
      "stateMutability": "view",
      "type": "function"
    },
    {
      "inputs": [
        {
          "internalType": "address",
          "name": "_from",
          "type": "address"
        },
        {
          "internalType": "address",
          "name": "_to",
          "type": "address"
        },
        {
          "internalType": "uint256",
          "name": "_count",
          "type": "uint256"
        }
      ],
      "name": "explicitDelegationHistoryCleanup",
      "outputs": [
        {
          "internalType": "uint256",
          "name": "",
          "type": "uint256"
        }
      ],
      "stateMutability": "nonpayable",
      "type": "function"
    },
    {
      "inputs": [
        {
          "internalType": "address",
          "name": "_owner",
          "type": "address"
        },
        {
          "internalType": "uint256",
          "name": "_balance",
          "type": "uint256"
        }
      ],
      "name": "initializeVotePower",
      "outputs": [],
      "stateMutability": "nonpayable",
      "type": "function"
    },
    {
      "inputs": [],
      "name": "isReplacement",
      "outputs": [
        {
          "internalType": "bool",
          "name": "",
          "type": "bool"
        }
      ],
      "stateMutability": "view",
      "type": "function"
    },
    {
      "inputs": [],
      "name": "ownerToken",
      "outputs": [
        {
          "internalType": "contract IVPToken",
          "name": "",
          "type": "address"
        }
      ],
      "stateMutability": "view",
      "type": "function"
    },
    {
      "inputs": [
        {
          "internalType": "address",
          "name": "_owner",
          "type": "address"
        },
        {
          "internalType": "uint256",
          "name": "_count",
          "type": "uint256"
        }
      ],
      "name": "percentageDelegationHistoryCleanup",
      "outputs": [
        {
          "internalType": "uint256",
          "name": "",
          "type": "uint256"
        }
      ],
      "stateMutability": "nonpayable",
      "type": "function"
    },
    {
      "inputs": [
        {
          "internalType": "address",
          "name": "_from",
          "type": "address"
        },
        {
          "internalType": "address",
          "name": "_to",
          "type": "address"
        },
        {
          "internalType": "uint256",
          "name": "_blockNumber",
          "type": "uint256"
        }
      ],
      "name": "revocationCleanup",
      "outputs": [
        {
          "internalType": "uint256",
          "name": "",
          "type": "uint256"
        }
      ],
      "stateMutability": "nonpayable",
      "type": "function"
    },
    {
      "inputs": [
        {
          "internalType": "address",
          "name": "_from",
          "type": "address"
        },
        {
          "internalType": "address",
          "name": "_to",
          "type": "address"
        },
        {
          "internalType": "uint256",
          "name": "_balance",
          "type": "uint256"
        },
        {
          "internalType": "uint256",
          "name": "_blockNumber",
          "type": "uint256"
        }
      ],
      "name": "revokeDelegationAt",
      "outputs": [],
      "stateMutability": "nonpayable",
      "type": "function"
    },
    {
      "inputs": [
        {
          "internalType": "address",
          "name": "_cleanerContract",
          "type": "address"
        }
      ],
      "name": "setCleanerContract",
      "outputs": [],
      "stateMutability": "nonpayable",
      "type": "function"
    },
    {
      "inputs": [
        {
          "internalType": "uint256",
          "name": "_blockNumber",
          "type": "uint256"
        }
      ],
      "name": "setCleanupBlockNumber",
      "outputs": [],
      "stateMutability": "nonpayable",
      "type": "function"
    },
    {
      "inputs": [
        {
          "internalType": "address",
          "name": "_from",
          "type": "address"
        },
        {
          "internalType": "uint256",
          "name": "_balance",
          "type": "uint256"
        }
      ],
      "name": "undelegateAll",
      "outputs": [],
      "stateMutability": "nonpayable",
      "type": "function"
    },
    {
      "inputs": [
        {
          "internalType": "address",
          "name": "_from",
          "type": "address"
        },
        {
          "internalType": "address[]",
          "name": "_delegateAddresses",
          "type": "address[]"
        }
      ],
      "name": "undelegateAllExplicit",
      "outputs": [
        {
          "internalType": "uint256",
          "name": "",
          "type": "uint256"
        }
      ],
      "stateMutability": "nonpayable",
      "type": "function"
    },
    {
      "inputs": [
        {
          "internalType": "address",
          "name": "_owner",
          "type": "address"
        },
        {
          "internalType": "uint256",
          "name": "_balance",
          "type": "uint256"
        }
      ],
      "name": "undelegatedVotePowerOf",
      "outputs": [
        {
          "internalType": "uint256",
          "name": "",
          "type": "uint256"
        }
      ],
      "stateMutability": "view",
      "type": "function"
    },
    {
      "inputs": [
        {
          "internalType": "address",
          "name": "_owner",
          "type": "address"
        },
        {
          "internalType": "uint256",
          "name": "_balance",
          "type": "uint256"
        },
        {
          "internalType": "uint256",
          "name": "_blockNumber",
          "type": "uint256"
        }
      ],
      "name": "undelegatedVotePowerOfAt",
      "outputs": [
        {
          "internalType": "uint256",
          "name": "",
          "type": "uint256"
        }
      ],
      "stateMutability": "view",
      "type": "function"
    },
    {
      "inputs": [
        {
          "internalType": "address",
          "name": "_from",
          "type": "address"
        },
        {
          "internalType": "address",
          "name": "_to",
          "type": "address"
        },
        {
          "internalType": "uint256",
          "name": "_fromBalance",
          "type": "uint256"
        },
        {
          "internalType": "uint256",
          "name": "_toBalance",
          "type": "uint256"
        },
        {
          "internalType": "uint256",
          "name": "_amount",
          "type": "uint256"
        }
      ],
      "name": "updateAtTokenTransfer",
      "outputs": [],
      "stateMutability": "nonpayable",
      "type": "function"
    },
    {
      "inputs": [
        {
          "internalType": "address",
          "name": "_owner",
          "type": "address"
        },
        {
          "internalType": "uint256",
          "name": "_blockNumber",
          "type": "uint256"
        }
      ],
      "name": "votePowerCacheCleanup",
      "outputs": [
        {
          "internalType": "uint256",
          "name": "",
          "type": "uint256"
        }
      ],
      "stateMutability": "nonpayable",
      "type": "function"
    },
    {
      "inputs": [
        {
          "internalType": "address",
          "name": "_from",
          "type": "address"
        },
        {
          "internalType": "address",
          "name": "_to",
          "type": "address"
        },
        {
          "internalType": "uint256",
          "name": "_balance",
          "type": "uint256"
        }
      ],
      "name": "votePowerFromTo",
      "outputs": [
        {
          "internalType": "uint256",
          "name": "",
          "type": "uint256"
        }
      ],
      "stateMutability": "view",
      "type": "function"
    },
    {
      "inputs": [
        {
          "internalType": "address",
          "name": "_from",
          "type": "address"
        },
        {
          "internalType": "address",
          "name": "_to",
          "type": "address"
        },
        {
          "internalType": "uint256",
          "name": "_balance",
          "type": "uint256"
        },
        {
          "internalType": "uint256",
          "name": "_blockNumber",
          "type": "uint256"
        }
      ],
      "name": "votePowerFromToAt",
      "outputs": [
        {
          "internalType": "uint256",
          "name": "",
          "type": "uint256"
        }
      ],
      "stateMutability": "view",
      "type": "function"
    },
    {
      "inputs": [
        {
          "internalType": "address",
          "name": "_owner",
          "type": "address"
        },
        {
          "internalType": "uint256",
          "name": "_count",
          "type": "uint256"
        }
      ],
      "name": "votePowerHistoryCleanup",
      "outputs": [
        {
          "internalType": "uint256",
          "name": "",
          "type": "uint256"
        }
      ],
      "stateMutability": "nonpayable",
      "type": "function"
    },
    {
      "inputs": [
        {
          "internalType": "address",
          "name": "_owner",
          "type": "address"
        }
      ],
      "name": "votePowerInitialized",
      "outputs": [
        {
          "internalType": "bool",
          "name": "",
          "type": "bool"
        }
      ],
      "stateMutability": "view",
      "type": "function"
    },
    {
      "inputs": [
        {
          "internalType": "address",
          "name": "_owner",
          "type": "address"
        },
        {
          "internalType": "uint256",
          "name": "_blockNumber",
          "type": "uint256"
        }
      ],
      "name": "votePowerInitializedAt",
      "outputs": [
        {
          "internalType": "bool",
          "name": "",
          "type": "bool"
        }
      ],
      "stateMutability": "view",
      "type": "function"
    },
    {
      "inputs": [
        {
          "internalType": "address",
          "name": "_who",
          "type": "address"
        }
      ],
      "name": "votePowerOf",
      "outputs": [
        {
          "internalType": "uint256",
          "name": "",
          "type": "uint256"
        }
      ],
      "stateMutability": "view",
      "type": "function"
    },
    {
      "inputs": [
        {
          "internalType": "address",
          "name": "_who",
          "type": "address"
        },
        {
          "internalType": "uint256",
          "name": "_blockNumber",
          "type": "uint256"
        }
      ],
      "name": "votePowerOfAt",
      "outputs": [
        {
          "internalType": "uint256",
          "name": "",
          "type": "uint256"
        }
      ],
      "stateMutability": "view",
      "type": "function"
    },
    {
      "inputs": [
        {
          "internalType": "address",
          "name": "_who",
          "type": "address"
        },
        {
          "internalType": "uint256",
          "name": "_blockNumber",
          "type": "uint256"
        }
      ],
      "name": "votePowerOfAtCached",
      "outputs": [
        {
          "internalType": "uint256",
          "name": "",
          "type": "uint256"
        }
      ],
      "stateMutability": "nonpayable",
      "type": "function"
    },
    {
      "inputs": [
        {
          "internalType": "address",
          "name": "_who",
          "type": "address"
        },
        {
          "internalType": "uint256",
          "name": "_blockNumber",
          "type": "uint256"
        }
      ],
      "name": "votePowerOfAtIgnoringRevocation",
      "outputs": [
        {
          "internalType": "uint256",
          "name": "",
          "type": "uint256"
        }
      ],
      "stateMutability": "view",
      "type": "function"
    }
  ],
  "bytecode": "0x60c06040523480156200001157600080fd5b50604051620055e6380380620055e6833981810160405260408110156200003757600080fd5b50805160209091015181816001600160a01b038216620000895760405162461bcd60e51b8152600401808060200182810382526023815260200180620055c36023913960400191505060405180910390fd5b606082901b6001600160601b031916608052151560f881901b60a0526001600160a01b03909116925060ff1690506154806200014360003980610971528061109652806115f5528061165e528061170052806117ed5280611b7e528061210052806121d55250806109b95280610a6c5280610bc55280610ced5280610d805280610ec85280610fd7528061110a52806112165280611325528061139e5280611699528061188752806119595280611b0c52506154806000f3fe608060405234801561001057600080fd5b50600436106101f05760003560e01c8063891339a81161010f578063c7c62fab116100a2578063eadb436211610071578063eadb4362146108b3578063ed475a79146108f5578063f683776714610921578063f6a494af14610947576101f0565b8063c7c62fab1461080d578063cabc452814610849578063deea13e71461087f578063e587497e14610887576101f0565b80639dc6b9f2116100de5780639dc6b9f214610777578063a1b5e3be146107ad578063aa94d3f2146107d9578063c25c9c7b146107e1576101f0565b8063891339a8146106e15780638c0b6b401461070d57806392bfe6d8146107435780639ca20e4e1461076f576101f0565b806349e3c7e511610187578063653718831161015657806365371883146105885780637de5b8ed146105ac5780637f57d58f14610679578063833aca92146106a5576101f0565b806349e3c7e5146103f15780634a03d556146104e65780635b87c901146105125780636230001a1461054c576101f0565b8063142d1018116101c3578063142d1018146103315780631a05274c146103575780633150392714610383578063404d9e82146103b5576101f0565b806304bb4e43146101f557806305109ecf146102335780630f8b8af71461026157806313de97f514610314575b600080fd5b6102216004803603604081101561020b57600080fd5b506001600160a01b03813516906020013561096d565b60408051918252519081900360200190f35b61025f6004803603604081101561024957600080fd5b506001600160a01b038135169060200135610a61565b005b6102216004803603604081101561027757600080fd5b6001600160a01b0382351691908101906040810160208201356401000000008111156102a257600080fd5b8201836020820111156102b457600080fd5b803590602001918460208302840111640100000000831117156102d657600080fd5b919080806020026020016040519081016040528093929190818152602001838360200280828437600092019190915250929550610bb8945050505050565b61025f6004803603602081101561032a57600080fd5b5035610ce2565b6102216004803603602081101561034757600080fd5b50356001600160a01b0316610d5e565b6102216004803603604081101561036d57600080fd5b506001600160a01b038135169060200135610e1f565b6102216004803603606081101561039957600080fd5b506001600160a01b038135169060208101359060400135610e93565b61025f600480360360808110156103cb57600080fd5b506001600160a01b03813581169160208101359091169060408101359060600135610ebd565b6104966004803603604081101561040757600080fd5b81019060208101813564010000000081111561042257600080fd5b82018360208201111561043457600080fd5b8035906020019184602083028401116401000000008311171561045657600080fd5b9190808060200260200160405190810160405280939291908181526020018383602002808284376000920191909152509295505091359250611086915050565b60408051602080825283518183015283519192839290830191858101910280838360005b838110156104d25781810151838201526020016104ba565b505050509050019250505060405180910390f35b610221600480360360408110156104fc57600080fd5b506001600160a01b0381351690602001356111df565b6105386004803603602081101561052857600080fd5b50356001600160a01b0316611200565b604080519115158252519081900360200190f35b61025f6004803603608081101561056257600080fd5b506001600160a01b0381358116916020810135909116906040810135906060013561120b565b61059061139c565b604080516001600160a01b039092168252519081900360200190f35b6105d2600480360360208110156105c257600080fd5b50356001600160a01b03166113c0565b604051808060200180602001858152602001848152602001838103835287818151815260200191508051906020019060200280838360005b8381101561062257818101518382015260200161060a565b50505050905001838103825286818151815260200191508051906020019060200280838360005b83811015610661578181015183820152602001610649565b50505050905001965050505050505060405180910390f35b6102216004803603604081101561068f57600080fd5b506001600160a01b0381351690602001356113df565b610221600480360360808110156106bb57600080fd5b506001600160a01b0381358116916020810135909116906040810135906060013561145f565b610221600480360360408110156106f757600080fd5b506001600160a01b038135169060200135611478565b6102216004803603606081101561072357600080fd5b506001600160a01b03813581169160208101359091169060400135611534565b6102216004803603604081101561075957600080fd5b506001600160a01b0381351690602001356115f1565b610590611634565b6102216004803603606081101561078d57600080fd5b506001600160a01b03813581169160208101359091169060400135611643565b610538600480360360408110156107c357600080fd5b506001600160a01b038135169060200135611650565b61053861165c565b61025f600480360360408110156107f757600080fd5b506001600160a01b038135169060200135611680565b61025f6004803603608081101561082357600080fd5b506001600160a01b0381358116916020810135909116906040810135906060013561168e565b6102216004803603606081101561085f57600080fd5b506001600160a01b03813581169160208101359091169060400135611758565b6102216117da565b6102216004803603604081101561089d57600080fd5b506001600160a01b0381351690602001356117e9565b61025f600480360360a08110156108c957600080fd5b506001600160a01b0381358116916020810135909116906040810135906060810135906080013561194e565b6105d26004803603604081101561090b57600080fd5b506001600160a01b038135169060200135611a2a565b6102216004803603602081101561093757600080fd5b50356001600160a01b0316611aeb565b61025f6004803603602081101561095d57600080fd5b50356001600160a01b0316611b01565b60007f000000000000000000000000000000000000000000000000000000000000000015806109a157506109a18383611b7a565b156109b7576109b08383611bdb565b9050610a5b565b7f00000000000000000000000000000000000000000000000000000000000000006001600160a01b0316634ee2cd7e84846040518363ffffffff1660e01b815260040180836001600160a01b031681526020018281526020019250505060206040518083038186803b158015610a2c57600080fd5b505afa158015610a40573d6000803e3d6000fd5b505050506040513d6020811015610a5657600080fd5b505190505b92915050565b336001600160a01b037f00000000000000000000000000000000000000000000000000000000000000001614610ad1576040805162461bcd60e51b815260206004820152601060248201526f37b7363c9037bbb732b9103a37b5b2b760811b604482015290519081900360640190fd5b81610adb81611c2b565b6040518060400160405280601c81526020017f416c72656164792064656c656761746564206578706c696369746c790000000081525090610b9a5760405162461bcd60e51b81526004018080602001828103825283818151815260200191508051906020019080838360005b83811015610b5f578181015183820152602001610b47565b50505050905090810190601f168015610b8c5780820380516001836020036101000a031916815260200191505b509250505060405180910390fd5b50610ba483611c72565b15610bb357610bb38383611d0a565b505050565b6000336001600160a01b037f00000000000000000000000000000000000000000000000000000000000000001614610c2a576040805162461bcd60e51b815260206004820152601060248201526f37b7363c9037bbb732b9103a37b5b2b760811b604482015290519081900360640190fd5b82610c3481611ea9565b6040518060400160405280601f81526020017f416c72656164792064656c6567617465642062792070657263656e746167650081525090610cb65760405162461bcd60e51b8152602060048201818152835160248401528351909283926044909101919085019080838360008315610b5f578181015183820152602001610b47565b50610cc084611c72565b15610cd657610ccf8484611ee0565b9150610cdb565b600091505b5092915050565b336001600160a01b037f00000000000000000000000000000000000000000000000000000000000000001614610d52576040805162461bcd60e51b815260206004820152601060248201526f37b7363c9037bbb732b9103a37b5b2b760811b604482015290519081900360640190fd5b610d5b81612078565b50565b6000610d69826120fc565b15610d7e57610d7782612149565b9050610e1a565b7f00000000000000000000000000000000000000000000000000000000000000006001600160a01b03166370a08231836040518263ffffffff1660e01b815260040180826001600160a01b0316815260200191505060206040518083038186803b158015610deb57600080fd5b505afa158015610dff573d6000803e3d6000fd5b505050506040513d6020811015610e1557600080fd5b505190505b919050565b6007546000906001600160a01b03163314610e79576040805162461bcd60e51b815260206004820152601560248201527413db9b1e4818db19585b995c8818dbdb9d1c9858dd605a1b604482015290519081900360640190fd5b600654610e8c9060039085908590612156565b9392505050565b6000610e9e846120fc565b15610eb557610eae848484612164565b9050610e8c565b509092915050565b336001600160a01b037f00000000000000000000000000000000000000000000000000000000000000001614610f2d576040805162461bcd60e51b815260206004820152601060248201526f37b7363c9037bbb732b9103a37b5b2b760811b604482015290519081900360640190fd5b83610f3781611ea9565b6040518060400160405280601f81526020017f416c72656164792064656c6567617465642062792070657263656e746167650081525090610fb95760405162461bcd60e51b8152602060048201818152835160248401528351909283926044909101919085019080838360008315610b5f578181015183820152602001610b47565b50610fc485846121d3565b610fcd846120fc565b61107357611073847f00000000000000000000000000000000000000000000000000000000000000006001600160a01b03166370a08231876040518263ffffffff1660e01b815260040180826001600160a01b0316815260200191505060206040518083038186803b15801561104257600080fd5b505afa158015611056573d6000803e3d6000fd5b505050506040513d602081101561106c57600080fd5b50516121d3565b61107f85858585612283565b5050505050565b60606110928383612568565b90507f000000000000000000000000000000000000000000000000000000000000000015610a5b5760005b8151811015610cdb578181815181106110d257fe5b6020026020010151600014801561110357506111018482815181106110f357fe5b602002602001015184611b7a565b155b156111d7577f00000000000000000000000000000000000000000000000000000000000000006001600160a01b0316634ee2cd7e85838151811061114357fe5b6020026020010151856040518363ffffffff1660e01b815260040180836001600160a01b031681526020018281526020019250505060206040518083038186803b15801561119057600080fd5b505afa1580156111a4573d6000803e3d6000fd5b505050506040513d60208110156111ba57600080fd5b505182518390839081106111ca57fe5b6020026020010181815250505b6001016110bd565b60006111ea836120fc565b156111f9576109b083836126a3565b5080610a5b565b6000610a5b826120fc565b336001600160a01b037f0000000000000000000000000000000000000000000000000000000000000000161461127b576040805162461bcd60e51b815260206004820152601060248201526f37b7363c9037bbb732b9103a37b5b2b760811b604482015290519081900360640190fd5b8361128581611c2b565b6040518060400160405280601c81526020017f416c72656164792064656c656761746564206578706c696369746c7900000000815250906113075760405162461bcd60e51b8152602060048201818152835160248401528351909283926044909101919085019080838360008315610b5f578181015183820152602001610b47565b5061131285846121d3565b61131b846120fc565b61139057611390847f00000000000000000000000000000000000000000000000000000000000000006001600160a01b03166370a08231876040518263ffffffff1660e01b815260040180826001600160a01b0316815260200191505060206040518083038186803b15801561104257600080fd5b61107f858585856126b0565b7f000000000000000000000000000000000000000000000000000000000000000081565b6060806000806113d08543611a2a565b93509350935093509193509193565b6007546000906001600160a01b03163314611439576040805162461bcd60e51b815260206004820152601560248201527413db9b1e4818db19585b995c8818dbdb9d1c9858dd605a1b604482015290519081900360640190fd5b6006546001600160a01b0384166000908152600160205260409020610e8c918490612923565b600061146d85858585612930565b90505b949350505050565b6007546000906001600160a01b031633146114d2576040805162461bcd60e51b815260206004820152601560248201527413db9b1e4818db19585b995c8818dbdb9d1c9858dd605a1b604482015290519081900360640190fd5b6006548210611528576040805162461bcd60e51b815260206004820152601e60248201527f4e6f20636c65616e757020616674657220636c65616e757020626c6f636b0000604482015290519081900360640190fd5b610e8c600484846129a7565b6007546000906001600160a01b0316331461158e576040805162461bcd60e51b815260206004820152601560248201527413db9b1e4818db19585b995c8818dbdb9d1c9858dd605a1b604482015290519081900360640190fd5b60065482106115e4576040805162461bcd60e51b815260206004820152601e60248201527f4e6f20636c65616e757020616674657220636c65616e757020626c6f636b0000604482015290519081900360640190fd5b6114706004858585612a14565b60007f0000000000000000000000000000000000000000000000000000000000000000158061162557506116258383611b7a565b156109b7576109b08383612aa2565b6007546001600160a01b031681565b6000611470848484612b07565b6000610e8c8383611b7a565b7f000000000000000000000000000000000000000000000000000000000000000081565b61168a82826121d3565b5050565b336001600160a01b037f000000000000000000000000000000000000000000000000000000000000000016146116fe576040805162461bcd60e51b815260206004820152601060248201526f37b7363c9037bbb732b9103a37b5b2b760811b604482015290519081900360640190fd5b7f0000000000000000000000000000000000000000000000000000000000000000158061174157506117308482611b7a565b801561174157506117418382611b7a565b156117525761175284848484612bb8565b50505050565b6007546000906001600160a01b031633146117b2576040805162461bcd60e51b815260206004820152601560248201527413db9b1e4818db19585b995c8818dbdb9d1c9858dd605a1b604482015290519081900360640190fd5b6006546001600160a01b03851660009081526002602052604090206114709185908590612cb3565b60006117e4612cda565b905090565b60007f0000000000000000000000000000000000000000000000000000000000000000158061181d575061181d8383611b7a565b1561182c576109b08383612ce0565b604080516001600160a01b038516602080830191909152818301859052825180830384018152606090920183528151918101919091206000818152600990925291902054801561188357600019019150610a5b9050565b60007f00000000000000000000000000000000000000000000000000000000000000006001600160a01b0316634ee2cd7e87876040518363ffffffff1660e01b815260040180836001600160a01b031681526020018281526020019250505060206040518083038186803b1580156118fa57600080fd5b505afa15801561190e573d6000803e3d6000fd5b505050506040513d602081101561192457600080fd5b50519050611933816001612de0565b60009384526009602052604090932092909255509050610a5b565b336001600160a01b037f000000000000000000000000000000000000000000000000000000000000000016146119be576040805162461bcd60e51b815260206004820152601060248201526f37b7363c9037bbb732b9103a37b5b2b760811b604482015290519081900360640190fd5b6001600160a01b0385166119e6576119d684836121d3565b6119e1848383612e3a565b61107f565b6001600160a01b038416611a09576119fe85846121d3565b6119e1858483612ea4565b611a1385846121d3565b611a1d84836121d3565b61107f8585858585612fbc565b6060806000806000611a3b87612fd2565b90506001816002811115611a4b57fe5b1415611a6557611a5b8787612ff0565b9095509350611acf565b6000816002811115611a7357fe5b1415611a98576040805160008082526020820190815281830190925295509350611acf565b60405162461bcd60e51b81526004018080602001828103825260338152602001806154186033913960400191505060405180910390fd5b84519250806002811115611adf57fe5b91505092959194509250565b6000611af682612fd2565b6002811115610a5b57fe5b336001600160a01b037f00000000000000000000000000000000000000000000000000000000000000001614611b71576040805162461bcd60e51b815260206004820152601060248201526f37b7363c9037bbb732b9103a37b5b2b760811b604482015290519081900360640190fd5b610d5b8161322d565b60007f0000000000000000000000000000000000000000000000000000000000000000611ba957506001610a5b565b6001600160a01b0383166000908152600860205260409020548015801590611470575060001901919091111592915050565b600081600654811015611c1f5760405162461bcd60e51b815260040180806020018281038252602a8152602001806152fa602a913960400191505060405180910390fd5b6114706003858561324f565b6001600160a01b03811660009081526020819052604081205460ff1681816002811115611c5457fe5b1480610e8c575060015b816002811115611c6a57fe5b149392505050565b6001600160a01b03811660009081526020819052604081205460ff1681816002811115611c9b57fe5b1415611cab576000915050610e1a565b6002816002811115611cb957fe5b1415611ce9576001600160a01b0383166000908152600260205260408120611ce09061325c565b11915050610e1a565b6001600160a01b0383166000908152600160205260408120611ce090613267565b6001600160a01b03821660009081526020819052604081205460ff1690816002811115611d3357fe5b1415611d3f575061168a565b6001816002811115611d4d57fe5b14611d895760405162461bcd60e51b815260040180806020018281038252603c815260200180615250603c913960400191505060405180910390fd5b6001600160a01b03831660009081526001602052604081209080611dac83613273565b9150915060005b8251811015611e85576000838281518110611dca57fe5b602002602001015190506000611e00848481518110611de557fe5b60200260200101516127108a6132899092919063ffffffff16565b9050611e0f60038a8484613382565b600654611e23906003908b90600290612156565b50600654611e38906003908490600290612156565b50816001600160a01b0316896001600160a01b03166000805160206152da833981519152836000604051808381526020018281526020019250505060405180910390a35050600101611db3565b50611e8f836133c7565b600654611ea0908490600290612923565b50505050505050565b6001600160a01b03811660009081526020819052604081205460ff1681816002811115611ed257fe5b1480610e8c57506002611c5e565b6001600160a01b03821660009081526020819052604081205460ff1681816002811115611f0957fe5b1415611f19576000915050610a5b565b6002816002811115611f2757fe5b14611f635760405162461bcd60e51b81526004018080602001828103825260428152602001806153246042913960600191505060405180910390fd5b6001600160a01b0384166000908152600260205260408120905b8451811015612065576000858281518110611f9457fe5b602002602001015190506000611fb382856133d090919063ffffffff16565b905080611fc157505061205d565b611fce6003898484613382565b600654611fe2906003908a90600290612156565b50600654611ff7906003908490600290612156565b50612004848360006133df565b6006546120179085908490600290612cb3565b50816001600160a01b0316886001600160a01b03166000805160206152da833981519152836000604051808381526020018281526020019250505060405180910390a350505b600101611f7d565b5061206f8161325c565b95945050505050565b6006548110156120b95760405162461bcd60e51b81526004018080602001828103825260288152602001806152b26028913960400191505060405180910390fd5b4381106120f75760405162461bcd60e51b815260040180806020018281038252602181526020018061522f6021913960400191505060405180910390fd5b600655565b60007f000000000000000000000000000000000000000000000000000000000000000061212b57506001610e1a565b506001600160a01b0316600090815260086020526040902054151590565b6000610a5b600383613449565b600061146d85858585613455565b6000816006548110156121a85760405162461bcd60e51b815260040180806020018281038252602a8152602001806152fa602a913960400191505060405180910390fd5b60006121b5868686613490565b90506000806121c4878461356e565b9550505050505b509392505050565b7f00000000000000000000000000000000000000000000000000000000000000006121fd5761168a565b6001600160a01b0382166122105761168a565b6001600160a01b03821660009081526008602052604090205461168a5761223682612149565b158015612249575061224782611c72565b155b61224f57fe5b61225b82600083612e3a565b612266436001612de0565b6001600160a01b0383166000908152600860205260409020555050565b6001600160a01b0383166122d8576040805162461bcd60e51b815260206004820152601760248201527643616e6e6f742064656c656761746520746f207a65726f60481b604482015290519081900360640190fd5b836001600160a01b0316836001600160a01b03161415612339576040805162461bcd60e51b815260206004820152601760248201527621b0b73737ba103232b632b3b0ba32903a379039b2b63360491b604482015290519081900360640190fd5b61234284611ea9565b612393576040805162461bcd60e51b815260206004820152601960248201527f43616e6e6f742064656c656761746520627920616d6f756e7400000000000000604482015290519081900360640190fd5b6001600160a01b0384166000908152600260205260408120906123b682866133d0565b9050808310156123d4576123cf60038787868503613382565b612484565b60006123ea826123e489886126a3565b90612de0565b9050838110156040518060400160405280602081526020017f556e64656c65676174656420766f746520706f77657220746f6f20736d616c6c815250906124725760405162461bcd60e51b8152602060048201818152835160248401528351909283926044909101919085019080838360008315610b5f578181015183820152602001610b47565b5061248260038888858803613594565b505b600654612498906003908890600290612156565b506006546124ad906003908790600290612156565b506124b98286856133df565b6006546124cc9083908790600290612cb3565b5060026001600160a01b03871660009081526020819052604090205460ff1660028111156124f657fe5b1461251f576001600160a01b0386166000908152602081905260409020805460ff191660021790555b846001600160a01b0316866001600160a01b03166000805160206152da8339815191528386604051808381526020018281526020019250505060405180910390a3505050505050565b6060816006548110156125ac5760405162461bcd60e51b815260040180806020018281038252602a8152602001806152fa602a913960400191505060405180910390fd5b438310612600576040805162461bcd60e51b815260206004820181905260248201527f43616e206f6e6c79206265207573656420666f72207061737420626c6f636b73604482015290519081900360640190fd5b83516001600160401b038111801561261757600080fd5b50604051908082528060200260200182016040528015612641578160200160208202803683370190505b50915060005b845181101561269b5761267c600386838151811061266157fe5b60200260200101518660046135d1909392919063ffffffff16565b83828151811061268857fe5b6020908102919091010152600101612647565b505092915050565b6000610e8c838343612164565b6001600160a01b038316612705576040805162461bcd60e51b815260206004820152601760248201527643616e6e6f742064656c656761746520746f207a65726f60481b604482015290519081900360640190fd5b836001600160a01b0316836001600160a01b03161415612766576040805162461bcd60e51b815260206004820152601760248201527621b0b73737ba103232b632b3b0ba32903a379039b2b63360491b604482015290519081900360640190fd5b61276f84611c2b565b6127c0576040805162461bcd60e51b815260206004820152601d60248201527f43616e6e6f742064656c65676174652062792070657263656e74616765000000604482015290519081900360640190fd5b6001600160a01b0384166000908152600160205260408120906127e38286613640565b90506000806127f384888761364c565b600654612804908590600290612923565b50821561281b576128188684612710613289565b91505b84156128315761282e8686612710613289565b90505b8181101561284d5761284860038989848603613382565b61285c565b61285c60038989858503613594565b600654612870906003908a90600290612156565b50600654612885906003908990600290612156565b5060016001600160a01b03891660009081526020819052604090205460ff1660028111156128af57fe5b146128d8576001600160a01b0388166000908152602081905260409020805460ff191660011790555b866001600160a01b0316886001600160a01b03166000805160206152da8339815191528484604051808381526020018281526020019250505060405180910390a35050505050505050565b60006114708484846136f3565b6000816006548110156129745760405162461bcd60e51b815260040180806020018281038252602a8152602001806152fa602a913960400191505060405180910390fd5b6129816004878786613831565b1561298f576000915061299e565b61299b86868686613885565b91505b50949350505050565b604080516001600160a01b038416602080830191909152818301849052825180830384018152606090920183528151918101919091206000818152918690529181205490919015612a0957600090815260208590526040812055506001610e8c565b506000949350505050565b604080516001600160a01b03808616602080840191909152828401859052835180840385018152606090930184528251928101929092206000818152600189018452848120928716815292829052928220549192918015612a9457506001600160a01b038516600090815260209190915260408120555060019050611470565b506000979650505050505050565b600081600654811015612ae65760405162461bcd60e51b815260040180806020018281038252602a8152602001806152fa602a913960400191505060405180910390fd5b43831015612afc57610ccf6004600386866135d1565b610ccf600385613449565b6001600160a01b03831660009081526020819052604081205460ff1681816002811115612b3057fe5b1415612b40576000915050610e8c565b6001816002811115612b4e57fe5b1415612b8e576001600160a01b0385166000908152600160205260408120612b769086613640565b9050612b858482612710613289565b92505050610e8c565b6001600160a01b0385166000908152600260205260409020612bb090856133d0565b915050610e8c565b80600654811015612bfa5760405162461bcd60e51b815260040180806020018281038252602a8152602001806152fa602a913960400191505060405180910390fd5b438210612c385760405162461bcd60e51b815260040180806020018281038252603b8152602001806153ad603b913960400191505060405180910390fd5b6000612c4686868686613885565b9050612c586004600388888588613938565b846001600160a01b0316866001600160a01b03167fd6f80c7d68e3e62bd7a51c3d37e575c1cfbc311c07487b69ef4eb570bc21cb688386604051808381526020018281526020019250505060405180910390a3505050505050565b6000612cc0858484613aab565b9050612cd160028601858585613455565b01949350505050565b60065490565b600081600654811015612d245760405162461bcd60e51b815260040180806020018281038252602a8152602001806152fa602a913960400191505060405180910390fd5b438310612d78576040805162461bcd60e51b815260206004820181905260248201527f43616e206f6e6c79206265207573656420666f72207061737420626c6f636b73604482015290519081900360640190fd5b600080612d89600460038888613b4c565b91509150801561299e57604080516001600160a01b03881681526020810187905281517fb0b412112c2958bbc2537fa96db51ddcfe7d0d074143f0b5308b6aab19b6694b929181900390910190a150949350505050565b600082820183811015610e8c576040805162461bcd60e51b815260206004820152601b60248201527f536166654d6174683a206164646974696f6e206f766572666c6f770000000000604482015290519081900360640190fd5b60016001600160a01b03841660009081526020819052604090205460ff166002811115612e6357fe5b1415612e8257612e7d8383612e788185612de0565b613bd6565b610bb3565b612e90600384836000613d16565b600654611752906003908590600290612156565b6000612ecb8260405180606001604052806026815260200161528c60269139859190613d62565b905060016001600160a01b03851660009081526020819052604090205460ff166002811115612ef657fe5b1415612f0c57612f07848483613bd6565b611752565b612f17848484613dbc565b6040518060400160405280602081526020017f556e64656c65676174656420766f746520706f77657220746f6f20736d616c6c81525090612f995760405162461bcd60e51b8152602060048201818152835160248401528351909283926044909101919085019080838360008315610b5f578181015183820152602001610b47565b50612fa8600385600085613d16565b60065461107f906003908690600290612156565b612fc7858483612ea4565b61107f848383612e3a565b6001600160a01b031660009081526020819052604090205460ff1690565b606080826006548110156130355760405162461bcd60e51b815260040180806020018281038252602a8152602001806152fa602a913960400191505060405180910390fd5b6001600160a01b038516600090815260016020526040902060608061305a8388613e09565b909250905060005b82518110156130be576130968984838151811061307b57fe5b60200260200101518a6004613831909392919063ffffffff16565b156130b65760008282815181106130a957fe5b6020026020010181815250505b600101613062565b506000805b83518110156130f6578281815181106130d857fe5b60200260200101516000146130ee576001909101905b6001016130c3565b50806001600160401b038111801561310d57600080fd5b50604051908082528060200260200182016040528015613137578160200160208202803683370190505b509650806001600160401b038111801561315057600080fd5b5060405190808252806020026020018201604052801561317a578160200160208202803683370190505b5095506000805b845181101561321f5783818151811061319657fe5b6020026020010151600014613217578481815181106131b157fe5b60200260200101518983815181106131c557fe5b60200260200101906001600160a01b031690816001600160a01b0316815250508381815181106131f157fe5b602002602001015188838151811061320557fe5b60209081029190910101526001909101905b600101613181565b505050505050509250929050565b600780546001600160a01b0319166001600160a01b0392909216919091179055565b6000611470848484613e21565b6000610a5b82613e43565b6000610a5b8243613e8b565b60608061327f83613ed9565b915091505b915091565b60008082116132d2576040805162461bcd60e51b815260206004820152601060248201526f4469766973696f6e206279207a65726f60801b604482015290519081900360640190fd5b836132df57506000610e8c565b838302838582816132ec57fe5b041415613305578281816132fc57fe5b04915050610e8c565b600083868161331057fe5b049050600084878161331e57fe5b069050600085878161332c57fe5b049050600086888161333a57fe5b0690506121c46133548861334e8685613ee6565b90613f3f565b6123e46133618686613ee6565b6123e461336e8987613ee6565b6123e48d61337c8c8b613ee6565b90613ee6565b82826001600160a01b0382161580156133a257506001600160a01b038116155b156133a957fe5b826133b3576133bf565b6133bf86858786613fa6565b505050505050565b610d5b8161402f565b6000610e8c6002840183614155565b60006133ee6002850184614155565b9050600061342f836123e484604051806040016040528060098152602001680546f74616c203c20360bc1b8152506134288a600001613e43565b9190613d62565b905061343f600286018585614176565b61107f8582614194565b6000610e8c8383614155565b60006001600160a01b03841615612a09576001600160a01b0384166000908152602086905260409020613489908484613aab565b9050611470565b6000816006548110156134d45760405162461bcd60e51b815260040180806020018281038252602a8152602001806152fa602a913960400191505060405180910390fd5b6001600160a01b03851660009081526020819052604081205460ff16908160028111156134fd57fe5b141561350d5760009250506121cb565b600281600281111561351b57fe5b141561354b576001600160a01b03861660009081526002602052604090206135439085614355565b9250506121cb565b6001600160a01b0386166000908152600160205260409020613543908686614361565b600080838311156135845750600090508061358d565b50600190508183035b9250929050565b82826001600160a01b0382161580156135b457506001600160a01b038116155b156135bb57fe5b826135c5576133bf565b6133bf86868686613fa6565b604080516001600160a01b0384166020808301919091528183018490528251808303840181526060909201835281519181019190912060008181529187905291812054909190801561362a576000190191506114709050565b61363586868661324f565b979650505050505050565b6000610e8c8383614371565b61271081111561365857fe5b6136638383836143b5565b61271061366f846145d9565b11156040518060400160405280601c81526020017f4d61782064656c65676174696f6e206269707320657863656564656400000000815250906117525760405162461bcd60e51b8152602060048201818152835160248401528351909283926044909101919085019080838360008315610b5f578181015183820152602001610b47565b60008161370257506000610e8c565b6001840154600160401b90046001600160401b031680613726576000915050610e8c565b60018501546001600160401b0316600061374c6137438388612de0565b600185036145e5565b9050815b818110801561378a575060018101600090815260208981526040808320838052909152902054600160b01b90046001600160401b03168610155b156137ee57600081815260208981526040808320838052918290528220549091600160f01b90910460ff16905b818110156137e357600081815260208490526040902080546001600160f81b03191690556001016137b7565b505050600101613750565b82811115613823576137ff816145fb565b60018901805467ffffffffffffffff19166001600160401b03929092169190911790555b919091039695505050505050565b604080516001600160a01b0394851660208083019190915281830193909352815180820383018152606090910182528051908301206000908152600195909501825280852092909316845252902054151590565b6001600160a01b03841660009081526020819052604081205460ff16818160028111156138ae57fe5b14156138be576000915050611470565b60018160028111156138cc57fe5b141561390d576001600160a01b03861660009081526001602052604081206138f5908786614643565b90506139048582612710613289565b92505050611470565b6001600160a01b0386166000908152600260205260409020613930908685614650565b915050611470565b81613942576133bf565b604080516001600160a01b0380871660208084019190915282840185905283518084038501815260609093018452825192810192909220600081815260018b0184528481209288168152919092529190912054156139d9576040805162461bcd60e51b815260206004820152600f60248201526e105b1c9958591e481c995d9bdad959608a1b604482015290519081900360640190fd5b60006139e788888786613b4c565b5090506000858460405160200180836001600160a01b0316815260200182815260200192505050604051602081830303815290604052805190602001209050613a7a8982613a75886040518060400160405280601781526020017f5265766f6b65642076616c756520746f6f206c6172676500000000000000000081525087613d629092919063ffffffff16565b614660565b5050600090815260018701602090815260408083206001600160a01b03871684529091529020829055505050505050565b600081613aba57506000610e8c565b6001840154600160401b90046001600160401b031680613ade576000915050610e8c565b60018501546001600160401b03166000613afb6137438388612de0565b9050815b8181108015613b30575060018101600090815260208990526040902054600160c01b90046001600160401b03168610155b156137ee57600081815260208990526040812055600101613aff565b604080516001600160a01b0384166020808301919091528183018490528251808303840181526060909201835281519181019190912060008181529187905291812054909182918015613baa5760001901925060009150613bcd9050565b6000613bb788888861324f565b9050613bc4898483614660565b93506001925050505b94509492505050565b6001600160a01b0383166000908152600160205260408120908290849080613bfd8561467e565b9150915060005b82811015613ce1576000818152602083905260408120805490916001600160a01b03821691600160a01b900461ffff1690613c428c83612710613289565b90506000613c538c84612710613289565b9050613c5f8a83612de0565b9950613c6b8982612de0565b9850613c7a6003858385613d16565b600654613c8e906003908690600290612156565b50836001600160a01b03168e6001600160a01b03166000805160206152da8339815191528484604051808381526020018281526020019250505060405180910390a3505060019093019250613c04915050565b50828414613d0c57613cf66003898686613d16565b600654613d0a906003908a90600290612156565b505b5050505050505050565b6001600160a01b038316613d2657fe5b80821415613d3357611752565b6000613d3f8585614155565b9050613d5582613d4f8386612de0565b9061468a565b905061107f858583614176565b60008184841115613db45760405162461bcd60e51b8152602060048201818152835160248401528351909283926044909101919085019080838360008315610b5f578181015183820152602001610b47565b505050900390565b600060026001600160a01b03851660009081526020819052604090205460ff166002811115613de757fe5b1415613e015781613df885856126a3565b10159050610e8c565b506001610e8c565b606080613e1684846146e7565b915091509250929050565b6001600160a01b038216600090815260208490526040812061206f8184614856565b6001810154600090600160401b90046001600160401b031680613e6a576000915050610e1a565b6000190160009081526020929092525060409020546001600160c01b031690565b6000806000613e9a8585614999565b9150915081613eae57600092505050610a5b565b6000908152602094855260408082208280529095529390932054600160f01b900460ff169392505050565b60608061327f83436146e7565b600082613ef557506000610a5b565b82820282848281613f0257fe5b0414610e8c5760405162461bcd60e51b81526004018080602001828103825260218152602001806153666021913960400191505060405180910390fd5b6000808211613f95576040805162461bcd60e51b815260206004820152601a60248201527f536166654d6174683a206469766973696f6e206279207a65726f000000000000604482015290519081900360640190fd5b818381613f9e57fe5b049392505050565b80613fb057611752565b6001600160a01b038316158015613fce57506001600160a01b038216155b15613fd557fe5b6001600160a01b03831615614003576000613ff482613d4f8787614155565b9050614001858583614176565b505b6001600160a01b03821615611752576000614022826123e48786614155565b905061107f858483614176565b6001810154600160401b90046001600160401b0316801561168a576000818152602083905260409020614064600183016145fb565b6001840180546001600160401b0392909216600160401b0267ffffffffffffffff60401b1990921691909117905560408051608081018252600080825260208201529081016140b2436145fb565b6001600160401b039081168252600060209283018190528080529382526040938490208351815493850151958501516060909501516001600160a01b03199094166001600160a01b039091161761ffff60a01b1916600160a01b61ffff909616959095029490941767ffffffffffffffff60b01b1916600160b01b93909116929092029190911760ff60f01b1916600160f01b60ff909216919091021790555050565b6001600160a01b038116600090815260208390526040812061147081613e43565b6001600160a01b038216600090815260208490526040902061175281835b6001820154600160401b90046001600160401b03168061424b5760405180604001604052806141c284614a98565b6001600160c01b031681526020016141d9436145fb565b6001600160401b03908116909152600080805260208681526040909120835181549490920151909216600160c01b026001600160c01b039182166001600160c01b0319909416939093171691909117905560018301805467ffffffffffffffff60401b1916600160401b179055610bb3565b600019810160009081526020849052604090208054600160c01b90046001600160401b0316438114156142a15761428184614a98565b82546001600160c01b0319166001600160c01b039190911617825561107f565b8043116142aa57fe5b60405180604001604052806142be86614a98565b6001600160c01b031681526020016142d5436145fb565b6001600160401b039081169091526000858152602088815260409091208351815494909201518316600160c01b026001600160c01b039283166001600160c01b0319909516949094179091169290921790915560018087018054918601909216600160401b0267ffffffffffffffff60401b199091161790555050505050565b6000610e8c8383614856565b6000611470848461271085614af2565b6001820154600090600160401b90046001600160401b031680614398576000915050610a5b565b600019810160009081526020859052604090206114709084614b8d565b6001830154600160401b90046001600160401b0316806144f0578115612f075760008181526020859052604090206143ef600183016145fb565b8560010160086101000a8154816001600160401b0302191690836001600160401b031602179055506040518060800160405280856001600160a01b0316815260200161443a85614bf2565b61ffff16815260200161444c436145fb565b6001600160401b039081168252600160209283015260008080529382526040938490208351815493850151958501516060909501516001600160a01b03199094166001600160a01b039091161761ffff60a01b1916600160a01b61ffff909616959095029490941767ffffffffffffffff60b01b1916600160b01b93909116929092029190911760ff60f01b1916600160f01b60ff90921691909102179055611752565b60001981016000908152602085815260408083208380529182905290912054600160b01b90046001600160401b03164381141561453757614532828686614c35565b6133bf565b80431161454057fe5b600083815260208790526040902061455a600185016145fb565b8760010160086101000a8154816001600160401b0302191690836001600160401b0316021790555061458e81848888614d4a565b614597436145fb565b6000808052602092909252604090912080546001600160401b0392909216600160b01b0267ffffffffffffffff60b01b19909216919091179055505050505050565b6000610a5b8243614e60565b60008183106145f45781610e8c565b5090919050565b6000600160401b821061463f5760405162461bcd60e51b81526004018080602001828103825260268152602001806153876026913960400191505060405180910390fd5b5090565b6000611470848484614eee565b6000611470600285018484613e21565b61466b816001612de0565b6000928352602093909352506040902055565b60008061327f83614f33565b6000828211156146e1576040805162461bcd60e51b815260206004820152601e60248201527f536166654d6174683a207375627472616374696f6e206f766572666c6f770000604482015290519081900360640190fd5b50900390565b6060806000806146f78686614999565b9150915081614721575050604080516000808252602082019081528183019092529250905061358d565b6000818152602087815260408083208380529182905290912054600160f01b900460ff16806001600160401b038111801561475b57600080fd5b50604051908082528060200260200182016040528015614785578160200160208202803683370190505b509550806001600160401b038111801561479e57600080fd5b506040519080825280602002602001820160405280156147c8578160200160208202803683370190505b50945060005b8181101561484a576000818152602084905260409020805488516001600160a01b039091169089908490811061480057fe5b6001600160a01b03929092166020928302919091019091015280548751600160a01b90910461ffff169088908490811061483657fe5b6020908102919091010152506001016147ce565b50505050509250929050565b6001820154600090600160401b90046001600160401b03168061487d576000915050610a5b565b43831015806148af57506000198101600090815260208590526040902054600160c01b90046001600160401b03168310155b156148d757600019016000908152602084905260409020546001600160c01b03169050610a5b565b60018401546001600160401b039081166000818152602087905260409020549091600160c01b909104168410156149505780156149455760405162461bcd60e51b81526004018080602001828103825260308152602001806153e86030913960400191505060405180910390fd5b600092505050610a5b565b60018501546000906149769087908490600160401b90046001600160401b031688614f97565b6000908152602087905260409020546001600160c01b0316935050505092915050565b600182015460009081906001600160401b0380821691600160401b900416806149c55760009350614a8f565b6000198101600090815260208781526040808320838052909152902054600160b01b90046001600160401b03168510614a075760019350600181039250614a8f565b600082815260208781526040808320838052909152902054600160b01b90046001600160401b0316851015614a7c578115614a735760405162461bcd60e51b81526004018080602001828103825260308152602001806151d96030913960400191505060405180910390fd5b60009350614a8f565b60019350614a8c86838388615015565b92505b50509250929050565b6000600160c01b821061463f576040805162461bcd60e51b815260206004820152601d60248201527f76616c756520646f65736e27742066697420696e203139322062697473000000604482015290519081900360640190fd5b6000806000614b018785614999565b9150915081614b1557600092505050611470565b6000818152602088815260408083208380529182905282205491945090600160f01b900460ff16845b81811015614b8057600081815260208490526040902054614b7690614b6f90600160a01b900461ffff168b8b613289565b8790612de0565b9550600101614b3e565b5050505050949350505050565b600080805260208390526040812054600160f01b900460ff16815b81811015612a0957600081815260208690526040902080546001600160a01b0386811691161415614be95754600160a01b900461ffff169250610a5b915050565b50600101614ba8565b600062010000821061463f5760405162461bcd60e51b81526004018080602001828103825260268152602001806152096026913960400191505060405180910390fd5b600080805260208490526040812054600160f01b900460ff16905b8181108015614c7957506000818152602086905260409020546001600160a01b03858116911614155b15614c8657600101614c50565b81811015614d0a578215614ccf57614c9d83614bf2565b6000828152602087905260409020805461ffff92909216600160a01b0261ffff60a01b199092169190911790556119e1565b614cdd858260018503615092565b6000808052602086905260409020805460ff60f01b1916600160f01b600019850160ff160217905561107f565b6000614d18868686866150fd565b6000808052602088905260409020805460ff909216600160f01b0260ff60f01b19909216919091179055505050505050565b600080805260208490526040812054600160f01b900460ff169080805b83811015614e175760008181526020888152604091829020825160808101845290546001600160a01b03808216808452600160a01b830461ffff1694840194909452600160b01b82046001600160401b031694830194909452600160f01b900460ff1660608201529188161415614df357614de889826000015188866150fd565b925060019350614e0e565b614e0b898260000151836020015161ffff16866150fd565b92505b50600101614d67565b5081614e2c57614e29878686846150fd565b90505b60008080526020979097526040909620805460ff909716600160f01b0260ff60f01b19909716969096179095555050505050565b6000806000614e6f8585614999565b9150915081614e8357600092505050610a5b565b6000818152602086815260408083208380529182905282205491945090600160f01b900460ff16845b81811015614ee357600081815260208490526040902054614ed9908790600160a01b900461ffff16612de0565b9550600101614eac565b505050505092915050565b6000806000614efd8685614999565b9150915081614f1157600092505050610e8c565b6000818152602087905260409020614f299086614b8d565b9695505050505050565b60018101546000908190600160401b90046001600160401b031680614f6a5750506000808052602083905260408120909150613284565b6000190160009081526020938452604080822082805294859052902054600160f01b900460ff1693915050565b60008381614fa685600161468a565b90505b8181111561500b576000614fc7600261334e60016123e48688612de0565b600081815260208a90526040902054909150600160c01b90046001600160401b03168510614ff757809250615005565b61500281600161468a565b91505b50614fa9565b5095945050505050565b6000838161502485600161468a565b90505b8181111561500b576000615045600261334e60016123e48688612de0565b600081815260208a81526040808320838052909152902054909150600160b01b90046001600160401b0316851061507e5780925061508c565b61508981600161468a565b91505b50615027565b6000828152602084905260408082208383529120828410156150e957805482546001600160a01b0319166001600160a01b0390911617808355815461ffff600160a01b91829004160261ffff60a01b199091161782555b80546001600160b01b031916905550505050565b600082156121cb5760408051808201909152601681527513585e0819195b1959d85d195cc8195e18d95959195960521b6020820152600283106151815760405162461bcd60e51b8152602060048201818152835160248401528351909283926044909101919085019080838360008315610b5f578181015183820152602001610b47565b50600082815260208690526040902080546001600160a01b0319166001600160a01b0386161781556151b284614bf2565b815461ffff91909116600160a01b0261ffff60a01b19909116179055506001810161147056fe44656c65676174696f6e486973746f72793a2072656164696e672066726f6d20636c65616e65642d757020626c6f636b53616665436173743a2076616c756520646f65736e27742066697420696e2031362062697473436c65616e757020626c6f636b206d75737420626520696e207468652070617374756e64656c6567617465416c6c2063616e206f6e6c79206265207573656420696e2070657263656e746167652064656c65676174696f6e206d6f646545524332303a207472616e7366657220616d6f756e7420657863656564732062616c616e6365436c65616e757020626c6f636b206e756d626572206d757374206e65766572206465637265617365500599802164a08023e87ffc3eed0ba3ae60697b3083ba81d046683679d81c6b44656c6567617461626c653a2072656164696e672066726f6d20636c65616e65642d757020626c6f636b756e64656c6567617465416c6c4578706c696369742063616e206f6e6c79206265207573656420696e206578706c696369742064656c65676174696f6e206d6f6465536166654d6174683a206d756c7469706c69636174696f6e206f766572666c6f7753616665436173743a2076616c756520646f65736e27742066697420696e20363420626974735265766f6b65206973206f6e6c7920666f722074686520706173742c2075736520756e64656c656761746520666f72207468652070726573656e74436865636b506f696e74486973746f72793a2072656164696e672066726f6d20636c65616e65642d757020626c6f636b64656c6567617465734f6620646f6573206e6f7420776f726b20696e20414d4f554e542064656c65676174696f6e206d6f6465a264697066735822122054f0dc0f239a104b751467cdb74f799f4eeb0de5481c8b4f9fd96c68ae1263e064736f6c634300070600335650436f6e7472616374206d7573742062656c6f6e6720746f2061205650546f6b656e",
  "linkReferences": {},
  "deployedLinkReferences": {}
}