{
  "_format": "hh-sol-artifact-1",
  "contractName": "IncentivePoolReceiverMock",
  "sourceName": "contracts/tokenPools/mock/IncentivePoolReceiverMock.sol",
  "abi": [
    {
      "inputs": [
        {
          "internalType": "address",
          "name": "_addressUpdater",
          "type": "address"
        }
      ],
      "stateMutability": "nonpayable",
      "type": "constructor"
    },
    {
      "anonymous": false,
      "inputs": [
        {
          "indexed": false,
          "internalType": "uint256",
          "name": "authorizedAmountWei",
          "type": "uint256"
        }
      ],
      "name": "DailyAuthorizedIncentiveSet",
      "type": "event"
    },
    {
      "anonymous": false,
      "inputs": [
        {
          "indexed": false,
          "internalType": "uint256",
          "name": "amountReceivedWei",
          "type": "uint256"
        }
      ],
      "name": "IncentiveReceived",
      "type": "event"
    },
    {
      "inputs": [],
      "name": "getAddressUpdater",
      "outputs": [
        {
          "internalType": "address",
          "name": "_addressUpdater",
          "type": "address"
        }
      ],
      "stateMutability": "view",
      "type": "function"
    },
    {
      "inputs": [],
      "name": "getContractName",
      "outputs": [
        {
          "internalType": "string",
          "name": "",
          "type": "string"
        }
      ],
      "stateMutability": "pure",
      "type": "function"
    },
    {
      "inputs": [],
      "name": "getExpectedBalance",
      "outputs": [
        {
          "internalType": "uint256",
          "name": "",
          "type": "uint256"
        }
      ],
      "stateMutability": "view",
      "type": "function"
    },
    {
      "inputs": [],
      "name": "getIncentivePoolAddress",
      "outputs": [
        {
          "internalType": "address",
          "name": "",
          "type": "address"
        }
      ],
      "stateMutability": "view",
      "type": "function"
    },
    {
      "inputs": [],
      "name": "receiveIncentive",
      "outputs": [],
      "stateMutability": "payable",
      "type": "function"
    },
    {
      "inputs": [
        {
          "internalType": "uint256",
          "name": "_toAuthorizeWei",
          "type": "uint256"
        }
      ],
      "name": "setDailyAuthorizedIncentive",
      "outputs": [],
      "stateMutability": "nonpayable",
      "type": "function"
    },
    {
      "inputs": [
        {
          "internalType": "bytes32[]",
          "name": "_contractNameHashes",
          "type": "bytes32[]"
        },
        {
          "internalType": "address[]",
          "name": "_contractAddresses",
          "type": "address[]"
        }
      ],
      "name": "updateContractAddresses",
      "outputs": [],
      "stateMutability": "nonpayable",
      "type": "function"
    }
  ],
  "bytecode": "0x608060405234801561001057600080fd5b506040516108e33803806108e38339818101604052602081101561003357600080fd5b5051808061004081610048565b50505061006c565b7f714f205b2abd25bef1d06a1af944e38c113fe6160375c4e1d6d5cf28848e771955565b6108688061007b6000396000f3fe6080604052600436106100705760003560e01c8063af04cd3b1161004e578063af04cd3b146100c5578063b00c0b76146100ec578063de6feb7814610220578063f5f5ba721461024a57610070565b80630ac4d982146100755780635267a15d146100a657806353b1e258146100bb575b600080fd5b34801561008157600080fd5b5061008a6102d4565b604080516001600160a01b039092168252519081900360200190f35b3480156100b257600080fd5b5061008a6102e3565b6100c3610308565b005b3480156100d157600080fd5b506100da61036d565b60408051918252519081900360200190f35b3480156100f857600080fd5b506100c36004803603604081101561010f57600080fd5b81019060208101813564010000000081111561012a57600080fd5b82018360208201111561013c57600080fd5b8035906020019184602083028401116401000000008311171561015e57600080fd5b91908080602002602001604051908101604052809392919081815260200183836020028082843760009201919091525092959493602081019350359150506401000000008111156101ae57600080fd5b8201836020820111156101c057600080fd5b803590602001918460208302840111640100000000831117156101e257600080fd5b91908080602002602001604051908101604052809392919081815260200183836020028082843760009201919091525092955061037c945050505050565b34801561022c57600080fd5b506100c36004803603602081101561024357600080fd5b5035610427565b34801561025657600080fd5b5061025f610487565b6040805160208082528351818301528351919283929083019185019080838360005b83811015610299578181015183820152602001610281565b50505050905090810190601f1680156102c65780820380516001836020036101000a031916815260200191505b509250505060405180910390f35b6004546001600160a01b031690565b7f714f205b2abd25bef1d06a1af944e38c113fe6160375c4e1d6d5cf28848e77195490565b6103106104be565b610318610525565b600154610325903461057a565b60015561033061036b565b6040805134815290517f315f313628a86fd313dacf173d9ea6d987a528c9c0c7161c5571099645198b4d9181900360200190a161036b6105db565b565b6000610377610627565b905090565b6103846102e3565b6001600160a01b0316336001600160a01b0316146103e0576040805162461bcd60e51b815260206004820152601460248201527337b7363c9030b2323932b9b9903ab83230ba32b960611b604482015290519081900360640190fd5b61041961041483836040518060400160405280600e81526020016d20b2323932b9b9aab83230ba32b960911b81525061062d565b61075a565b610423828261077e565b5050565b61042f610525565b6003819055600054610441908261057a565b60005542600255610451816107d2565b6040805182815290517fcf636cc80b637bbb81f27bae78adac0fb5b5dee402042a20c6febb1630d5b81b9181900360200190a150565b60408051808201909152601981527f496e63656e74697665506f6f6c52656365697665724d6f636b00000000000000602082015290565b60006104d2346104cc610627565b9061057a565b9050478181111561051b5761dead6108fc6104ed83856107d5565b6040518115909202916000818181858888f19350505050158015610515573d6000803e3d6000fd5b50610423565b8181101561042357fe5b6004546001600160a01b0316331461036b576040805162461bcd60e51b8152602060048201526013602482015272696e63656e7469766520706f6f6c206f6e6c7960681b604482015290519081900360640190fd5b6000828201838110156105d4576040805162461bcd60e51b815260206004820152601b60248201527f536166654d6174683a206164646974696f6e206f766572666c6f770000000000604482015290519081900360640190fd5b9392505050565b6105e3610627565b471461036b576040805162461bcd60e51b815260206004820152600e60248201526d6f7574206f662062616c616e636560901b604482015290519081900360640190fd5b60015490565b600080826040516020018080602001828103825283818151815260200191508051906020019080838360005b83811015610671578181015183820152602001610659565b50505050905090810190601f16801561069e5780820380516001836020036101000a031916815260200191505b50925050506040516020818303038152906040528051906020012090506000805b8651811015610706578681815181106106d457fe5b60200260200101518314156106fe578581815181106106ef57fe5b60200260200101519150610706565b6001016106bf565b506001600160a01b038116610751576040805162461bcd60e51b815260206004820152600c60248201526b61646472657373207a65726f60a01b604482015290519081900360640190fd5b95945050505050565b7f714f205b2abd25bef1d06a1af944e38c113fe6160375c4e1d6d5cf28848e771955565b6107ae82826040518060400160405280600d81526020016c125b98d95b9d1a5d99541bdbdb609a1b81525061062d565b600480546001600160a01b0319166001600160a01b03929092169190911790555050565b50565b60008282111561082c576040805162461bcd60e51b815260206004820152601e60248201527f536166654d6174683a207375627472616374696f6e206f766572666c6f770000604482015290519081900360640190fd5b5090039056fea2646970667358221220af208b03f41b6460cc56593858c33a7d645968800f06bbc99406f3995f5dfd3f64736f6c63430007060033",
  "linkReferences": {},
  "deployedLinkReferences": {}
}