{
  "_format": "hh-sol-artifact-1",
  "contractName": "IncentivePoolAllocation",
  "sourceName": "contracts/tokenPools/implementation/IncentivePoolAllocation.sol",
  "abi": [
    {
      "inputs": [
        {
          "internalType": "address",
          "name": "_governance",
          "type": "address"
        },
        {
          "internalType": "address",
          "name": "_addressUpdater",
          "type": "address"
        },
        {
          "internalType": "uint256[]",
          "name": "_timeSlotIncentivePoolScheduleBips",
          "type": "uint256[]"
        }
      ],
      "stateMutability": "nonpayable",
      "type": "constructor"
    },
    {
      "anonymous": false,
      "inputs": [
        {
          "indexed": false,
          "internalType": "bytes4",
          "name": "selector",
          "type": "bytes4"
        },
        {
          "indexed": false,
          "internalType": "uint256",
          "name": "allowedAfterTimestamp",
          "type": "uint256"
        },
        {
          "indexed": false,
          "internalType": "bytes",
          "name": "encodedCall",
          "type": "bytes"
        }
      ],
      "name": "GovernanceCallTimelocked",
      "type": "event"
    },
    {
      "anonymous": false,
      "inputs": [
        {
          "indexed": false,
          "internalType": "address",
          "name": "initialGovernance",
          "type": "address"
        }
      ],
      "name": "GovernanceInitialised",
      "type": "event"
    },
    {
      "anonymous": false,
      "inputs": [
        {
          "indexed": false,
          "internalType": "address",
          "name": "governanceSettings",
          "type": "address"
        }
      ],
      "name": "GovernedProductionModeEntered",
      "type": "event"
    },
    {
      "anonymous": false,
      "inputs": [
        {
          "indexed": false,
          "internalType": "address",
          "name": "oldAddress",
          "type": "address"
        },
        {
          "indexed": false,
          "internalType": "address",
          "name": "newAddress",
          "type": "address"
        }
      ],
      "name": "IncentivePoolSet",
      "type": "event"
    },
    {
      "anonymous": false,
      "inputs": [
        {
          "indexed": false,
          "internalType": "contract IIIncentivePoolReceiver[]",
          "name": "incentivePoolReceivers",
          "type": "address[]"
        },
        {
          "indexed": false,
          "internalType": "uint256[]",
          "name": "percentagePerReceiverBips",
          "type": "uint256[]"
        }
      ],
      "name": "IncentivePoolSharingPercentagesSet",
      "type": "event"
    },
    {
      "anonymous": false,
      "inputs": [
        {
          "indexed": false,
          "internalType": "uint256[]",
          "name": "timeSlotIncentivePoolPercentagesBips",
          "type": "uint256[]"
        }
      ],
      "name": "TimeSlotIncentivePoolPercentageScheduleSet",
      "type": "event"
    },
    {
      "anonymous": false,
      "inputs": [
        {
          "indexed": false,
          "internalType": "uint256",
          "name": "percentageBips",
          "type": "uint256"
        }
      ],
      "name": "TimeSlotIncentivePoolPercentageYielded",
      "type": "event"
    },
    {
      "anonymous": false,
      "inputs": [
        {
          "indexed": false,
          "internalType": "bytes4",
          "name": "selector",
          "type": "bytes4"
        },
        {
          "indexed": false,
          "internalType": "uint256",
          "name": "timestamp",
          "type": "uint256"
        }
      ],
      "name": "TimelockedGovernanceCallCanceled",
      "type": "event"
    },
    {
      "anonymous": false,
      "inputs": [
        {
          "indexed": false,
          "internalType": "bytes4",
          "name": "selector",
          "type": "bytes4"
        },
        {
          "indexed": false,
          "internalType": "uint256",
          "name": "timestamp",
          "type": "uint256"
        }
      ],
      "name": "TimelockedGovernanceCallExecuted",
      "type": "event"
    },
    {
      "inputs": [
        {
          "internalType": "bytes4",
          "name": "_selector",
          "type": "bytes4"
        }
      ],
      "name": "cancelGovernanceCall",
      "outputs": [],
      "stateMutability": "nonpayable",
      "type": "function"
    },
    {
      "inputs": [
        {
          "internalType": "bytes4",
          "name": "_selector",
          "type": "bytes4"
        }
      ],
      "name": "executeGovernanceCall",
      "outputs": [],
      "stateMutability": "nonpayable",
      "type": "function"
    },
    {
      "inputs": [],
      "name": "getAddressUpdater",
      "outputs": [
        {
          "internalType": "address",
          "name": "_addressUpdater",
          "type": "address"
        }
      ],
      "stateMutability": "view",
      "type": "function"
    },
    {
      "inputs": [],
      "name": "getSharingPercentages",
      "outputs": [
        {
          "components": [
            {
              "internalType": "contract IIIncentivePoolReceiver",
              "name": "incentivePoolReceiver",
              "type": "address"
            },
            {
              "internalType": "uint256",
              "name": "percentBips",
              "type": "uint256"
            }
          ],
          "internalType": "struct SharingPercentage[]",
          "name": "_sharingPercentages",
          "type": "tuple[]"
        }
      ],
      "stateMutability": "view",
      "type": "function"
    },
    {
      "inputs": [],
      "name": "getTimeSlotPercentageBips",
      "outputs": [
        {
          "internalType": "uint256",
          "name": "",
          "type": "uint256"
        }
      ],
      "stateMutability": "nonpayable",
      "type": "function"
    },
    {
      "inputs": [],
      "name": "governance",
      "outputs": [
        {
          "internalType": "address",
          "name": "",
          "type": "address"
        }
      ],
      "stateMutability": "view",
      "type": "function"
    },
    {
      "inputs": [],
      "name": "governanceSettings",
      "outputs": [
        {
          "internalType": "contract IGovernanceSettings",
          "name": "",
          "type": "address"
        }
      ],
      "stateMutability": "view",
      "type": "function"
    },
    {
      "inputs": [],
      "name": "incentivePool",
      "outputs": [
        {
          "internalType": "contract IncentivePool",
          "name": "",
          "type": "address"
        }
      ],
      "stateMutability": "view",
      "type": "function"
    },
    {
      "inputs": [
        {
          "internalType": "uint256",
          "name": "",
          "type": "uint256"
        }
      ],
      "name": "incentivePoolReceivers",
      "outputs": [
        {
          "internalType": "contract IIIncentivePoolReceiver",
          "name": "receiverContract",
          "type": "address"
        },
        {
          "internalType": "uint32",
          "name": "percentageBips",
          "type": "uint32"
        }
      ],
      "stateMutability": "view",
      "type": "function"
    },
    {
      "inputs": [
        {
          "internalType": "address",
          "name": "_initialGovernance",
          "type": "address"
        }
      ],
      "name": "initialise",
      "outputs": [],
      "stateMutability": "nonpayable",
      "type": "function"
    },
    {
      "inputs": [],
      "name": "lastTimeSlotIncentivePoolPercentageBips",
      "outputs": [
        {
          "internalType": "uint256",
          "name": "",
          "type": "uint256"
        }
      ],
      "stateMutability": "view",
      "type": "function"
    },
    {
      "inputs": [],
      "name": "productionMode",
      "outputs": [
        {
          "internalType": "bool",
          "name": "",
          "type": "bool"
        }
      ],
      "stateMutability": "view",
      "type": "function"
    },
    {
      "inputs": [
        {
          "internalType": "contract IIIncentivePoolReceiver[]",
          "name": "_incentivePoolReceivers",
          "type": "address[]"
        },
        {
          "internalType": "uint256[]",
          "name": "_percentagePerReceiverBips",
          "type": "uint256[]"
        }
      ],
      "name": "setSharingPercentages",
      "outputs": [],
      "stateMutability": "nonpayable",
      "type": "function"
    },
    {
      "inputs": [
        {
          "internalType": "uint256[]",
          "name": "_timeSlotIncentivePoolScheduleBips",
          "type": "uint256[]"
        }
      ],
      "name": "setTimeSlotIncentivePool",
      "outputs": [],
      "stateMutability": "nonpayable",
      "type": "function"
    },
    {
      "inputs": [],
      "name": "switchToProductionMode",
      "outputs": [],
      "stateMutability": "nonpayable",
      "type": "function"
    },
    {
      "inputs": [
        {
          "internalType": "uint256",
          "name": "",
          "type": "uint256"
        }
      ],
      "name": "timeSlotIncentivePoolPercentagesBips",
      "outputs": [
        {
          "internalType": "uint256",
          "name": "",
          "type": "uint256"
        }
      ],
      "stateMutability": "view",
      "type": "function"
    },
    {
      "inputs": [
        {
          "internalType": "bytes4",
          "name": "",
          "type": "bytes4"
        }
      ],
      "name": "timelockedCalls",
      "outputs": [
        {
          "internalType": "uint256",
          "name": "allowedAfterTimestamp",
          "type": "uint256"
        },
        {
          "internalType": "bytes",
          "name": "encodedCall",
          "type": "bytes"
        }
      ],
      "stateMutability": "view",
      "type": "function"
    },
    {
      "inputs": [
        {
          "internalType": "bytes32[]",
          "name": "_contractNameHashes",
          "type": "bytes32[]"
        },
        {
          "internalType": "address[]",
          "name": "_contractAddresses",
          "type": "address[]"
        }
      ],
      "name": "updateContractAddresses",
      "outputs": [],
      "stateMutability": "nonpayable",
      "type": "function"
    }
  ],
  "bytecode": "0x60806040523480156200001157600080fd5b50604051620023dc380380620023dc83398101604081905262000034916200031d565b8183806001600160a01b038116156200005257620000528162000129565b506001600160a01b038116620000a2576040805162461bcd60e51b815260206004820152601060248201526f5f676f7665726e616e6365207a65726f60801b604482015290519081900360640190fd5b50620000ae81620001ec565b5060008151116040518060600160405280602781526020016200238f6027913990620000f85760405162461bcd60e51b8152600401620000ef9190620003fa565b60405180910390fd5b50806000815181106200010757fe5b6020908102919091010151600455620001208162000210565b50505062000450565b600054600160a01b900460ff161562000189576040805162461bcd60e51b815260206004820152601460248201527f696e697469616c6973656420213d2066616c7365000000000000000000000000604482015290519081900360640190fd5b60008054600160a01b60ff60a01b19909116176001600160a01b0319166001600160a01b03831690811790915560408051918252517f9789733827840833afc031fb2ef9ab6894271f77bad2085687cf4ae5c7bee4db916020908290030190a150565b7f714f205b2abd25bef1d06a1af944e38c113fe6160375c4e1d6d5cf28848e771955565b60198151111560405180604001604052806008815260200167746f6f206d616e7960c01b81525090620002585760405162461bcd60e51b8152600401620000ef9190620003fa565b50805160005b81811015620002fb57600a612710048382815181106200027a57fe5b60200260200101511115604051806060016040528060268152602001620023b66026913990620002bf5760405162461bcd60e51b8152600401620000ef9190620003fa565b506005838281518110620002cf57fe5b60209081029190910181015182546001818101855560009485529290932090920191909155016200025e565b505050565b80516001600160a01b03811681146200031857600080fd5b919050565b60008060006060848603121562000332578283fd5b6200033d8462000300565b925060206200034e81860162000300565b60408601519093506001600160401b03808211156200036b578384fd5b818701915087601f8301126200037f578384fd5b8151818111156200038c57fe5b83810260405185828201018181108582111715620003a657fe5b604052828152858101935084860182860187018c1015620003c5578788fd5b8795505b83861015620003e9578051855260019590950194938601938601620003c9565b508096505050505050509250925092565b6000602080835283518082850152825b8181101562000428578581018301518582016040015282016200040a565b818111156200043a5783604083870101525b50601f01601f1916929092016040019392505050565b611f2f80620004606000396000f3fe608060405234801561001057600080fd5b50600436106101165760003560e01c80638f0612b3116100a2578063b2d9e80611610071578063b2d9e80614610211578063b403ba2f14610224578063c853b8d414610237578063e17f212e1461024c578063f5a983831461026157610116565b80638f0612b3146101ce5780639d6a890f146101e3578063a9f11509146101f6578063b00c0b76146101fe57610116565b80635ff27079116100e95780635ff270791461016a57806362354e031461017f57806367fc40291461018757806374e6310e1461019a5780638ab121a5146101bb57610116565b80632299335a1461011b5780634841422e146101455780635267a15d1461015a5780635aa6e67514610162575b600080fd5b61012e610129366004611c7a565b610269565b60405161013c929190611dfc565b60405180910390f35b61014d6102a1565b60405161013c9190611cf8565b61014d6102b0565b61014d6102d5565b61017d610178366004611bc8565b61036a565b005b61014d6106bf565b61017d610195366004611bc8565b6106ca565b6101ad6101a8366004611bc8565b6107b2565b60405161013c929190611e37565b61017d6101c9366004611b8d565b610858565b6101d6610915565b60405161013c9190611e2e565b61017d6101f13660046119fd565b610aaa565b6101d6610b63565b61017d61020c366004611a20565b610b69565b61017d61021f366004611ad7565b610c14565b6101d6610232366004611c7a565b610c5d565b61023f610c7e565b60405161013c9190611d86565b610254610d88565b60405161013c9190611df1565b61017d610d98565b6002818154811061027957600080fd5b6000918252602090912001546001600160a01b0381169150600160a01b900463ffffffff1682565b6003546001600160a01b031681565b7f714f205b2abd25bef1d06a1af944e38c113fe6160375c4e1d6d5cf28848e77195490565b60008054600160a81b900460ff166102f8576000546001600160a01b0316610365565b60076001609c1b016001600160a01b031663732524946040518163ffffffff1660e01b815260040160206040518083038186803b15801561033857600080fd5b505afa15801561034c573d6000803e3d6000fd5b505050506040513d602081101561036257600080fd5b50515b905090565b60408051630debfda360e41b8152336004820152905160076001609c1b019163debfda30916024808301926020929190829003018186803b1580156103ae57600080fd5b505afa1580156103c2573d6000803e3d6000fd5b505050506040513d60208110156103d857600080fd5b505161041b576040805162461bcd60e51b815260206004820152600d60248201526c37b7363c9032bc32b1baba37b960991b604482015290519081900360640190fd5b6001600160e01b0319811660009081526001602052604090208054610487576040805162461bcd60e51b815260206004820152601a60248201527f74696d656c6f636b3a20696e76616c69642073656c6563746f72000000000000604482015290519081900360640190fd5b80544210156104dd576040805162461bcd60e51b815260206004820152601960248201527f74696d656c6f636b3a206e6f7420616c6c6f7765642079657400000000000000604482015290519081900360640190fd5b6000816001018054600181600116156101000203166002900480601f0160208091040260200160405190810160405280929190818152602001828054600181600116156101000203166002900480156105775780601f1061054c57610100808354040283529160200191610577565b820191906000526020600020905b81548152906001019060200180831161055a57829003601f168201915b5050506001600160e01b03198616600090815260016020819052604082208281559495509092506105ab915083018261183a565b50506000805460ff60b01b1916600160b01b178155604051825130918491819060208401908083835b602083106105f35780518252601f1990920191602091820191016105d4565b6001836020036101000a0380198251168184511680821785525050505050509050019150506000604051808303816000865af19150503d8060008114610655576040519150601f19603f3d011682016040523d82523d6000602084013e61065a565b606091505b50506000805460ff60b01b19169055604080516001600160e01b03198716815242602082015281519293507fa7326b57fc9cfe267aaea5e7f0b01757154d265620a0585819416ee9ddd2c438929081900390910190a16106b981610e52565b50505050565b60076001609c1b0181565b6106d2610e6f565b6001600160e01b0319811660009081526001602052604090205461073d576040805162461bcd60e51b815260206004820152601a60248201527f74696d656c6f636b3a20696e76616c69642073656c6563746f72000000000000604482015290519081900360640190fd5b604080516001600160e01b03198316815242602082015281517f7735b2391c38a81419c513e30ca578db7158eadd7101511b23e221c654d19cf8929181900390910190a16001600160e01b031981166000908152600160208190526040822082815591906107ad9083018261183a565b505050565b600160208181526000928352604092839020805481840180548651600296821615610100026000190190911695909504601f8101859004850286018501909652858552909491939290919083018282801561084e5780601f106108235761010080835404028352916020019161084e565b820191906000526020600020905b81548152906001019060200180831161083157829003601f168201915b5050505050905082565b600054600160b01b900460ff168061087a5750600054600160a81b900460ff16155b1561090757610887610ed0565b60055460005b818110156108c05760058054806108a057fe5b60008281526020812082016000199081019190915501905560010161088d565b506108ca82610f05565b7f47e47b07ea40692433d5f32516a044179959381474eeba3c90e1eb34a0bd95e9826040516108f99190611dde565b60405180910390a150610912565b610912600036610fe5565b50565b60035460408051808201909152600c81526b06164647265737320697320360a41b60208201526000916001600160a01b0316908161096f5760405162461bcd60e51b81526004016109669190611e1b565b60405180910390fd5b506003546040805180820190915260138152721bdb9b1e481a5b98d95b9d1a5d99481c1bdbdb606a1b6020820152906001600160a01b031633146109c65760405162461bcd60e51b81526004016109669190611e1b565b5060055415610a675760056000815481106109dd57fe5b6000918252602090912001546004556005546001811115610a445760005b60018203811015610a425760058160010181548110610a1657fe5b906000526020600020015460058281548110610a2e57fe5b6000918252602090912001556001016109fb565b505b6005805480610a4f57fe5b60019003818190600052602060002001600090559055505b7f3fea81825cde3b6a526dd61103727a26d7ad94ca288d73a346a9124f00da7f8b600454604051610a989190611e2e565b60405180910390a160045491505b5090565b600054600160a01b900460ff1615610b00576040805162461bcd60e51b8152602060048201526014602482015273696e697469616c6973656420213d2066616c736560601b604482015290519081900360640190fd5b60008054600160a01b60ff60a01b19909116176001600160a01b0319166001600160a01b03831690811790915560408051918252517f9789733827840833afc031fb2ef9ab6894271f77bad2085687cf4ae5c7bee4db916020908290030190a150565b60045481565b610b716102b0565b6001600160a01b0316336001600160a01b031614610bcd576040805162461bcd60e51b815260206004820152601460248201527337b7363c9030b2323932b9b9903ab83230ba32b960611b604482015290519081900360640190fd5b610c06610c0183836040518060400160405280600e81526020016d20b2323932b9b9aab83230ba32b960911b815250611168565b611295565b610c1082826112b9565b5050565b600054600160b01b900460ff1680610c365750600054600160a81b900460ff16155b15610c5257610c43610ed0565b610c4d8282611524565b610c10565b610c10600036610fe5565b60058181548110610c6d57600080fd5b600091825260209091200154905081565b6002546060908067ffffffffffffffff81118015610c9b57600080fd5b50604051908082528060200260200182016040528015610cd557816020015b610cc261187e565b815260200190600190039081610cba5790505b50915060005b81811015610d835760028181548110610cf057fe5b9060005260206000200160000160149054906101000a900463ffffffff1663ffffffff16838281518110610d2057fe5b6020026020010151602001818152505060028181548110610d3d57fe5b60009182526020909120015483516001600160a01b0390911690849083908110610d6357fe5b60209081029190910101516001600160a01b039091169052600101610cdb565b505090565b600054600160a81b900460ff1681565b610da0610e6f565b600054600160a81b900460ff1615610dff576040805162461bcd60e51b815260206004820152601a60248201527f616c726561647920696e2070726f64756374696f6e206d6f6465000000000000604482015290519081900360640190fd5b60008054600161ff0160a01b031916600160a81b1790556040805160076001609c1b01815290517f83af113638b5422f9e977cebc0aaf0eaf2188eb9a8baae7f9d46c42b33a1560c9181900360200190a1565b3d604051818101604052816000823e8215610e6b578181f35b8181fd5b610e776102d5565b6001600160a01b0316336001600160a01b031614610ece576040805162461bcd60e51b815260206004820152600f60248201526e6f6e6c7920676f7665726e616e636560881b604482015290519081900360640190fd5b565b600054600160b01b900460ff1615610efd57333014610eeb57fe5b6000805460ff60b01b19169055610ece565b610ece610e6f565b60198151111560405180604001604052806008815260200167746f6f206d616e7960c01b81525090610f4a5760405162461bcd60e51b81526004016109669190611e1b565b50805160005b818110156107ad57600a61271004838281518110610f6a57fe5b60200260200101511115604051806060016040528060268152602001611ed46026913990610fab5760405162461bcd60e51b81526004016109669190611e1b565b506005838281518110610fba57fe5b6020908102919091018101518254600181810185556000948552929093209092019190915501610f50565b610fed610e6f565b600082359050600060076001609c1b016001600160a01b0316636221a54b6040518163ffffffff1660e01b815260040160206040518083038186803b15801561103557600080fd5b505afa158015611049573d6000803e3d6000fd5b505050506040513d602081101561105f57600080fd5b505160408051808201825242830180825282516020601f89018190048102820181019094528781529394509290918281019190889088908190840183828082843760009201829052509390945250506001600160e01b031986168152600160208181526040909220845181558483015180519194506110e393928501920190611895565b509050507fed948300a3694aa01d4a6b258bfd664350193d770c0b51f8387277f6d83ea3b68382878760405180856001600160e01b0319168152602001848152602001806020018281038252848482818152602001925080828437600083820152604051601f909101601f191690920182900397509095505050505050a15050505050565b600080826040516020018080602001828103825283818151815260200191508051906020019080838360005b838110156111ac578181015183820152602001611194565b50505050905090810190601f1680156111d95780820380516001836020036101000a031916815260200191505b50925050506040516020818303038152906040528051906020012090506000805b86518110156112415786818151811061120f57fe5b60200260200101518314156112395785818151811061122a57fe5b60200260200101519150611241565b6001016111fa565b506001600160a01b03811661128c576040805162461bcd60e51b815260206004820152600c60248201526b61646472657373207a65726f60a01b604482015290519081900360640190fd5b95945050505050565b7f714f205b2abd25bef1d06a1af944e38c113fe6160375c4e1d6d5cf28848e771955565b60006112eb83836040518060400160405280600d81526020016c125b98d95b9d1a5d99541bdbdb609a1b815250611168565b6003546040519192507ff0281105762817c6d135d1c427ccdf47b4f67fb3f7c1d32563aeb7e53cdbcbfa9161132b916001600160a01b0316908490611d0c565b60405180910390a1600380546001600160a01b0319166001600160a01b0383161790556002548061135d575050610c10565b60008167ffffffffffffffff8111801561137657600080fd5b506040519080825280602002602001820160405280156113a0578160200160208202803683370190505b50905060008267ffffffffffffffff811180156113bc57600080fd5b506040519080825280602002602001820160405280156113e6578160200160208202803683370190505b50905060005b838110156115115760006002828154811061140357fe5b6000918252602080832060408051808201825293909101546001600160a01b038116808552600160a01b90910463ffffffff16928401929092528051637afadd3960e11b815290519294506114ba938c938c939263f5f5ba72926004808301939192829003018186803b15801561147957600080fd5b505afa15801561148d573d6000803e3d6000fd5b505050506040513d6000823e601f3d908101601f191682016040526114b59190810190611bf0565b611168565b8483815181106114c657fe5b60200260200101906001600160a01b031690816001600160a01b031681525050806020015163ffffffff168383815181106114fd57fe5b6020908102919091010152506001016113ec565b5061151c8282611524565b505050505050565b80518251146040518060400160405280600f81526020016e0d8cadccee8d040dad2e6dac2e8c6d608b1b8152509061156f5760405162461bcd60e51b81526004016109669190611e1b565b50600a8251111560405180604001604052806008815260200167746f6f206d616e7960c01b815250906115b55760405162461bcd60e51b81526004016109669190611e1b565b50600254600090815b818110156115fb5760028054806115d157fe5b600082815260209020810160001990810180546001600160c01b03191690550190556001016115be565b5060005b84518110156117a35761271084828151811061161757fe5b602002602001015111156040518060400160405280601781526020017f686967682073686172696e672070657263656e74616765000000000000000000815250906116755760405162461bcd60e51b81526004016109669190611e1b565b5060006001600160a01b031685828151811061168d57fe5b60200260200101516001600160a01b031614156040518060400160405280600c81526020016b06164647265737320697320360a41b815250906116e35760405162461bcd60e51b81526004016109669190611e1b565b508381815181106116f057fe5b6020026020010151830192506002604051806040016040528087848151811061171557fe5b60200260200101516001600160a01b0316815260200186848151811061173757fe5b60209081029190910181015163ffffffff90811690925283546001808201865560009586529482902084519101805494909201516001600160a01b03199094166001600160a01b039091161763ffffffff60a01b1916600160a01b9390921692909202179055016115ff565b5060408051808201909152601f81527f73756d2073686172696e672070657263656e74616765206e6f74203130302500602082015261271083146117fa5760405162461bcd60e51b81526004016109669190611e1b565b507f1cf2c1339e13422eab3161c596e77874697b7673c53738401abeca3ada7678b5848460405161182c929190611d26565b60405180910390a150505050565b50805460018160011615610100020316600290046000825580601f106118605750610912565b601f0160209004906000526020600020908101906109129190611919565b604080518082019091526000808252602082015290565b828054600181600116156101000203166002900490600052602060002090601f0160209004810192826118cb5760008555611911565b82601f106118e457805160ff1916838001178555611911565b82800160010185558215611911579182015b828111156119115782518255916020019190600101906118f6565b50610aa69291505b5b80821115610aa6576000815560010161191a565b600082601f83011261193e578081fd5b8135602061195361194e83611e74565b611e50565b828152818101908583018385028701840188101561196f578586fd5b855b8581101561199657813561198481611ebe565b84529284019290840190600101611971565b5090979650505050505050565b600082601f8301126119b3578081fd5b813560206119c361194e83611e74565b82815281810190858301838502870184018810156119df578586fd5b855b85811015611996578135845292840192908401906001016119e1565b600060208284031215611a0e578081fd5b8135611a1981611ebe565b9392505050565b60008060408385031215611a32578081fd5b823567ffffffffffffffff80821115611a49578283fd5b818501915085601f830112611a5c578283fd5b81356020611a6c61194e83611e74565b82815281810190858301838502870184018b1015611a88578788fd5b8796505b84871015611aaa578035835260019690960195918301918301611a8c565b5096505086013592505080821115611ac0578283fd5b50611acd8582860161192e565b9150509250929050565b60008060408385031215611ae9578182fd5b823567ffffffffffffffff80821115611b00578384fd5b818501915085601f830112611b13578384fd5b81356020611b2361194e83611e74565b82815281810190858301838502870184018b1015611b3f578889fd5b8896505b84871015611b6a578035611b5681611ebe565b835260019690960195918301918301611b43565b5096505086013592505080821115611b80578283fd5b50611acd858286016119a3565b600060208284031215611b9e578081fd5b813567ffffffffffffffff811115611bb4578182fd5b611bc0848285016119a3565b949350505050565b600060208284031215611bd9578081fd5b81356001600160e01b031981168114611a19578182fd5b600060208284031215611c01578081fd5b815167ffffffffffffffff80821115611c18578283fd5b818401915084601f830112611c2b578283fd5b815181811115611c3757fe5b611c4a601f8201601f1916602001611e50565b9150808252856020828501011115611c60578384fd5b611c71816020840160208601611e92565b50949350505050565b600060208284031215611c8b578081fd5b5035919050565b6000815180845260208085019450808401835b83811015611cc157815187529582019590820190600101611ca5565b509495945050505050565b60008151808452611ce4816020860160208601611e92565b601f01601f19169290920160200192915050565b6001600160a01b0391909116815260200190565b6001600160a01b0392831681529116602082015260400190565b604080825283519082018190526000906020906060840190828701845b82811015611d685781516001600160a01b031684529284019290840190600101611d43565b50505083810382850152611d7c8186611c92565b9695505050505050565b602080825282518282018190526000919060409081850190868401855b82811015611dd157815180516001600160a01b03168552860151868501529284019290850190600101611da3565b5091979650505050505050565b600060208252611a196020830184611c92565b901515815260200190565b6001600160a01b0392909216825263ffffffff16602082015260400190565b600060208252611a196020830184611ccc565b90815260200190565b600083825260406020830152611bc06040830184611ccc565b60405181810167ffffffffffffffff81118282101715611e6c57fe5b604052919050565b600067ffffffffffffffff821115611e8857fe5b5060209081020190565b60005b83811015611ead578181015183820152602001611e95565b838111156106b95750506000910152565b6001600160a01b038116811461091257600080fdfe74696d6520736c6f7420696e63656e7469766520706f6f6c206f7574206f6620626f756e6473a2646970667358221220b230430abb3fc65803f9119fd754678f6cd2043e904af6cbcf790c5c6410554a64736f6c6343000706003374696d6520736c6f7420696e63656e7469766520706f6f6c207363686564756c6520656d70747974696d6520736c6f7420696e63656e7469766520706f6f6c206f7574206f6620626f756e6473",
  "linkReferences": {},
  "deployedLinkReferences": {}
}