{
  "_format": "hh-sol-artifact-1",
  "contractName": "InflationReceiverAndTokenPoolMock",
  "sourceName": "contracts/inflation/mock/InflationReceiverAndTokenPoolMock.sol",
  "abi": [
    {
      "inputs": [
        {
          "internalType": "address",
          "name": "_governance",
          "type": "address"
        },
        {
          "internalType": "address",
          "name": "_inflation",
          "type": "address"
        }
      ],
      "stateMutability": "nonpayable",
      "type": "constructor"
    },
    {
      "anonymous": false,
      "inputs": [
        {
          "indexed": false,
          "internalType": "uint256",
          "name": "authorizedAmountWei",
          "type": "uint256"
        }
      ],
      "name": "DailyAuthorizedInflationSet",
      "type": "event"
    },
    {
      "anonymous": false,
      "inputs": [
        {
          "indexed": false,
          "internalType": "uint256",
          "name": "amountReceivedWei",
          "type": "uint256"
        }
      ],
      "name": "FoundationAllocatedFundsReceived",
      "type": "event"
    },
    {
      "anonymous": false,
      "inputs": [
        {
          "indexed": false,
          "internalType": "bytes4",
          "name": "selector",
          "type": "bytes4"
        },
        {
          "indexed": false,
          "internalType": "uint256",
          "name": "allowedAfterTimestamp",
          "type": "uint256"
        },
        {
          "indexed": false,
          "internalType": "bytes",
          "name": "encodedCall",
          "type": "bytes"
        }
      ],
      "name": "GovernanceCallTimelocked",
      "type": "event"
    },
    {
      "anonymous": false,
      "inputs": [
        {
          "indexed": false,
          "internalType": "address",
          "name": "initialGovernance",
          "type": "address"
        }
      ],
      "name": "GovernanceInitialised",
      "type": "event"
    },
    {
      "anonymous": false,
      "inputs": [
        {
          "indexed": false,
          "internalType": "address",
          "name": "governanceSettings",
          "type": "address"
        }
      ],
      "name": "GovernedProductionModeEntered",
      "type": "event"
    },
    {
      "anonymous": false,
      "inputs": [
        {
          "indexed": false,
          "internalType": "uint256",
          "name": "amountReceivedWei",
          "type": "uint256"
        }
      ],
      "name": "InflationReceived",
      "type": "event"
    },
    {
      "anonymous": false,
      "inputs": [
        {
          "indexed": false,
          "internalType": "bytes4",
          "name": "selector",
          "type": "bytes4"
        },
        {
          "indexed": false,
          "internalType": "uint256",
          "name": "timestamp",
          "type": "uint256"
        }
      ],
      "name": "TimelockedGovernanceCallCanceled",
      "type": "event"
    },
    {
      "anonymous": false,
      "inputs": [
        {
          "indexed": false,
          "internalType": "bytes4",
          "name": "selector",
          "type": "bytes4"
        },
        {
          "indexed": false,
          "internalType": "uint256",
          "name": "timestamp",
          "type": "uint256"
        }
      ],
      "name": "TimelockedGovernanceCallExecuted",
      "type": "event"
    },
    {
      "inputs": [
        {
          "internalType": "bytes4",
          "name": "_selector",
          "type": "bytes4"
        }
      ],
      "name": "cancelGovernanceCall",
      "outputs": [],
      "stateMutability": "nonpayable",
      "type": "function"
    },
    {
      "inputs": [
        {
          "internalType": "address payable",
          "name": "_recipient",
          "type": "address"
        },
        {
          "internalType": "uint256",
          "name": "_rewardAmount",
          "type": "uint256"
        }
      ],
      "name": "claimMock",
      "outputs": [],
      "stateMutability": "nonpayable",
      "type": "function"
    },
    {
      "inputs": [],
      "name": "dailyAuthorizedInflation",
      "outputs": [
        {
          "internalType": "uint256",
          "name": "",
          "type": "uint256"
        }
      ],
      "stateMutability": "view",
      "type": "function"
    },
    {
      "inputs": [
        {
          "internalType": "bytes4",
          "name": "_selector",
          "type": "bytes4"
        }
      ],
      "name": "executeGovernanceCall",
      "outputs": [],
      "stateMutability": "nonpayable",
      "type": "function"
    },
    {
      "inputs": [],
      "name": "foundationAllocatedFundsWei",
      "outputs": [
        {
          "internalType": "uint256",
          "name": "",
          "type": "uint256"
        }
      ],
      "stateMutability": "view",
      "type": "function"
    },
    {
      "inputs": [],
      "name": "getContractName",
      "outputs": [
        {
          "internalType": "string",
          "name": "",
          "type": "string"
        }
      ],
      "stateMutability": "pure",
      "type": "function"
    },
    {
      "inputs": [],
      "name": "getExpectedBalance",
      "outputs": [
        {
          "internalType": "uint256",
          "name": "",
          "type": "uint256"
        }
      ],
      "stateMutability": "view",
      "type": "function"
    },
    {
      "inputs": [],
      "name": "getInflationAddress",
      "outputs": [
        {
          "internalType": "address",
          "name": "",
          "type": "address"
        }
      ],
      "stateMutability": "view",
      "type": "function"
    },
    {
      "inputs": [],
      "name": "getTokenPoolSupplyData",
      "outputs": [
        {
          "internalType": "uint256",
          "name": "_foundationAllocatedFundsWei",
          "type": "uint256"
        },
        {
          "internalType": "uint256",
          "name": "_totalInflationAuthorizedWei",
          "type": "uint256"
        },
        {
          "internalType": "uint256",
          "name": "_totalClaimedWei",
          "type": "uint256"
        }
      ],
      "stateMutability": "view",
      "type": "function"
    },
    {
      "inputs": [],
      "name": "governance",
      "outputs": [
        {
          "internalType": "address",
          "name": "",
          "type": "address"
        }
      ],
      "stateMutability": "view",
      "type": "function"
    },
    {
      "inputs": [],
      "name": "governanceSettings",
      "outputs": [
        {
          "internalType": "contract IGovernanceSettings",
          "name": "",
          "type": "address"
        }
      ],
      "stateMutability": "view",
      "type": "function"
    },
    {
      "inputs": [],
      "name": "inflation",
      "outputs": [
        {
          "internalType": "address",
          "name": "",
          "type": "address"
        }
      ],
      "stateMutability": "view",
      "type": "function"
    },
    {
      "inputs": [
        {
          "internalType": "address",
          "name": "_initialGovernance",
          "type": "address"
        }
      ],
      "name": "initialise",
      "outputs": [],
      "stateMutability": "nonpayable",
      "type": "function"
    },
    {
      "inputs": [],
      "name": "lastInflationAuthorizationReceivedTs",
      "outputs": [
        {
          "internalType": "uint256",
          "name": "",
          "type": "uint256"
        }
      ],
      "stateMutability": "view",
      "type": "function"
    },
    {
      "inputs": [],
      "name": "productionMode",
      "outputs": [
        {
          "internalType": "bool",
          "name": "",
          "type": "bool"
        }
      ],
      "stateMutability": "view",
      "type": "function"
    },
    {
      "inputs": [],
      "name": "receiveFoundationAllocatedFunds",
      "outputs": [],
      "stateMutability": "payable",
      "type": "function"
    },
    {
      "inputs": [],
      "name": "receiveInflation",
      "outputs": [],
      "stateMutability": "payable",
      "type": "function"
    },
    {
      "inputs": [
        {
          "internalType": "uint256",
          "name": "_toAuthorizeWei",
          "type": "uint256"
        }
      ],
      "name": "setDailyAuthorizedInflation",
      "outputs": [],
      "stateMutability": "nonpayable",
      "type": "function"
    },
    {
      "inputs": [],
      "name": "switchToProductionMode",
      "outputs": [],
      "stateMutability": "nonpayable",
      "type": "function"
    },
    {
      "inputs": [
        {
          "internalType": "bytes4",
          "name": "",
          "type": "bytes4"
        }
      ],
      "name": "timelockedCalls",
      "outputs": [
        {
          "internalType": "uint256",
          "name": "allowedAfterTimestamp",
          "type": "uint256"
        },
        {
          "internalType": "bytes",
          "name": "encodedCall",
          "type": "bytes"
        }
      ],
      "stateMutability": "view",
      "type": "function"
    },
    {
      "inputs": [],
      "name": "totalClaimedWei",
      "outputs": [
        {
          "internalType": "uint256",
          "name": "",
          "type": "uint256"
        }
      ],
      "stateMutability": "view",
      "type": "function"
    },
    {
      "inputs": [],
      "name": "totalInflationAuthorizedWei",
      "outputs": [
        {
          "internalType": "uint256",
          "name": "",
          "type": "uint256"
        }
      ],
      "stateMutability": "view",
      "type": "function"
    },
    {
      "inputs": [],
      "name": "totalInflationReceivedWei",
      "outputs": [
        {
          "internalType": "uint256",
          "name": "",
          "type": "uint256"
        }
      ],
      "stateMutability": "view",
      "type": "function"
    },
    {
      "inputs": [],
      "name": "totalSelfDestructReceivedWei",
      "outputs": [
        {
          "internalType": "uint256",
          "name": "",
          "type": "uint256"
        }
      ],
      "stateMutability": "view",
      "type": "function"
    }
  ],
  "bytecode": "0x60806040523480156200001157600080fd5b5060405162001726380380620017268339810160408190526200003491620001ae565b81806001600160a01b0381161562000051576200005181620000ce565b506001600160a01b038116620000a1576040805162461bcd60e51b815260206004820152601060248201526f5f676f7665726e616e6365207a65726f60801b604482015290519081900360640190fd5b506001600255600b80546001600160a01b0319166001600160a01b039290921691909117905550620001e5565b600054600160a01b900460ff16156200012e576040805162461bcd60e51b815260206004820152601460248201527f696e697469616c6973656420213d2066616c7365000000000000000000000000604482015290519081900360640190fd5b60008054600160a01b60ff60a01b19909116176001600160a01b0319166001600160a01b03831690811790915560408051918252517f9789733827840833afc031fb2ef9ab6894271f77bad2085687cf4ae5c7bee4db916020908290030190a150565b80516001600160a01b0381168114620001a957600080fd5b919050565b60008060408385031215620001c1578182fd5b620001cc8362000191565b9150620001dc6020840162000191565b90509250929050565b61153180620001f56000396000f3fe60806040526004361061014b5760003560e01c80639d6a890f116100b6578063e17f212e1161006f578063e17f212e14610336578063e273956314610358578063ed39d3f814610378578063f5a983831461038d578063f5f5ba72146103a2578063fc047008146103c45761014b565b80639d6a890f146102ad5780639f71043e146102cd578063a5555aea146102e2578063af04cd3b146102f7578063be0522e01461030c578063d0c1c393146103215761014b565b806365b43f251161010857806365b43f251461020057806367fc402914610220578063708e34ce14610240578063729936151461025557806374e6310e1461026a5780639ab52a98146102985761014b565b806306201f1d146101505780632dafdbbf1461015a578063473252c4146101875780635aa6e675146101a95780635ff27079146101cb57806362354e03146101eb575b600080fd5b6101586103cc565b005b34801561016657600080fd5b5061016f6104d5565b60405161017e939291906114af565b60405180910390f35b34801561019357600080fd5b5061019c6104e3565b60405161017e9190611485565b3480156101b557600080fd5b506101be6104e9565b60405161017e9190611453565b3480156101d757600080fd5b506101586101e63660046113c5565b61057e565b3480156101f757600080fd5b506101be6108d3565b34801561020c57600080fd5b5061015861021b36600461139a565b6108de565b34801561022c57600080fd5b5061015861023b3660046113c5565b6109b2565b34801561024c57600080fd5b5061019c610a95565b34801561026157600080fd5b5061019c610a9b565b34801561027657600080fd5b5061028a6102853660046113c5565b610aa1565b60405161017e92919061148e565b3480156102a457600080fd5b5061019c610b47565b3480156102b957600080fd5b506101586102c836600461137e565b610b4d565b3480156102d957600080fd5b5061019c610c06565b3480156102ee57600080fd5b5061019c610c0c565b34801561030357600080fd5b5061019c610c12565b34801561031857600080fd5b506101be610c1c565b34801561032d57600080fd5b5061019c610c2b565b34801561034257600080fd5b5061034b610c31565b60405161017e9190611467565b34801561036457600080fd5b506101586103733660046113ed565b610c41565b34801561038457600080fd5b506101be610ce7565b34801561039957600080fd5b50610158610cf6565b3480156103ae57600080fd5b506103b7610db0565b60405161017e9190611472565b610158610dd0565b600b5460408051808201909152600e81526d696e666c6174696f6e206f6e6c7960901b6020820152906001600160a01b031633146104265760405162461bcd60e51b815260040161041d9190611472565b60405180910390fd5b506000610431610e73565b506005549091506104429034610ecd565b600555600a8190556040517f95c4e29cc99bc027cfc3cd719d6fd973d5f0317061885fbb322b9b17d8d35d379061047a903490611485565b60405180910390a15061048b610f2e565b47146040518060400160405280600e81526020016d6f7574206f662062616c616e636560901b815250906104d25760405162461bcd60e51b815260040161041d9190611472565b50565b600954600454600354909192565b60075481565b60008054600160a81b900460ff1661050c576000546001600160a01b0316610579565b60076001609c1b016001600160a01b031663732524946040518163ffffffff1660e01b815260040160206040518083038186803b15801561054c57600080fd5b505afa158015610560573d6000803e3d6000fd5b505050506040513d602081101561057657600080fd5b50515b905090565b60408051630debfda360e41b8152336004820152905160076001609c1b019163debfda30916024808301926020929190829003018186803b1580156105c257600080fd5b505afa1580156105d6573d6000803e3d6000fd5b505050506040513d60208110156105ec57600080fd5b505161062f576040805162461bcd60e51b815260206004820152600d60248201526c37b7363c9032bc32b1baba37b960991b604482015290519081900360640190fd5b6001600160e01b031981166000908152600160205260409020805461069b576040805162461bcd60e51b815260206004820152601a60248201527f74696d656c6f636b3a20696e76616c69642073656c6563746f72000000000000604482015290519081900360640190fd5b80544210156106f1576040805162461bcd60e51b815260206004820152601960248201527f74696d656c6f636b3a206e6f7420616c6c6f7765642079657400000000000000604482015290519081900360640190fd5b6000816001018054600181600116156101000203166002900480601f01602080910402602001604051908101604052809291908181526020018280546001816001161561010002031660029004801561078b5780601f106107605761010080835404028352916020019161078b565b820191906000526020600020905b81548152906001019060200180831161076e57829003601f168201915b5050506001600160e01b03198616600090815260016020819052604082208281559495509092506107bf9150830182611299565b50506000805460ff60b01b1916600160b01b178155604051825130918491819060208401908083835b602083106108075780518252601f1990920191602091820191016107e8565b6001836020036101000a0380198251168184511680821785525050505050509050019150506000604051808303816000865af19150503d8060008114610869576040519150601f19603f3d011682016040523d82523d6000602084013e61086e565b606091505b50506000805460ff60b01b19169055604080516001600160e01b03198716815242602082015281519293507fa7326b57fc9cfe267aaea5e7f0b01757154d265620a0585819416ee9ddd2c438929081900390910190a16108cd81610f59565b50505050565b60076001609c1b0181565b600280541415610935576040805162461bcd60e51b815260206004820152601f60248201527f5265656e7472616e637947756172643a207265656e7472616e742063616c6c00604482015290519081900360640190fd5b60028055610941610e73565b505060038054820190556109558282610f76565b47600a556001600255610966610f2e565b47146040518060400160405280600e81526020016d6f7574206f662062616c616e636560901b815250906109ad5760405162461bcd60e51b815260040161041d9190611472565b505050565b6109ba611023565b6001600160e01b03198116600090815260016020526040902054610a25576040805162461bcd60e51b815260206004820152601a60248201527f74696d656c6f636b3a20696e76616c69642073656c6563746f72000000000000604482015290519081900360640190fd5b604080516001600160e01b03198316815242602082015281517f7735b2391c38a81419c513e30ca578db7158eadd7101511b23e221c654d19cf8929181900390910190a16001600160e01b031981166000908152600160208190526040822082815591906109ad90830182611299565b60085481565b60065481565b600160208181526000928352604092839020805481840180548651600296821615610100026000190190911695909504601f81018590048502860185019096528585529094919392909190830182828015610b3d5780601f10610b1257610100808354040283529160200191610b3d565b820191906000526020600020905b815481529060010190602001808311610b2057829003601f168201915b5050505050905082565b60095481565b600054600160a01b900460ff1615610ba3576040805162461bcd60e51b8152602060048201526014602482015273696e697469616c6973656420213d2066616c736560601b604482015290519081900360640190fd5b60008054600160a01b60ff60a01b19909116176001600160a01b0319166001600160a01b03831690811790915560408051918252517f9789733827840833afc031fb2ef9ab6894271f77bad2085687cf4ae5c7bee4db916020908290030190a150565b60035481565b60055481565b6000610579610f2e565b600b546001600160a01b031681565b60045481565b600054600160a81b900460ff1681565b600b5460408051808201909152600e81526d696e666c6174696f6e206f6e6c7960901b6020820152906001600160a01b03163314610c925760405162461bcd60e51b815260040161041d9190611472565b506008819055600454610ca59082610ecd565b600455426007556040517f187f32a0f765499f15b3bb52ed0aebf6015059f230f2ace7e701e60a4766959590610cdc908390611485565b60405180910390a150565b600b546001600160a01b031690565b610cfe611023565b600054600160a81b900460ff1615610d5d576040805162461bcd60e51b815260206004820152601a60248201527f616c726561647920696e2070726f64756374696f6e206d6f6465000000000000604482015290519081900360640190fd5b60008054600161ff0160a01b031916600160a81b1790556040805160076001609c1b01815290517f83af113638b5422f9e977cebc0aaf0eaf2188eb9a8baae7f9d46c42b33a1560c9181900360200190a1565b60606040518060600160405280602181526020016114db60219139905090565b600054600160b01b900460ff1680610df25750600054600160a81b900460ff16155b15610e6057610dff611084565b6000610e09610e73565b50600954909150610e1a9034610ecd565b600955600a8190556040517f98dfca40f005ddfbe7a57c54b59058ffd8a655295cb06eb623b4582973ed77b990610e52903490611485565b60405180910390a150610e6b565b610e6b6000366110b9565b61048b610f2e565b600080610e8b34600a54610ecd90919063ffffffff16565b905047915080821115610ebf57610eb781610eb184600654610ecd90919063ffffffff16565b9061123c565b600655610ec9565b80821015610ec957fe5b9091565b600082820183811015610f27576040805162461bcd60e51b815260206004820152601b60248201527f536166654d6174683a206164646974696f6e206f766572666c6f770000000000604482015290519081900360640190fd5b9392505050565b6000610579600354610eb1600654610f53600554600954610ecd90919063ffffffff16565b90610ecd565b3d604051818101604052816000823e8215610f72578181f35b8181fd5b801561101f576000826001600160a01b031682604051610f9590611450565b60006040518083038185875af1925050503d8060008114610fd2576040519150601f19603f3d011682016040523d82523d6000602084013e610fd7565b606091505b50509050806040518060400160405280600c81526020016b18db185a5b4819985a5b195960a21b815250906108cd5760405162461bcd60e51b815260040161041d9190611472565b5050565b61102b6104e9565b6001600160a01b0316336001600160a01b031614611082576040805162461bcd60e51b815260206004820152600f60248201526e6f6e6c7920676f7665726e616e636560881b604482015290519081900360640190fd5b565b600054600160b01b900460ff16156110b15733301461109f57fe5b6000805460ff60b01b19169055611082565b611082611023565b6110c1611023565b600082359050600060076001609c1b016001600160a01b0316636221a54b6040518163ffffffff1660e01b815260040160206040518083038186803b15801561110957600080fd5b505afa15801561111d573d6000803e3d6000fd5b505050506040513d602081101561113357600080fd5b505160408051808201825242830180825282516020601f89018190048102820181019094528781529394509290918281019190889088908190840183828082843760009201829052509390945250506001600160e01b031986168152600160208181526040909220845181558483015180519194506111b7939285019201906112dd565b509050507fed948300a3694aa01d4a6b258bfd664350193d770c0b51f8387277f6d83ea3b68382878760405180856001600160e01b0319168152602001848152602001806020018281038252848482818152602001925080828437600083820152604051601f909101601f191690920182900397509095505050505050a15050505050565b600082821115611293576040805162461bcd60e51b815260206004820152601e60248201527f536166654d6174683a207375627472616374696f6e206f766572666c6f770000604482015290519081900360640190fd5b50900390565b50805460018160011615610100020316600290046000825580601f106112bf57506104d2565b601f0160209004906000526020600020908101906104d29190611369565b828054600181600116156101000203166002900490600052602060002090601f0160209004810192826113135760008555611359565b82601f1061132c57805160ff1916838001178555611359565b82800160010185558215611359579182015b8281111561135957825182559160200191906001019061133e565b50611365929150611369565b5090565b5b80821115611365576000815560010161136a565b60006020828403121561138f578081fd5b8135610f27816114c5565b600080604083850312156113ac578081fd5b82356113b7816114c5565b946020939093013593505050565b6000602082840312156113d6578081fd5b81356001600160e01b031981168114610f27578182fd5b6000602082840312156113fe578081fd5b5035919050565b60008151808452815b8181101561142a5760208185018101518683018201520161140e565b8181111561143b5782602083870101525b50601f01601f19169290920160200192915050565b90565b6001600160a01b0391909116815260200190565b901515815260200190565b600060208252610f276020830184611405565b90815260200190565b6000838252604060208301526114a76040830184611405565b949350505050565b9283526020830191909152604082015260600190565b6001600160a01b03811681146104d257600080fdfe496e666c6174696f6e5265636569766572416e64546f6b656e506f6f6c4d6f636ba264697066735822122063a121ff702d3a805fa6cc0808ea249a5c3a3a2a78026751cb979cd4311bd10b64736f6c63430007060033",
  "linkReferences": {},
  "deployedLinkReferences": {}
}