{
  "_format": "hh-sol-artifact-1",
  "contractName": "InflationReceiverMock",
  "sourceName": "contracts/inflation/mock/InflationReceiverMock.sol",
  "abi": [
    {
      "inputs": [],
      "name": "getContractName",
      "outputs": [
        {
          "internalType": "string",
          "name": "",
          "type": "string"
        }
      ],
      "stateMutability": "pure",
      "type": "function"
    },
    {
      "inputs": [],
      "name": "getExpectedBalance",
      "outputs": [
        {
          "internalType": "uint256",
          "name": "",
          "type": "uint256"
        }
      ],
      "stateMutability": "pure",
      "type": "function"
    },
    {
      "inputs": [],
      "name": "getInflationAddress",
      "outputs": [
        {
          "internalType": "address",
          "name": "",
          "type": "address"
        }
      ],
      "stateMutability": "nonpayable",
      "type": "function"
    },
    {
      "inputs": [],
      "name": "receiveInflation",
      "outputs": [],
      "stateMutability": "payable",
      "type": "function"
    },
    {
      "inputs": [
        {
          "internalType": "uint256",
          "name": "toAuthorizeWei",
          "type": "uint256"
        }
      ],
      "name": "setDailyAuthorizedInflation",
      "outputs": [],
      "stateMutability": "nonpayable",
      "type": "function"
    }
  ],
  "bytecode": "0x608060405234801561001057600080fd5b506101e6806100206000396000f3fe60806040526004361061004a5760003560e01c806306201f1d1461004f578063af04cd3b14610059578063e273956314610084578063ed39d3f8146100a4578063f5f5ba72146100c6575b600080fd5b6100576100e8565b005b34801561006557600080fd5b5061006e6100ea565b60405161007b91906101a7565b60405180910390f35b34801561009057600080fd5b5061005761009f366004610128565b6100f1565b3480156100b057600080fd5b506100b96100f4565b60405161007b9190610140565b3480156100d257600080fd5b506100db6100f9565b60405161007b9190610154565b565b6000806000fd5b50565b600090565b604080518082019091526015815274496e666c6174696f6e52656365697665724d6f636b60581b602082015290565b600060208284031215610139578081fd5b5035919050565b6001600160a01b0391909116815260200190565b6000602080835283518082850152825b8181101561018057858101830151858201604001528201610164565b818111156101915783604083870101525b50601f01601f1916929092016040019392505050565b9081526020019056fea26469706673582212201a5024d03024f9a52aa568d8c0146e091e280119611fa56fc9032c3f8c3b013364736f6c63430007060033",
  "linkReferences": {},
  "deployedLinkReferences": {}
}