{
  "_format": "hh-sol-artifact-1",
  "contractName": "Supply",
  "sourceName": "contracts/inflation/implementation/Supply.sol",
  "abi": [
    {
      "inputs": [
        {
          "internalType": "address",
          "name": "_governance",
          "type": "address"
        },
        {
          "internalType": "address",
          "name": "_addressUpdater",
          "type": "address"
        },
        {
          "internalType": "uint256",
          "name": "_initialGenesisAmountWei",
          "type": "uint256"
        },
        {
          "internalType": "uint256",
          "name": "_totalExcludedSupplyWei",
          "type": "uint256"
        },
        {
          "internalType": "contract IITokenPool[]",
          "name": "_tokenPools",
          "type": "address[]"
        },
        {
          "internalType": "address[]",
          "name": "_foundationAddresses",
          "type": "address[]"
        },
        {
          "internalType": "contract IISupply",
          "name": "_oldSupply",
          "type": "address"
        }
      ],
      "stateMutability": "nonpayable",
      "type": "constructor"
    },
    {
      "anonymous": false,
      "inputs": [
        {
          "indexed": false,
          "internalType": "uint256",
          "name": "actual",
          "type": "uint256"
        },
        {
          "indexed": false,
          "internalType": "uint256",
          "name": "expected",
          "type": "uint256"
        }
      ],
      "name": "AuthorizedInflationUpdateError",
      "type": "event"
    },
    {
      "anonymous": false,
      "inputs": [
        {
          "indexed": false,
          "internalType": "address[]",
          "name": "addedFoundationAddresses",
          "type": "address[]"
        },
        {
          "indexed": false,
          "internalType": "address[]",
          "name": "removedFoundationAddresses",
          "type": "address[]"
        }
      ],
      "name": "FoundationAddressesChanged",
      "type": "event"
    },
    {
      "anonymous": false,
      "inputs": [
        {
          "indexed": false,
          "internalType": "bytes4",
          "name": "selector",
          "type": "bytes4"
        },
        {
          "indexed": false,
          "internalType": "uint256",
          "name": "allowedAfterTimestamp",
          "type": "uint256"
        },
        {
          "indexed": false,
          "internalType": "bytes",
          "name": "encodedCall",
          "type": "bytes"
        }
      ],
      "name": "GovernanceCallTimelocked",
      "type": "event"
    },
    {
      "anonymous": false,
      "inputs": [
        {
          "indexed": false,
          "internalType": "address",
          "name": "initialGovernance",
          "type": "address"
        }
      ],
      "name": "GovernanceInitialised",
      "type": "event"
    },
    {
      "anonymous": false,
      "inputs": [
        {
          "indexed": false,
          "internalType": "address",
          "name": "governanceSettings",
          "type": "address"
        }
      ],
      "name": "GovernedProductionModeEntered",
      "type": "event"
    },
    {
      "anonymous": false,
      "inputs": [
        {
          "indexed": false,
          "internalType": "bytes4",
          "name": "selector",
          "type": "bytes4"
        },
        {
          "indexed": false,
          "internalType": "uint256",
          "name": "timestamp",
          "type": "uint256"
        }
      ],
      "name": "TimelockedGovernanceCallCanceled",
      "type": "event"
    },
    {
      "anonymous": false,
      "inputs": [
        {
          "indexed": false,
          "internalType": "bytes4",
          "name": "selector",
          "type": "bytes4"
        },
        {
          "indexed": false,
          "internalType": "uint256",
          "name": "timestamp",
          "type": "uint256"
        }
      ],
      "name": "TimelockedGovernanceCallExecuted",
      "type": "event"
    },
    {
      "inputs": [
        {
          "internalType": "contract IITokenPool",
          "name": "_tokenPool",
          "type": "address"
        },
        {
          "internalType": "uint256",
          "name": "_increaseDistributedSupplyByAmountWei",
          "type": "uint256"
        }
      ],
      "name": "addTokenPool",
      "outputs": [],
      "stateMutability": "nonpayable",
      "type": "function"
    },
    {
      "inputs": [],
      "name": "burnAddress",
      "outputs": [
        {
          "internalType": "address payable",
          "name": "",
          "type": "address"
        }
      ],
      "stateMutability": "pure",
      "type": "function"
    },
    {
      "inputs": [],
      "name": "burnAddressSongbirdTxFee",
      "outputs": [
        {
          "internalType": "address payable",
          "name": "",
          "type": "address"
        }
      ],
      "stateMutability": "pure",
      "type": "function"
    },
    {
      "inputs": [
        {
          "internalType": "bytes4",
          "name": "_selector",
          "type": "bytes4"
        }
      ],
      "name": "cancelGovernanceCall",
      "outputs": [],
      "stateMutability": "nonpayable",
      "type": "function"
    },
    {
      "inputs": [
        {
          "internalType": "address[]",
          "name": "_foundationAddressesToAdd",
          "type": "address[]"
        },
        {
          "internalType": "address[]",
          "name": "_foundationAddressesToRemove",
          "type": "address[]"
        }
      ],
      "name": "changeFoundationAddresses",
      "outputs": [],
      "stateMutability": "nonpayable",
      "type": "function"
    },
    {
      "inputs": [
        {
          "internalType": "uint256",
          "name": "_amountWei",
          "type": "uint256"
        }
      ],
      "name": "decreaseDistributedSupply",
      "outputs": [],
      "stateMutability": "nonpayable",
      "type": "function"
    },
    {
      "inputs": [],
      "name": "distributedExcludedSupplyWei",
      "outputs": [
        {
          "internalType": "uint256",
          "name": "",
          "type": "uint256"
        }
      ],
      "stateMutability": "view",
      "type": "function"
    },
    {
      "inputs": [
        {
          "internalType": "bytes4",
          "name": "_selector",
          "type": "bytes4"
        }
      ],
      "name": "executeGovernanceCall",
      "outputs": [],
      "stateMutability": "nonpayable",
      "type": "function"
    },
    {
      "inputs": [],
      "name": "getAddressUpdater",
      "outputs": [
        {
          "internalType": "address",
          "name": "_addressUpdater",
          "type": "address"
        }
      ],
      "stateMutability": "view",
      "type": "function"
    },
    {
      "inputs": [
        {
          "internalType": "uint256",
          "name": "_blockNumber",
          "type": "uint256"
        }
      ],
      "name": "getCirculatingSupplyAt",
      "outputs": [
        {
          "internalType": "uint256",
          "name": "_circulatingSupplyWei",
          "type": "uint256"
        }
      ],
      "stateMutability": "view",
      "type": "function"
    },
    {
      "inputs": [
        {
          "internalType": "uint256",
          "name": "_blockNumber",
          "type": "uint256"
        }
      ],
      "name": "getCirculatingSupplyAtCached",
      "outputs": [
        {
          "internalType": "uint256",
          "name": "_circulatingSupplyWei",
          "type": "uint256"
        }
      ],
      "stateMutability": "nonpayable",
      "type": "function"
    },
    {
      "inputs": [],
      "name": "getFoundationAddresses",
      "outputs": [
        {
          "internalType": "address[]",
          "name": "",
          "type": "address[]"
        }
      ],
      "stateMutability": "view",
      "type": "function"
    },
    {
      "inputs": [],
      "name": "getInflatableBalance",
      "outputs": [
        {
          "internalType": "uint256",
          "name": "_inflatableBalanceWei",
          "type": "uint256"
        }
      ],
      "stateMutability": "view",
      "type": "function"
    },
    {
      "inputs": [],
      "name": "governance",
      "outputs": [
        {
          "internalType": "address",
          "name": "",
          "type": "address"
        }
      ],
      "stateMutability": "view",
      "type": "function"
    },
    {
      "inputs": [],
      "name": "governanceSettings",
      "outputs": [
        {
          "internalType": "contract IGovernanceSettings",
          "name": "",
          "type": "address"
        }
      ],
      "stateMutability": "view",
      "type": "function"
    },
    {
      "inputs": [
        {
          "internalType": "uint256",
          "name": "_amountWei",
          "type": "uint256"
        }
      ],
      "name": "increaseDistributedSupply",
      "outputs": [],
      "stateMutability": "nonpayable",
      "type": "function"
    },
    {
      "inputs": [],
      "name": "inflation",
      "outputs": [
        {
          "internalType": "address",
          "name": "",
          "type": "address"
        }
      ],
      "stateMutability": "view",
      "type": "function"
    },
    {
      "inputs": [],
      "name": "initialGenesisAmountWei",
      "outputs": [
        {
          "internalType": "uint256",
          "name": "",
          "type": "uint256"
        }
      ],
      "stateMutability": "view",
      "type": "function"
    },
    {
      "inputs": [
        {
          "internalType": "address",
          "name": "_initialGovernance",
          "type": "address"
        }
      ],
      "name": "initialise",
      "outputs": [],
      "stateMutability": "nonpayable",
      "type": "function"
    },
    {
      "inputs": [],
      "name": "oldSupply",
      "outputs": [
        {
          "internalType": "contract IISupply",
          "name": "",
          "type": "address"
        }
      ],
      "stateMutability": "view",
      "type": "function"
    },
    {
      "inputs": [],
      "name": "productionMode",
      "outputs": [
        {
          "internalType": "bool",
          "name": "",
          "type": "bool"
        }
      ],
      "stateMutability": "view",
      "type": "function"
    },
    {
      "inputs": [],
      "name": "switchOverBlock",
      "outputs": [
        {
          "internalType": "uint256",
          "name": "",
          "type": "uint256"
        }
      ],
      "stateMutability": "view",
      "type": "function"
    },
    {
      "inputs": [],
      "name": "switchToProductionMode",
      "outputs": [],
      "stateMutability": "nonpayable",
      "type": "function"
    },
    {
      "inputs": [
        {
          "internalType": "bytes4",
          "name": "",
          "type": "bytes4"
        }
      ],
      "name": "timelockedCalls",
      "outputs": [
        {
          "internalType": "uint256",
          "name": "allowedAfterTimestamp",
          "type": "uint256"
        },
        {
          "internalType": "bytes",
          "name": "encodedCall",
          "type": "bytes"
        }
      ],
      "stateMutability": "view",
      "type": "function"
    },
    {
      "inputs": [
        {
          "internalType": "uint256",
          "name": "",
          "type": "uint256"
        }
      ],
      "name": "tokenPools",
      "outputs": [
        {
          "internalType": "contract IITokenPool",
          "name": "tokenPool",
          "type": "address"
        },
        {
          "internalType": "uint256",
          "name": "totalLockedWei",
          "type": "uint256"
        },
        {
          "internalType": "uint256",
          "name": "totalInflationAuthorizedWei",
          "type": "uint256"
        },
        {
          "internalType": "uint256",
          "name": "totalClaimedWei",
          "type": "uint256"
        }
      ],
      "stateMutability": "view",
      "type": "function"
    },
    {
      "inputs": [],
      "name": "totalClaimedWei",
      "outputs": [
        {
          "internalType": "uint256",
          "name": "",
          "type": "uint256"
        }
      ],
      "stateMutability": "view",
      "type": "function"
    },
    {
      "inputs": [],
      "name": "totalExcludedSupplyWei",
      "outputs": [
        {
          "internalType": "uint256",
          "name": "",
          "type": "uint256"
        }
      ],
      "stateMutability": "view",
      "type": "function"
    },
    {
      "inputs": [],
      "name": "totalInflationAuthorizedWei",
      "outputs": [
        {
          "internalType": "uint256",
          "name": "",
          "type": "uint256"
        }
      ],
      "stateMutability": "view",
      "type": "function"
    },
    {
      "inputs": [],
      "name": "totalLockedWei",
      "outputs": [
        {
          "internalType": "uint256",
          "name": "",
          "type": "uint256"
        }
      ],
      "stateMutability": "view",
      "type": "function"
    },
    {
      "inputs": [
        {
          "internalType": "uint256",
          "name": "_inflationAuthorizedWei",
          "type": "uint256"
        }
      ],
      "name": "updateAuthorizedInflationAndCirculatingSupply",
      "outputs": [],
      "stateMutability": "nonpayable",
      "type": "function"
    },
    {
      "inputs": [],
      "name": "updateCirculatingSupply",
      "outputs": [],
      "stateMutability": "nonpayable",
      "type": "function"
    },
    {
      "inputs": [
        {
          "internalType": "bytes32[]",
          "name": "_contractNameHashes",
          "type": "bytes32[]"
        },
        {
          "internalType": "address[]",
          "name": "_contractAddresses",
          "type": "address[]"
        }
      ],
      "name": "updateContractAddresses",
      "outputs": [],
      "stateMutability": "nonpayable",
      "type": "function"
    }
  ],
  "bytecode": "0x60c06040523480156200001157600080fd5b506040516200374b3803806200374b833981810160405260e08110156200003757600080fd5b81516020830151604080850151606086015160808701805193519597949692959194919392820192846401000000008211156200007357600080fd5b9083019060208201858111156200008957600080fd5b8251866020820283011164010000000082111715620000a757600080fd5b82525081516020918201928201910280838360005b83811015620000d6578181015183820152602001620000bc565b50505050905001604052602001805160405193929190846401000000008211156200010057600080fd5b9083019060208201858111156200011657600080fd5b82518660208202830111640100000000821117156200013457600080fd5b82525081516020918201928201910280838360005b838110156200016357818101518382015260200162000149565b50505050919091016040525060200151915086905087806001600160a01b038116156200019557620001958162000452565b506001600160a01b038116620001e5576040805162461bcd60e51b815260206004820152601060248201526f5f676f7665726e616e6365207a65726f60801b604482015290519081900360640190fd5b50620001f18162000515565b5060408051808201909152601b81527f696e697469616c2067656e6573697320616d6f756e74207a65726f0000000000602082015285620002b35760405162461bcd60e51b81526004018080602001828103825283818151815260200191508051906020019080838360005b83811015620002775781810151838201526020016200025d565b50505050905090810190601f168015620002a55780820380516001836020036101000a031916815260200191505b509250505060405180910390fd5b50608085905260a0849052620002e0620002da868662000539602090811b620016ed17901c565b62000597565b60005b83518110156200031b5762000312848281518110620002fe57fe5b6020026020010151620005e460201b60201c565b600101620002e3565b506200033782600e620006f960201b6200174a1790919060201c565b604080516000808252602082019092527f5c3fa658268afebe402cb474fc8481cb13cb4f9230b78161b64024af71ed94989184919050604051808060200180602001838103835285818151815260200191508051906020019060200280838360005b83811015620003b357818101518382015260200162000399565b50505050905001838103825284818151815260200191508051906020019060200280838360005b83811015620003f4578181015183820152602001620003da565b5050505090500194505050505060405180910390a16001600160a01b038116156200043b57600b80546001600160a01b0319166001600160a01b038316179055600019600c555b620004456200073a565b5050505050505062000ec7565b600054600160a01b900460ff1615620004b2576040805162461bcd60e51b815260206004820152601460248201527f696e697469616c6973656420213d2066616c7365000000000000000000000000604482015290519081900360640190fd5b60008054600160a01b60ff60a01b19909116176001600160a01b0319166001600160a01b03831690811790915560408051918252517f9789733827840833afc031fb2ef9ab6894271f77bad2085687cf4ae5c7bee4db916020908290030190a150565b7f714f205b2abd25bef1d06a1af944e38c113fe6160375c4e1d6d5cf28848e771955565b60008282111562000591576040805162461bcd60e51b815260206004820152601e60248201527f536166654d6174683a207375627472616374696f6e206f766572666c6f770000604482015290519081900360640190fd5b50900390565b620005e1620005cb82620005b760026200097160201b6200177b1760201c565b620009c360201b620017c41790919060201c565b600262000a2560201b620018251790919060201c565b50565b60095460005b81811015620006a957600981815481106200060157fe5b60009182526020909120600490910201546001600160a01b0384811691161415620006a057604080518082018252601881527f746f6b656e20706f6f6c20616c726561647920616464656400000000000000006020808301918252925162461bcd60e51b81526004810193845282516024820152825192939283926044909201919080838360008315620002775781810151838201526020016200025d565b600101620005ea565b5060098054600101808255600082905283919083908110620006c757fe5b6000918252602090912060049091020180546001600160a01b0319166001600160a01b03929092169190911790555050565b60005b815181101562000735576200072c838383815181106200071857fe5b602002602001015162000c2560201b60201c565b600101620006fc565b505050565b60095460005b818110156200095c576000600982815481106200075957fe5b600091825260208220600491820201805460408051632dafdbbf60e01b81529051929550849384936001600160a01b0390931692632dafdbbf92808301926060929182900301818787803b158015620007b157600080fd5b505af1158015620007c6573d6000803e3d6000fd5b505050506040513d6060811015620007dd57600080fd5b508051602080830151604090930151919550919350915081906200080e9085908590620017c4620009c3821b17901c565b10156200081757fe5b6000620008378560020154846200053960201b620016ed1790919060201c565b90506200085581600754620009c360201b620017c41790919060201c565b60078190555060006200087b8660030154846200053960201b620016ed1790919060201c565b9050620008888162000597565b620008a481600854620009c360201b620017c41790919060201c565b60085560018601548510620008eb5760018601548503620008c58162000c94565b620008e181600654620009c360201b620017c41790919060201c565b6006555062000939565b600085876001015403905062000912816005546200053960201b620016ed1790919060201c565b60058190555062000934816006546200053960201b620016ed1790919060201c565b600655505b505060018085019390935560028401919091556003909201919091550162000740565b506200096762000cc8565b620005e162000d17565b60018101546000906801000000000000000090046001600160401b0316806200099f576000915050620009be565b600019016000908152602083905260409020546001600160c01b031690505b919050565b60008282018381101562000a1e576040805162461bcd60e51b815260206004820152601b60248201527f536166654d6174683a206164646974696f6e206f766572666c6f770000000000604482015290519081900360640190fd5b9392505050565b60018201546801000000000000000090046001600160401b03168062000afc57604051806040016040528062000a618462000e1d60201b60201c565b6001600160c01b0316815260200162000a854362000e7c60201b620019eb1760201c565b6001600160401b03908116909152600080805260208681526040909120835181549490920151909216600160c01b026001600160c01b039182166001600160c01b03199094169390931716919091179055600183018054600160401b600160801b0319166801000000000000000017905562000735565b600019810160009081526020849052604090208054600160c01b90046001600160401b03164381141562000b565762000b358462000e1d565b82546001600160c01b0319166001600160c01b039190911617825562000c1e565b80431162000b6057fe5b604051806040016040528062000b7c8662000e1d60201b60201c565b6001600160c01b0316815260200162000ba04362000e7c60201b620019eb1760201c565b6001600160401b039081169091526000858152602088815260409091208351815494909201518316600160c01b026001600160c01b039283166001600160c01b03199095169490941790911692909217909155600180870180549186019092166801000000000000000002600160401b600160801b03199091161790555b5050505050565b6001600160a01b03811660009081526001830160205260409020541562000c4c5762000c90565b8154600180820184556000848152602080822090930180546001600160a01b0319166001600160a01b03861690811790915585549082529185019092526040909120555b5050565b620005e1620005cb8262000cb460026200097160201b6200177b1760201c565b6200053960201b620016ed1790919060201c565b600062000cea61dead31600160981b31620009c3602090811b620017c417901c565b905062000d1262000d0c600d54836200053960201b620016ed1790919060201c565b62000c94565b600d55565b600080600e60000180548060200260200160405190810160405280929190818152602001828054801562000d7557602002820191906000526020600020905b81546001600160a01b0316815260019091019060200180831162000d56575b5050505050905060005b815181101562000dcc5762000dc182828151811062000d9a57fe5b60200260200101516001600160a01b03163184620009c360201b620017c41790919060201c565b925060010162000d7f565b5081601054141562000de057505062000e1b565b81601054111562000e065762000e0082601054036200059760201b60201c565b62000e16565b60105462000e1690830362000c94565b506010555b565b6000600160c01b821062000e78576040805162461bcd60e51b815260206004820152601d60248201527f76616c756520646f65736e27742066697420696e203139322062697473000000604482015290519081900360640190fd5b5090565b600068010000000000000000821062000e785760405162461bcd60e51b8152600401808060200182810382526026815260200180620037256026913960400191505060405180910390fd5b60805160a05161282b62000efa60003980610977528061156b528061227b5250806109ad528061146e525061282b6000f3fe608060405234801561001057600080fd5b50600436106101ef5760003560e01c80639f71043e1161010f578063d9330e63116100a2578063e433f81811610071578063e433f818146106f6578063efac34cc146106fe578063efcf7eb214610756578063f5a9838314610782576101ef565b8063d9330e6314610698578063dc2603bb146106b5578063df3d9b73146106bd578063e17f212e146106da576101ef565b8063be0522e0116100de578063be0522e014610678578063bfebbd2614610680578063c6faaafa14610688578063d0c1c39314610690576101ef565b80639f71043e1461040d578063a2420e2014610415578063b00c0b7614610432578063b646900414610555576101ef565b80635aa6e6751161018757806367fc40291161015657806367fc40291461031257806370d5ae051461033957806374e6310e146103415780639d6a890f146103e7576101ef565b80635aa6e675146102be5780635ff27079146102c65780636159b0a3146102ed57806362354e031461030a576101ef565b80631b73b4cb116101c35780631b73b4cb1461029c57806332ae2927146102a45780633c8c461c146102ac5780635267a15d146102b6576101ef565b8062c0f916146101f4578063037b0890146102415780630585084414610270578063099eea6214610294575b600080fd5b6102116004803603602081101561020a57600080fd5b503561078a565b604080516001600160a01b0390951685526020850193909352838301919091526060830152519081900360800190f35b61025e6004803603602081101561025757600080fd5b50356107ce565b60408051918252519081900360200190f35b6102786108c4565b604080516001600160a01b039092168252519081900360200190f35b61025e6108d3565b61025e6108d9565b61025e6109de565b6102b46109e4565b005b610278610abc565b610278610ae1565b6102b4600480360360208110156102dc57600080fd5b50356001600160e01b031916610b75565b6102b46004803603602081101561030357600080fd5b5035610eca565b610278610f2d565b6102b46004803603602081101561032857600080fd5b50356001600160e01b031916610f38565b610278611020565b6103686004803603602081101561035757600080fd5b50356001600160e01b031916611026565b6040518083815260200180602001828103825283818151815260200191508051906020019080838360005b838110156103ab578181015183820152602001610393565b50505050905090810190601f1680156103d85780820380516001836020036101000a031916815260200191505b50935050505060405180910390f35b6102b4600480360360208110156103fd57600080fd5b50356001600160a01b03166110cc565b61025e611185565b6102b46004803603602081101561042b57600080fd5b503561118b565b6102b46004803603604081101561044857600080fd5b810190602081018135600160201b81111561046257600080fd5b82018360208201111561047457600080fd5b803590602001918460208302840111600160201b8311171561049557600080fd5b9190808060200260200160405190810160405280939291908181526020018383602002808284376000920191909152509295949360208101935035915050600160201b8111156104e457600080fd5b8201836020820111156104f657600080fd5b803590602001918460208302840111600160201b8311171561051757600080fd5b91908080602002602001604051908101604052809392919081815260200183836020028082843760009201919091525092955061126d945050505050565b6102b46004803603604081101561056b57600080fd5b810190602081018135600160201b81111561058557600080fd5b82018360208201111561059757600080fd5b803590602001918460208302840111600160201b831117156105b857600080fd5b9190808060200260200160405190810160405280939291908181526020018383602002808284376000920191909152509295949360208101935035915050600160201b81111561060757600080fd5b82018360208201111561061957600080fd5b803590602001918460208302840111600160201b8311171561063a57600080fd5b919080806020026020016040519081016040528093929190818152602001838360200280828437600092019190915250929550611314945050505050565b61027861145d565b61025e61146c565b610278611490565b61025e611498565b61025e600480360360208110156106ae57600080fd5b503561149e565b61025e61151b565b6102b4600480360360208110156106d357600080fd5b5035611521565b6106e2611559565b604080519115158252519081900360200190f35b61025e611569565b61070661158d565b60408051602080825283518183015283519192839290830191858101910280838360005b8381101561074257818101518382015260200161072a565b505050509050019250505060405180910390f35b6102b46004803603604081101561076c57600080fd5b506001600160a01b0381351690602001356115f2565b6102b4611633565b6009818154811061079a57600080fd5b600091825260209091206004909102018054600182015460028301546003909301546001600160a01b039092169350919084565b6000438210610824576040805162461bcd60e51b815260206004820181905260248201527f43616e206f6e6c79206265207573656420666f72207061737420626c6f636b73604482015290519081900360640190fd5b600c548210156108ae57600b54604080516237b08960e41b81526004810185905290516001600160a01b039092169163037b0890916024808201926020929091908290030181600087803b15801561087b57600080fd5b505af115801561088f573d6000803e3d6000fd5b505050506040513d60208110156108a557600080fd5b505190506108bf565b6108bb6004600284611a33565b5090505b919050565b600b546001600160a01b031681565b60055481565b6000600c5443101561096657600b60009054906101000a90046001600160a01b03166001600160a01b0316631b73b4cb6040518163ffffffff1660e01b815260040160206040518083038186803b15801561093357600080fd5b505afa158015610947573d6000803e3d6000fd5b505050506040513d602081101561095d57600080fd5b505190506109db565b6109d86006546109d26109a46005547f00000000000000000000000000000000000000000000000000000000000000006116ed90919063ffffffff16565b6008546109d2907f0000000000000000000000000000000000000000000000000000000000000000906117c4565b906116ed565b90505b90565b60065481565b600a5460408051808201909152600e81526d696e666c6174696f6e206f6e6c7960901b6020820152906001600160a01b03163314610aa05760405162461bcd60e51b81526004018080602001828103825283818151815260200191508051906020019080838360005b83811015610a65578181015183820152602001610a4d565b50505050905090810190601f168015610a925780820380516001836020036101000a031916815260200191505b509250505060405180910390fd5b50600019600c541415610ab25743600c555b610aba611a91565b565b7f714f205b2abd25bef1d06a1af944e38c113fe6160375c4e1d6d5cf28848e77195490565b60008054600160a81b900460ff16610b04576000546001600160a01b03166109d8565b60076001609c1b016001600160a01b031663732524946040518163ffffffff1660e01b815260040160206040518083038186803b158015610b4457600080fd5b505afa158015610b58573d6000803e3d6000fd5b505050506040513d6020811015610b6e57600080fd5b5051905090565b60408051630debfda360e41b8152336004820152905160076001609c1b019163debfda30916024808301926020929190829003018186803b158015610bb957600080fd5b505afa158015610bcd573d6000803e3d6000fd5b505050506040513d6020811015610be357600080fd5b5051610c26576040805162461bcd60e51b815260206004820152600d60248201526c37b7363c9032bc32b1baba37b960991b604482015290519081900360640190fd5b6001600160e01b0319811660009081526001602052604090208054610c92576040805162461bcd60e51b815260206004820152601a60248201527f74696d656c6f636b3a20696e76616c69642073656c6563746f72000000000000604482015290519081900360640190fd5b8054421015610ce8576040805162461bcd60e51b815260206004820152601960248201527f74696d656c6f636b3a206e6f7420616c6c6f7765642079657400000000000000604482015290519081900360640190fd5b6000816001018054600181600116156101000203166002900480601f016020809104026020016040519081016040528092919081815260200182805460018160011615610100020316600290048015610d825780601f10610d5757610100808354040283529160200191610d82565b820191906000526020600020905b815481529060010190602001808311610d6557829003601f168201915b5050506001600160e01b0319861660009081526001602081905260408220828155949550909250610db691508301826126c2565b50506000805460ff60b01b1916600160b01b178155604051825130918491819060208401908083835b60208310610dfe5780518252601f199092019160209182019101610ddf565b6001836020036101000a0380198251168184511680821785525050505050509050019150506000604051808303816000865af19150503d8060008114610e60576040519150601f19603f3d011682016040523d82523d6000602084013e610e65565b606091505b50506000805460ff60b01b19169055604080516001600160e01b03198716815242602082015281519293507fa7326b57fc9cfe267aaea5e7f0b01757154d265620a0585819416ee9ddd2c438929081900390910190a1610ec481611c42565b50505050565b600054600160b01b900460ff1680610eec5750600054600160a81b900460ff16155b15610f1f57610ef9611c5f565b600554610f0690826116ed565b600555610f1281611c94565b610f1a611a91565b610f2a565b610f2a600036611cad565b50565b60076001609c1b0181565b610f40611e30565b6001600160e01b03198116600090815260016020526040902054610fab576040805162461bcd60e51b815260206004820152601a60248201527f74696d656c6f636b3a20696e76616c69642073656c6563746f72000000000000604482015290519081900360640190fd5b604080516001600160e01b03198316815242602082015281517f7735b2391c38a81419c513e30ca578db7158eadd7101511b23e221c654d19cf8929181900390910190a16001600160e01b0319811660009081526001602081905260408220828155919061101b908301826126c2565b505050565b61dead90565b600160208181526000928352604092839020805481840180548651600296821615610100026000190190911695909504601f810185900485028601850190965285855290949193929091908301828280156110c25780601f10611097576101008083540402835291602001916110c2565b820191906000526020600020905b8154815290600101906020018083116110a557829003601f168201915b5050505050905082565b600054600160a01b900460ff1615611122576040805162461bcd60e51b8152602060048201526014602482015273696e697469616c6973656420213d2066616c736560601b604482015290519081900360640190fd5b60008054600160a01b60ff60a01b19909116176001600160a01b0319166001600160a01b03831690811790915560408051918252517f9789733827840833afc031fb2ef9ab6894271f77bad2085687cf4ae5c7bee4db916020908290030190a150565b60085481565b600a5460408051808201909152600e81526d696e666c6174696f6e206f6e6c7960901b6020820152906001600160a01b0316331461120a5760405162461bcd60e51b8152602060048201818152835160248401528351909283926044909101919085019080838360008315610a65578181015183820152602001610a4d565b50600754611216611a91565b61122081836117c4565b6007541461126957600754604080519183900382526020820184905280517feeb8970a03ae6e5930263b6b2553da66b8e20080d79a3f33c139e5855574eb739281900390910190a15b5050565b611275610abc565b6001600160a01b0316336001600160a01b0316146112d1576040805162461bcd60e51b815260206004820152601460248201527337b7363c9030b2323932b9b9903ab83230ba32b960611b604482015290519081900360640190fd5b61130a61130583836040518060400160405280600e81526020016d20b2323932b9b9aab83230ba32b960911b815250611e8f565b611fbc565b6112698282611fe0565b600054600160b01b900460ff16806113365750600054600160a81b900460ff16155b1561145257611343611c5f565b7f5c3fa658268afebe402cb474fc8481cb13cb4f9230b78161b64024af71ed94988282604051808060200180602001838103835285818151815260200191508051906020019060200280838360005b838110156113aa578181015183820152602001611392565b50505050905001838103825284818151815260200191508051906020019060200280838360005b838110156113e95781810151838201526020016113d1565b5050505090500194505050505060405180910390a160005b81518110156114395761143182828151811061141957fe5b6020026020010151600e61203090919063ffffffff16565b600101611401565b50611445600e8361174a565b61144d611a91565b611269565b611269600036611cad565b600a546001600160a01b031681565b7f000000000000000000000000000000000000000000000000000000000000000081565b600160981b90565b60075481565b6000600c5482101561150a57600b546040805163d9330e6360e01b81526004810185905290516001600160a01b039092169163d9330e6391602480820192602092909190829003018186803b1580156114f657600080fd5b505afa15801561088f573d6000803e3d6000fd5b61151560028361212b565b92915050565b600c5481565b600054600160b01b900460ff16806115435750600054600160a81b900460ff16155b15610f1f57611550611c5f565b610f1281612272565b600054600160a81b900460ff1681565b7f000000000000000000000000000000000000000000000000000000000000000081565b6060600e6000018054806020026020016040519081016040528092919081815260200182805480156115e857602002820191906000526020600020905b81546001600160a01b031681526001909101906020018083116115ca575b5050505050905090565b600054600160b01b900460ff16806116145750600054600160a81b900460ff16155b1561145257611621611c5f565b61162a81612272565b611445826122cc565b61163b611e30565b600054600160a81b900460ff161561169a576040805162461bcd60e51b815260206004820152601a60248201527f616c726561647920696e2070726f64756374696f6e206d6f6465000000000000604482015290519081900360640190fd5b60008054600161ff0160a01b031916600160a81b1790556040805160076001609c1b01815290517f83af113638b5422f9e977cebc0aaf0eaf2188eb9a8baae7f9d46c42b33a1560c9181900360200190a1565b600082821115611744576040805162461bcd60e51b815260206004820152601e60248201527f536166654d6174683a207375627472616374696f6e206f766572666c6f770000604482015290519081900360640190fd5b50900390565b60005b815181101561101b576117738383838151811061176657fe5b60200260200101516123da565b60010161174d565b6001810154600090600160401b900467ffffffffffffffff16806117a35760009150506108bf565b6000190160009081526020929092525060409020546001600160c01b031690565b60008282018381101561181e576040805162461bcd60e51b815260206004820152601b60248201527f536166654d6174683a206164646974696f6e206f766572666c6f770000000000604482015290519081900360640190fd5b9392505050565b6001820154600160401b900467ffffffffffffffff16806118de57604051806040016040528061185484612443565b6001600160c01b0316815260200161186b436119eb565b67ffffffffffffffff908116909152600080805260208681526040909120835181549490920151909216600160c01b026001600160c01b039182166001600160c01b0319909416939093171691909117905560018301805467ffffffffffffffff60401b1916600160401b17905561101b565b600019810160009081526020849052604090208054600160c01b900467ffffffffffffffff16438114156119355761191584612443565b82546001600160c01b0319166001600160c01b03919091161782556119e4565b80431161193e57fe5b604051806040016040528061195286612443565b6001600160c01b03168152602001611969436119eb565b67ffffffffffffffff9081169091526000858152602088815260409091208351815494909201518316600160c01b026001600160c01b039283166001600160c01b0319909516949094179091169290921790915560018087018054918601909216600160401b0267ffffffffffffffff60401b199091161790555b5050505050565b6000600160401b8210611a2f5760405162461bcd60e51b81526004018080602001828103825260268152602001806127a06026913960400191505060405180910390fd5b5090565b60008181526020849052604081205481908015611a595760001901915060009050611a89565b6000611a65868661212b565b9050611a728160016117c4565b600086815260208990526040902055925060019150505b935093915050565b60095460005b81811015611c3157600060098281548110611aae57fe5b600091825260208220600491820201805460408051632dafdbbf60e01b81529051929550849384936001600160a01b0390931692632dafdbbf92808301926060929182900301818787803b158015611b0557600080fd5b505af1158015611b19573d6000803e3d6000fd5b505050506040513d6060811015611b2f57600080fd5b5080516020820151604090920151909450909250905080611b5084846117c4565b1015611b5857fe5b6000611b718560020154846116ed90919063ffffffff16565b600754909150611b8190826117c4565b6007556003850154600090611b979084906116ed565b9050611ba28161249d565b600854611baf90826117c4565b60085560018601548510611be35760018601548503611bcd81611c94565b600654611bda90826117c4565b60065550611c0f565b60018601546005549086900390611bfa90826116ed565b600555600654611c0a90826116ed565b600655505b5050600180850193909355600284019190915560039092019190915501611a97565b50611c3a6124b4565b610f2a6124ec565b3d604051818101604052816000823e8215611c5b578181f35b8181fd5b600054600160b01b900460ff1615611c8c57333014611c7a57fe5b6000805460ff60b01b19169055610aba565b610aba611e30565b610f2a611ca5826109d2600261177b565b600290611825565b611cb5611e30565b600082359050600060076001609c1b016001600160a01b0316636221a54b6040518163ffffffff1660e01b815260040160206040518083038186803b158015611cfd57600080fd5b505afa158015611d11573d6000803e3d6000fd5b505050506040513d6020811015611d2757600080fd5b505160408051808201825242830180825282516020601f89018190048102820181019094528781529394509290918281019190889088908190840183828082843760009201829052509390945250506001600160e01b03198616815260016020818152604090922084518155848301518051919450611dab93928501920190612706565b509050507fed948300a3694aa01d4a6b258bfd664350193d770c0b51f8387277f6d83ea3b68382878760405180856001600160e01b0319168152602001848152602001806020018281038252848482818152602001925080828437600083820152604051601f909101601f191690920182900397509095505050505050a15050505050565b611e38610ae1565b6001600160a01b0316336001600160a01b031614610aba576040805162461bcd60e51b815260206004820152600f60248201526e6f6e6c7920676f7665726e616e636560881b604482015290519081900360640190fd5b600080826040516020018080602001828103825283818151815260200191508051906020019080838360005b83811015611ed3578181015183820152602001611ebb565b50505050905090810190601f168015611f005780820380516001836020036101000a031916815260200191505b50925050506040516020818303038152906040528051906020012090506000805b8651811015611f6857868181518110611f3657fe5b6020026020010151831415611f6057858181518110611f5157fe5b60200260200101519150611f68565b600101611f21565b506001600160a01b038116611fb3576040805162461bcd60e51b815260206004820152600c60248201526b61646472657373207a65726f60a01b604482015290519081900360640190fd5b95945050505050565b7f714f205b2abd25bef1d06a1af944e38c113fe6160375c4e1d6d5cf28848e771955565b61200c82826040518060400160405280600981526020016824b7333630ba34b7b760b91b815250611e8f565b600a80546001600160a01b0319166001600160a01b03929092169190911790555050565b6001600160a01b0381166000908152600183016020526040902054806120565750611269565b82548110156120de5782546000908490600019810190811061207457fe5b60009182526020909120015484546001600160a01b0390911691508190859060001985019081106120a157fe5b600091825260208083209190910180546001600160a01b0319166001600160a01b0394851617905592909116815260018501909152604090208190555b82548390806120e957fe5b60008281526020808220830160001990810180546001600160a01b03191690559092019092556001600160a01b03841682526001850190526040812055505050565b6001820154600090600160401b900467ffffffffffffffff1680612153576000915050611515565b438310158061218657506000198101600090815260208590526040902054600160c01b900467ffffffffffffffff168310155b156121ae57600019016000908152602084905260409020546001600160c01b03169050611515565b600184015467ffffffffffffffff9081166000818152602087905260409020549091600160c01b9091041684101561222857801561221d5760405162461bcd60e51b81526004018080602001828103825260308152602001806127c66030913960400191505060405180910390fd5b600092505050611515565b600185015460009061224f9087908490600160401b900467ffffffffffffffff16886125d6565b6000908152602087905260409020546001600160c01b0316935050505092915050565b806122a86005547f00000000000000000000000000000000000000000000000000000000000000006116ed90919063ffffffff16565b10156122b057fe5b6122b98161249d565b6005546122c690826117c4565b60055550565b60095460005b8181101561238b57600981815481106122e757fe5b60009182526020909120600490910201546001600160a01b038481169116141561238357604080518082018252601881527f746f6b656e20706f6f6c20616c726561647920616464656400000000000000006020808301918252925162461bcd60e51b81526004810193845282516024820152825192939283926044909201919080838360008315610a65578181015183820152602001610a4d565b6001016122d2565b50600980546001018082556000829052839190839081106123a857fe5b6000918252602090912060049091020180546001600160a01b0319166001600160a01b03929092169190911790555050565b6001600160a01b0381166000908152600183016020526040902054156123ff57611269565b8154600180820184556000848152602080822090930180546001600160a01b0319166001600160a01b03959095169485179055845493815293019052604090912055565b6000600160c01b8210611a2f576040805162461bcd60e51b815260206004820152601d60248201527f76616c756520646f65736e27742066697420696e203139322062697473000000604482015290519081900360640190fd5b610f2a611ca5826124ae600261177b565b906117c4565b60006124c861dead31600160981b316117c4565b90506124e76124e2600d54836116ed90919063ffffffff16565b611c94565b600d55565b600080600e60000180548060200260200160405190810160405280929190818152602001828054801561254857602002820191906000526020600020905b81546001600160a01b0316815260019091019060200180831161252a575b5050505050905060005b81518110156125955761258b82828151811061256a57fe5b60200260200101516001600160a01b031631846117c490919063ffffffff16565b9250600101612552565b508160105414156125a7575050610aba565b8160105411156125c3576125be826010540361249d565b6125d0565b6125d06010548303611c94565b50601055565b600083816125e58560016116ed565b90505b8181111561265157600061260c600261260660016124ae86886117c4565b9061265b565b600081815260208a90526040902054909150600160c01b900467ffffffffffffffff16851061263d5780925061264b565b6126488160016116ed565b91505b506125e8565b5095945050505050565b60008082116126b1576040805162461bcd60e51b815260206004820152601a60248201527f536166654d6174683a206469766973696f6e206279207a65726f000000000000604482015290519081900360640190fd5b8183816126ba57fe5b049392505050565b50805460018160011615610100020316600290046000825580601f106126e85750610f2a565b601f016020900490600052602060002090810190610f2a919061278a565b828054600181600116156101000203166002900490600052602060002090601f01602090048101928261273c5760008555612782565b82601f1061275557805160ff1916838001178555612782565b82800160010185558215612782579182015b82811115612782578251825591602001919060010190612767565b50611a2f9291505b5b80821115611a2f576000815560010161278b56fe53616665436173743a2076616c756520646f65736e27742066697420696e2036342062697473436865636b506f696e74486973746f72793a2072656164696e672066726f6d20636c65616e65642d757020626c6f636ba2646970667358221220dfbf850ec125d3a9a7af1732d9202d372b828c994fa873f34bdf3be94e1b289164736f6c6343000706003353616665436173743a2076616c756520646f65736e27742066697420696e2036342062697473",
  "linkReferences": {},
  "deployedLinkReferences": {}
}