{
  "_format": "hh-sol-artifact-1",
  "contractName": "ValidatorRegistry",
  "sourceName": "contracts/utils/implementation/ValidatorRegistry.sol",
  "abi": [
    {
      "inputs": [
        {
          "internalType": "address",
          "name": "_governance",
          "type": "address"
        },
        {
          "internalType": "address",
          "name": "_addressUpdater",
          "type": "address"
        }
      ],
      "stateMutability": "nonpayable",
      "type": "constructor"
    },
    {
      "anonymous": false,
      "inputs": [
        {
          "indexed": true,
          "internalType": "address",
          "name": "dataProvider",
          "type": "address"
        },
        {
          "indexed": false,
          "internalType": "string",
          "name": "nodeId",
          "type": "string"
        },
        {
          "indexed": false,
          "internalType": "string",
          "name": "pChainPublicKey",
          "type": "string"
        }
      ],
      "name": "DataProviderRegistered",
      "type": "event"
    },
    {
      "anonymous": false,
      "inputs": [
        {
          "indexed": true,
          "internalType": "address",
          "name": "dataProvider",
          "type": "address"
        }
      ],
      "name": "DataProviderUnregistered",
      "type": "event"
    },
    {
      "anonymous": false,
      "inputs": [
        {
          "indexed": false,
          "internalType": "bytes4",
          "name": "selector",
          "type": "bytes4"
        },
        {
          "indexed": false,
          "internalType": "uint256",
          "name": "allowedAfterTimestamp",
          "type": "uint256"
        },
        {
          "indexed": false,
          "internalType": "bytes",
          "name": "encodedCall",
          "type": "bytes"
        }
      ],
      "name": "GovernanceCallTimelocked",
      "type": "event"
    },
    {
      "anonymous": false,
      "inputs": [
        {
          "indexed": false,
          "internalType": "address",
          "name": "initialGovernance",
          "type": "address"
        }
      ],
      "name": "GovernanceInitialised",
      "type": "event"
    },
    {
      "anonymous": false,
      "inputs": [
        {
          "indexed": false,
          "internalType": "address",
          "name": "governanceSettings",
          "type": "address"
        }
      ],
      "name": "GovernedProductionModeEntered",
      "type": "event"
    },
    {
      "anonymous": false,
      "inputs": [
        {
          "indexed": false,
          "internalType": "bytes4",
          "name": "selector",
          "type": "bytes4"
        },
        {
          "indexed": false,
          "internalType": "uint256",
          "name": "timestamp",
          "type": "uint256"
        }
      ],
      "name": "TimelockedGovernanceCallCanceled",
      "type": "event"
    },
    {
      "anonymous": false,
      "inputs": [
        {
          "indexed": false,
          "internalType": "bytes4",
          "name": "selector",
          "type": "bytes4"
        },
        {
          "indexed": false,
          "internalType": "uint256",
          "name": "timestamp",
          "type": "uint256"
        }
      ],
      "name": "TimelockedGovernanceCallExecuted",
      "type": "event"
    },
    {
      "inputs": [
        {
          "internalType": "bytes4",
          "name": "_selector",
          "type": "bytes4"
        }
      ],
      "name": "cancelGovernanceCall",
      "outputs": [],
      "stateMutability": "nonpayable",
      "type": "function"
    },
    {
      "inputs": [
        {
          "internalType": "address[]",
          "name": "_dataProvidersToUnregister",
          "type": "address[]"
        },
        {
          "components": [
            {
              "internalType": "address",
              "name": "dataProvider",
              "type": "address"
            },
            {
              "internalType": "string",
              "name": "nodeId",
              "type": "string"
            },
            {
              "internalType": "string",
              "name": "pChainPublicKey",
              "type": "string"
            }
          ],
          "internalType": "struct ValidatorRegistry.DataProviderInfo[]",
          "name": "_dataProvidersToRegister",
          "type": "tuple[]"
        }
      ],
      "name": "changeDataProviders",
      "outputs": [],
      "stateMutability": "nonpayable",
      "type": "function"
    },
    {
      "inputs": [
        {
          "internalType": "bytes4",
          "name": "_selector",
          "type": "bytes4"
        }
      ],
      "name": "executeGovernanceCall",
      "outputs": [],
      "stateMutability": "nonpayable",
      "type": "function"
    },
    {
      "inputs": [],
      "name": "getAddressUpdater",
      "outputs": [
        {
          "internalType": "address",
          "name": "_addressUpdater",
          "type": "address"
        }
      ],
      "stateMutability": "view",
      "type": "function"
    },
    {
      "inputs": [
        {
          "internalType": "bytes32",
          "name": "_nodeId",
          "type": "bytes32"
        }
      ],
      "name": "getDataProviderForNodeId",
      "outputs": [
        {
          "internalType": "address",
          "name": "_dataProvider",
          "type": "address"
        }
      ],
      "stateMutability": "view",
      "type": "function"
    },
    {
      "inputs": [
        {
          "internalType": "bytes32",
          "name": "_pChainPublicKey",
          "type": "bytes32"
        }
      ],
      "name": "getDataProviderForPChainPublicKey",
      "outputs": [
        {
          "internalType": "address",
          "name": "_dataProvider",
          "type": "address"
        }
      ],
      "stateMutability": "view",
      "type": "function"
    },
    {
      "inputs": [
        {
          "internalType": "address",
          "name": "_dataProvider",
          "type": "address"
        }
      ],
      "name": "getDataProviderInfo",
      "outputs": [
        {
          "internalType": "string",
          "name": "_nodeId",
          "type": "string"
        },
        {
          "internalType": "string",
          "name": "_pChainPublicKey",
          "type": "string"
        }
      ],
      "stateMutability": "view",
      "type": "function"
    },
    {
      "inputs": [],
      "name": "governance",
      "outputs": [
        {
          "internalType": "address",
          "name": "",
          "type": "address"
        }
      ],
      "stateMutability": "view",
      "type": "function"
    },
    {
      "inputs": [],
      "name": "governanceSettings",
      "outputs": [
        {
          "internalType": "contract IGovernanceSettings",
          "name": "",
          "type": "address"
        }
      ],
      "stateMutability": "view",
      "type": "function"
    },
    {
      "inputs": [
        {
          "internalType": "address",
          "name": "_initialGovernance",
          "type": "address"
        }
      ],
      "name": "initialise",
      "outputs": [],
      "stateMutability": "nonpayable",
      "type": "function"
    },
    {
      "inputs": [],
      "name": "priceSubmitter",
      "outputs": [
        {
          "internalType": "contract IPriceSubmitter",
          "name": "",
          "type": "address"
        }
      ],
      "stateMutability": "view",
      "type": "function"
    },
    {
      "inputs": [],
      "name": "productionMode",
      "outputs": [
        {
          "internalType": "bool",
          "name": "",
          "type": "bool"
        }
      ],
      "stateMutability": "view",
      "type": "function"
    },
    {
      "inputs": [
        {
          "internalType": "string",
          "name": "_nodeId",
          "type": "string"
        },
        {
          "internalType": "string",
          "name": "_pChainPublicKey",
          "type": "string"
        }
      ],
      "name": "registerDataProvider",
      "outputs": [],
      "stateMutability": "nonpayable",
      "type": "function"
    },
    {
      "inputs": [],
      "name": "switchToProductionMode",
      "outputs": [],
      "stateMutability": "nonpayable",
      "type": "function"
    },
    {
      "inputs": [
        {
          "internalType": "bytes4",
          "name": "",
          "type": "bytes4"
        }
      ],
      "name": "timelockedCalls",
      "outputs": [
        {
          "internalType": "uint256",
          "name": "allowedAfterTimestamp",
          "type": "uint256"
        },
        {
          "internalType": "bytes",
          "name": "encodedCall",
          "type": "bytes"
        }
      ],
      "stateMutability": "view",
      "type": "function"
    },
    {
      "inputs": [],
      "name": "unregisterDataProvider",
      "outputs": [],
      "stateMutability": "nonpayable",
      "type": "function"
    },
    {
      "inputs": [
        {
          "internalType": "bytes32[]",
          "name": "_contractNameHashes",
          "type": "bytes32[]"
        },
        {
          "internalType": "address[]",
          "name": "_contractAddresses",
          "type": "address[]"
        }
      ],
      "name": "updateContractAddresses",
      "outputs": [],
      "stateMutability": "nonpayable",
      "type": "function"
    }
  ],
  "bytecode": "0x60806040523480156200001157600080fd5b5060405162001dba38038062001dba8339810160408190526200003491620001bb565b8082806001600160a01b0381161562000052576200005281620000b7565b506001600160a01b038116620000a2576040805162461bcd60e51b815260206004820152601060248201526f5f676f7665726e616e6365207a65726f60801b604482015290519081900360640190fd5b50620000ae816200017a565b505050620001f2565b600054600160a01b900460ff161562000117576040805162461bcd60e51b815260206004820152601460248201527f696e697469616c6973656420213d2066616c7365000000000000000000000000604482015290519081900360640190fd5b60008054600160a01b60ff60a01b19909116176001600160a01b0319166001600160a01b03831690811790915560408051918252517f9789733827840833afc031fb2ef9ab6894271f77bad2085687cf4ae5c7bee4db916020908290030190a150565b7f714f205b2abd25bef1d06a1af944e38c113fe6160375c4e1d6d5cf28848e771955565b80516001600160a01b0381168114620001b657600080fd5b919050565b60008060408385031215620001ce578182fd5b620001d9836200019e565b9150620001e9602084016200019e565b90509250929050565b611bb880620002026000396000f3fe608060405234801561001057600080fd5b506004361061010b5760003560e01c8063625de00a116100a25780639f263913116100715780639f263913146101fc578063b00c0b761461020f578063e17f212e14610222578063f5a9838314610237578063f937d6ad1461023f5761010b565b8063625de00a146101a257806367fc4029146101b557806374e6310e146101c85780639d6a890f146101e95761010b565b80635267a15d116100de5780635267a15d1461016a5780635aa6e6751461017f5780635ff270791461018757806362354e031461019a5761010b565b806307b32665146101105780630c1026b61461011a57806322a8c3811461012d5780634c0841c614610140575b600080fd5b610118610247565b005b6101186101283660046116cc565b610252565b61011861013b3660046118e9565b61030b565b61015361014e3660046116ab565b610316565b6040516101619291906119d5565b60405180910390f35b61017261045e565b60405161016191906119a3565b610172610483565b6101186101953660046118c1565b610518565b61017261086d565b6101726101b03660046118a9565b610878565b6101186101c33660046118c1565b610896565b6101db6101d63660046118c1565b61097e565b604051610161929190611b13565b6101186101f73660046116ab565b610a24565b61017261020a3660046118a9565b610add565b61011861021d3660046117f2565b610af8565b61022a610b9f565b60405161016191906119b7565b610118610baf565b610172610c69565b61025033610c78565b565b600054600160b01b900460ff16806102745750600054600160a81b900460ff16155b156102fc57610281610daf565b60005b82518110156102b1576102a983828151811061029c57fe5b6020026020010151610c78565b600101610284565b5060005b81518110156102f65760008282815181106102cc57fe5b602002602001015190506102ed816000015182602001518360400151610de4565b506001016102b5565b50610307565b61030760003661112f565b5050565b610307338383610de4565b6001600160a01b038116600090815260036020908152604080832060048352928190208354825160026001831615610100026000190190921691909104601f81018590048502820185019093528281526060948594909384918301828280156103c05780601f10610395576101008083540402835291602001916103c0565b820191906000526020600020905b8154815290600101906020018083116103a357829003601f168201915b5050845460408051602060026001851615610100026000190190941693909304601f81018490048402820184019092528181529597508694509250840190508282801561044e5780601f106104235761010080835404028352916020019161044e565b820191906000526020600020905b81548152906001019060200180831161043157829003601f168201915b5050505050905091509150915091565b7f714f205b2abd25bef1d06a1af944e38c113fe6160375c4e1d6d5cf28848e77195490565b60008054600160a81b900460ff166104a6576000546001600160a01b0316610513565b60076001609c1b016001600160a01b031663732524946040518163ffffffff1660e01b815260040160206040518083038186803b1580156104e657600080fd5b505afa1580156104fa573d6000803e3d6000fd5b505050506040513d602081101561051057600080fd5b50515b905090565b60408051630debfda360e41b8152336004820152905160076001609c1b019163debfda30916024808301926020929190829003018186803b15801561055c57600080fd5b505afa158015610570573d6000803e3d6000fd5b505050506040513d602081101561058657600080fd5b50516105c9576040805162461bcd60e51b815260206004820152600d60248201526c37b7363c9032bc32b1baba37b960991b604482015290519081900360640190fd5b6001600160e01b0319811660009081526001602052604090208054610635576040805162461bcd60e51b815260206004820152601a60248201527f74696d656c6f636b3a20696e76616c69642073656c6563746f72000000000000604482015290519081900360640190fd5b805442101561068b576040805162461bcd60e51b815260206004820152601960248201527f74696d656c6f636b3a206e6f7420616c6c6f7765642079657400000000000000604482015290519081900360640190fd5b6000816001018054600181600116156101000203166002900480601f0160208091040260200160405190810160405280929190818152602001828054600181600116156101000203166002900480156107255780601f106106fa57610100808354040283529160200191610725565b820191906000526020600020905b81548152906001019060200180831161070857829003601f168201915b5050506001600160e01b031986166000908152600160208190526040822082815594955090925061075991508301826114d4565b50506000805460ff60b01b1916600160b01b178155604051825130918491819060208401908083835b602083106107a15780518252601f199092019160209182019101610782565b6001836020036101000a0380198251168184511680821785525050505050509050019150506000604051808303816000865af19150503d8060008114610803576040519150601f19603f3d011682016040523d82523d6000602084013e610808565b606091505b50506000805460ff60b01b19169055604080516001600160e01b03198716815242602082015281519293507fa7326b57fc9cfe267aaea5e7f0b01757154d265620a0585819416ee9ddd2c438929081900390910190a1610867816112b2565b50505050565b60076001609c1b0181565b6000818152600660205260409020546001600160a01b03165b919050565b61089e6112cf565b6001600160e01b03198116600090815260016020526040902054610909576040805162461bcd60e51b815260206004820152601a60248201527f74696d656c6f636b3a20696e76616c69642073656c6563746f72000000000000604482015290519081900360640190fd5b604080516001600160e01b03198316815242602082015281517f7735b2391c38a81419c513e30ca578db7158eadd7101511b23e221c654d19cf8929181900390910190a16001600160e01b03198116600090815260016020819052604082208281559190610979908301826114d4565b505050565b600160208181526000928352604092839020805481840180548651600296821615610100026000190190911695909504601f81018590048502860185019096528585529094919392909190830182828015610a1a5780601f106109ef57610100808354040283529160200191610a1a565b820191906000526020600020905b8154815290600101906020018083116109fd57829003601f168201915b5050505050905082565b600054600160a01b900460ff1615610a7a576040805162461bcd60e51b8152602060048201526014602482015273696e697469616c6973656420213d2066616c736560601b604482015290519081900360640190fd5b60008054600160a01b60ff60a01b19909116176001600160a01b0319166001600160a01b03831690811790915560408051918252517f9789733827840833afc031fb2ef9ab6894271f77bad2085687cf4ae5c7bee4db916020908290030190a150565b6000908152600560205260409020546001600160a01b031690565b610b0061045e565b6001600160a01b0316336001600160a01b031614610b5c576040805162461bcd60e51b815260206004820152601460248201527337b7363c9030b2323932b9b9903ab83230ba32b960611b604482015290519081900360640190fd5b610b95610b9083836040518060400160405280600e81526020016d20b2323932b9b9aab83230ba32b960911b81525061132e565b61145b565b610307828261147f565b600054600160a81b900460ff1681565b610bb76112cf565b600054600160a81b900460ff1615610c16576040805162461bcd60e51b815260206004820152601a60248201527f616c726561647920696e2070726f64756374696f6e206d6f6465000000000000604482015290519081900360640190fd5b60008054600161ff0160a01b031916600160a81b1790556040805160076001609c1b01815290517f83af113638b5422f9e977cebc0aaf0eaf2188eb9a8baae7f9d46c42b33a1560c9181900360200190a1565b6002546001600160a01b031681565b6001600160a01b0381166000908152600360209081526040808320905160059392610ca49291016119fa565b60408051601f198184030181529181528151602092830120835282820193909352908201600090812080546001600160a01b03191690556001600160a01b03841681526003909152908120610cf8916114d4565b6001600160a01b0381166000908152600460209081526040808320905160069392610d249291016119fa565b60408051601f198184030181529181528151602092830120835282820193909352908201600090812080546001600160a01b03191690556001600160a01b03841681526004909152908120610d78916114d4565b6040516001600160a01b038216907f5700c97ef156d618ac6ba130f187bc20c5d00c54d4c345129bd7556e0e993b5590600090a250565b600054600160b01b900460ff1615610ddc57333014610dca57fe5b6000805460ff60b01b19169055610250565b6102506112cf565b600254604051637ac420ad60e01b81526000916001600160a01b031690637ac420ad90610e159087906004016119a3565b60206040518083038186803b158015610e2d57600080fd5b505afa158015610e41573d6000803e3d6000fd5b505050506040513d601f19601f82011682018060405250810190610e659190611940565b11610e8b5760405162461bcd60e51b8152600401610e8290611aea565b60405180910390fd5b600082604051602001610e9e91906119c2565b60408051601f198184030181529181528151602092830120600081815260059093529120549091506001600160a01b031680610f86576001600160a01b0385166000908152600360209081526040808320905160059392610f009291016119fa565b60408051601f198184030181529181528151602092830120835282820193909352908201600090812080546001600160a01b03191690556001600160a01b038816815260038252919091208551610f599287019061151b565b50600082815260056020526040902080546001600160a01b0319166001600160a01b038716179055610fb7565b846001600160a01b0316816001600160a01b031614610fb75760405162461bcd60e51b8152600401610e8290611abb565b600083604051602001610fca91906119c2565b60408051601f198184030181529181528151602092830120600081815260069093529120546001600160a01b031692509050816110b3576001600160a01b038616600090815260046020908152604080832090516006939261102d9291016119fa565b60408051601f198184030181529181528151602092830120835282820193909352908201600090812080546001600160a01b03191690556001600160a01b0389168152600482529190912085516110869287019061151b565b50600081815260066020526040902080546001600160a01b0319166001600160a01b0388161790556110e4565b856001600160a01b0316826001600160a01b0316146110e45760405162461bcd60e51b8152600401610e8290611a84565b856001600160a01b03167ff27ea1f8b9b39f636b25e62130329d875e8d2d35c99e7adeb01c991550228794868660405161111f9291906119d5565b60405180910390a2505050505050565b6111376112cf565b600082359050600060076001609c1b016001600160a01b0316636221a54b6040518163ffffffff1660e01b815260040160206040518083038186803b15801561117f57600080fd5b505afa158015611193573d6000803e3d6000fd5b505050506040513d60208110156111a957600080fd5b505160408051808201825242830180825282516020601f89018190048102820181019094528781529394509290918281019190889088908190840183828082843760009201829052509390945250506001600160e01b0319861681526001602081815260409092208451815584830151805191945061122d9392850192019061151b565b509050507fed948300a3694aa01d4a6b258bfd664350193d770c0b51f8387277f6d83ea3b68382878760405180856001600160e01b0319168152602001848152602001806020018281038252848482818152602001925080828437600083820152604051601f909101601f191690920182900397509095505050505050a15050505050565b3d604051818101604052816000823e82156112cb578181f35b8181fd5b6112d7610483565b6001600160a01b0316336001600160a01b031614610250576040805162461bcd60e51b815260206004820152600f60248201526e6f6e6c7920676f7665726e616e636560881b604482015290519081900360640190fd5b600080826040516020018080602001828103825283818151815260200191508051906020019080838360005b8381101561137257818101518382015260200161135a565b50505050905090810190601f16801561139f5780820380516001836020036101000a031916815260200191505b50925050506040516020818303038152906040528051906020012090506000805b8651811015611407578681815181106113d557fe5b60200260200101518314156113ff578581815181106113f057fe5b60200260200101519150611407565b6001016113c0565b506001600160a01b038116611452576040805162461bcd60e51b815260206004820152600c60248201526b61646472657373207a65726f60a01b604482015290519081900360640190fd5b95945050505050565b7f714f205b2abd25bef1d06a1af944e38c113fe6160375c4e1d6d5cf28848e771955565b6114b082826040518060400160405280600e81526020016d283934b1b2a9bab136b4ba3a32b960911b81525061132e565b600280546001600160a01b0319166001600160a01b03929092169190911790555050565b50805460018160011615610100020316600290046000825580601f106114fa5750611518565b601f01602090049060005260206000209081019061151891906115a7565b50565b828054600181600116156101000203166002900490600052602060002090601f0160209004810192826115515760008555611597565b82601f1061156a57805160ff1916838001178555611597565b82800160010185558215611597579182015b8281111561159757825182559160200191906001019061157c565b506115a39291506115a7565b5090565b5b808211156115a357600081556001016115a8565b80356001600160a01b038116811461089157600080fd5b600082601f8301126115e3578081fd5b813560206115f86115f383611b58565b611b34565b8281528181019085830183850287018401881015611614578586fd5b855b8581101561163957611627826115bc565b84529284019290840190600101611616565b5090979650505050505050565b600082601f830112611656578081fd5b813567ffffffffffffffff81111561166a57fe5b61167d601f8201601f1916602001611b34565b818152846020838601011115611691578283fd5b816020850160208301379081016020019190915292915050565b6000602082840312156116bc578081fd5b6116c5826115bc565b9392505050565b600080604083850312156116de578081fd5b823567ffffffffffffffff808211156116f5578283fd5b611701868387016115d3565b9350602091508185013581811115611717578384fd5b8501601f81018713611727578384fd5b80356117356115f382611b58565b81815284810190838601875b848110156117e157813586016060818e03601f1901121561176057898afd5b604051606081018181108a8211171561177557fe5b604052611783828b016115bc565b8152604082013589811115611796578b8cfd5b6117a48f8c83860101611646565b8b830152506060820135898111156117ba578b8cfd5b6117c88f8c83860101611646565b6040830152508552509287019290870190600101611741565b50979a909950975050505050505050565b60008060408385031215611804578182fd5b823567ffffffffffffffff8082111561181b578384fd5b818501915085601f83011261182e578384fd5b8135602061183e6115f383611b58565b82815281810190858301838502870184018b101561185a578889fd5b8896505b8487101561187c57803583526001969096019591830191830161185e565b5096505086013592505080821115611892578283fd5b5061189f858286016115d3565b9150509250929050565b6000602082840312156118ba578081fd5b5035919050565b6000602082840312156118d2578081fd5b81356001600160e01b0319811681146116c5578182fd5b600080604083850312156118fb578182fd5b823567ffffffffffffffff80821115611912578384fd5b61191e86838701611646565b93506020850135915080821115611933578283fd5b5061189f85828601611646565b600060208284031215611951578081fd5b5051919050565b60008151808452815b8181101561197d57602081850181015186830182015201611961565b8181111561198e5782602083870101525b50601f01601f19169290920160200192915050565b6001600160a01b0391909116815260200190565b901515815260200190565b6000602082526116c56020830184611958565b6000604082526119e86040830185611958565b82810360208401526114528185611958565b60006020808301818452828554600180821660008114611a215760018114611a3f57611a77565b60028304607f16855260ff1983166040890152606088019350611a77565b60028304808652611a4f8a611b76565b885b82811015611a6d5781548b820160400152908401908801611a51565b8a01604001955050505b5091979650505050505050565b6020808252601e908201527f70436861696e5075626c69634b657920616c726561647920696e207573650000604082015260600190565b6020808252601590820152746e6f6465496420616c726561647920696e2075736560581b604082015260600190565b6020808252600f908201526e1b9bdd081dda1a5d195b1a5cdd1959608a1b604082015260600190565b600083825260406020830152611b2c6040830184611958565b949350505050565b60405181810167ffffffffffffffff81118282101715611b5057fe5b604052919050565b600067ffffffffffffffff821115611b6c57fe5b5060209081020190565b6000908152602090209056fea2646970667358221220aa9296e8c8a2cedc7fe204a12885cf17a9469d53e7229c5716de5387bbe26de464736f6c63430007060033",
  "linkReferences": {},
  "deployedLinkReferences": {}
}