{
  "_format": "hh-sol-artifact-1",
  "contractName": "SetClaimExecutorsMock",
  "sourceName": "contracts/claiming/mock/SetClaimExecutorsMock.sol",
  "abi": [
    {
      "inputs": [
        {
          "internalType": "contract ClaimSetupManager",
          "name": "_claimSetupManager",
          "type": "address"
        }
      ],
      "stateMutability": "nonpayable",
      "type": "constructor"
    },
    {
      "inputs": [],
      "name": "claimSetupManager",
      "outputs": [
        {
          "internalType": "contract ClaimSetupManager",
          "name": "",
          "type": "address"
        }
      ],
      "stateMutability": "view",
      "type": "function"
    },
    {
      "inputs": [
        {
          "internalType": "address[]",
          "name": "_executors",
          "type": "address[]"
        }
      ],
      "name": "setClaimExecutors",
      "outputs": [],
      "stateMutability": "payable",
      "type": "function"
    }
  ],
  "bytecode": "0x608060405234801561001057600080fd5b506040516102553803806102558339818101604052602081101561003357600080fd5b5051600080546001600160a01b039092166001600160a01b03199092169190911790556101f0806100656000396000f3fe6080604052600436106100295760003560e01c80639119c4941461002e578063c4db9619146100d3575b600080fd5b6100d16004803603602081101561004457600080fd5b81019060208101813564010000000081111561005f57600080fd5b82018360208201111561007157600080fd5b8035906020019184602083028401116401000000008311171561009357600080fd5b919080806020026020016040519081016040528093929190818152602001838360200280828437600092019190915250929550610104945050505050565b005b3480156100df57600080fd5b506100e86101ab565b604080516001600160a01b039092168252519081900360200190f35b60008054604051632446712560e21b81526020600482018181528551602484015285516001600160a01b0390941694639119c49494349488948493604490920192818701929102908190849084905b8381101561016b578181015183820152602001610153565b50505050905001925050506000604051808303818588803b15801561018f57600080fd5b505af11580156101a3573d6000803e3d6000fd5b505050505050565b6000546001600160a01b03168156fea2646970667358221220e357ef3646af0648d1c2cf449f3767cd5b70b3dbbd3e349e6b9a7875ddef983864736f6c63430007060033",
  "linkReferences": {},
  "deployedLinkReferences": {}
}