{
  "_format": "hh-sol-artifact-1",
  "contractName": "DummyAssetMinter",
  "sourceName": "contracts/mockXAsset/mock/DummyAssetMinter.sol",
  "abi": [
    {
      "inputs": [
        {
          "internalType": "contract AssetToken",
          "name": "mintableToken_",
          "type": "address"
        },
        {
          "internalType": "uint256",
          "name": "maxMintRequestTwei_",
          "type": "uint256"
        }
      ],
      "stateMutability": "nonpayable",
      "type": "constructor"
    },
    {
      "inputs": [
        {
          "internalType": "uint256",
          "name": "epochID",
          "type": "uint256"
        }
      ],
      "name": "addRewardToAgentPosition",
      "outputs": [
        {
          "internalType": "bool",
          "name": "succeess",
          "type": "bool"
        }
      ],
      "stateMutability": "nonpayable",
      "type": "function"
    },
    {
      "inputs": [
        {
          "internalType": "uint256",
          "name": "amount",
          "type": "uint256"
        },
        {
          "internalType": "bytes32",
          "name": "assetAddress",
          "type": "bytes32"
        }
      ],
      "name": "assetRedemptionRequest",
      "outputs": [
        {
          "internalType": "uint256",
          "name": "redemptionId",
          "type": "uint256"
        },
        {
          "internalType": "address[]",
          "name": "agents",
          "type": "address[]"
        },
        {
          "internalType": "uint256[]",
          "name": "assetAmounts",
          "type": "uint256[]"
        }
      ],
      "stateMutability": "nonpayable",
      "type": "function"
    },
    {
      "inputs": [
        {
          "internalType": "uint256",
          "name": "amount",
          "type": "uint256"
        },
        {
          "internalType": "uint256",
          "name": "freshMint",
          "type": "uint256"
        },
        {
          "internalType": "uint256",
          "name": "agentPosition",
          "type": "uint256"
        },
        {
          "internalType": "uint256",
          "name": "freshMintMinRatio",
          "type": "uint256"
        },
        {
          "internalType": "address",
          "name": "natAddress",
          "type": "address"
        },
        {
          "internalType": "enum ICollateralizable.FeeHandling",
          "name": "handling",
          "type": "uint8"
        }
      ],
      "name": "deposit",
      "outputs": [],
      "stateMutability": "nonpayable",
      "type": "function"
    },
    {
      "inputs": [],
      "name": "maxMintRequestTwei",
      "outputs": [
        {
          "internalType": "uint256",
          "name": "",
          "type": "uint256"
        }
      ],
      "stateMutability": "view",
      "type": "function"
    },
    {
      "inputs": [
        {
          "internalType": "uint256",
          "name": "mintAmountTwei",
          "type": "uint256"
        },
        {
          "internalType": "address",
          "name": "mintDestination",
          "type": "address"
        },
        {
          "internalType": "bytes32",
          "name": "underlyingAddress",
          "type": "bytes32"
        }
      ],
      "name": "mintRequest",
      "outputs": [
        {
          "internalType": "uint256",
          "name": "mintRequestId",
          "type": "uint256"
        },
        {
          "internalType": "address[]",
          "name": "agents",
          "type": "address[]"
        },
        {
          "internalType": "uint256[]",
          "name": "assetAmounts",
          "type": "uint256[]"
        },
        {
          "internalType": "bytes32[]",
          "name": "assetAddress",
          "type": "bytes32[]"
        }
      ],
      "stateMutability": "nonpayable",
      "type": "function"
    },
    {
      "inputs": [],
      "name": "mintableToken",
      "outputs": [
        {
          "internalType": "contract AssetToken",
          "name": "",
          "type": "address"
        }
      ],
      "stateMutability": "view",
      "type": "function"
    },
    {
      "inputs": [
        {
          "internalType": "uint256",
          "name": "mintRequestId",
          "type": "uint256"
        },
        {
          "internalType": "bytes32",
          "name": "minterSourceAddress",
          "type": "bytes32"
        },
        {
          "internalType": "bytes32",
          "name": "agentAssetAddress",
          "type": "bytes32"
        },
        {
          "internalType": "bytes32",
          "name": "destinationTag",
          "type": "bytes32"
        },
        {
          "internalType": "uint256",
          "name": "assetAmount",
          "type": "uint256"
        },
        {
          "internalType": "bytes32[]",
          "name": "merkleProof",
          "type": "bytes32[]"
        }
      ],
      "name": "proveMintPayment",
      "outputs": [
        {
          "internalType": "uint256",
          "name": "mintedAmount",
          "type": "uint256"
        }
      ],
      "stateMutability": "nonpayable",
      "type": "function"
    },
    {
      "inputs": [
        {
          "internalType": "uint256",
          "name": "redemptionRequestId",
          "type": "uint256"
        },
        {
          "internalType": "bytes32",
          "name": "agentSourceAssetAddress",
          "type": "bytes32"
        },
        {
          "internalType": "bytes32",
          "name": "redeemerAssetAddress",
          "type": "bytes32"
        },
        {
          "internalType": "bytes32",
          "name": "destinationTag",
          "type": "bytes32"
        },
        {
          "internalType": "uint256",
          "name": "assetAmount",
          "type": "uint256"
        },
        {
          "internalType": "bytes32[]",
          "name": "merkleProof",
          "type": "bytes32[]"
        }
      ],
      "name": "proveRedemptionPayment",
      "outputs": [
        {
          "internalType": "uint256",
          "name": "redeemedAmount",
          "type": "uint256"
        }
      ],
      "stateMutability": "nonpayable",
      "type": "function"
    }
  ],
  "bytecode": "0x60a060405234801561001057600080fd5b506040516106183803806106188339818101604052604081101561003357600080fd5b5080516020909101516001600160601b031960609290921b9190911660805260005560805160601c6105a16100776000398061041f52806104bb52506105a16000f3fe608060405234801561001057600080fd5b50600436106100885760003560e01c8063a0b5661a1161005b578063a0b5661a146102b2578063c36878d91461034b578063e038fc5a1461037c578063f964ba1c1461008d57610088565b806376b963b31461008d57806392687c0b1461012e57806395d38ea8146102455780639ab57fa214610269575b600080fd5b61011c600480360360c08110156100a357600080fd5b8135916020810135916040820135916060810135916080820135919081019060c0810160a08201356401000000008111156100dd57600080fd5b8201836020820111156100ef57600080fd5b8035906020019184602083028401116401000000008311171561011157600080fd5b509092509050610384565b60408051918252519081900360200190f35b6101606004803603606081101561014457600080fd5b508035906001600160a01b0360208201351690604001356103c5565b60405180858152602001806020018060200180602001848103845287818151815260200191508051906020019060200280838360005b838110156101ae578181015183820152602001610196565b50505050905001848103835286818151815260200191508051906020019060200280838360005b838110156101ed5781810151838201526020016101d5565b50505050905001848103825285818151815260200191508051906020019060200280838360005b8381101561022c578181015183820152602001610214565b5050505090500197505050505050505060405180910390f35b61024d6104b9565b604080516001600160a01b039092168252519081900360200190f35b6102b0600480360360c081101561027f57600080fd5b5080359060208101359060408101359060608101359060808101356001600160a01b03169060a0013560ff166104dd565b005b6102d5600480360360408110156102c857600080fd5b508035906020013561051c565b6040518086815260200180602001806020018381038352878782818152602001925060200280828437600083820152601f01601f19169091018481038352858152602090810191508690860280828437600083820152604051601f909101601f1916909201829003995090975050505050505050f35b6103686004803603602081101561036157600080fd5b5035610384565b604080519115158252519081900360200190f35b61011c610565565b6040805162461bcd60e51b815260206004820152600f60248201526e139bdd081a5b5c1b195b595b9d1959608a1b6044820152905160009181900360640190fd5b60006060806060600054871115806103dd5750600054155b61041d576040805162461bcd60e51b815260206004820152600c60248201526b1b585e08195e18d95959195960a21b604482015290519081900360640190fd5b7f00000000000000000000000000000000000000000000000000000000000000006001600160a01b03166340c10f1987896040518363ffffffff1660e01b815260040180836001600160a01b0316815260200182815260200192505050600060405180830381600087803b15801561049457600080fd5b505af11580156104a8573d6000803e3d6000fd5b505050506000935093509350935093565b7f000000000000000000000000000000000000000000000000000000000000000081565b6040805162461bcd60e51b815260206004820152600f60248201526e139bdd081a5b5c1b195b595b9d1959608a1b604482015290519081900360640190fd5b6040805162461bcd60e51b815260206004820152600f60248201526e139bdd081a5b5c1b195b595b9d1959608a1b60448201529051600091369183918391839181900360640190fd5b6000548156fea26469706673582212205b9397ed9ef09d1581a028305631faea1f69d125346cbd72c8ea6b3d5bb2252664736f6c63430007060033",
  "linkReferences": {},
  "deployedLinkReferences": {}
}