{
  "_format": "hh-sol-artifact-1",
  "contractName": "FtsoManagerV1Mock",
  "sourceName": "contracts/ftso/mock/FtsoManagerV1Mock.sol",
  "abi": [
    {
      "inputs": [
        {
          "internalType": "address",
          "name": "_governance",
          "type": "address"
        },
        {
          "internalType": "contract FlareDaemon",
          "name": "_flareDaemon",
          "type": "address"
        },
        {
          "internalType": "contract IIFtsoRegistry",
          "name": "_ftsoRegistry",
          "type": "address"
        },
        {
          "internalType": "contract IIVoterWhitelister",
          "name": "_voterWhitelister",
          "type": "address"
        },
        {
          "internalType": "uint256",
          "name": "_firstPriceEpochStartTs",
          "type": "uint256"
        },
        {
          "internalType": "uint256",
          "name": "_priceEpochDurationSeconds",
          "type": "uint256"
        },
        {
          "internalType": "uint256",
          "name": "_revealEpochDurationSeconds",
          "type": "uint256"
        },
        {
          "internalType": "uint256",
          "name": "_rewardEpochsStartTs",
          "type": "uint256"
        },
        {
          "internalType": "uint256",
          "name": "_rewardEpochDurationSeconds",
          "type": "uint256"
        }
      ],
      "stateMutability": "nonpayable",
      "type": "constructor"
    },
    {
      "anonymous": false,
      "inputs": [
        {
          "indexed": false,
          "internalType": "bytes4",
          "name": "selector",
          "type": "bytes4"
        },
        {
          "indexed": false,
          "internalType": "uint256",
          "name": "allowedAfterTimestamp",
          "type": "uint256"
        },
        {
          "indexed": false,
          "internalType": "bytes",
          "name": "encodedCall",
          "type": "bytes"
        }
      ],
      "name": "GovernanceCallTimelocked",
      "type": "event"
    },
    {
      "anonymous": false,
      "inputs": [
        {
          "indexed": false,
          "internalType": "address",
          "name": "initialGovernance",
          "type": "address"
        }
      ],
      "name": "GovernanceInitialised",
      "type": "event"
    },
    {
      "anonymous": false,
      "inputs": [
        {
          "indexed": false,
          "internalType": "address",
          "name": "governanceSettings",
          "type": "address"
        }
      ],
      "name": "GovernedProductionModeEntered",
      "type": "event"
    },
    {
      "anonymous": false,
      "inputs": [
        {
          "indexed": false,
          "internalType": "bytes4",
          "name": "selector",
          "type": "bytes4"
        },
        {
          "indexed": false,
          "internalType": "uint256",
          "name": "timestamp",
          "type": "uint256"
        }
      ],
      "name": "TimelockedGovernanceCallCanceled",
      "type": "event"
    },
    {
      "anonymous": false,
      "inputs": [
        {
          "indexed": false,
          "internalType": "bytes4",
          "name": "selector",
          "type": "bytes4"
        },
        {
          "indexed": false,
          "internalType": "uint256",
          "name": "timestamp",
          "type": "uint256"
        }
      ],
      "name": "TimelockedGovernanceCallExecuted",
      "type": "event"
    },
    {
      "inputs": [
        {
          "internalType": "contract IIFtso",
          "name": "_ftso",
          "type": "address"
        }
      ],
      "name": "addFtso",
      "outputs": [],
      "stateMutability": "nonpayable",
      "type": "function"
    },
    {
      "inputs": [
        {
          "internalType": "bytes4",
          "name": "_selector",
          "type": "bytes4"
        }
      ],
      "name": "cancelGovernanceCall",
      "outputs": [],
      "stateMutability": "nonpayable",
      "type": "function"
    },
    {
      "inputs": [],
      "name": "daemonize",
      "outputs": [
        {
          "internalType": "bool",
          "name": "",
          "type": "bool"
        }
      ],
      "stateMutability": "nonpayable",
      "type": "function"
    },
    {
      "inputs": [
        {
          "internalType": "bytes4",
          "name": "_selector",
          "type": "bytes4"
        }
      ],
      "name": "executeGovernanceCall",
      "outputs": [],
      "stateMutability": "nonpayable",
      "type": "function"
    },
    {
      "inputs": [],
      "name": "flareDaemon",
      "outputs": [
        {
          "internalType": "contract FlareDaemon",
          "name": "",
          "type": "address"
        }
      ],
      "stateMutability": "view",
      "type": "function"
    },
    {
      "inputs": [],
      "name": "getContractName",
      "outputs": [
        {
          "internalType": "string",
          "name": "",
          "type": "string"
        }
      ],
      "stateMutability": "pure",
      "type": "function"
    },
    {
      "inputs": [],
      "name": "getCurrentRewardEpoch",
      "outputs": [
        {
          "internalType": "uint256",
          "name": "",
          "type": "uint256"
        }
      ],
      "stateMutability": "view",
      "type": "function"
    },
    {
      "inputs": [],
      "name": "getPriceEpochConfiguration",
      "outputs": [
        {
          "internalType": "uint256",
          "name": "_firstPriceEpochStartTs",
          "type": "uint256"
        },
        {
          "internalType": "uint256",
          "name": "_priceEpochDurationSeconds",
          "type": "uint256"
        },
        {
          "internalType": "uint256",
          "name": "_revealEpochDurationSeconds",
          "type": "uint256"
        }
      ],
      "stateMutability": "view",
      "type": "function"
    },
    {
      "inputs": [],
      "name": "governance",
      "outputs": [
        {
          "internalType": "address",
          "name": "",
          "type": "address"
        }
      ],
      "stateMutability": "view",
      "type": "function"
    },
    {
      "inputs": [],
      "name": "governanceSettings",
      "outputs": [
        {
          "internalType": "contract IGovernanceSettings",
          "name": "",
          "type": "address"
        }
      ],
      "stateMutability": "view",
      "type": "function"
    },
    {
      "inputs": [
        {
          "internalType": "address",
          "name": "_initialGovernance",
          "type": "address"
        }
      ],
      "name": "initialise",
      "outputs": [],
      "stateMutability": "nonpayable",
      "type": "function"
    },
    {
      "inputs": [],
      "name": "productionMode",
      "outputs": [
        {
          "internalType": "bool",
          "name": "",
          "type": "bool"
        }
      ],
      "stateMutability": "view",
      "type": "function"
    },
    {
      "inputs": [],
      "name": "rewardEpochDurationSeconds",
      "outputs": [
        {
          "internalType": "uint256",
          "name": "",
          "type": "uint256"
        }
      ],
      "stateMutability": "view",
      "type": "function"
    },
    {
      "inputs": [
        {
          "internalType": "uint256",
          "name": "",
          "type": "uint256"
        }
      ],
      "name": "rewardEpochs",
      "outputs": [
        {
          "internalType": "uint256",
          "name": "votepowerBlock",
          "type": "uint256"
        },
        {
          "internalType": "uint256",
          "name": "startBlock",
          "type": "uint256"
        },
        {
          "internalType": "uint256",
          "name": "startTimestamp",
          "type": "uint256"
        }
      ],
      "stateMutability": "view",
      "type": "function"
    },
    {
      "inputs": [],
      "name": "rewardEpochsStartTs",
      "outputs": [
        {
          "internalType": "uint256",
          "name": "",
          "type": "uint256"
        }
      ],
      "stateMutability": "view",
      "type": "function"
    },
    {
      "inputs": [],
      "name": "switchToFallbackMode",
      "outputs": [
        {
          "internalType": "bool",
          "name": "",
          "type": "bool"
        }
      ],
      "stateMutability": "view",
      "type": "function"
    },
    {
      "inputs": [],
      "name": "switchToProductionMode",
      "outputs": [],
      "stateMutability": "nonpayable",
      "type": "function"
    },
    {
      "inputs": [
        {
          "internalType": "bytes4",
          "name": "",
          "type": "bytes4"
        }
      ],
      "name": "timelockedCalls",
      "outputs": [
        {
          "internalType": "uint256",
          "name": "allowedAfterTimestamp",
          "type": "uint256"
        },
        {
          "internalType": "bytes",
          "name": "encodedCall",
          "type": "bytes"
        }
      ],
      "stateMutability": "view",
      "type": "function"
    }
  ],
  "bytecode": "0x6101406040523480156200001257600080fd5b5060405162001a2738038062001a2783398101604081905262000035916200021c565b888881806001600160a01b038116156200005457620000548162000159565b506001600160a01b038116620000a4576040805162461bcd60e51b815260206004820152601060248201526f5f676f7665726e616e6365207a65726f60801b604482015290519081900360640190fd5b506001600160a01b038116620000f5576040805162461bcd60e51b8152602060048201526011602482015270666c617265206461656d6f6e207a65726f60781b604482015290519081900360640190fd5b60601b6001600160601b03191660805250600380546001600160a01b03199081166001600160a01b03998a161790915560048054909116969097169590951790955560a09290925260c05260e0526101008290526101205260055550620002cf9050565b600054600160a01b900460ff1615620001b9576040805162461bcd60e51b815260206004820152601460248201527f696e697469616c6973656420213d2066616c7365000000000000000000000000604482015290519081900360640190fd5b60008054600160a01b60ff60a01b19909116176001600160a01b0319166001600160a01b03831690811790915560408051918252517f9789733827840833afc031fb2ef9ab6894271f77bad2085687cf4ae5c7bee4db916020908290030190a150565b60008060008060008060008060006101208a8c0312156200023b578485fd5b89516200024881620002b6565b60208b01519099506200025b81620002b6565b60408b01519098506200026e81620002b6565b60608b01519097506200028181620002b6565b8096505060808a0151945060a08a0151935060c08a0151925060e08a015191506101008a015190509295985092959850929598565b6001600160a01b0381168114620002cc57600080fd5b50565b60805160601c60a05160c05160e05161010051610120516116ed6200033a60003980610cd85280610da9525080610eaa52508061028d52806104ed52508061026c52806104cb52508061024b52806104a9525080610bbb5280610e865280610f1c52506116ed6000f3fe608060405234801561001057600080fd5b50600436106101165760003560e01c80639d6a890f116100a2578063e17f212e11610071578063e17f212e14610214578063e22fdece1461021c578063e7c830d414610224578063f5a983831461022c578063f5f5ba721461023457610116565b80639d6a890f146101de578063a1077532146101f1578063a578f55b146101f9578063a795f4091461020157610116565b806362354e03116100e957806362354e031461017857806367fc4029146101805780636d0e8c341461019357806374e6310e146101a857806385f3c9c9146101c957610116565b8063144e15911461011b5780632663f1b41461013b5780635aa6e675146101505780635ff2707914610165575b600080fd5b610123610249565b6040516101329392919061163c565b60405180910390f35b61014e610149366004611419565b6102b1565b005b6101586106d1565b604051610132919061158c565b61014e6101733660046114d5565b610766565b610158610abb565b61014e61018e3660046114d5565b610ac6565b61019b610bae565b60405161013291906115a0565b6101bb6101b63660046114d5565b610d01565b604051610132929190611623565b6101d1610da7565b604051610132919061161a565b61014e6101ec366004611419565b610dcb565b610158610e84565b6101d1610ea8565b61012361020f366004611530565b610ecc565b61019b610eff565b61019b610f0f565b6101d1610f88565b61014e610fb5565b61023c61106f565b60405161013291906115ab565b7f00000000000000000000000000000000000000000000000000000000000000007f00000000000000000000000000000000000000000000000000000000000000007f0000000000000000000000000000000000000000000000000000000000000000909192565b600054600160b01b900460ff16806102d35750600054600160a81b900460ff16155b156106c3576102e061109a565b6000816001600160a01b03166395d89b416040518163ffffffff1660e01b815260040160006040518083038186803b15801561031b57600080fd5b505afa15801561032f573d6000803e3d6000fd5b505050506040513d6000823e601f3d908101601f1916820160405261035791908101906114fd565b60405160200161036791906115ab565b6040516020818303038152906040528051906020012090506000600360009054906101000a90046001600160a01b03166001600160a01b031663ce1c0e4d6040518163ffffffff1660e01b815260040160006040518083038186803b1580156103cf57600080fd5b505afa1580156103e3573d6000803e3d6000fd5b505050506040513d6000823e601f3d908101601f1916820160405261040b919081019061143c565b80519091505b801561048557806001900390508282828151811061042b57fe5b602002602001015160405160200161044391906115ab565b6040516020818303038152906040528051906020012014156104805760405162461bcd60e51b8152600401610477906115f3565b60405180910390fd5b610411565b604051630bc29bcf60e21b81526001600160a01b03851690632f0a6f3c90610515907f0000000000000000000000000000000000000000000000000000000000000000907f0000000000000000000000000000000000000000000000000000000000000000907f00000000000000000000000000000000000000000000000000000000000000009060040161163c565b600060405180830381600087803b15801561052f57600080fd5b505af1158015610543573d6000803e3d6000fd5b50506002541591506105d5905057600280546001600160a01b0386169163e536f39691600019810190811061057457fe5b9060005260206000209060030201600001546040518263ffffffff1660e01b81526004016105a2919061161a565b600060405180830381600087803b1580156105bc57600080fd5b505af11580156105d0573d6000803e3d6000fd5b505050505b600354604051630998fc6d60e21b81526000916001600160a01b031690632663f1b49061060690889060040161158c565b602060405180830381600087803b15801561062057600080fd5b505af1158015610634573d6000803e3d6000fd5b505050506040513d601f19601f820116820180604052508101906106589190611548565b60048054604051630d15c16960e21b81529293506001600160a01b03169163345705a4916106889185910161161a565b600060405180830381600087803b1580156106a257600080fd5b505af11580156106b6573d6000803e3d6000fd5b50505050505050506106ce565b6106ce6000366110d1565b50565b60008054600160a81b900460ff166106f4576000546001600160a01b0316610761565b60076001609c1b016001600160a01b031663732524946040518163ffffffff1660e01b815260040160206040518083038186803b15801561073457600080fd5b505afa158015610748573d6000803e3d6000fd5b505050506040513d602081101561075e57600080fd5b50515b905090565b60408051630debfda360e41b8152336004820152905160076001609c1b019163debfda30916024808301926020929190829003018186803b1580156107aa57600080fd5b505afa1580156107be573d6000803e3d6000fd5b505050506040513d60208110156107d457600080fd5b5051610817576040805162461bcd60e51b815260206004820152600d60248201526c37b7363c9032bc32b1baba37b960991b604482015290519081900360640190fd5b6001600160e01b0319811660009081526001602052604090208054610883576040805162461bcd60e51b815260206004820152601a60248201527f74696d656c6f636b3a20696e76616c69642073656c6563746f72000000000000604482015290519081900360640190fd5b80544210156108d9576040805162461bcd60e51b815260206004820152601960248201527f74696d656c6f636b3a206e6f7420616c6c6f7765642079657400000000000000604482015290519081900360640190fd5b6000816001018054600181600116156101000203166002900480601f0160208091040260200160405190810160405280929190818152602001828054600181600116156101000203166002900480156109735780601f1061094857610100808354040283529160200191610973565b820191906000526020600020905b81548152906001019060200180831161095657829003601f168201915b5050506001600160e01b03198616600090815260016020819052604082208281559495509092506109a791508301826112d0565b50506000805460ff60b01b1916600160b01b178155604051825130918491819060208401908083835b602083106109ef5780518252601f1990920191602091820191016109d0565b6001836020036101000a0380198251168184511680821785525050505050509050019150506000604051808303816000865af19150503d8060008114610a51576040519150601f19603f3d011682016040523d82523d6000602084013e610a56565b606091505b50506000805460ff60b01b19169055604080516001600160e01b03198716815242602082015281519293507fa7326b57fc9cfe267aaea5e7f0b01757154d265620a0585819416ee9ddd2c438929081900390910190a1610ab581611254565b50505050565b60076001609c1b0181565b610ace611271565b6001600160e01b03198116600090815260016020526040902054610b39576040805162461bcd60e51b815260206004820152601a60248201527f74696d656c6f636b3a20696e76616c69642073656c6563746f72000000000000604482015290519081900360640190fd5b604080516001600160e01b03198316815242602082015281517f7735b2391c38a81419c513e30ca578db7158eadd7101511b23e221c654d19cf8929181900390910190a16001600160e01b03198116600090815260016020819052604082208281559190610ba9908301826112d0565b505050565b6000336001600160a01b037f00000000000000000000000000000000000000000000000000000000000000001614610c21576040805162461bcd60e51b815260206004820152601160248201527037b7363c90333630b932903230b2b6b7b760791b604482015290519081900360640190fd5b4260055411610cfb5760408051606081018252436000198101825260208201908152429282019283526002805460018101825560009190915291517f405787fa12a823e0f2b7631cc41b3ba8828b3321ca811111fa75cd3aa3bb5ace600390930292830155517f405787fa12a823e0f2b7631cc41b3ba8828b3321ca811111fa75cd3aa3bb5acf82015590517f405787fa12a823e0f2b7631cc41b3ba8828b3321ca811111fa75cd3aa3bb5ad090910155600580547f00000000000000000000000000000000000000000000000000000000000000000190555b50600190565b600160208181526000928352604092839020805481840180548651600296821615610100026000190190911695909504601f81018590048502860185019096528585529094919392909190830182828015610d9d5780601f10610d7257610100808354040283529160200191610d9d565b820191906000526020600020905b815481529060010190602001808311610d8057829003601f168201915b5050505050905082565b7f000000000000000000000000000000000000000000000000000000000000000081565b600054600160a01b900460ff1615610e21576040805162461bcd60e51b8152602060048201526014602482015273696e697469616c6973656420213d2066616c736560601b604482015290519081900360640190fd5b60008054600160a01b60ff60a01b19909116176001600160a01b0319166001600160a01b03831690811790915560408051918252517f9789733827840833afc031fb2ef9ab6894271f77bad2085687cf4ae5c7bee4db916020908290030190a150565b7f000000000000000000000000000000000000000000000000000000000000000081565b7f000000000000000000000000000000000000000000000000000000000000000081565b60028181548110610edc57600080fd5b600091825260209091206003909102018054600182015460029092015490925083565b600054600160a81b900460ff1681565b6000336001600160a01b037f00000000000000000000000000000000000000000000000000000000000000001614610f82576040805162461bcd60e51b815260206004820152601160248201527037b7363c90333630b932903230b2b6b7b760791b604482015290519081900360640190fd5b50600090565b600254600090610faa5760405162461bcd60e51b8152600401610477906115be565b506002546000190190565b610fbd611271565b600054600160a81b900460ff161561101c576040805162461bcd60e51b815260206004820152601a60248201527f616c726561647920696e2070726f64756374696f6e206d6f6465000000000000604482015290519081900360640190fd5b60008054600161ff0160a01b031916600160a81b1790556040805160076001609c1b01815290517f83af113638b5422f9e977cebc0aaf0eaf2188eb9a8baae7f9d46c42b33a1560c9181900360200190a1565b6040805180820190915260118152704674736f4d616e6167657256314d6f636b60781b602082015290565b600054600160b01b900460ff16156110c7573330146110b557fe5b6000805460ff60b01b191690556110cf565b6110cf611271565b565b6110d9611271565b600082359050600060076001609c1b016001600160a01b0316636221a54b6040518163ffffffff1660e01b815260040160206040518083038186803b15801561112157600080fd5b505afa158015611135573d6000803e3d6000fd5b505050506040513d602081101561114b57600080fd5b505160408051808201825242830180825282516020601f89018190048102820181019094528781529394509290918281019190889088908190840183828082843760009201829052509390945250506001600160e01b031986168152600160208181526040909220845181558483015180519194506111cf93928501920190611314565b509050507fed948300a3694aa01d4a6b258bfd664350193d770c0b51f8387277f6d83ea3b68382878760405180856001600160e01b0319168152602001848152602001806020018281038252848482818152602001925080828437600083820152604051601f909101601f191690920182900397509095505050505050a15050505050565b3d604051818101604052816000823e821561126d578181f35b8181fd5b6112796106d1565b6001600160a01b0316336001600160a01b0316146110cf576040805162461bcd60e51b815260206004820152600f60248201526e6f6e6c7920676f7665726e616e636560881b604482015290519081900360640190fd5b50805460018160011615610100020316600290046000825580601f106112f657506106ce565b601f0160209004906000526020600020908101906106ce91906113a0565b828054600181600116156101000203166002900490600052602060002090601f01602090048101928261134a5760008555611390565b82601f1061136357805160ff1916838001178555611390565b82800160010185558215611390579182015b82811115611390578251825591602001919060010190611375565b5061139c9291506113a0565b5090565b5b8082111561139c57600081556001016113a1565b600082601f8301126113c5578081fd5b815167ffffffffffffffff8111156113d957fe5b6113ec601f8201601f1916602001611652565b818152846020838601011115611400578283fd5b611411826020830160208701611676565b949350505050565b60006020828403121561142a578081fd5b8135611435816116a2565b9392505050565b6000602080838503121561144e578182fd5b825167ffffffffffffffff80821115611465578384fd5b818501915085601f830112611478578384fd5b81518181111561148457fe5b6114918485830201611652565b8181528481019250838501865b838110156114c7576114b58a8884518901016113b5565b8552938601939086019060010161149e565b509098975050505050505050565b6000602082840312156114e6578081fd5b81356001600160e01b031981168114611435578182fd5b60006020828403121561150e578081fd5b815167ffffffffffffffff811115611524578182fd5b611411848285016113b5565b600060208284031215611541578081fd5b5035919050565b600060208284031215611559578081fd5b5051919050565b60008151808452611578816020860160208601611676565b601f01601f19169290920160200192915050565b6001600160a01b0391909116815260200190565b901515815260200190565b6000602082526114356020830184611560565b6020808252818101527f5265776172642065706f6368206e6f7420696e697469616c697a656420796574604082015260600190565b6020808252600d908201526c105b1c9958591e481859191959609a1b604082015260600190565b90815260200190565b6000838252604060208301526114116040830184611560565b9283526020830191909152604082015260600190565b60405181810167ffffffffffffffff8111828210171561166e57fe5b604052919050565b60005b83811015611691578181015183820152602001611679565b83811115610ab55750506000910152565b6001600160a01b03811681146106ce57600080fdfea26469706673582212201d96a61bd30ee0b874f0fde7e9855fdd4282a884da40b038ebd62d59dab5e72064736f6c63430007060033",
  "linkReferences": {},
  "deployedLinkReferences": {}
}