{
  "_format": "hh-sol-artifact-1",
  "contractName": "GovernedWithTimelockMock",
  "sourceName": "contracts/governance/mock/GovernedWithTimelockMock.sol",
  "abi": [
    {
      "inputs": [
        {
          "internalType": "address",
          "name": "_governance",
          "type": "address"
        }
      ],
      "stateMutability": "nonpayable",
      "type": "constructor"
    },
    {
      "anonymous": false,
      "inputs": [
        {
          "indexed": false,
          "internalType": "bytes4",
          "name": "selector",
          "type": "bytes4"
        },
        {
          "indexed": false,
          "internalType": "uint256",
          "name": "allowedAfterTimestamp",
          "type": "uint256"
        },
        {
          "indexed": false,
          "internalType": "bytes",
          "name": "encodedCall",
          "type": "bytes"
        }
      ],
      "name": "GovernanceCallTimelocked",
      "type": "event"
    },
    {
      "anonymous": false,
      "inputs": [
        {
          "indexed": false,
          "internalType": "address",
          "name": "initialGovernance",
          "type": "address"
        }
      ],
      "name": "GovernanceInitialised",
      "type": "event"
    },
    {
      "anonymous": false,
      "inputs": [
        {
          "indexed": false,
          "internalType": "address",
          "name": "governanceSettings",
          "type": "address"
        }
      ],
      "name": "GovernedProductionModeEntered",
      "type": "event"
    },
    {
      "anonymous": false,
      "inputs": [
        {
          "indexed": false,
          "internalType": "bytes4",
          "name": "selector",
          "type": "bytes4"
        },
        {
          "indexed": false,
          "internalType": "uint256",
          "name": "timestamp",
          "type": "uint256"
        }
      ],
      "name": "TimelockedGovernanceCallCanceled",
      "type": "event"
    },
    {
      "anonymous": false,
      "inputs": [
        {
          "indexed": false,
          "internalType": "bytes4",
          "name": "selector",
          "type": "bytes4"
        },
        {
          "indexed": false,
          "internalType": "uint256",
          "name": "timestamp",
          "type": "uint256"
        }
      ],
      "name": "TimelockedGovernanceCallExecuted",
      "type": "event"
    },
    {
      "inputs": [],
      "name": "a",
      "outputs": [
        {
          "internalType": "uint256",
          "name": "",
          "type": "uint256"
        }
      ],
      "stateMutability": "view",
      "type": "function"
    },
    {
      "inputs": [],
      "name": "b",
      "outputs": [
        {
          "internalType": "uint256",
          "name": "",
          "type": "uint256"
        }
      ],
      "stateMutability": "view",
      "type": "function"
    },
    {
      "inputs": [
        {
          "internalType": "bytes4",
          "name": "_selector",
          "type": "bytes4"
        }
      ],
      "name": "cancelGovernanceCall",
      "outputs": [],
      "stateMutability": "nonpayable",
      "type": "function"
    },
    {
      "inputs": [
        {
          "internalType": "uint256",
          "name": "_value",
          "type": "uint256"
        }
      ],
      "name": "changeA",
      "outputs": [],
      "stateMutability": "nonpayable",
      "type": "function"
    },
    {
      "inputs": [
        {
          "internalType": "uint256",
          "name": "_value",
          "type": "uint256"
        }
      ],
      "name": "changeB",
      "outputs": [],
      "stateMutability": "nonpayable",
      "type": "function"
    },
    {
      "inputs": [
        {
          "internalType": "uint256",
          "name": "_value",
          "type": "uint256"
        }
      ],
      "name": "changeWithRevert",
      "outputs": [],
      "stateMutability": "nonpayable",
      "type": "function"
    },
    {
      "inputs": [
        {
          "internalType": "bytes4",
          "name": "_selector",
          "type": "bytes4"
        }
      ],
      "name": "executeGovernanceCall",
      "outputs": [],
      "stateMutability": "nonpayable",
      "type": "function"
    },
    {
      "inputs": [],
      "name": "governance",
      "outputs": [
        {
          "internalType": "address",
          "name": "",
          "type": "address"
        }
      ],
      "stateMutability": "view",
      "type": "function"
    },
    {
      "inputs": [],
      "name": "governanceSettings",
      "outputs": [
        {
          "internalType": "contract IGovernanceSettings",
          "name": "",
          "type": "address"
        }
      ],
      "stateMutability": "view",
      "type": "function"
    },
    {
      "inputs": [
        {
          "internalType": "uint256",
          "name": "_increment",
          "type": "uint256"
        }
      ],
      "name": "increaseA",
      "outputs": [],
      "stateMutability": "nonpayable",
      "type": "function"
    },
    {
      "inputs": [
        {
          "internalType": "address",
          "name": "_initialGovernance",
          "type": "address"
        }
      ],
      "name": "initialise",
      "outputs": [],
      "stateMutability": "nonpayable",
      "type": "function"
    },
    {
      "inputs": [],
      "name": "productionMode",
      "outputs": [
        {
          "internalType": "bool",
          "name": "",
          "type": "bool"
        }
      ],
      "stateMutability": "view",
      "type": "function"
    },
    {
      "inputs": [],
      "name": "switchToProductionMode",
      "outputs": [],
      "stateMutability": "nonpayable",
      "type": "function"
    },
    {
      "inputs": [
        {
          "internalType": "bytes4",
          "name": "",
          "type": "bytes4"
        }
      ],
      "name": "timelockedCalls",
      "outputs": [
        {
          "internalType": "uint256",
          "name": "allowedAfterTimestamp",
          "type": "uint256"
        },
        {
          "internalType": "bytes",
          "name": "encodedCall",
          "type": "bytes"
        }
      ],
      "stateMutability": "view",
      "type": "function"
    }
  ],
  "bytecode": "0x608060405234801561001057600080fd5b50604051610fcc380380610fcc8339818101604052602081101561003357600080fd5b505180806001600160a01b0381161561004f5761004f816100a5565b506001600160a01b03811661009e576040805162461bcd60e51b815260206004820152601060248201526f5f676f7665726e616e6365207a65726f60801b604482015290519081900360640190fd5b5050610167565b600054600160a01b900460ff1615610104576040805162461bcd60e51b815260206004820152601460248201527f696e697469616c6973656420213d2066616c7365000000000000000000000000604482015290519081900360640190fd5b60008054600160a01b60ff60a01b19909116176001600160a01b0319166001600160a01b03831690811790915560408051918252517f9789733827840833afc031fb2ef9ab6894271f77bad2085687cf4ae5c7bee4db916020908290030190a150565b610e56806101766000396000f3fe608060405234801561001057600080fd5b50600436106100ea5760003560e01c806374e6310e1161008c578063d179619111610066578063d179619114610293578063e17f212e146102b0578063f5a98383146102cc578063fcbfcc71146102d4576100ea565b806374e6310e146101aa5780639d6a890f14610250578063aa4f49ce14610276576100ea565b80635ff27079116100c85780635ff270791461013557806362354e031461015e57806366ff86bd1461016657806367fc402914610183576100ea565b80630dbe671f146100ef5780634df7e3d0146101095780635aa6e67514610111575b600080fd5b6100f76102f1565b60408051918252519081900360200190f35b6100f76102f7565b6101196102fd565b604080516001600160a01b039092168252519081900360200190f35b61015c6004803603602081101561014b57600080fd5b50356001600160e01b031916610392565b005b6101196106e7565b61015c6004803603602081101561017c57600080fd5b50356106f2565b61015c6004803603602081101561019957600080fd5b50356001600160e01b0319166106ff565b6101d1600480360360208110156101c057600080fd5b50356001600160e01b0319166107e7565b6040518083815260200180602001828103825283818151815260200191508051906020019080838360005b838110156102145781810151838201526020016101fc565b50505050905090810190601f1680156102415780820380516001836020036101000a031916815260200191505b50935050505060405180910390f35b61015c6004803603602081101561026657600080fd5b50356001600160a01b031661088d565b61015c6004803603602081101561028c57600080fd5b5035610946565b61015c600480360360208110156102a957600080fd5b5035610990565b6102b8610a02565b604080519115158252519081900360200190f35b61015c610a12565b61015c600480360360208110156102ea57600080fd5b5035610acc565b60025481565b60035481565b60008054600160a81b900460ff16610320576000546001600160a01b031661038d565b60076001609c1b016001600160a01b031663732524946040518163ffffffff1660e01b815260040160206040518083038186803b15801561036057600080fd5b505afa158015610374573d6000803e3d6000fd5b505050506040513d602081101561038a57600080fd5b50515b905090565b60408051630debfda360e41b8152336004820152905160076001609c1b019163debfda30916024808301926020929190829003018186803b1580156103d657600080fd5b505afa1580156103ea573d6000803e3d6000fd5b505050506040513d602081101561040057600080fd5b5051610443576040805162461bcd60e51b815260206004820152600d60248201526c37b7363c9032bc32b1baba37b960991b604482015290519081900360640190fd5b6001600160e01b03198116600090815260016020526040902080546104af576040805162461bcd60e51b815260206004820152601a60248201527f74696d656c6f636b3a20696e76616c69642073656c6563746f72000000000000604482015290519081900360640190fd5b8054421015610505576040805162461bcd60e51b815260206004820152601960248201527f74696d656c6f636b3a206e6f7420616c6c6f7765642079657400000000000000604482015290519081900360640190fd5b6000816001018054600181600116156101000203166002900480601f01602080910402602001604051908101604052809291908181526020018280546001816001161561010002031660029004801561059f5780601f106105745761010080835404028352916020019161059f565b820191906000526020600020905b81548152906001019060200180831161058257829003601f168201915b5050506001600160e01b03198616600090815260016020819052604082208281559495509092506105d39150830182610d3b565b50506000805460ff60b01b1916600160b01b178155604051825130918491819060208401908083835b6020831061061b5780518252601f1990920191602091820191016105fc565b6001836020036101000a0380198251168184511680821785525050505050509050019150506000604051808303816000865af19150503d806000811461067d576040519150601f19603f3d011682016040523d82523d6000602084013e610682565b606091505b50506000805460ff60b01b19169055604080516001600160e01b03198716815242602082015281519293507fa7326b57fc9cfe267aaea5e7f0b01757154d265620a0585819416ee9ddd2c438929081900390910190a16106e181610b05565b50505050565b60076001609c1b0181565b6106fa610b22565b600355565b610707610b22565b6001600160e01b03198116600090815260016020526040902054610772576040805162461bcd60e51b815260206004820152601a60248201527f74696d656c6f636b3a20696e76616c69642073656c6563746f72000000000000604482015290519081900360640190fd5b604080516001600160e01b03198316815242602082015281517f7735b2391c38a81419c513e30ca578db7158eadd7101511b23e221c654d19cf8929181900390910190a16001600160e01b031981166000908152600160208190526040822082815591906107e290830182610d3b565b505050565b600160208181526000928352604092839020805481840180548651600296821615610100026000190190911695909504601f810185900485028601850190965285855290949193929091908301828280156108835780601f1061085857610100808354040283529160200191610883565b820191906000526020600020905b81548152906001019060200180831161086657829003601f168201915b5050505050905082565b600054600160a01b900460ff16156108e3576040805162461bcd60e51b8152602060048201526014602482015273696e697469616c6973656420213d2066616c736560601b604482015290519081900360640190fd5b60008054600160a01b60ff60a01b19909116176001600160a01b0319166001600160a01b03831690811790915560408051918252517f9789733827840833afc031fb2ef9ab6894271f77bad2085687cf4ae5c7bee4db916020908290030190a150565b600054600160b01b900460ff16806109685750600054600160a81b900460ff16155b1561098257610975610b83565b600280548201905561098d565b61098d600036610bb8565b50565b600054600160b01b900460ff16806109b25750600054600160a81b900460ff16155b15610982576109bf610b83565b60028190556040805162461bcd60e51b815260206004820152600e60248201526d1d1a1a5cc81a5cc81c995d995c9d60921b604482015290519081900360640190fd5b600054600160a81b900460ff1681565b610a1a610b22565b600054600160a81b900460ff1615610a79576040805162461bcd60e51b815260206004820152601a60248201527f616c726561647920696e2070726f64756374696f6e206d6f6465000000000000604482015290519081900360640190fd5b60008054600161ff0160a01b031916600160a81b1790556040805160076001609c1b01815290517f83af113638b5422f9e977cebc0aaf0eaf2188eb9a8baae7f9d46c42b33a1560c9181900360200190a1565b600054600160b01b900460ff1680610aee5750600054600160a81b900460ff16155b1561098257610afb610b83565b600281905561098d565b3d604051818101604052816000823e8215610b1e578181f35b8181fd5b610b2a6102fd565b6001600160a01b0316336001600160a01b031614610b81576040805162461bcd60e51b815260206004820152600f60248201526e6f6e6c7920676f7665726e616e636560881b604482015290519081900360640190fd5b565b600054600160b01b900460ff1615610bb057333014610b9e57fe5b6000805460ff60b01b19169055610b81565b610b81610b22565b610bc0610b22565b600082359050600060076001609c1b016001600160a01b0316636221a54b6040518163ffffffff1660e01b815260040160206040518083038186803b158015610c0857600080fd5b505afa158015610c1c573d6000803e3d6000fd5b505050506040513d6020811015610c3257600080fd5b505160408051808201825242830180825282516020601f89018190048102820181019094528781529394509290918281019190889088908190840183828082843760009201829052509390945250506001600160e01b03198616815260016020818152604090922084518155848301518051919450610cb693928501920190610d7f565b509050507fed948300a3694aa01d4a6b258bfd664350193d770c0b51f8387277f6d83ea3b68382878760405180856001600160e01b0319168152602001848152602001806020018281038252848482818152602001925080828437600083820152604051601f909101601f191690920182900397509095505050505050a15050505050565b50805460018160011615610100020316600290046000825580601f10610d61575061098d565b601f01602090049060005260206000209081019061098d9190610e0b565b828054600181600116156101000203166002900490600052602060002090601f016020900481019282610db55760008555610dfb565b82601f10610dce57805160ff1916838001178555610dfb565b82800160010185558215610dfb579182015b82811115610dfb578251825591602001919060010190610de0565b50610e07929150610e0b565b5090565b5b80821115610e075760008155600101610e0c56fea26469706673582212205ea34f8c466468038afd7a6df4b28e21a39b7c7cb22cb1d6aed4173bf96a67e864736f6c63430007060033",
  "linkReferences": {},
  "deployedLinkReferences": {}
}